:020000022000DC
:1070000000000220B5130400DD130400DF130400A8
:10701000E1130400E3130400E51304000000000082
:10702000000000000000000000000000E713040062
:10703000E913040000000000EB130400ED1304004A
:1070400089670300CD89020095850300656D030003
:10705000B5680300EF130400EF130400EF130400FE
:10706000EF130400EF130400EF130400EF13040008
:10707000EF130400EF130400EF130400EF130400F8
:10708000EF13040089250300EF130400EF1304003D
:10709000EF130400EF130400095F0300EF13040073
:1070A000EF130400D5890200D1890200A16C03000E
:1070B000EF130400EF1304000000000000000000C4
:1070C000EF130400EF130400EF130400C56803007E
:1070D000EF130400EF130400EF130400B182030068
:1070E000EF1304000000000000000000000000009A
:1070F00000000000EF13040000000000EF13040084
:10710000000000000000000000000000000000007F
:10711000000000000000000000000000000000006F
:10712000000000000000000000000000000000005F
:10713000000000000000000000000000000000004F
:10714000000000000000000000000000000000003F
:10715000000000000000000000000000000000002F
:10716000000000000000000000000000000000001F
:10717000000000000000000000000000000000000F
:1071800000000000000000000000000000000000FF
:1071900000000000000000000000000000000000EF
:1071A00000000000000000000000000000000000DF
:1071B00000000000000000000000000000000000CF
:1071C00000000000000000000000000000000000BF
:1071D00000000000000000000000000000000000AF
:1071E000000000000000000000000000000000009F
:1071F000000000000000000000000000000000008F
:107200000348044B834202D0034B03B11847704735
:10721000145E0020145E00200000000005480649AE
:107220000B1AD90F01EBA301491002D0034B03B194
:1072300018477047145E0020145E00200000000014
:1072400010B5064C237843B9FFF7DAFF044B13B1AE
:107250000448AFF300800123237010BD705F00204D
:1072600000000000C4BF040008B5044B1BB1044972
:107270000448AFF30080BDE80840CFE700000000FD
:10728000745F0020C4BF0400A3F5803A704700BFBC
:10729000154B002B08BF114B9D46FFF7F5FF002152
:1072A0008B460F461148124A121A00F079F80C4B1F
:1072B000002B00D098470B4B002B00D098470020A4
:1072C000002104000D000B4800F016F800F044F80F
:1072D0002000290011F028FB00F014F8000008003D
:1072E000000000000000000000000220705F00208D
:1072F000402701202D730200002301461A4618463C
:1073000000F0A0B808B5074B044613B1002100F007
:10731000EFF8054B1868836A03B19847204600F0E0
:107320004BF900BFF17402007C75040038B5084BBE
:10733000084D5B1B9C1007D0043B1D44013C55F8D5
:1073400004399847002CF9D1BDE8384020F010B935
:10735000145E0020105E002070B50D4E0D4D761BA2
:10736000B61006D0002455F8043B01349847A642D5
:10737000F9D1094E094D761B20F0F4F8B61006D06D
:10738000002455F8043B01349847A642F9D170BD5A
:10739000BC5D0020BC5D0020105E0020BC5D0020B4
:1073A000830730B548D0541E002A3FD0CAB20346E6
:1073B00001E0013C3AD303F8012B9D07F9D1032CDE
:1073C0002DD9CDB245EA05250F2C45EA054536D91C
:1073D000A4F1100222F00F0C03F1200EE6444FEA54
:1073E000121C03F1100242E9045542E90255103221
:1073F0007245F8D10CF1010214F00C0F03EB0212EC
:1074000004F00F0C13D0ACF1040323F00303043396
:10741000134442F8045B9342FBD10CF003042CB1FB
:10742000CAB21C4403F8012B9C42FBD130BD644618
:107430001346002CF4D1F9E703461446BFE71A4679
:10744000A446E0E7F0B5264C256885B0064605B3AE
:107450006C681F2C41DCA6B1D5F8880048B3D0F881
:10746000007140F824204FF0010C0CFA04FC00EBF2
:1074700084024CEA0707022EC0F80071C2F880307F
:1074800010D0A31C01346C6045F82310002005B017
:10749000F0BD1448144D25600028D9D00068C5F807
:1074A0008800D5E7D0F8043143EA0C03C0F8043172
:1074B000E7E70E480191CDE9022370B14FF48470E3
:1074C0001EF086FC48B10027C0E94077DDE90223C1
:1074D0006C680199C5F88800C3E74FF0FF30D6E724
:1074E00018600020000000008C5F0020D15D0400C7
:1074F0002DE9F84FDFF8BCA0DAF800702DED028B13
:10750000E7B108EE100A89467D68D7F888806C1EBE
:1075100014D407EB8506043608EB8505B9F1000F96
:1075200010D0B8F1000F02D0EB6F4B450AD0013CF0
:10753000631CA5F10405A6F10406EFD1BDEC028B96
:10754000BDE8F88F7B683268013BA34216BF002379
:107550007C603360002AEAD0D7F804B0B8F1000F9D
:107560001AD0D8F80001012303FA04F1014213D024
:10757000D8F80401014218D155F8041C18EE100A7D
:1075800090477A685A450BD1DAF80030BB42CED02A
:107590001F46002FB8D1D1E790477A685A45F3D0FB
:1075A000DAF80070002FAFD1C8E755F8040C904707
:1075B000E7E700BF18600020FEE700BF4FF08053F0
:1075C000D3F83001A0F10D03584258417047000034
:1075D000024AD2F80034002BFBD0704700E0014093
:1075E00008B5FFF7EBFF40B14FF080430022C3F82E
:1075F0000C21C3F81021C3F83825FFF7DFFF00285E
:1076000046D04FF080524E4BD2F80414C3F82015E8
:10761000D2F80814C3F82415D2F80C14C3F82815AE
:10762000D2F81014C3F82C15D2F81414C3F830157E
:10763000D2F81814C3F83415D2F81C14C3F8401546
:10764000D2F82014C3F84415D2F82414C3F848150E
:10765000D2F82814C3F84C15D2F82C14C3F85015DE
:10766000D2F83014C3F85415D2F83414C3F86015A6
:10767000D2F83814C3F86415D2F83C14C3F868156E
:10768000D2F84014C3F86C15D2F84424C3F870251E
:10769000FFF794FF48B14FF08043D3F80024D2079E
:1076A00044BF6FF00102C3F80024264AD2F88830A4
:1076B00043F47003C2F88830BFF34F8FBFF36F8F6E
:1076C0004FF08053D3F830210D2A0ED1D3F8343146
:1076D000022B02D81C4AD35C3BB14FF01023D3F8E5
:1076E00008224FF08043C3F858254FF01021D1F8FD
:1076F0000C32DB071FD515480123C0F80435FFF70E
:1077000067FFD1F80C3223F00103C1F80C32FFF708
:107710005FFF0023C0F80435FFF75AFFBFF34F8F18
:1077200008490B4BCA6802F4E0621343CB60BFF315
:107730004F8F00BFFDE7074B074A1A6008BD00BF27
:1077400000C0004000ED00E08075040000E0014052
:107750000400FA05E05900200090D00376DF70475E
:1077600078DF70477ADF70477CDF70478FDF7047C4
:1077700033DF70470EF041BA13B50388212B04465E
:1077800049D005D8102B12D0112B2ED002B010BD2D
:107790003B2B5CD0562BF9D1364B5B88032B64D93D
:1077A0003548364B3649C01AC008000459E0314B01
:1077B0005B88022B09D93048304B3249C01AC008C7
:1077C000000440F003000AF069F92F4BA1882F480C
:1077D00001221A702E4B198004F052FD0028D5D0DA
:1077E00002B0BDE810400EF008BA224B5B88022BB5
:1077F00009D92148214B2749C01AC008000440F08C
:1078000003000AF04BF9204B00221A70204B4FF670
:10781000FF721A80BAE7174B5B88032B09D9164809
:10782000164B1D49C01AC008000440F004000AF0BD
:1078300035F90023A0888DF8043001A98DF80530B2
:10784000FFF794FF0028A1D00EF0D7F99EE7094B6F
:107850005B88032B09D90848084B1049C01AC00897
:10786000000440F004000AF019F9A0881321FFF782
:1078700075FFB3E7605E0020E0C0040098C004001C
:10788000F575040083750400D46000208065002035
:10789000E859002099750400B2750400D3750400FE
:1078A0007FB508220346019201A94FF6FF7202A894
:1078B00006F024FD08B10EF0A0F9019902A806F027
:1078C000F5FC08B10EF099F907B05DF804FB000073
:1078D00000B5B3B0082800F29480DFE800F04E0550
:1078E00017222D3843689500534B5B88022B40F2DA
:1078F00088805248524B5349C01AC008000440F0D7
:10790000030033B05DF804EB0AF0C8B84A4B5B885B
:10791000022B76D949484A4B4B49C01AC00800048B
:10792000EDE7454B5B88022B6BD94448444B4749F4
:10793000C01AC0080004E2E73F4B5B88022B60D905
:107940003E483F4B4249C01AC0080004D7E73A4BB3
:107950005B88022B55D93948394B3E49C01AC008BB
:107960000004CCE7344B5B88022B4AD93348344BB4
:107970003949C01AC0080004C1E72F4B5B88022BAD
:1079800009D92E482E4B3549C01AC008000440F0D2
:1079900003000AF083F809F005FF0028FBD1FFF788
:1079A000E7FE70B333B05DF804EB0EF026B90823A0
:1079B000CDE9023312AA03AB02A904A806F05EFCCB
:1079C00008B10EF01AF91C4B5B88032B0BD91C4B2A
:1079D0001A482349C01AC0080004DDE9022340F018
:1079E00004000AF068F80220FFF75AFF039B009397
:1079F000029A1C4812AB04A902F010FB08B10EF069
:107A0000FCF833B05DF804FB174B18884FF6FF7392
:107A10009842F6D012A906F02BFD0528F1D008B146
:107A20000EF0EBF80620FFF73BFF0DF159010D4872
:107A300002F0E4FAE2E700BF605E0020E0C004006C
:107A400098C00400177604004476040067760400AA
:107A500086760400A5760400D3760400017704003E
:107A60001F770400F86000207C65002007B50B78C4
:107A7000052B18D0062B1CD0042B17D18B79022B89
:107A800014D1CB7993B90C4A01920C4A0C48128854
:107A900000921946012203F0F2FA38B103B05DF802
:107AA00004EB0EF0AAB8074B01221A7003B05DF880
:107AB00004FB044B0022F8E794650020E8590020FD
:107AC000EC590020D560002030B587B00823019321
:107AD0004FF6FF72012301A902A806F00FFC08B1BE
:107AE0000EF08BF8144D6B88022B0BD9134B1448F6
:107AF000019A1449C01AC0080004082340F003008A
:107B000009F0D9FF019902A806F0AEFB6B88022BA1
:107B100004460AD909480A4B0B491B1ADB081B0407
:107B2000224643F0030009F0BDFF14B120460EF0D9
:107B300064F807B030BD00BF605E002098C004004C
:107B4000E0C0040072770400AB77040010B504466F
:107B500007F094F9204607F0BBF9204606F0EEFE48
:107B60002378033B0A2B1CD8DFE803F0061B1B1B02
:107B70001B1B421B1C1B2F00294B5B88032B09D9A5
:107B80002848294B2949C01AC008000440F00400C5
:107B900009F084FF09F006FE0028FBD1244BA288DF
:107BA0001A8010BD1E4B5B88032B09D91D481E4B44
:107BB0002049C01AC008000440F0040009F06EFF1C
:107BC00009F0F0FD0028FBD1EBE7154B5B88032B98
:107BD00009D91448144B1849C01AC008000440F0D1
:107BE000040009F05BFF09F0DDFD0028FBD1D8E7B8
:107BF000237CDB07D5D5237A072BD2D1084B5B88B2
:107C0000032B09D90748084B0C49C01AC0080004C7
:107C100040F0040009F042FFBDE81040FFF754BFF8
:107C2000605E0020E0C0040098C00400D677040025
:107C30007C650020FD77040027780400527804005A
:107C40000DF0DBBF0DF0D9BF0DF0D7BF2DE9F04728
:107C5000AEB00AF00FF808B10DF0CFFF0EF0BAF891
:107C600008B10DF0CAFF002303A9012003930EF011
:107C70008BF908B10DF0C1FF03A80EF0DDF908B1D2
:107C80000DF0BBFFB94A0A2108200AF059F808B1E3
:107C90000DF0B3FF1123B6488DF804301EF0B0FE8E
:107CA00001AD82B2B2492846FFF75EFD08B10DF082
:107CB000A4FF40F2C130FFF753FD08B10DF09DFF66
:107CC0000822002103A8FFF76BFB0623ADF80C3058
:107CD0001822ADF8103003A82B23ADF80E20ADF814
:107CE0001230FFF73FFD08B10DF087FFA1480021DA
:107CF00004F0D6F808B10DF080FFAC22002103A8F3
:107D0000FFF74EFB02238DF80C3040F20163ADF813
:107D10000E300123984AADF81C308DF88530ADF84F
:107D2000863040F201134FF448600892ADF8883075
:107D3000002242F6E063CDE9270328218F4B2C93E4
:107D4000CDE9232241F27072CDE925128C4B8D488A
:107D50002D9303A901F093FF08B10DF04EFF894860
:107D6000012101F089FF884B8848039303A904F09F
:107D700075FA08B10DF041FF43F2EF53ADF806304C
:107D800012230224ADF8083040220123002103A869
:107D9000ADF80A308DF80440FFF702FB03A87C49D8
:107DA00003F011FF03A811958DF8484002F036FA50
:107DB00008B10DF022FF1022002103A8FFF7F0FA0E
:107DC00000230393012205937248734B8DF8102012
:107DD00003A9069302F07FF908B10DF00EFF6F4C76
:107DE000DFF8DC816E4F202200212046FFF7D8FA11
:107DF000082200214046FFF7D3FA08220021384626
:107E0000FFF7CEFA0823238040F20123A8F80230BE
:107E10004FF440737B8003232381238240F20313BA
:107E2000022540F202264FF0010940F2011A4FF4F8
:107E3000817263824FF482736281638348220021DE
:107E4000A4F802A0A680A571A681A573A682A57537
:107E5000A4F81890A683A57703A8A8F80090A8F81E
:107E600004603D80BE80FFF79BFA4E4B03934E4B60
:107E7000049304238DF81630D623ADF830304B4BE5
:107E80000B9300234A4A8DF8423011934948ADF8CC
:107E900014A04FF0023303A906948DF81C90CDF87E
:107EA00020808DF824900A978DF838500F928DF825
:107EB0004050ADF850608DF852501293ADF84C60C0
:107EC0008DF84E5002F0BDFD08B10DF096FE1C225B
:107ED000002103A8FFF764FA00234FF4A032CDE994
:107EE00003324FF4F0220592ADF81A3003228DF8D8
:107EF0001C30089303A8304B8DF81820099303F029
:107F000083FC08B10DF079FE06F0DCF808B10DF045
:107F100074FE0522002103A8FFF742FA31238DF8F1
:107F20000C3007238DF80D3010238DF80E309DF89E
:107F30000F3023F0030343F003038DF80F309DF857
:107F4000103023F0030343F0030303A88DF810302F
:107F500006F072F908B10DF050FE184806F054F919
:107F600008B10DF04AFE2EB0BDE8F0871C6000207D
:107F70009478040040650020E4590020D178020084
:107F800075770200F8600020457C020080650020C3
:107F90009D7804002C65002064020202D660002057
:107FA000CC6000206D7A0200497C02007C5B0020DE
:107FB00001010003EC590020417C02004D7B0200CE
:107FC0008C65002008B5FFF77FFD0548032101F00F
:107FD000CDFE18B1BDE808400DF00FBE08BD00BFD2
:107FE000F860002008B509F037FF09F0DBFB18B98D
:107FF000BDE8084009F054BE08BD0000014B1878E8
:10800000704700BFD460002007B50B490B4B0978BF
:108010001B88024659B9009308220346084802F01B
:108020002EFFB0FA80F0400903B05DF804FB082190
:10803000034802F083FFF4E7D5600020E8590020F0
:10804000EC5900207FB50B461749184A0978128869
:1080500001BB40F6FF718842A8BF08468B42A8BF0B
:108060000B469BB28DF81400C0F3032040EA0310C6
:108070001B118DF815008DF8163000920C4805ABD9
:108080000322022102F0FBFEB0FA80F0400907B0A3
:108090005DF804FB00210292CDE9001142B25BB20F
:1080A000034802F08EFFEFE7D5600020E85900207A
:1080B000EC59002010B5114C114B24781B8886B068
:1080C0008CB98DF814008DF815108DF816200093DA
:1080D0000C4805AB0322012102F0D1FEB0FA80F07A
:1080E000400906B010BD029300230146CDE90033DC
:1080F0001A46044802F065FFF0E700BFD560002093
:10810000E8590020EC59002000230129036002D027
:10811000022904D10123044A02EBC303036000686F
:10812000B0FA80F040097047A878040008B500F064
:108130008FFB012801D1012008BD012000F0AAFB1E
:108140000128F8D00328F6D8F6E708B500F08AFB36
:10815000042828BF012008BD07B5014601A8FFF784
:10816000D3FF012803D1012003B05DF804FB019B7C
:10817000586800F099FB0128F5D00328F3D8F3E7FD
:1081800037B50C46014668461546FFF7BDFF012886
:1081900003D10124204603B030BD009B01A95868DB
:1081A00000F08FFB0128F4D0019800F047FB214636
:1081B0002A4601F0F5FB01280446EAD0019800F0B8
:1081C00041FB032CE5D8E5E737B50C460146684688
:1081D0001546FFF799FF012802D1012003B030BDF9
:1081E000009B01A9586800F06CFB0128F5D00198AC
:1081F00000F020FB2A46214601F05FFC0128ECD06C
:108200000328EAD8EAE737B50D4601466846FFF786
:108210007BFF012803D10124204603B030BD009B21
:1082200001A9586800F04DFB01280446F3D00198DD
:1082300000F004FB01F054FB032C2880EBD8EBE7A3
:1082400037B50D4601466846FFF75EFF012803D1AA
:108250000124204603B030BD009B01A9586800F0FE
:1082600030FB01280446F3D0019800F0E3FA01F056
:1082700035FB032C2880EBD8EBE700F033BB7047CD
:1082800000230360184670477047002070470000C5
:10829000012905D9032905D1034B00221A70704723
:1082A0000CF033BE704700BFA8650020012905D936
:1082B000032905D1034B00221A7070470BF0CBBE87
:1082C000704700BFA5650020012905D9032905D104
:1082D000034B00221A7070470BF0BDBE704700BF01
:1082E000AA650020023810B50C281AD8DFE800F083
:1082F0001A321919191960907A1919074A00504B46
:108300005B88022B09D94F484F4B5049C01AC0080F
:10831000000440F0030009F0C1FB09F043FA002813
:10832000FBD110BD464B5B88022B09D94548464B13
:108330004749C01AC008000440F0030009F0AEFB32
:1083400009F030FA0028FBD10AF020FB414B012252
:108350001A70E6E73A4B5B88022B09D939483A4B49
:108360003D49C01AC008000440F0030009F096FB24
:1083700009F018FA0028FBD1384B01221A70354B4E
:108380001870CEE72E4B5B88022B09D92D482E4B57
:108390003349C01AC008000440F0030009F07EFB16
:1083A00009F000FA0028FBD1BDE810400AF0D2BA6B
:1083B000234B5B88022B09D92248234B2949C01A39
:1083C000C008000440F0030009F068FB09F0EAF976
:1083D0000028FBD10FF090FC0028A2D1BDE810408E
:1083E0000AF0B6BA164B5B88022B09D91548164B12
:1083F0001D49C01AC008000440F0030009F04EFBFC
:1084000009F0D0F90028FBD1BDE810400AF0A4BA69
:108410000B4B5B88022B09D90A480B4B1349C01A36
:10842000C008000440F0030009F038FB09F0BAF975
:1084300004460028FAD10AF09FFA084B1C7070E736
:10844000605E0020E0C0040098C00400B87804001A
:10845000C4780400AC650020D2780400AB6500202D
:10846000DD780400E8780400FB7804000579040056
:10847000012908B51DD0032917D0C9B90CF045F959
:108480000E4B5B88022B09D90D480E4B0E49C01AC2
:10849000C008000440F0030009F000FB09F082F975
:1084A0000028FBD1094B012201E0094B00221A7080
:1084B00008BDBDE808400CF028B900BF605E002090
:1084C000E0C0040098C0040017790400A6650020ED
:1084D000A765002008B50BF0A7F816480AF0ACF91C
:1084E00008B10DF08AFB144B144818600AF068FAC2
:1084F00008B10DF082FB12480AF062FA08B10DF0E3
:108500007CFB10480AF05CFA08B10DF076FB0E48CF
:108510000AF056FA08B10DF070FB01F0EFF80AF01E
:10852000FFF908B10DF069FB0AF012FABDE8084046
:108530000AF012BA647B040098650020087B0400EE
:108540008C7A0400B0790400F8790400014B1878A3
:10855000704700BFAB650020014B1878704700BF23
:10856000AC65002038B5114D0AF0E4FC01F034F997
:1085700001F002F92A6842F20F739A42044613DCB2
:10858000C2F51C5310339BB2984204D3581E084BBB
:10859000012184B2197007482146104401F0FAF80D
:1085A00028682044286038BD0023EFE7B06600202B
:1085B000A965002066670020014B1878704700BF4E
:1085C000A7650020014B01221A707047A7650020A3
:1085D00008B5054BC3E90001194682200AF0DEFA0E
:1085E000B0FA80F0400908BD0C6700200A46014639
:1085F00001480CF049BC00BF087B0400034B014656
:10860000012203481A700CF0A3BB00BFA86500202C
:10861000087B0400034B0146012203481A700CF04A
:10862000CBBB00BFA8650020087B040001460148C1
:108630000CF0F6BB087B0400034B01221A70034BBD
:1086400018680CF062BC00BFA86500209865002087
:10865000014B1878704700BFA5650020014B01222F
:108660001A707047A565002010B5094C23460322F7
:1086700003F8012B4A00014618461DF03BFC092275
:10868000214604480BF037FDB0FA80F0400910BDD8
:108690009C650020B0790400014B1878704700BF3A
:1086A000AA650020014B01221A707047AA650020BC
:1086B00010B5094C23460A46042103F8011B014664
:1086C00018461DF017FC0222214604480BF013FD4A
:1086D000B0FA80F0400910BD64670020F87904000A
:1086E000044B1B7813B9044B1868704742F20F70A3
:1086F000704700BFA9650020B066002000487047A1
:1087000066670020024A00231360024A1370704714
:10871000B0660020A965002070B506460D4675B10B
:1087200001F040F8044638B1A84228BF2C46A1B257
:10873000304601F049F818B1FFF714FFEFE72C4677
:108740002D1B2644EBD170BD00F016B808B500F023
:1087500039F8BDE8084000F03BB81FB50FC86C46BB
:1087600084E80F000023102221464FF0FF300293CF
:1087700001F056FA04B010BD38B5114C4FF4FE2587
:1087800065602B68012B12D16B68102B0FD1284626
:10879000FFF7E3FFAB68984209D163680FCB04F1A0
:1087A000080585E80F0001232370002038BD102341
:1087B0000122C4E902230023C4E90433F3E700BF24
:1087C000788E0020014B01225A617047788E00207C
:1087D00010B5104C1022606804F108011DF058FB20
:1087E000B0B160680FF012FF04F10800FFF7B5FFA9
:1087F0000422206104F1080160680FF01FFF606827
:10880000102204F108011DF043FB003818BF0120BD
:1088100010BD00BF788E002010B50446082001F07E
:1088200091F92060002010BD0B6803604B68436025
:1088300000207047436800685B6818474368006819
:108840009B69184743685B6A0BB10068184770471B
:10885000034B00221A705A7002229A7000F042BD37
:10886000908E002037B50A4D2B787BB9AB788DF808
:10887000043001A800F05EFD0128044603D0012366
:108880002B70FFF7FCFC204603B030BD0124FAE753
:10889000908E0020034A0346107808B99370704701
:1088A00001207047908E002010B5044600F04CFD6A
:1088B00028B124B12046BDE8104000F055BD01208C
:1088C00010BD13B50446019100F03EFD30B1019991
:1088D000204602B0BDE8104000F052BD012002B0B9
:1088E00010BD000038B50D4C2578012D05D0032DA5
:1088F0000CD0BDE8384000F04DBD00F025FD10B1B2
:10890000022323706570FFF7BAFCF2E700F024FD44
:108910000028F8D0002323706370F4E7908E0020C5
:1089200037B5002401AB18190DF036FF60BB0134D8
:10893000032CF7D1154B9DF80420154903EBC20019
:10894000086001461348043101609DF80510124883
:1089500003EBC10404602046104C043020609DF8F5
:1089600006000F4C03EBC00525602B460D4C04336D
:108970002360012303FA01F103FA02F20A430A49D0
:108980000A600A4A8340136003B030BD10F501400D
:108990009C8E0020A88E0020A08E0020AC8E00208F
:1089A000A48E0020B08E0020948E0020988E00208F
:1089B00020B1034B800143F001031847704700BF0B
:1089C000707B04000DF0D4BD0DF0DEBD1BF0B8BC13
:1089D00019F04CBB1CF05EBA70B58AB0064600F0C8
:1089E0004AFD0446304600F04BFD0546204619F08E
:1089F000C7FC00281BDD284600F072FF2028034634
:108A000028BF20239BB201AA02A92046019319F096
:108A100071FC60B1019B13B1304600F048FDBDF818
:108A2000042002A9284600F0BBFF0128DED10AB0CD
:108A300070BD000013B504460C48C36823B9204636
:108A400019F0AAFC02B010BD406801AA214698475F
:108A50000028F4D1019800F032FD0028F2D00198EE
:108A6000FFF7BAFF019800F02DFDEBE7B48E002070
:108A700070B588B0044600F0FEFC0646204600F0C3
:108A800005FD0546304619F06FFC022821DC28461A
:108A900000F024FF0446E0B1202828BF2024A4B21F
:108AA00022466946284601F003F8012811D02246E3
:108AB0006946304619F0C4FB68B919F02FFD00F083
:108AC000FD00082805D1064A936813B150680121BA
:108AD000984708B070BD21B2284600F003FFD1E7E7
:108AE000B48E002010B5044600F0EFFC50B12046D3
:108AF000FFF7BEFF204600F0D7FC204600F0E8FC60
:108B0000002010BD0220FCE710B50446FFF7EAFF85
:108B100058B9204600F0D9FC38B12046FFF7A8FF2D
:108B20002046BDE8104000F0D3BC10BD10B504468F
:108B300000F0C5FC50B12046FFF74EFF204600F084
:108B4000A8FC2046BDE8104000F0BCBC10BD0000F1
:108B500007B501460948C3686BB1406801AA984748
:108B600048B9019800F0B1FC28B10198FFF780FFE7
:108B7000019800F0ADFC03B05DF804FBB48E00205A
:108B800037B5154D2C780CBBC5E901446C70AC7041
:108B9000EC60FFF7C5FE022019F0A6FA98B10F4B62
:108BA000186800901B798DF804300521684619F08B
:108BB00021FC40B14FF4167019F04AFC18B10220A4
:108BC00019F07CFC20B9012003B030BD0020FBE788
:108BD00001232B702046F7E7B48E00207D7B040034
:108BE00010B50E4C62780AB1012010BD4368636075
:108BF0008368A360C368E3600078012802D002287C
:108C0000F2D1104619F0D8FB0028EDD019F0FCFA8B
:108C10000028E9D0012363700020E6E7B48E00202D
:108C2000034B9A781AB901229A7019F0FDBA70476D
:108C3000B48E0020014B5878704700BFB48E0020DE
:108C400013B502AB03E906000446FFF781FF9DF868
:108C500000302BB1204602B0BDE81040FFF7EABE5D
:108C600002B010BD82B002AB03E9060002B0FFF70C
:108C70006FBF13B50446FFF7DDFE204602B0BDE826
:108C80001040FFF765BF0000054B10B500249C7035
:108C90005C702046013419F07FFB082CF9D110BD1F
:108CA000B48E0020704710B50446FFF73FFF204602
:108CB00000F0E3FBBDE8104000F010BE10B5044624
:108CC000FFF734FF2046BDE8104000F0D6BBF7B5F3
:108CD000054601911646FFF729FF284600F0CDFB17
:108CE00001993246074600F0E3FE0128044606D00B
:108CF000384631B200F0F6FD2846FFF717FF204650
:108D000003B0F0BD37B505460191FFF70FFF2846C8
:108D100000F0B3FB0199002200F091FE0128044607
:108D200002D02846FFF702FF204603B030BD10B541
:108D30000446FFF7FBFE2046BDE8104000F0BABB3A
:108D400038B50446FFF7F2FE204600F096FB0546D4
:108D500000F0C4FD01B2284600F0C4FD2046BDE885
:108D60003840FFF7E3BE10B50446FFF7BBFE2046D0
:108D700000F089FBBDE8104000F0B2BD10B504461C
:108D8000FFF7B0FE2046BDE8104000F07CBB37B5D1
:108D900005460191144662B1FFF7A4FE284600F093
:108DA00072FB2246019900F0FBFD04462846FFF7BE
:108DB000ABFE204603B030BD70B5054608460E46F2
:108DC00000F08CFD044670B12846FFF78BFE284664
:108DD00000F059FB00220146304600F030FE044608
:108DE0002846FFF791FE204670BD37B5044600F0D7
:108DF0006CFB98B1204600F03EFB054619F0B4FA32
:108E0000022805DC00220DF10701284619F018FAA6
:108E1000204600F05DFB002003B030BD0220FBE7E0
:108E2000FFF772BE02207047024B00225A701A727E
:108E3000704700BFC48E0020014B5878704700BFB8
:108E4000C48E0020024B587880F00100704700BFAC
:108E5000C48E002010B5837804464068BBB1012B56
:108E60001ED06068FFF7DCFF63785BB363694BB3C8
:108E70002069FFF70AFA28B36068FFF7B6FF0128F8
:108E800020D0D4E90401BDE81040FFF7FDB9FFF799
:108E90004EFF0028E5D00123A370FFF7F0F9E0E7CB
:108EA00000F0E9FA19F060FA10B10023A370D8E7D6
:108EB0006068FFF79AFF0128D3D00028F5D0022878
:108EC000CFD1EAE710BD037A0BB1FFF7C3BF7047FC
:108ED00070B5084D064668680C4600F0CCFA86422C
:108EE00005D12B7A23B16B680020236070BD00236D
:108EF0000120FAE7C48E002070B5084D2B7A064693
:108F00000C461BB900230120236070BD686800F087
:108F1000B2FA8642F6D1EB680020F5E7C48E002055
:108F200038B50B4D6B78044683B12B7A68682BB14A
:108F300000F0A1FA201A18BF012038BD214600F028
:108F400097FA0128F9D001232B72F6E70120F4E704
:108F5000C48E00204068FFF711BF4068FFF703BFD1
:108F60004068FFF7EDBE4068FFF7CCBE4068FFF7F2
:108F7000AEBE4068FFF7A2BE4068FFF794BE000097
:108F80000248037A0BB1FFF765BF7047C48E00201B
:108F900008B5054B1A7801202AB15870D3E90401AD
:108FA000FFF772F9002008BDC48E002038B50446D2
:108FB0004068FFF7ECFE0128054603D0D4E9040120
:108FC000FFF762F9284638BD38B504464068FFF718
:108FD000F3FE0128054603D0D4E90401FFF754F954
:108FE000284638BD7FB5204C2578064625B96570E2
:108FF000FFF7C6FD012801D1012032E03388ADF82A
:10900000043001A97388ADF80630201D00F0FAF98C
:109010000128F1D004F10C002572FFF7FDFB0128B7
:10902000EAD0124BE068029402A90393FFF7FCFB1D
:109030000128E1D02846A57019F052FA0F2019F046
:109040002BFA284619F04EFA1E2019F013FA04F1F3
:109050001000FFF715F90128CED073686361012372
:10906000237004B070BD00BFC48E0020847B040058
:1090700000487047AC7B040001207047034B1A780E
:1090800001200AB158700020704700BFDC8E00201C
:10909000014B5878704700BFDC8E0020024B587897
:1090A00080F00100704700BFDC8E0020037813B110
:1090B0004068FFF7B5BE704770B50A4B03EB8003FD
:1090C00004465E6870680D4600F0D5F9844205D10B
:1090D000337823B1736800202B6070BD002301201A
:1090E000FAE700BFDC8E002070B50A4B03EB80036B
:1090F00004465E6833780D461BB9002301202B60BF
:1091000070BD706800F0B7F98442F6D1B3680020F2
:10911000F5E700BFDC8E002038B50D4B5A780446C9
:109120009AB103EB80035D682B7868682BB100F07F
:10913000A2F9231A5842584138BD214600F098F947
:109140000128F9D001232B70F6E70120F4E700BFD6
:10915000DC8E0020054900224A70012351F82300CB
:109160000133092B0270F9D1704700BFDC8E00205B
:109170004068FFF721BE4068FFF709BE4068FFF76F
:10918000FDBD4068FFF7EFBD4068FFF7D9BD4068FF
:10919000FFF7B8BD4068FFF79ABD4068FFF78EBD86
:1091A0004068FFF780BD000038B5064D012455F832
:1091B00024301A7812B15868FFF732FE0134092CB6
:1091C000F5D138BDDC8E00202DE9F0431D4C277809
:1091D00085B006469FBB6770FFF7D2FC01281AD006
:1091E000DFF8648001250C2000F0ACFC814600F81B
:1091F000047B3388ADF8043001A97388ADF80630DC
:1092000000F000F9012806D009F10800FFF704FB7F
:10921000012803D1012005B0BDE8F083D9F808008A
:1092200002A9CDE90298FFF7FFFA0128F2D044F82D
:1092300025900135092DD6D101232370EBE70020BD
:10924000E9E700BFDC8E0020D07B040000487047B7
:10925000F87B0400012906D1037823B1037A13B9FE
:1092600040F201130381704730B50128174D85B0D6
:1092700005D0022818D000236B601B68FFDEFFF7C3
:10928000E5FF686003689847114B8DF80000029372
:109290006846104B01950393FFF7A2FC012806D105
:1092A000012400236B600EE0FFF7E2FEE9E76B6844
:1092B0009B68984701280446F2D001232B70FEF7E3
:1092C000DEFF002CEDD1204605B030BD008F002020
:1092D00055920200D9920200034608465B68114687
:1092E0005B68184707B5FFF74BFC012803D1012045
:1092F00003B05DF804FB4FF480736846ADF80030AE
:10930000ADF80230FFF760FF0128F0D04FF00122E6
:109310004FF47A736846CDE90023FFF763FE012816
:10932000E6D0034B00221A705A601A72E0E700BFC1
:10933000008F0020034B1B7813B90078FFF794BF10
:1093400001207047008F0020024B1878003818BFAA
:1093500001207047008F0020024B1878B0FA80F08F
:1093600040097047008F0020044B1A78012A02D16F
:109370005B689B6918470120704700BF008F002081
:10938000034B5B680BB1DB6918470120704700BFD6
:10939000008F002070B51A4C2378012B02D0022BCD
:1093A00013D070BD237A43B96368002BF9D01B6AD0
:1093B000002BF6D0BDE870401847FFF731FC0223C0
:1093C0002370BDE87040FEF75ABFFFF733FC054637
:1093D0000028E6D120722070FEF751FF667A56B160
:1093E000636865721B6898472378002BD9D1BDE864
:1093F0007040FFF739BF6368DB6898476660D0E765
:10940000008F0020F0B5044685B018200E4600F00D
:1094100099FB4FF0FF332060054640F8043B0123E1
:109420008DF8043000273388029701A9ADF80C307D
:1094300000F096FB0128044617D002238DF8043073
:1094400001A97388029705F10800ADF80C3000F00F
:1094500087FB0128044608D005F11000AF8100F019
:10946000C3F905F1140000F0BFF9204605B0F0BDC6
:1094700001600020704700687047406800F092BBB0
:10948000406800F091BB806800F08CBB806800F001
:109490008BBB10B50446406800F092FB237B13B1F0
:1094A0004FF48073A38110BD806800F089BB012355
:1094B0000373704703460022407B5A73704700696C
:1094C00000F094B9006900F093B9406900F08EB9DA
:1094D000406900F08DB910B50446006900F086F9C6
:1094E00038B1A06800F06CFB206900F081F9002021
:1094F00010BD0220FCE7F7B50446FFF7ECFF00289B
:109500004CD1206900F072F9002847D0637F2BBB53
:10951000A06800F049FB064600F0E2F9F0B160688F
:109520000CF055FA87B2FFB9304600F0D9F9A8B16E
:10953000304600F0D0FA0190304600F0D0FA0246F2
:1095400060B101236377636801991B68C3F8847075
:1095500060680CF03FFA922818BF6777206903B063
:10956000BDE8F04000F044B9304600F0B4FA019094
:10957000304600F0B4FA05460028EFD0B84228BFC4
:109580003D46ADB22A46019960680CF023FA29B233
:1095900030467D1B00F0BAF9AFB2C4E703B0F0BDAE
:1095A000F7B5054601911646FFF795FFA86800F04C
:1095B000F9FA01993246074600F07AFA0128044682
:1095C00003D031B2384600F08DF92846FFF793FFFB
:1095D000204603B0F0BD10B50446406900F006F91E
:1095E00038B1E06800F0ECFA606900F001F90020A1
:1095F00010BD0220FCE7F8B50446FFF7ECFF28BBDE
:10960000606900F0F3F808B3257FD5B9E06800F091
:10961000CBFA064600F062F998B12946304600F0D0
:1096200079FA29460746304600F07DFA01230246C2
:1096300020832377606839460CF0A4F908B12583AC
:1096400025776069BDE8F84000F0D2B8F8BD0000A9
:1096500038B5032915D8DFE801F0241502091948A7
:109660000123C376BDE83840FFF745BF154C002500
:10967000A068E57600F09AFAE06800F097FA258392
:10968000A58338BD0F4C0023E068237700F08CFAE7
:10969000B4F9181000F026F92046BDE83840FFF76D
:1096A000AABF084C0023A068637700F07DFA054646
:1096B00060680CF088F901B2284600F027F92046CE
:1096C000D0E700BF0C8F002037B5C37E019105465F
:1096D000144683B162B1FFF77EFFE86800F062FADA
:1096E0002246019900F05CF904462846FFF783FF03
:1096F000204603B030BD0124FAE70000F0B51C4C51
:10970000A57E85B035BB0126802701A904F108009C
:109710008DF804600295ADF80C7000F021FAB042AB
:1097200002D1012005B0F0BD022301A904F10C0013
:109730008DF804300295ADF80C7000F011FA012894
:10974000EFD004F1100000F04FF804F1140000F025
:109750004BF8A67607480023C4E900002383E3768C
:10976000A38309F02DF9003818BF0120DAE700BF04
:109770000C8F00201C7C040010B5054C2046FFF720
:10978000AAFEA06800F00EFABDE8104000F0A6B8EE
:109790000C8F00200A4601460148FFF701BF00BFB9
:1097A0000C8F002010B5074CE07E48B12046FFF733
:1097B00012FFE06800F0F6F9BDE8104000F090B844
:1097C00010BD00BF0C8F00200A4601460148FFF77C
:1097D0007BBF00BF0C8F00200248C37E0BB1FFF798
:1097E0000ABF70470C8F002000F004B800F00DB8DD
:1097F00000F015B810B50446042000F0A3F90023CA
:1098000020600360BFF35F8F10BD08B5012106F033
:1098100080FABFF35F8FB0FA80F0400908BDBFF354
:109820005F8F002303607047012B2DE9F04107464D
:1098300088461E4604D1436809789954BDE8F081F2
:10984000002BFBD005894068D318AB4210440CDDD7
:10985000AC1AA4B222461CF04DFB7868321B08EB10
:109860000401BDE8F0411CF045BB3246F9E7002396
:109870004381C360438A03827047438A8B421FBF80
:10988000C3894182C91A01827047018909B101392E
:1098900089B2FFF7F2BF70B5064614200D4600F0FE
:1098A00051F9306004462868AD8818B915B12846CA
:1098B00000F048F9606025812046FFF7D8FFFFF7E8
:1098C000E4FF00232370184670BD0A8949680160CF
:1098D000828070474089704780897047C08970478F
:1098E000008A7047002910D04389028989B2D8BF05
:1098F0009B180B449BB29A4298BF9B1A4381C38921
:109900005B1AC381038A194401827047002910D071
:109910008389028989B2D8BF9B180B449BB29A42B3
:1099200098BF9B1A8381C3890B44C381038A591A48
:109930000182704742898A42F0B414D00489C789F1
:1099400016B20DB2AE42CABF0B198B1A9B1A1BB2CC
:10995000BB4204DDAE42B8BF1219891A0BB2F0BC8B
:109960001946FFF7BFBFF0BC704782898A42F0B446
:1099700014D00489078A16B20DB2AE42CABF0B19C1
:109980008B1A9B1A1BB2BB4204DDAE42B8BF121940
:10999000891A0BB2F0BC1946FFF7B8BFF0BC70478C
:1099A00038B5038A93420446154609D31346828983
:1099B000FFF73AFF204629B2FFF7A8FF002038BD85
:1099C0000120FCE72DE9F04180460D4616461C4675
:1099D000CBB107897B1E9BB29C4219D8138AA34244
:1099E00016D341682B19BB4229440FDD7A1B92B272
:1099F0003046E41BFFF7D4FF2544D8F80410AAB280
:109A00003046FFF7CDFF0020BDE8F0812246F7E7A2
:109A10000120F9E738B5C3899342044615460CD3B3
:109A200013460A464189FFF7CDFF012803D029B22A
:109A30002046FFF757FF002000E0012038BD38B571
:109A400014460D8AC289954228BF15462A46FFF75B
:109A5000E1FF012801D004B1258038BDF8B51C46CE
:109A6000C389A34205460E4617461DD3012C04D1D7
:109A700043685B5C13700020F8BDBCB1028941688B
:109A80003319934231440CDD921B38461CF032FAF4
:109A900028896968221A801B324438441CF02AFA4B
:109AA000E9E722463846F9E70120E5E72046E3E703
:109AB00013460A464189FFF7D1BF70B505461646E1
:109AC000FFF7F6FF0128044603D031B22846FFF71E
:109AD00009FF204670BD8389406818447047438958
:109AE0008289934203D9013B981A80B2704700895A
:109AF00003B90138801AF8E7002A09D0008992B228
:109B0000D8BF0918114489B288429CBF091A89B28A
:109B10000846704708B50AB203464189FFF7ECFFD3
:109B20005B68184408BD10B50AB204464189FFF7C6
:109B3000E3FFA389834236BF2289181A101A80B224
:109B400010BD0000054983070A681CBF031D23F0F0
:109B50000300104408601046704700BF705C00208E
:109B60007FB506460C200C46FFF7ECFF214630601F
:109B700011F8043B054600F8043BFFF78CFE012872
:109B80000ED06C4669682046FFF79FFE94E80300FC
:109B900002AB83E80300194605F10800FFF77BFEDE
:109BA00004B070BD406870478068704710B50446C7
:109BB0004068FFF75CFEA068BDE81040FFF757BEA5
:109BC00037B50378012B044603D0022B14D003B021
:109BD00030BD4068FFF77EFE0190A068FFF77CFE75
:109BE00001990546A068FFF7A5FE6068294603B005
:109BF000BDE83040FFF7B9BE4068FFF76DFE019049
:109C0000A068FFF767FE01990546A068FFF7ADFE63
:109C10006068294603B0BDE83040FFF78BBE000006
:109C200010B5074C0A44914201D1C04310BD11F850
:109C3000013B4340DBB254F8233083EA1020F2E7C3
:109C4000407C040072DF704773DF704738B5012233
:109C500004460D46B0F81414D0F8100401F0C4FC0A
:109C600000B1057004F13C0204F5826104F1540076
:109C7000BDE83840FFF7E6BF80F830107047F8B510
:109C800004460F4600296DD000286BD091F87A3039
:109C90001BB191F89830002B66D14FF0000C84F87E
:109CA00002C007F178060FCE251D0FC50FCE0FC5D8
:109CB00096E8070085E8070084F830C0D7F8A4309C
:109CC0006363D7F8A830A3634FF6FF7504F582638A
:109CD000C4F82034A4F824540722614604F2264034
:109CE000FDF75EFB23780BB984F8545094F82430C8
:109CF000002B14BFEE231F2304F15501C4F81014E8
:109D0000A4F8143404F21442384601F080FA40BB3F
:109D100094F82430002B14BFEE231F2304F23121CA
:109D2000C4F81814A4F81C3404F21C4207F13C00D7
:109D300001F06DFAA8B9A369A4F848304FF4807314
:109D40000125A4F8503063692064014684F83C5032
:109D5000636404F13C0204F15400FFF773FF00B99F
:109D60002570F8BD0E20FCE70720FAE7F8B5077864
:109D700004460D46002F00F00A8100F2264681704D
:109D8000072200213046FDF70BFBE38813B1A378CF
:109D9000012B04D0E3794BB1A378022B06D1636B7E
:109DA000ABB1012284F82D240820984704F2274300
:109DB00004F22D4113F8012B12B99942FAD117463A
:109DC0006B1E032B57D8DFE803F0050B0F1284F846
:109DD0002D34EBE7A3791BB194F8243003B95FB9B4
:109DE000E3790BB1002F48D1237A002B47D1637A56
:109DF000002B0CBF00250425636BA570002B40D001
:109E0000033D012D3DD86279002A3AD094F82E24E2
:109E1000002A36D184F83024012284F82F24072028
:109E2000984704F13C05182200212846FDF7B8FAAE
:109E3000E26A0123511E994284F83C3001D9042A78
:109E400000D1D3B294F8242084F8513042B1A36AEF
:109E5000591E012902D9042B18BF012384F852305E
:109E6000A178002384F8503004291BD8DFE801F0E2
:109E7000770D223559000025BEE70225BCE70325F2
:109E8000BAE7002384F82F34CBE7C4E91063C4F8A1
:109E900020340223012284F83C30802384F83120CE
:109EA000A4F84830A378002B5CD1636B002B6AD1F7
:109EB000002067E00223002A84F8313014BF072312
:109EC000032384F83C302369A4F848300023C4F805
:109ED0002034E36826646364E4E763696364A36928
:109EE000A4F8483012B1062384F83C306379B3B14A
:109EF00094F82E349BB994F8303483B1022384F85B
:109F0000503004212046FFF7A1FE0028CAD10523C6
:109F100084F8313004F58263C4F82034C2E70323A7
:109F2000F6E7E3696364236AA4F8483012B10623B4
:109F300084F83C30637983B194F82E346BB994F88B
:109F4000303453B1022384F8503004212046FFF707
:109F50007DFE0028A6D10623DAE70423D8E784F89B
:109F600031309FE7D4F820142A4604F15400FFF75B
:109F700069FE38B994F8301094F85400FFF764FE85
:109F8000002892D0F8BD94F83100984790E7082057
:109F9000F8E710B50388112B0C460AD0262B1FD0EA
:109FA000102B05D1C37B012B02D18388A1F8243467
:109FB00010BD002381F82E348288B1F824349A42EF
:109FC000F6D10B79002BF3D101212046FFF7CEFE0D
:109FD0000028EDD0A36B002BEAD0BDE81040184755
:109FE000037A013B012BE3D8897805230131B1FBCA
:109FF000F3F303EB8303C91AC9B2E6E710B590F88F
:10A000002D344BB1002480F82D44072200F2264065
:10A010001BF070FF204610BD0820FCE790F82F349D
:10A020005BB1009900230A4314BF01221A4680F84D
:10A030002F3480F83024184670470820704770B5D8
:10A040000546164608460AB90E2070BD0023136067
:10A05000002DF9D02B68002BF6D0EB8813F0030409
:10A060000ED101F02DFDC0B214280BD02B79834204
:10A070000AD9EA882B6800FB023030602046E4E70A
:10A080000720E2E70520E0E70420DEE7A8DF7047CD
:10A0900037B505460C46E1B1D8B10388502B18D12D
:10A0A0004B7CB3B1C2884B899A4212D1038A022BEE
:10A0B0000FD10B686BB1123001F07BFDAB88ADF8AE
:10A0C000063080F001008DF80400236801A92046C5
:10A0D000984703B030BD2DE9F0410E4690B00546DB
:10A0E00000286AD0002968D00B6803600B7943749C
:10A0F000FF2303742A1D012041F60F0302A98DF8E6
:10A100000A00ADF80830FFF7C1FF044600284ED121
:10A110002022337B8DF8033001460DEB0200FDF762
:10A120003FF942F61923ADF820304FF0011309939F
:10A130000DF103030A936B7C9DF82D20A8881B0169
:10A1400043F0020322F0120203F0120313438DF8CE
:10A150002D30B37B8DF83330AA1D737B8DF83130F1
:10A1600008A901F039FD044608BBB16819B30DF127
:10A170000408404601F021FD21460746142203A8A9
:10A18000FDF70EF9B8B242F60813ADF80C30ADF891
:10A190001600F37BADF81A0005F10E02E8888DF881
:10A1A000123003A9CDF81C8001F0C0FD0446204602
:10A1B00010B0BDE8F081E881F9E70E24F7E7A8DFE9
:10A1C00070470000F0B5074689B014461E460D469C
:10A1D00011B908460BF011FD14B920460BF00DFD26
:10A1E000202200216846FDF7DBF89DF80D300E9A1D
:10A1F000ADF8007043F002038DF80D30064BADF85A
:10A2000004401888ADF80640694602958DF8116043
:10A2100001F0E2FC09B0F0BDF0AF002030B587B02E
:10A2200041F60A035C4AADF80C30044603A901204C
:10A230008DF80E00FFF7C3FF0546002849D122889C
:10A24000002A49D1228952B1544B0093E16894F815
:10A250003C3042F62420FFF7B5FF002847D1228A80
:10A2600052B14F4B0093616994F83C3042F625207F
:10A27000FFF7A8FF00283AD1228B52B1494B009337
:10A28000E16994F83C3042F62720FFF79BFF002855
:10A290002DD1228C4AB1444B0093616A94F83C3032
:10A2A00042F62620FFF78EFF08BB228D4AB13F4BB6
:10A2B0000093E16A94F83C3042F62820FFF782FFD1
:10A2C000A8B9236BABB9616B002938D1A36B002B04
:10A2D00042D1284607B030BD354B0093616894F8F1
:10A2E0003C3042F62920FFF76DFF0028AAD0054632
:10A2F000EFE71A688DF810201A68120A8DF81120FD
:10A300005A888DF81220DA788DF813205A688DF863
:10A3100014209B688DF815301A0A1B0C8DF8173025
:10A32000244B8DF816200093082294F83C3004A9A1
:10A3300042F62320FFF746FF0028C4D0D7E71E4B84
:10A340000A790093096894F83C3042F62A20FFF716
:10A3500039FF0028BAD0CAE71A788DF810205A8839
:10A360008DF81120120A8DF812209A888DF813208A
:10A37000120A8DF81420DB888DF815301B0A8DF831
:10A3800016300E4B0093072294F83C3004A942F695
:10A390005020FFF717FFAAE7F0AF0020D0AF002052
:10A3A000E8AF0020C0AF0020B8AF0020F2AF00201F
:10A3B000C8AF0020FAAF0020E0AF0020D8AF0020E7
:10A3C000A8DF7047A9DF7047ACDF7047AEDF70478A
:10A3D000B0DF704764DF7047F0B513241C80D0F8FD
:10A3E0007C41059E4CBBD0F88041002C49D1D0F86F
:10A3F0008441002C67D10020F0BDD0F87C7137F883
:10A4000034401F883C441C80877CECB2A742EAD9C8
:10A410000CFB04070135B7F814E08E454FEAC4077A
:10A42000EBD142F64D23138001239370D470D0F802
:10A430007C21D25B32800120DEE700254FF00A0C40
:10A44000E2E7D0F8807137F834401F883C441C8024
:10A4500090F87870ECB2A742C9D90CFB040701351B
:10A46000B7F87AE08E454FEAC407EAD142F64D23A9
:10A47000138002239370D470D0F88031DB5B33807B
:10A48000D9E700254FF00A0CE2E7D0F8847137F8DD
:10A4900034401F883C441C8090F8DE70ECB2A74228
:10A4A000A9D90CFB04070135B7F8E0E08E454FEA67
:10A4B000C407EAD142F64D23138003239370D4706E
:10A4C000D0F88431DAE700254FF00A0CE4E72DE9F3
:10A4D000F04315468BB004468846D0F87801A98829
:10A4E0006A461E46FFF7ABFD10B1636803B198479B
:10A4F000009F8FB30021102201A8B5F80E90FCF741
:10A500004FFF01238DF804300023ADF80830BDF86B
:10A510004830A888ADF80C90A3EB0903ADF80E30D5
:10A520009DF80A304E44374443F0010301A90497D3
:10A530008DF80A30FFF74CFF10B1636803B19847FC
:10A5400023684BB1D8F80000069007228DF814203C
:10A55000099505A9204698470BB0BDE8F0832DE981
:10A56000F04186B005460C4616468988D0F8780139
:10A570006A461F46FFF763FD10B16B6803B1984749
:10A580000098F0B1228AE389BDF8301013448B4261
:10A5900017DC04F11208414638441BF0ABFC2B6871
:10A5A0007BB104228DF80420E2893068ADF80C20DC
:10A5B000228A0290CDE90484ADF80E2001A9284634
:10A5C000984706B0BDE8F0812DE9F0418EB006460F
:10A5D0000F4690460021202206A8149C1D46FCF739
:10A5E000DFFE42F64D23ADF818303B788DF825306C
:10A5F00023788DF8293063788DF82A30A3788DF888
:10A600002B30159A3089ADF81C80012306A98DF8EE
:10A6100024308DF8273001F0DFFAF8B91422014612
:10A6200001A8FCF7BDFE42F60813ADF8043023780C
:10A630008DF80A30294663788DF80B30684601F0B2
:10A64000BCFA159ACDF814D080B2ADF80E00ADF872
:10A65000120001A932F8080B01F068FB0EB0BDE84A
:10A66000F08170B5138A022B86B004460E4615465B
:10A6700013D103688BB102F1120001F09AFA00289D
:10A6800018BF02233068029008BF03238DF80430FE
:10A690000595236801A92046984706B070BDF0B51E
:10A6A000144689B005460F462022002168461E4602
:10A6B000FCF776FE62788DF81220111E4FF0080329
:10A6C000ADF8043018BF01219DF80D302889ADF890
:10A6D0000070C90023F01A0341F0120119432378D6
:10A6E0008DF81130A3788DF80D108DF813303246A7
:10A6F000012369468DF80F3001F06EFA09B0F0BD04
:10A7000030B587B004460D46D0F87801898801AA93
:10A71000FFF795FC10B1636803B19847019BFBB14B
:10A720001022002102A8FCF73BFE01238DF808301F
:10A73000ADF81230019B05939DF80E30A8880022D9
:10A74000ADF80C2043F00103EA89ADF8102002A90E
:10A750008DF80E30FFF73CFE10B1636803B19847E7
:10A7600007B030BDF0B50388502B8BB005460C46C2
:10A7700057D0512B00F00E81102B3FD18188D4F897
:10A780007801002304AA0493FFF759FC10B1636811
:10A7900003B19847049888B3D4F87C11002934D0C9
:10A7A000A67C00231322B3422AD3D4F8801121B10E
:10A7B00094F878600023B34229D3D4F8841121B1EE
:10A7C00094F8DE600023B34226D30021FCF7E8FDB5
:10A7D00063899BB1049B01261E700822002105A8F5
:10A7E000FCF7DEFD049B6189A888059605AA0693FF
:10A7F000FFF7EAFD10B1636803B198470BB0F0BDF5
:10A8000031F8337001333A44CDE71322CDE731F804
:10A81000337001333A44CEE731F8337001333A44B0
:10A82000D1E7C188B4F86E01022300228842ADF856
:10A830000C30ADF80E201ED1A988D4F8780104AAF6
:10A84000FFF7FDFB10B1636803B19847049A002A33
:10A85000D4D02B8A012BD1D1AB7C0BB1012BCDD124
:10A860008DF8143053702368002BC7D0099505A9C3
:10A8700020469847C2E7608988421AD1A988D4F84F
:10A88000780104AAFFF7DBFB10B1636803B19847B6
:10A89000049A002AB2D02B8A012BAFD1AB7C1BB11A
:10A8A000012BABD1062100E005218DF814101370A7
:10A8B000D9E7B4F8520188420BD142F62223ADF811
:10A8C0001430ADF816202A4605A92046FFF7C9FE28
:10A8D00094E7B4F84E01884207D142F62221ADF840
:10A8E0001410ADF8162008220DE0B4F856318B4252
:10A8F00012D142F63223ADF814300A23ADF81620F7
:10A90000ADF80C300122ADF80E20009205AA2946C0
:10A910002046FFF724FE71E7B4F862318B4202D182
:10A9200042F63323CBE7B4F85E318B4217D0A07CDC
:10A9300004F10E060A27D3B298421AD80DF10E037D
:10A94000009305AA03AB2046FFF746FD00283FF41D
:10A9500055AFBDF80E300093BDF80C30D6E742F687
:10A960003323ADF814300B23ADF81620ADF80C30BE
:10A97000B9E7013207FB02FC36F80CC08C45DAD18E
:10A9800042F64D22ADF8142001228DF816208DF8E4
:10A99000173098E78079022300220128ADF80E30A5
:10A9A000ADF810207FF42AAF298966898E4204D140
:10A9B00029462046FFF7A4FE20E7B4F84E618E42F8
:10A9C0000AD142F62221ADF81410ADF81620082263
:10A9D000ADF8102000920FE0B4F856318B4211D13F
:10A9E00042F63223ADF814300A23ADF81620ADF844
:10A9F0000E30ADF8100000902A4605A92046FFF75A
:10AA000066FDFBE6B4F85E318B4209D142F6332392
:10AA1000ADF814300B23ADF81620ADF80E30D6E7A4
:10AA200004AB009305AA0DF10E032046FFF7D4FCFA
:10AA300000283FF4E3AEBDF810300093BDF80E30AF
:10AA4000DAE72DE9F04F0C4697B00546002800F0F4
:10AA50001482002900F011828B7A0A2B00F2908078
:10AA60000B7C0A2B00F28C800B7E0A2B00F2888074
:10AA70000B6803604B6843608B7A83740B7C80F8AF
:10AA800078300B7E80F8DE3005F10802012041F6B7
:10AA9000120304A98DF81200ADF81030FFF790FCF6
:10AAA0000646002878D1074694F83620FBB29A4231
:10AAB00068D8238953B30127202200210EA894F8D7
:10AAC0003C9094F83D808DF82470FCF769FC42F6C8
:10AAD0004E23ADF838304FF001130F9309AB1093AC
:10AAE0009DF8453028898DF8499023F0060343F0FE
:10AAF000060305F10A020EA98DF845308DF84A804B
:10AB00008DF8477001F068F8002845D1A37A002B32
:10AB100045D1237C002B7CD1237E002B40F0AD80DF
:10AB2000202200210EA8FCF73BFC42F64B23ADF897
:10AB30003830A38CADF83C30ADF83E30236A10932A
:10AB400094F82C308DF84930BDF84430288923F42E
:10AB50003F7323F0030343F4007343F0010305F54F
:10AB6000A2720EA9ADF8443001F036F8A0B994F8FD
:10AB70002630002B00F0DF80A36A002B40F06E81AE
:10AB8000072009E0A16B288931F813100EAAFFF7FE
:10AB900019FC0137002887D017B0BDE8F08FE368B3
:10ABA000002BB6D04FF000084FF00A09D4F80CB0D3
:10ABB0005FFA88F70BEBC70A012200210EA8FCF709
:10ABC000EFFB9AF805209DF83830003A18BF0122B3
:10ABD000D20023F01A0342F012021A438DF83820F3
:10ABE0003BF8372009FB07570AF104031437009399
:10ABF00001970AF102030EA92846FFF7E5FC002899
:10AC0000CAD1A27A08F101085FFA88F39A42CDD836
:10AC10007FE76369002B3FF47FAF4FF000084FF0F0
:10AC20000A09012200210EA8D4F814B0FCF7B8FBE1
:10AC30009DF8383023F00E035FFA88F743F00E03D7
:10AC40008DF838303BF837200BEBC70A09FB075764
:10AC50000AF104037A37009301970AF102030EA95F
:10AC60002846FFF7B1FC002896D1227C08F10108A4
:10AC70005FFA88F39A42D4D84EE7E369002B3FF499
:10AC80004FAF4FF00A08012200210EA8D4F81CA0F3
:10AC9000FCF786FB9DF8382022F00A02F7B242F05A
:10ACA0000A028DF838203AF837200AEBC70908FB6A
:10ACB000075709F10403E0370093019709F10203F4
:10ACC0000EA92846FFF780FC00287FF465AF227E9E
:10ACD0000136F3B29A42D6D822E7A06A3A460DF17D
:10ACE0000F0100EB8600FFF775FB00287FF454AFDF
:10ACF0000146142209A8FCF753FB42F60713ADF8EE
:10AD0000243094F82C308DF82A30B5F844019DF8A1
:10AD10000F30ADF82E3005F5A67209A9ADF8323026
:10AD20000D9701F003F800287FF436AF013694F850
:10AD300026309E42D1DB237A93B305F5A77304F145
:10AD4000420242F622212846FFF7A9FC00287FF4A0
:10AD500023AF014620220EA8FCF722FB42F6322345
:10AD6000ADF838309DF84530288923F00E0343F0C4
:10AD70000E0301228DF8453094F84530ADF83C20A3
:10AD80008DF849308DF8472094F846308DF84A30D8
:10AD900005F5AB720EA900F01FFF00287FF4FCAE92
:10ADA000637A002B5DD1238E8DF824301B0A8DF839
:10ADB000253094F832308DF82630202294F8333044
:10ADC0008DF8273000210EA8FCF7EAFA42F64A2354
:10ADD000ADF838309DF84530288943F002038DF8EE
:10ADE000453094F834308DF8493009AE4FF00413F3
:10ADF00005F5B3720EA90F93109600F0EDFE002832
:10AE00007FF4CAAE01468DF8240020220EA894F8E3
:10AE10003E70FCF7C5FA42F64C23ADF838309DF889
:10AE2000453028898DF84A7043F004038DF8453089
:10AE300005F5B7724FF001130EA9CDE90F3600F0FA
:10AE4000CBFE00287FF4A8AEE368C5F87C316369C7
:10AE5000C5F88031E369C5F884319DE6064605AF43
:10AE600065E705F5AF7304F13F0242F6332128464A
:10AE7000FFF715FC002896D08EE60E208CE62DE913
:10AE8000F04186B00E46BDF8308015461F46044698
:10AE900000284DD0002B4BD0837C8B424AD94FF6F3
:10AEA000FF73984548D0ADF80220D0F8780101AA88
:10AEB0004146FFF7C4F878BB019BD4F87C211333DB
:10AEC0000193C3B29E422AD832F83630AB422DD31A
:10AED0002A46394601981BF00DF80021102202A8DD
:10AEE000FCF75EFA0A2101FB06444046A38AADF84E
:10AEF000083001238DF80A300023ADF80C3002A988
:10AF00000DF10203CDE90437FFF760FA20B9049B85
:10AF10001B88AB4218BF0C2006B0BDE8F08132F8A8
:10AF20003010019B0B4401930130CAE70C20F3E77A
:10AF30000E20F1E70720EFE70820EDE7F0B50C461B
:10AF400087B016461D460746002836D0AAB34FF6EE
:10AF5000FF739D4233D0ADF80210D0F8780101AAFA
:10AF60002946FFF76CF830BB0198082C00F102006D
:10AF7000019003D8224631461AF0BCFF002110226E
:10AF800002A8FCF70DFAB7F84E31ADF808300123EE
:10AF90008DF80A300023ADF80C3002A90DF1020340
:10AFA0002846CDE90436FFF711FA20B9049B1B8827
:10AFB000A34218BF0C2007B0F0BD0E20FBE708200D
:10AFC000F9E72DE9F04788B08946BDF84060BDF843
:10AFD000485017469A46044600284CD04FF6FF7357
:10AFE0009D424AD006F103081FFA88F3082BADF8FA
:10AFF00002303ED8D0F8780101AA2946FFF71FF8A1
:10B00000A0BB019B8DF808900B3301938DF809705C
:10B010008DF80AA02EB1119932460DF10B001AF0ED
:10B0200069FF02AEBDF80220019831461AF062FFB6
:10B03000102200210DEB0200FCF7B2F9B4F85E31EA
:10B04000ADF8103001238DF812300023ADF8143024
:10B0500004A90DF102032846CDE90636FFF7B6F93B
:10B0600020B9069B1B88434518BF0C2008B0BDE8DB
:10B07000F0870C20FAE70E20F8E70820F6E72DE924
:10B08000F743DDF82C900E4690461F4605460028F3
:10B090003DD0B9F1000F3AD090F878308B4238D9D2
:10B0A000BDF82810D0F8780101AAFEF7C8FF0446C1
:10B0B000C8B9019BA97C133301930346DAB29142CC
:10B0C00015D8D5F880110023DAB2964218D831F895
:10B0D000362008EB070393421DDC019942463944B0
:10B0E00048461AF007FF204603B0BDE8F083D5F8C4
:10B0F0007C2132F83300019A024401920133DDE7EA
:10B1000031F83300019A024401920133DCE70E2446
:10B11000E9E70724E7E70924E5E76DDF704779DF12
:10B1200070477DDF704764DF70472DE9F04F85B0D1
:10B1300000250E9CBDF83CB0B4F800A00191074674
:10B1400090461E46A9463A884A450DDC45B12388FB
:10B15000013BA3EB0A039BB2FF2B3AD806F80A3057
:10B16000002005B0BDE8F08F7A6852F829000390FE
:10B1700000220DF10B0103A8FFF7D5FF0028F0D145
:10B180009DF80B20424521D12288002D14BF0020BC
:10B19000022002EB0801014459451ADC3DB9013295
:10B1A00092B2019B2280B3542288013222802288ED
:10B1B0000DF10B01324403A8FFF7B5FF0028D0D1F1
:10B1C00021889DF80B200A442280012509F10109FC
:10B1D000B9E70C20C5E72DE9F341089FBDF82480AD
:10B1E0001546CDE90078022204461E46FFF79DFF72
:10B1F00050B93346102229462046CDE9087802B0DE
:10B20000BDE8F041FFF791BF02B0BDE8F0812DE944
:10B21000F04F00231788138090F82D3085B0064634
:10B220000D46144653B3082F01D80C2027E102A87D
:10B23000FFF773FF002840F0228123880822EA5498
:10B24000238801339BB21B222380EA5420880130DB
:10B2500080B2208006220DF1090128441AF04AFE2E
:10B2600023889DF8082006339BB212F0FE0218BF17
:10B2700001222380EA54238801332380B378FBB171
:10B2800023880433BB42D0D802A8FFF748FF002828
:10B2900040F0F58023880322EA54238801339BB2CF
:10B2A00019222380EA542388BDF8082001339BB279
:10B2B000E9182380EA54120A4A7023880233238053
:10B2C000F2789AB12388D91CB942AED80221E95448
:10B2D000238801339BB201212380E95423880B4446
:10B2E0009BB22380EA5423880B4423807268AAB15E
:10B2F0002388D91CB94298D8022192F90020E95438
:10B30000238801339BB20A212380E9542388013327
:10B310009BB22380EA542388013323803389002B96
:10B3200040F0A180338A5BB1CDE900472B4607226C
:10B33000032106F11000FFF74EFF002840F09F8028
:10B34000338B5BB1CDE900472B461522142106F162
:10B350001800FFF740FF002840F09180326A002A71
:10B3600040F09080D6F82480B8F1000F30D0B8F8C3
:10B3700004302188981C8A1C0244BA423FF655AF1B
:10B38000FE283FF652AF03336B54238801339BB240
:10B39000FF222380EA54238801339BB22380B8F82C
:10B3A0000020EA54E918120A4A702088023080B25C
:10B3B0002080B8F804205AB1D8F8081000296BD0C2
:10B3C00028441AF097FD2388B8F8042013442380FA
:10B3D00096F82C30002B40F09880307800284ED022
:10B3E0003388012B58D0228802F1020CBC453FF66D
:10B3F0001CAF012805D17378023313449F42FFF438
:10B4000014AF023FBF1ABFB202A905EB0C00ADF8A2
:10B410000870FFF786FE90BB3178BDF8083002292E
:10B4200000F0B98072789A4202D39F4280F0B180D6
:10B43000012940F0B280974293B2C0F0AE80ADF8DF
:10B4400008300821BDF80830FE2B3FF6EEAE22880A
:10B450000133AB542288013292B22280A95422884F
:10B46000134423800BE0CDE900472B46062202213E
:10B4700006F10800FFF7AFFE00283FF453AF05B018
:10B48000BDE8F08FB4F800C00CF10603BB423FF6F4
:10B49000CCAE1188052901D80720F0E76FF4486E7B
:10B4A00001EB0E039BB24FF27D3E7345F4D95388F6
:10B4B000052BF1D96FF44860181880B27045EBD9AC
:10B4C0004FF6FF70814201D09942E5D8052305F877
:10B4D0000C30238801339BB212212380E954238846
:10B4E00001339BB223801188E954E818090A41709E
:10B4F000238802339BB223805288EA54E918120A47
:10B500004A702388023323802CE7B36A002BC3D010
:10B510004FF000084FF00C0A4FF0160BB16A5FFABB
:10B5200088F20AFB02F201EB0209B9F80430981C18
:10B53000FE283FF67AAE208803332B54238801334C
:10B540009BB2238005F803B0238801339BB223808C
:10B550008A5AEA54E918120A4A702088023080B2E6
:10B560002080B9F804205AB1D9F80810002993D0E6
:10B5700028441AF0BFFC2388B9F804201344238020
:10B5800096F82C2008F101085FFA88F39A42C5D892
:10B5900023E7092156E79F42FBD2ADF8087050E738
:10B5A00030B5C8B1F2B10024651C8D4206DA1588A9
:10B5B000A54212D805196D789D420ED1A14211D92C
:10B5C000005D48B1013880B230B10234A3B210FA44
:10B5D00084F4A14206DB138030BD055D01352C44A7
:10B5E000A4B2E1E70020F7E713B513460022ADF857
:10B5F00006200DF106020446FFF7D2FF10B1BDF898
:10B600000630E01802B010BD75DF704776DF704776
:10B610007ADF70477BDF7047034B1A8882420CBF8A
:10B6200018460020704700BF20B00020024B9B69E5
:10B6300003B11847704700BF04B0002073B585B24E
:10B640002846FFF7E9FF044638B3174E027A337BEA
:10B650009A420CD200F10A012846FFF7D5FFF0B15B
:10B6600011281AD002B0BDE87040FFF7DFBF0023F9
:10B670000372337C43B13B212846FFF7C7FF30F00C
:10B68000080301D0FFF7D2FF736933B100228DF8B0
:10B690000420ADF8065001A8984702B070BD237A87
:10B6A00001332372F9E700BF04B0002037B50B4621
:10B6B000497A0F4A79B9D2E901141D7A0246002D60
:10B6C00018BF2146586806F0D5FC78B103B0BDE834
:10B6D0003040FFF7ABBF00211972536933B101222B
:10B6E000ADF806008DF8042001A8984703B030BDDE
:10B6F00004B000204B8802889A4212D842889A42AD
:10B700000FD380888B8840F2F311884294BF021ACD
:10B71000421A9A4205D80844984234BF00200120BA
:10B72000704700207047000070B50388122B014657
:10B7300059D004D8102B1ED0112B44D070BD502BE3
:10B74000FCD12F4BC288DB899A42F7D1038A022BA6
:10B75000F4D186883046FFF75FFF05460028EDD01C
:10B7600001F1120000F025FA38BB686806F0B0FC61
:10B770000028E3D009E0C37B012BDFD14FF6FF7037
:10B78000FFF74AFF054620B90420BDE87040FFF7E7
:10B790004DBF8E881B4A0680002303721368C0F8D1
:10B7A0000A305368C0F80E3010310A30FFF7A2FF9C
:10B7B000134B6872DB89002BC0D129463046BDE8A7
:10B7C0007040FFF773BF8088FFF726FF044600280C
:10B7D000B4D0406806F07CFC08B1FFF727FF4FF6B5
:10B7E000FF732380AAE786883046FFF715FF0546DA
:10B7F0000028A3D008310A30FFF77CFF6872DCE72D
:10B8000004B0002034B00020F8B5064648B3054621
:10B810000FCD154F3C460FC495E8070084E807009C
:10B820003068124C3C60B0B1FFF7F2FEC0B932682C
:10B8300013682360536863600D480E4A4FF6FF7328
:10B8400003800D4B40F8043F002106F001FC002866
:10B8500018BF032004E02046FFF7DCFE0028EBD0F1
:10B86000F8BD0E20FCE700BF04B0002034B000207B
:10B8700020B000203DB6020040B00020F7B51746CA
:10B8800001900E4691B1019C6CB100252C462946D1
:10B8900001A804F082FB18B13946A8B2B0470134C0
:10B8A0000135142DF3D1204603B0F0BD0C46FAE764
:10B8B0000AB104F051BB04F066BB73B50191019C61
:10B8C00006466CB100252C46294601A804F065FB0C
:10B8D00018B106EB440301349D800135142DF3D1DA
:10B8E0003046346002B070BD2DE9F047038884888B
:10B8F000103B8CB005460A2B21D8DFE803F0064048
:10B9000020202020202020654700DFF8E880D8F89C
:10B910000830DB430093D8F80410684604F028FA96
:10B92000009901A8FFF7C9FF0DF108090027019B45
:10B930009F4207D3132C12D904200AF05EF90CB0F1
:10B94000BDE8F08739F802AB00260136514608EB16
:10B95000860004F018FB1E2EF7D10137E7E71F48D9
:10B96000214604F0F9FA1E48214604F0F5FAEB7B73
:10B97000022BE4D11B48214604F0EEFADFE717481A
:10B9800021460CB0BDE8F04704F0FDBA027A164833
:10B990003F2A4FEA1215214694BF00220122FFF7E9
:10B9A00087FF022D94BF0022012210482146FFF795
:10B9B0007FFF012D0E4894BF0022012221460CB0CA
:10B9C000BDE8F047FFF774BF037A002BB7D1427A86
:10B9D0000548C2F3C0022146F1E700BF68B000206D
:10B9E00064B000206CB0002078B0002074B000205B
:10B9F00070B0002060B000201328014602D8024831
:10BA000004F0CBBA0020704764B0002007B5019065
:10BA1000FFF7F2FF019930B1044804F0BEFA0028A4
:10BA200014BF0220012003B05DF804FB6CB00020BD
:10BA300007B50190FFF7E0FF019930B1044804F029
:10BA4000ACFA002814BF0220012003B05DF804FB0B
:10BA500068B0002007B50190FFF7CEFF019928B12B
:10BA6000044803B05DF804EB04F097BA03B05DF846
:10BA700004FB00BF70B0002007B50190FFF7BCFFCA
:10BA8000019928B1044803B05DF804EB04F085BACD
:10BA900003B05DF804FB00BF74B0002007B501904F
:10BAA000FFF7AAFF019928B1044803B05DF804EB41
:10BAB00004F073BA03B05DF804FB00BF78B0002057
:10BAC00010B50446FFF798FF002814BF2046142045
:10BAD00010BD000008B51821024804F067FAC0B292
:10BAE00008BD00BF60B0002070B50A4E0546304664
:10BAF0000C4604F052FA58B12846FFF77DFF38B1E2
:10BB00000734294606EB8400BDE8704004F045BACE
:10BB1000002070BD60B00020F8B50B4F05463846D8
:10BB20000C46164604F039FA60B12846FFF764FF68
:10BB300040B107343246294607EB8400BDE8F8409F
:10BB4000FFF7B6BEF8BD00BF60B0002073B50B4D67
:10BB5000019204460E460146284604F01EFA50B1F2
:10BB6000063405EB8404019A6068314602B0BDE8F2
:10BB70007040FFF783BE02B070BD00BF60B0002010
:10BB8000AADF7047ABDF7047002301380B70042831
:10BB900006D8DFE800F00306080A0C0011230B703A
:10BBA00070472123FBE73123F9E71223F7E722232C
:10BBB000F5E7008800F0010070470B7803704B78C0
:10BBC00043700220704738B5044608460D461AF007
:10BBD00017FF6560208038BDF0B58B7891B0012BE0
:10BBE0000C4638BF01238DF80E3005460B88ADF8A2
:10BBF0000C300021164668460322FBF7D1FB607C1F
:10BC00006946FFF7C1FFA07C0DF10101FFF7BCFF02
:10BC1000E27B237B217D43EAC203227C43EA0213B9
:10BC20009DF80220002922F0190203F0190314BF25
:10BC300002210121134361F342031C22002109A8C0
:10BC40008DF80230FBF7ACFB637B13F0300F15D09F
:10BC500002AF032200213846FBF7A2FBE07C0DF186
:10BC60000901FFF791FF11238DF808309DF80A3084
:10BC70000E97012262F342038DF80A30637B8DF840
:10BC800024301422A37B8DF82530002104A8FBF773
:10BC900087FB03AB0493A388ADF81C30A368CDF8F1
:10BCA00014D01BB1E288ADF818200893A369002BCB
:10BCB00031D001AF032200213846FBF771FBA369A5
:10BCC0001A88ADF82C205A88ADF82E205A680D97A6
:10BCD000187B0A923946FFF757FFA3690DF105015A
:10BCE000587BFFF751FFA3699A7A197A41EAC2019A
:10BCF000DA7A9B7B41EA02119DF80620002B01F0C5
:10BD0000190122F0190214BF02230123114363F326
:10BD100042018DF80610E36903B10C93334604AA7F
:10BD200009A92846FFF72CFF11B0F0BDF0B50C466D
:10BD300089B0054616460021142203A8FBF730FB04
:10BD4000A378A079012B38BF01238DF80A3001AF09
:10BD50002388ADF80830394602AB0393FFF714FF90
:10BD6000E0790DF10501FFF70FFFE2786379217AA1
:10BD7000049743EAC203227943EA02139DF806209E
:10BD8000002922F0190203F0190314BF0221012136
:10BD9000134361F342038DF806306389ADF8143024
:10BDA000A389ADF81630E389ADF81830324623691F
:10BDB000079303A92846FFF7E5FE09B0F0BD90DF21
:10BDC0007047A5DF7047B5DF70470000F0B52D4E16
:10BDD0007388032B85B007460D460BD92A482B4C98
:10BDE000241AE40824040A463B46294944F0040086
:10BDF00005F061FE00236A4602A93846ADF80850F6
:10BE0000ADF80A50ADF80C30ADF80E300093ADF837
:10BE10000430FFF7D4FF054688B373886BB105F093
:10BE200085FF1A4C1B4903461748241AE4082404CA
:10BE30003A4644F0010005F03EFEBDF80020BDF892
:10BE4000023052EA03010BD0718849B10E480F4C01
:10BE50001149241AE408240444F0010005F02BFEE3
:10BE6000BDF804205AB173884BB10748074B0B4902
:10BE70001B1ADB081B0443F0010005F013FE2846E3
:10BE800005B0F0BD905E002098C0040040C10400E1
:10BE90004880040077800400C18004000081040011
:10BEA00078B14FF0171303601B2303711723C3806E
:10BEB000038141F61B3200230161438182811846D0
:10BEC00070470E20704700002DE9F043828887B04C
:10BED00005460C46002A40F0A0810388242B00F080
:10BEE000058129D8112B00F0CC80232B00F048814C
:10BEF000102B76D0A37A002B00F08F81E1880020F0
:10BF0000FFF75FFF0346002840F072814FF4807214
:10BF10006281A64A5288032A40F27F81A448A54D37
:10BF2000E288A5492D1AED082D0445F0040007B05C
:10BF3000BDE8F04305F0BFBD3A2B00F0AA80552BB9
:10BF4000D8D19A4EC5887388032B0AD9984B994843
:10BF50009A49C01AC00800042B4640F0040005F0BE
:10BF6000AAFDE3887088172D2A4638BF17229A4207
:10BF700028BF1A46002103282281A1720AD98D48C0
:10BF80008B4D0091401BC00800048D4940F0040017
:10BF900005F09BFDE1880020FFF715FF70B1738865
:10BFA00063B105F0C3FE834B8649024680481B1AE5
:10BFB000DB081B0443F0010005F074FDE27A002A5F
:10BFC00098D12369002B95D040F67721ADF8122047
:10BFD0002289ADF81010ADF8142004A92046984726
:10BFE00088E70B790B73C37B012B24D0022B25D060
:10BFF000E2882389934215D26C4D6B88032B0AD9B2
:10C000006B4B6C487049C01AC0080004002340F014
:10C01000040005F050FDE1880020FFF7D2FE78B95A
:10C020000123E372217B637B8B42BFF463AF00206B
:10C03000FFF7CCFE5EE70B88E380D9E74B88FBE790
:10C0400011286A880FD10123032AA372EAD959481B
:10C05000574B5E49C01AC0080004002240F004009B
:10C0600005F020FDDEE7002ADCD005F05FFE514B35
:10C07000574902464E481B1ADB081B0443F00100D7
:10C08000EEE71723CB800B8141F61B334A818B816E
:10C0900030E74189E388994228BF1946434B5B88C2
:10C0A000172938BF1721032B21810BD9404B414859
:10C0B000C01AC0080004134640F004000A4645496F
:10C0C00005F0F9FC236973B1E27A62B140F6772298
:10C0D000ADF810200022ADF812202289ADF814200E
:10C0E00004A9204698470023638103E72F4D017A76
:10C0F0006B88B0F80880B0F80A908689C7896173A8
:10C10000032B2CD92A4B2B48C01AC0080004134615
:10C1100040F004000A463049039005F0CCFC6B88DF
:10C12000032B1CD92D4903984A4605F0BBFC6B88AC
:10C13000032B14D92A490398424605F0B3FC6B88B7
:10C14000032B0CD9274903983A4605F0ABFC6B88C2
:10C15000032B04D924490398324605F0A3FC236934
:10C16000002B3FF4C7AE00228DF815204DF67A2142
:10C17000ADF81220627BADF810108DF814202CE77A
:10C180000A4B067A5B88032B0AD9094B09481749E1
:10C19000C01AC0080004334640F0040005F08BFCD0
:10C1A000217BA888B14228BF314641E7905E00203C
:10C1B00098C0040040C10400A98304005182040017
:10C1C0008B820400CA82040056810400938104001B
:10C1D000E581040016820400F9820400288304002B
:10C1E0003A8304004C8304005C8304006C830400E5
:10C1F000112812D00A4B5B887BB105F097FD094BE3
:10C200000949024609481B1ADB081B0443F00100D8
:10C2100007B0BDE8F04305F045BC07B0BDE8F083CA
:10C22000905E002040C10400E581040098C0040035
:10C23000B0DF704766DF704710B5002104464088C4
:10C24000FFF7F8FF034608B9237210BD112801D18A
:10C250000123F9E76368BDE81040184760B159B1A0
:10C260000378DE2B0AD00B684360DE2303704FF6A1
:10C27000FF734380002070470E20704708207047EE
:10C2800028B10378DE2B04D14180002070470E20B6
:10C29000704708207047F0B5054685B00C46002968
:10C2A00042D0002840D00B78DE2B3DD182884B88CD
:10C2B0009A4204D10B7A13B10846FFF7BDFF2B88D1
:10C2C000112B33D0512B0FD0012B2DD12B7A012BD9
:10C2D0002AD1A9886288914226D12046237205B0CE
:10C2E000BDE8F040FFF7A8BFAE886388B3421BD11A
:10C2F000AF79022F18D1AD7B2B1F022B14D8002150
:10C3000010226846FBF74CF8052D18BF4FF4C07398
:10C310006946304618BFADF804308DF80070FFF75D
:10C3200087FF08B16368984705B0F0BD6388AA88A5
:10C330009A4204BF4FF6FF736380F5E7A0DF7047B2
:10C34000A1DF7047ADDF7047B3DF7047B4DF7047E0
:10C3500010B50446408800F087FEA0802046BDE866
:10C36000104001F0A9BE30B587B005460C46142236
:10C37000002101A8FBF714F8082301A88DF8043068
:10C38000ADF806500394FFF7E3FF07B030BD00009F
:10C3900070B586B005461422002101A8FBF700F80D
:10C3A0004FF6FF739D42ADF8065046D0284600F088
:10C3B000D3FC112804463AD019D8F0B10B2823D069
:10C3C0001F4B5B8873B1204605F0B0FC1D4E1E4923
:10C3D00002461E48361AF60836042B4646F001007F
:10C3E00005F069FB21462846FFF7BDFF03E043F255
:10C3F00002039842E4D100221AE00F238DF80430A2
:10C4000001A8FFF7A5FFF6E710238DF804300C4BC9
:10C410005B88012BF4D90D4B0A480D49C01AC0089E
:10C4200000042A4640F0020005F03CFBE8E7012248
:10C43000084B28461978FFF76FFB06B070BD00BFA8
:10C44000A45E002068C104007B84040098C004003E
:10C45000FB830400E3B00020FFF79ABF024B0349BF
:10C4600018780022FFF772BBE5B0002071C402000B
:10C470002DE9F047DFF83C8188B098F800100446B9
:10C48000FFF732FB0646002840F08780204600F088
:10C49000CBFC0828054635D019D820B306285ED035
:10C4A0003F4B5B8873B1284605F040FC3D4F3E4949
:10C4B00002463E483F1AFF083F04234647F001006A
:10C4C00005F0F9FA29462046FFF74DFF09E043F24F
:10C4D0000203984205D043F20143984259D01128F3
:10C4E000DED1012546E03146142203A8FAF758FFB1
:10C4F000112303A88DF80C30ADF80E400126FFF78C
:10C5000027FFEEE70DF10600FFF71EFF3546012776
:10C510004FF0020A0DF10809BDF80630BB421ED9E2
:10C52000002249463846CDE903A9FFF70FFFB0B90D
:10C53000BDF808303DB942F605255B1B5D425D4103
:10C540000137BFB2E8E742F602129342F8D101ABDD
:10C5500003AA394620460493FFF7F4FE30B1204683
:10C5600000F082FD00F092FC002503E0BDF80430ED
:10C57000002BF4D00E4B2A4619782046FFF7CCFA50
:10C5800098F800103246204608B0BDE8F047FFF7A3
:10C59000C3BA2046FFF7FCFEA3E708B0BDE8F0876A
:10C5A000A45E002068C10400CC84040098C004008C
:10C5B000E5B00020E6B0002013B5044600F054FDBD
:10C5C00000236A46092101F0E3F8052805D1044B50
:10C5D000012219782046FFF79FFA02B010BD00BF74
:10C5E000E1B0002008B5084B084918780022FFF791
:10C5F000ADFA024630B9064B06491878BDE8084046
:10C60000FFF7A4BA08BD00BFE4B0002061C6020075
:10C61000E1B0002019C6020037B50446042200210B
:10C620006846FAF7BDFE42F6A623ADF800300A4B85
:10C6300018680190012501AA694620468DF802502C
:10C64000FFF77CFE28B9054B2A4619782046FFF7EC
:10C6500063FA03B030BD00BF0A870400E0B00020D9
:10C6600070B5012186B006462F4803F052FB044600
:10C67000BFF35F8F002851D1304600F0D1FA112866
:10C68000054640D01AD800284AD00B2839D0274B6D
:10C690005B8873B1284605F049FB254C25490246C5
:10C6A0002548241AE4082404334644F0010005F028
:10C6B00002FA29463046FFF756FE21E0862803D0CD
:10C6C00043F202039842E1E71422214601A8FAF757
:10C6D00067FE07238DF80430144BADF806605B88C5
:10C6E000012B0AD91248144B1449C01AC00800047F
:10C6F000324640F0020005F0D5F901A8FFF728FE08
:10C700000024224600E001220D4B30461978FFF745
:10C7100003FA1CB9BFF35F8F034B1C6006B070BDFA
:10C7200001240246F0E700BFDCB00020A45E002038
:10C7300068C104004185040098C004000C85040011
:10C74000E4B0002038B503780446A3B94088FFF769
:10C750001FFE6588284600F055FB28B1064B0122D4
:10C7600019782846FFF7D8F96088FFF725FFBDE85C
:10C770003840FFF737BF38BDE5B0002037B5037844
:10C78000092B044630D1427A72BB057A072D1BD0A3
:10C79000082D2ED0012D27D180886A46294601F028
:10C7A0009BFA08BB019B1B78F3B1A08800F08AFCC0
:10C7B0004FF6FF73984217D0124B2A461978FFF7AD
:10C7C000ABF9FFF74BFE0FE0808800F07BFC4FF6E3
:10C7D000FF739842044607D00B4B01221978FFF7EC
:10C7E0009BF92046FFF7E8FE03B0BDE83040FFF7B5
:10C7F000F9BE064B19680129F6D1BFF35F8F1A60A5
:10C80000F2E700BFE5B00020E4B00020DCB000207B
:10C810002DE9F843FFF75EF9DFF8B890DFF8B8804C
:10C8200089F80000FFF756F988F80000FFF752F981
:10C830001E4F1F4E3870FFF74DF93070FFF74AF961
:10C840001C4D1D4C2870FFF745F92070FFF742F989
:10C850001A4B187099F80030182B11D098F8003046
:10C86000182B0DD03B78182B0AD03378182B07D013
:10C870002B78182B04D02378182B01D018280ED130
:10C880000F4B5B884BB10F480F4B1049C01AC008C3
:10C89000000440F0010005F001F9032004E00C4B16
:10C8A00000201860BFF35F8FBDE8F883E5B000207B
:10C8B000E6B00020E1B00020E0B00020E2B00020AF
:10C8C000A45E002068C1040098C004007E850400B6
:10C8D000DCB00020E4B00020E3B0002037B5154BF9
:10C8E0000022CDE90032144B0D4619780446FFF7BB
:10C8F00013F91249124B2046002D08BF0B46019335
:10C9000000F0B2FB0022694600F0AEFF80B10D4B93
:10C910005B88012B0CD905F009FA0B4B0B49024639
:10C920000B481B1ADB081B0443F0020005F0BAF8A1
:10C9300003B030BD01000900E1B000201087040001
:10C9400014870400A45E002068C10400ED85040083
:10C9500098C0040070B503888488502B86B00546C3
:10C9600039D00FD8352B49D0362B00F09980634B46
:10C97000634918780022FFF7E9F806B0BDE8704077
:10C98000FFF76CBD522B22D0542BF0D11422002182
:10C9900001A8FAF705FD122320468DF80430ADF802
:10C9A000064000F061FBADF8080000F06FFA554B4F
:10C9B000204619780022FFF7AFF8534B204619782C
:10C9C0000022FFF7A9F801A8FFF7C2FCCFE7204635
:10C9D000FFF7DEFCCBE7037B012BC8D1827A012A6B
:10C9E000C5D1018942F602139942C0D1474B204676
:10C9F0001978FFF791F8FFF7F5FDB8E7444E2046A8
:10CA00003178FFF771F80028B1D000223178204644
:10CA1000FFF782F8EA88B2F5857F0ED092B13D4BE0
:10CA20005B88012B09D93C483C4BC01AC008000464
:10CA30003B4940F0020005F035F800212046FFF7A1
:10CA40004DFF94E76A89012A0DD0324B5B88012B98
:10CA500009D93148314B3349C01AC008000440F0AD
:10CA6000020005F01FF8AE89012E0BD0294B5B8820
:10CA7000012BE2D92848294BC01AC00800043246CD
:10CA80002949D6E7E98900222046FFF759FC00280A
:10CA9000D3D1264B324619782046FFF73DF866E79A
:10CAA000224E20463178FFF71FF800283FF45FAF91
:10CAB000317800222046FFF72FF8EE8856B1154B4B
:10CAC0005B88012BB9D91448144BC01AC008000464
:10CAD0003246ADE7EA89012A09D00E4B5B88012B6B
