:020000022000DC
:107000000000022059250400812504008325040086
:107010008525040087250400892504000000000060
:107020000000000000000000000000008B250400AC
:107030008D250400000000008F2504009125040028
:10704000256A03007D8B0200318803000170030074
:10705000516B03009325040093250400932504003D
:107060009325040093250400932504009325040030
:107070009325040093250400932504009325040020
:1070800093250400E12703009325040093250400C1
:1070900093250400932504006161030093250400F7
:1070A00093250400858B0200818B02003D6F030055
:1070B0009325040093250400000000000000000058
:1070C000932504009325040093250400616B0300BD
:1070D0009325040093250400932504004D850300A7
:1070E00093250400000000000000000000000000E4
:1070F0000000000093250400000000009325040018
:10710000000000000000000000000000000000007F
:10711000000000000000000000000000000000006F
:10712000000000000000000000000000000000005F
:10713000000000000000000000000000000000004F
:10714000000000000000000000000000000000003F
:10715000000000000000000000000000000000002F
:10716000000000000000000000000000000000001F
:10717000000000000000000000000000000000000F
:1071800000000000000000000000000000000000FF
:1071900000000000000000000000000000000000EF
:1071A00000000000000000000000000000000000DF
:1071B00000000000000000000000000000000000CF
:1071C00000000000000000000000000000000000BF
:1071D00000000000000000000000000000000000AF
:1071E000000000000000000000000000000000009F
:1071F000000000000000000000000000000000008F
:107200000348044B834202D0034B03B11847704735
:107210001C5E00201C5E002000000000054806499E
:107220000B1AD90F01EBA301491002D0034B03B194
:10723000184770471C5E00201C5E00200000000004
:1072400010B5064C237843B9FFF7DAFF044B13B1AE
:107250000448AFF300800123237010BD805F00203D
:107260000000000044D8040008B5044B1BB10449D9
:107270000448AFF30080BDE80840CFE700000000FD
:10728000845F002044D80400A3F5803A704700BF13
:10729000154B002B08BF114B9D46FFF7F5FF002152
:1072A0008B460F461148124A121A00F079F80C4B1F
:1072B000002B00D098470B4B002B00D098470020A4
:1072C000002104000D000B4800F016F800F044F80F
:1072D0002000290011F07CFC00F014F800000800E8
:1072E000000000000000000000000220805F00207D
:1072F000600301202D730200002301461A46184640
:1073000000F0A0B808B5074B044613B1002100F007
:10731000EFF8054B1868836A03B19847204600F0E0
:107320004BF900BFF1740200BC88040038B5084B6B
:10733000084D5B1B9C1007D0043B1D44013C55F8D5
:1073400004399847002CF9D1BDE8384021F0B0BA93
:107350001C5E0020185E002070B50D4E0D4D761B92
:10736000B61006D0002455F8043B01349847A642D5
:10737000F9D1094E094D761B21F094FAB61006D0CA
:10738000002455F8043B01349847A642F9D170BD5A
:10739000BC5D0020BC5D0020185E0020BC5D0020AC
:1073A000830730B548D0541E002A3FD0CAB20346E6
:1073B00001E0013C3AD303F8012B9D07F9D1032CDE
:1073C0002DD9CDB245EA05250F2C45EA054536D91C
:1073D000A4F1100222F00F0C03F1200EE6444FEA54
:1073E000121C03F1100242E9045542E90255103221
:1073F0007245F8D10CF1010214F00C0F03EB0212EC
:1074000004F00F0C13D0ACF1040323F00303043396
:10741000134442F8045B9342FBD10CF003042CB1FB
:10742000CAB21C4403F8012B9C42FBD130BD644618
:107430001346002CF4D1F9E703461446BFE71A4679
:10744000A446E0E7F0B5264C256885B0064605B3AE
:107450006C681F2C41DCA6B1D5F8880048B3D0F881
:10746000007140F824204FF0010C0CFA04FC00EBF2
:1074700084024CEA0707022EC0F80071C2F880307F
:1074800010D0A31C01346C6045F82310002005B017
:10749000F0BD1448144D25600028D9D00068C5F807
:1074A0008800D5E7D0F8043143EA0C03C0F8043172
:1074B000E7E70E480191CDE9022370B14FF48470E3
:1074C0001FF00EFE48B10027C0E94077DDE9022336
:1074D0006C680199C5F88800C3E74FF0FF30D6E724
:1074E00028600020000000009C5F0020E170040084
:1074F0002DE9F84FDFF8BCA0DAF800702DED028B13
:10750000E7B108EE100A89467D68D7F888806C1EBE
:1075100014D407EB8506043608EB8505B9F1000F96
:1075200010D0B8F1000F02D0EB6F4B450AD0013CF0
:10753000631CA5F10405A6F10406EFD1BDEC028B96
:10754000BDE8F88F7B683268013BA34216BF002379
:107550007C603360002AEAD0D7F804B0B8F1000F9D
:107560001AD0D8F80001012303FA04F1014213D024
:10757000D8F80401014218D155F8041C18EE100A7D
:1075800090477A685A450BD1DAF80030BB42CED02A
:107590001F46002FB8D1D1E790477A685A45F3D0FB
:1075A000DAF80070002FAFD1C8E755F8040C904707
:1075B000E7E700BF28600020FEE700BF4FF08053E0
:1075C000D3F83001A0F10D03584258417047000034
:1075D000024AD2F80034002BFBD0704700E0014093
:1075E00008B5FFF7EBFF40B14FF080430022C3F82E
:1075F0000C21C3F81021C3F83825FFF7DFFF00285E
:1076000046D04FF080524E4BD2F80414C3F82015E8
:10761000D2F80814C3F82415D2F80C14C3F82815AE
:10762000D2F81014C3F82C15D2F81414C3F830157E
:10763000D2F81814C3F83415D2F81C14C3F8401546
:10764000D2F82014C3F84415D2F82414C3F848150E
:10765000D2F82814C3F84C15D2F82C14C3F85015DE
:10766000D2F83014C3F85415D2F83414C3F86015A6
:10767000D2F83814C3F86415D2F83C14C3F868156E
:10768000D2F84014C3F86C15D2F84424C3F870251E
:10769000FFF794FF48B14FF08043D3F80024D2079E
:1076A00044BF6FF00102C3F80024264AD2F88830A4
:1076B00043F47003C2F88830BFF34F8FBFF36F8F6E
:1076C0004FF08053D3F830210D2A0ED1D3F8343146
:1076D000022B02D81C4AD35C3BB14FF01023D3F8E5
:1076E00008224FF08043C3F858254FF01021D1F8FD
:1076F0000C32DB071FD515480123C0F80435FFF70E
:1077000067FFD1F80C3223F00103C1F80C32FFF708
:107710005FFF0023C0F80435FFF75AFFBFF34F8F18
:1077200008490B4BCA6802F4E0621343CB60BFF315
:107730004F8F00BFFDE7074B074A1A6008BD00BF27
:1077400000C0004000ED00E0C088040000E00140FF
:107750000400FA05E05900200090D00376DF70475E
:1077600078DF70477ADF70477CDF70478FDF7047C4
:1077700033DF70470EF06DBB13B503883B2B044617
:1077800069D007D8112B34D0212B48D0102B0FD023
:1077900002B010BD562B71D0572BF9D13D4A0023B2
:1077A00013703D4A13703D4A13703D4A1370EFE762
:1077B0003C4B5B88022B09D93B483C4B3C49C01AE7
:1077C000C008000440F003000AF094FA394BA18885
:1077D000394800221A70394B01221A70384B19802F
:1077E00004F024FE0028D3D002B0BDE810400EF013
:1077F00030BB2C4B5B88022B09D92B482B4B3149D2
:10780000C01AC008000440F003000AF073FA2B4BC2
:1078100000221A702A4B4FF6FF721A80B8E7214BEC
:107820005B88032B09D92048204B2749C01AC00880
:10783000000440F004000AF05DFA0023A0888DF8EF
:10784000043001A98DF80530FFF790FF00289FD084
:107850000EF0FFFA9CE7134B5B88032B09D9124803
:10786000124B1A49C01AC008000440F004000AF084
:1078700041FAA0881321FFF771FFB3E7094B5B883A
:10788000032BF6D90848094B1149C01AC008000457
:10789000EBE700BFF3600020F4600020F1600020FF
:1078A000F6600020685E002068D9040020D904003A
:1078B000C3880400F0600020AC650020EF60002069
:1078C000E8590020D9880400F288040012890400D5
:1078D000338904007FB508220346019201A94FF6BF
:1078E000FF7202A806F0E0FD08B10EF0B2FA0199AD
:1078F00002A806F0B1FD08B10EF0ABFA07B05DF8D2
:1079000004FB000010B56D4BB2B0082800F2D38024
:10791000DFE800F05C05192735424F79B8000122F5
:107920001A70674B5B88022B40F2A5806548664B56
:107930006649C01AC008000440F0030032B0BDE838
:1079400010400AF0D7B901221A705D4B5B88022BF8
:1079500040F291805B485C4B5D49C01AC00800044E
:10796000EAE701221A70564B5B88022B40F28380B3
:107970005448554B5749C01AC0080004DCE701229F
:107980001A704F4B5B88022B75D94E484E4B5249AB
:10799000C01AC0080004CFE701221A70484B5B8868
:1079A000022B68D94748484B4C49C01AC00800040C
:1079B000C2E701221A70424B5B88022B5BD9414817
:1079C000414B4749C01AC0080004B5E700221A70AD
:1079D0003B4B5B88022B09D93A483B4B4149C01AC3
:1079E000C008000440F003000AF084F90AF006F829
:1079F0000028FBD1FFF7BCFE00283CD032B0BDE828
:107A000010400EF026BA00221A700823CDE9023386
:107A100012AA03AB02A904A806F006FD0528284C0B
:107A20002BD16388032B18D92648274B2E49C01A1F
:107A3000C008000440F004000AF05CF96388032BDE
:107A40000BD9214B1F482949C01AC0080004DDE9A1
:107A5000022340F004000AF05AF90220FFF73AFF2F
:107A6000039B0093029A224812AB04A902F0ACFBDC
:107A700008B10EF0EEF932B010BD0028DED00EF0E5
:107A8000E8F9DBE700221A701A4B18884FF6FF73EB
:107A90009842F0D012A906F0C1FD0528EBD008B13C
:107AA0000EF0D7F90620FFF715FF0DF15901104828
:107AB00002F07AFBDCE700221A70DCE7F0600020BD
:107AC000685E002068D9040020D9040054890400AD
:107AD00081890400A4890400C3890400E2890400A8
:107AE000108A04003E8A04005C8A0400918A040023
:107AF00020610020A865002007B50B78052B18D061
:107B0000062B1CD0042B17D18B79022B14D1CB79E7
:107B100093B90C4A01920C4A0C48128800921946FB
:107B2000012203F082FB38B103B05DF804EB0EF0E4
:107B300090B9074B01221A7003B05DF804FB044BA7
:107B40000022F8E7C0650020E8590020EC59002029
:107B5000F260002030B587B0082301934FF6FF7222
:107B6000012301A902A806F09FFC08B10EF071F9EB
:107B7000144D6B88022B0BD9134B1448019A1449EE
:107B8000C01AC0080004082340F003000AF0BFF840
:107B9000019902A806F03EFC6B88022B04460AD924
:107BA00009480A4B0B491B1ADB081B04224643F009
:107BB00003000AF0A3F814B120460EF04AF907B00A
:107BC00030BD00BF685E002020D9040068D90400E1
:107BD000E48A04001D8B040010B5044607F07AFA0D
:107BE000204607F0A1FA204606F0D4FF2378033B95
:107BF0000A2B1CD8DFE803F0061B1B1B1B1B461BB4
:107C00001C1B32002B4B5B88032B09D92A482B4BBA
:107C10002B49C01AC008000440F004000AF06AF8BA
:107C200009F0ECFE0028FBD1264BA2881A8010BD7B
:107C3000204B5B88032B09D91F48204B2249C01ACF
:107C4000C008000440F004000AF054F809F0D6FE21
:107C50000028FBD11D4B01221A70E8E7154B5B8809
:107C6000032B09D91448154B1949C01AC008000440
:107C700040F004000AF03EF809F0C0FE0028FBD1F5
:107C8000144BE8E7237CDB07D1D5237A072BCED131
:107C9000084B5B88032B09D90748084B0E49C01ACB
:107CA000C008000440F004000AF024F8BDE81040C9
:107CB000FFF750BF685E002068D9040020D9040097
:107CC000488B0400A86500206F8B0400F56000203D
:107CD000998B0400EE600020C48B04000EF0B9B84C
:107CE0000EF0B7B80EF0B5B82DE9F047AEB00AF017
:107CF000EDF808B10EF0ADF80EF098F908B10EF0FD
:107D0000A8F8002303A9012003930EF069FA08B133
:107D10000EF09FF803A80EF0BBFA08B10EF099F828
:107D2000BC4A0A2108200AF037F908B10EF091F890
:107D30001123B9488DF8043020F002F801AD82B269
:107D4000B5492846FFF710FD08B10EF082F840F261
:107D5000C130FFF705FD08B10EF07BF808220021C5
:107D600003A8FFF71DFB0623ADF80C30ADF80E306D
:107D7000ADF8103003A82B23ADF81230FFF7F2FC5A
:107D800008B10EF066F8A548002104F05FF908B1CB
:107D90000EF05FF8AC22002103A8FFF701FB0223DD
:107DA0008DF80C3040F20163ADF80E3001239C4A8F
:107DB000ADF81C308DF88530ADF8863040F20113F7
:107DC0004FF448600892ADF88830002242F6E06334
:107DD000CDE927032821934B2C93CDE9232241F2AF
:107DE0007072CDE92512904B90482D9303A902F0B3
:107DF0001CF808B10EF02DF88C48012102F012F8A1
:107E00008B4B8C48039303A904F0FEFA08B10EF0E3
:107E100020F843F2EF53ADF8063012230224ADF8F8
:107E2000083040220123002103A8ADF80A308DF864
:107E30000440FFF7B5FA03A87F4903F09AFF03A8AF
:107E400011958DF8484002F0BFFA08B10EF001F824
:107E50001022002103A8FFF7A3FA002303930122B5
:107E600005937648764B8DF8102003A9069302F00F
:107E700008FA08B10DF0EDFF724F734CDFF8E8819E
:107E8000082200213846FFF78BFA282200212046DD
:107E9000FFF786FA082200214046FFF781FA4FF4E7
:107EA00040737B8040F2012208232380A8F802203F
:107EB000238303224FF48273022540F202264FF0FF
:107EC000010940F2011A22814FF4817122826383F9
:107ED00040F2031240F205136181628263844822FA
:107EE0000021A4F802A0A680A571A681A573A68290
:107EF000A575A683A577A4F82090A68484F82650BB
:107F000003A83D80BE80A8F80090A8F80460FFF7A1
:107F100047FA4E4B03934E4B049305238DF81630CE
:107F2000D323ADF830304B4B0B9300234A4A8DF8E6
:107F3000423011934948ADF814A04FF0023303A921
:107F400006948DF81C90CDF820808DF824900A9727
:107F50008DF838500F928DF84050ADF850608DF884
:107F600052501293ADF84C608DF84E5002F03FFE27
:107F700008B10DF06EFF1C22002103A8FFF710FAD4
:107F800000234FF4A032CDE903324FF4F0220592E2
:107F9000ADF81A3003228DF81C30089303A8304B3B
:107FA0008DF81820099303F005FD08B10DF051FF7D
:107FB00006F05EF908B10DF04CFF0522002103A880
:107FC000FFF7EEF931238DF80C3007238DF80D30D3
:107FD00010238DF80E309DF80F3023F0030343F08B
:107FE00003038DF80F309DF8103023F0030343F0A6
:107FF000030303A88DF8103006F0F4F908B10DF072
:1080000028FF184806F0D6F908B10DF022FF2EB06F
:10801000BDE8F0872C600020068C04006865002015
:10802000E4590020057902007577020020610020E4
:10803000E17C0200AC6500200F8C04005465002038
:1080400064020202E6600020F8600020F97A020073
:10805000E57C02007C5B002001010003EC5900205C
:10806000DD7C0200D97B0200B865002008B5054818
:10807000032101F051FF18B1BDE808400DF0E9BE41
:1080800008BD00BF2061002008B5FFF763FDBDE813
:108090000840FFF7EBBF0000014B1878704700BFA6
:1080A000F0600020064B1B7843B1064B18884FF652
:1080B000FF73984202D01321FFF750BB704700BFF7
:1080C000EF600020E859002008B509F0F1FF09F041
:1080D00095FC18B9BDE8084009F00EBF08BD0000C6
:1080E00038B5154C6388022B09D91448144B15492F
:1080F000C01AC008000440F0030009F0FBFD124D57
:1081000000232B7006F0A0FA08B10DF0A2FE2B7828
:1081100073B16388022B0ED9094B08480B49C01A6A
:10812000C0080004BDE8384040F0030009F0E2BD9B
:10813000FFF7CAFFEBE738BD685E002068D904008E
:1081400020D90400198C0400EE6000203E8C04004D
:10815000014B1878704700BFEF60002007B50B494E
:108160000B4B09781B88024659B900930822034635
:10817000084802F05AFFB0FA80F0400903B05DF8F9
:1081800004FB0821034802F0AFFFF4E7F26000208F
:10819000E8590020EC5900201FB5164B1A88164BE1
:1081A0001B78E3B940F6FF74A042144BA8BF2046E9
:1081B000A142A8BF2146187089B2C0F3032040EA4B
:1081C00001100911587099700D4800920221032284
:1081D00002F02BFFB0FA80F0400904B010BD00247B
:1081E00002924BB242B2CDE900442146044802F06B
:1081F000BEFFEFE7E8590020F2600020E2600020B7
:10820000EC5900201FB50F4B19880F4B1A787AB91B
:108210000E4B18705A709A700D480091032201217C
:1082200002F003FFB0FA80F0400905B05DF804FBEE
:1082300000230291CDE9003301461A46044802F0BA
:1082400096FFEFE7E8590020F2600020DF60002091
:10825000EC59002007B50B4B0246187870B90A4B51
:108260005A700A4A187012889970094800920121C0
:10827000032202F0DAFEB0FA80F0400903B05DF8A4
:1082800004FB00BFF2600020DC600020E859002001
:10829000EC59002007B5074A1288009203460822CD
:1082A0000321054802F0C1FEB0FA80F0400903B096
:1082B0005DF804FBE8590020EC590020014B1878C8
:1082C000704700BFF1600020014B01221A70704717
:1082D000F160002007B5074A128800920346012288
:1082E0000421054802F0A1FEB0FA80F0400903B075
:1082F0005DF804FBE8590020EC590020014B187888
:10830000704700BFF6600020014B01221A707047D1
:10831000F660002000230129036002D0022904D165
:108320000123044A02EBC30303600068B0FA80F043
:1083300040097047448C040008B500F053FB012845
:1083400004D0BDE80840012000F06EBB08BD00F07D
:1083500094BB00F090BB00F04FBB07B5014601A8ED
:10836000FFF7D8FF012803D0019B586800F066FB97
:1083700003B05DF804FB37B50C4601466846154668
:10838000FFF7C8FF012803D10124204603B030BD08
:10839000009B01A9586800F05EFB0128F4D0019809
:1083A00000F016FB21462A4601F0DEFB01280446B8
:1083B000EBD0019800F010FBE7E737B50D4601461A
:1083C0006846FFF7A7FF012804460BD0009B01A9D0
:1083D000586800F040FB0128044603D0019800F0E3
:1083E000F3FA2860204603B030BD37B50D4601468C
:1083F0006846FFF78FFF012804460DD0009B01A9B6
:10840000586800F028FB0128044605D0019800F0C8
:10841000DFFA01F045FB2880204603B030BD37B5B8
:108420000D4601466846FFF775FF012804460DD04A
:10843000009B01A9586800F00EFB0128044605D0F6
:10844000019800F0C1FA01F029FB2880204603B012
:1084500030BD00F01FBB7047002303601846704713
:108460007047002070470000012905D9032905D174
:10847000034B00221A7070470CF073BE704700BFA8
:10848000D4650020012905D9032905D1034B002219
:108490001A7070470BF00BBF704700BFD16500200A
:1084A000012905D9032905D1034B00221A70704711
:1084B0000BF0FDBE704700BFD6650020023808B53E
:1084C0000C281AD8DFE800F01A321919191960902F
:1084D0007A1919074A004F4B5B88022B09D94E487D
:1084E0004E4B4F49C01AC008000440F0030009F089
:1084F00001FC09F083FA0028FBD108BD454B5B88DD
:10850000022B09D94448454B4649C01AC00800040B
:1085100040F0030009F0EEFB09F070FA0028FBD1EF
:108520000AF060FB404B01221A70E6E7394B5B888A
:10853000022B09D93848394B3C49C01AC0080004FD
:1085400040F0030009F0D6FB09F058FA0028FBD1EF
:10855000374B01221A70344B1870CEE72D4B5B88D5
:10856000022B09D92C482D4B3249C01AC0080004EF
:1085700040F0030009F0BEFB09F040FA0028FBD1EF
:10858000BDE808400AF012BB224B5B88022B09D9D8
:108590002148224B2849C01AC008000440F00300BB
:1085A00009F0A8FB09F02AFA0028FBD10FF0F2FC31
:1085B0000028A2D1BDE808400AF0F6BA154B5B8846
:1085C000022B09D91448154B1C49C01AC0080004D5
:1085D00040F0030009F08EFB09F010FA0028FBD1EF
:1085E000BDE808400AF0E4BA0A4B5B88022B09D9BF
:1085F00009480A4B1249C01AC008000440F00300A1
:1086000009F078FB09F0FAF90028FBD10AF0E0FA4A
:108610000C4B88E7685E002068D9040020D904006C
:10862000548C0400608C0400D96500206E8C04001A
:10863000D8650020798C0400848C0400978C040099
:10864000A18C0400D7650020012908B51ED003299C
:1086500018D0D1B90CF085F90E4B01221A700E4BCF
:108660005B88022B09D90D480D4B0E49C01AC00872
:10867000000440F0030009F03DFB09F0BFF90028B9
:10868000FBD102E0084B00221A7008BDBDE808408B
:108690000CF067B9D2650020685E002068D904003C
:1086A00020D90400B38C0400D365002008B50BF07A
:1086B000E7F816480AF0ECF908B10DF0CAFB1448C7
:1086C0000AF0AAFA08B10DF0C4FB124B1248186068
:1086D0000AF0A2FA08B10DF0BCFB10480AF09CFAAF
:1086E00008B10DF0B6FB0E480AF096FA08B10DF08D
:1086F000B0FB01F0E3F80AF03FFA08B10DF0A9FB76
:108700000AF052FABDE808400AF052BA0C8F040091
:10871000348E0400C4650020B08E04004C8D04002B
:10872000948D0400044B187818B1044B187880F02D
:10873000010000F001007047D8650020D7650020D7
:1087400038B5114D0AF022FD01F026F901F0F4F8D8
:108750002A6841F287339A42044613DCC2F59C53DF
:1087600008339BB2984204D3581E084B012184B2AF
:10877000197007482146104401F0ECF8286820449D
:10878000286038BD0023EFE7DC660020D5650020B7
:108790009267002008B5054BC3E900011946812006
:1087A0000AF028FBB0FA80F0400908BD38670020C5
:1087B0000A46014601480CF093BC00BFB08E04008D
:1087C000014601480CF0F0BBB08E040001460148A0
:1087D0000CF01EBCB08E0400014601480CF04CBCED
:1087E000B08E0400014B1878704700BFD16500209F
:1087F000014B01221A707047D165002010B5094C59
:108800002346032203F8012B4A00014618461EF0B6
:10881000F9FC0922214604480BF099FDB0FA80F0DA
:10882000400910BDC86500204C8D0400014B18782C
:10883000704700BFD6650020014B01221A707047B7
:10884000D665002010B5094C23460A46042103F8DA
:10885000011B014618461EF0D5FC022221460448A1
:108860000BF075FDB0FA80F0400910BD9067002054
:10887000948D0400044B1B7813B9044B186870479F
:1088800041F28730704700BFD5650020DC660020CC
:108890000048704792670020024A00231360024A92
:1088A00013707047DC660020D565002070B5064661
:1088B0000D4675B101F056F8044638B1A84228BFFC
:1088C0002C46A1B2304601F05FF818B1FFF738FF2F
:1088D000EFE72C462D1B2644EBD170BD00F016B8F7
:1088E00008B500F039F8BDE8084000F03BB81FB506
:1088F0000FC86C4684E80F000023102221464FF079
:10890000FF30029301F062FA04B010BD38B5114C8B
:108910004FF4FE2565602B68012B12D16B68102B7C
:108920000FD12846FFF7E3FFAB68984209D163688F
:108930000FCB04F1080585E80F0001232370002008
:1089400038BD10230122C4E902230023C4E9043303
:10895000F3E700BF1C7B0020014B01225A617047E6
:108960001C7B002010B5104C1022606804F1080137
:108970001EF016FCB0B160680FF096FF04F108001D
:10898000FFF7B5FF0422206104F1080160680FF0D1
:10899000A3FF6068102204F108011EF001FC0038FA
:1089A00018BF012010BD00BF1C7B002010B504467D
:1089B000082001F09DF92060002010BD0B680360C5
:1089C0004B68436000207047436800685B68184745
:1089D000436800689B69184743685B6A0BB100688D
:1089E00018477047034B00221A705A7002229A707F
:1089F00000F056BD347B002037B50A4D2B787BB98B
:108A0000AB788DF8043001A800F072FD012804460F
:108A100003D001232B70FFF71EFD204603B030BDAD
:108A20000124FAE7347B0020034A0346107808B992
:108A30009370704701207047347B002010B50446C6
:108A400000F060FD28B124B12046BDE8104000F0E0
:108A500069BD012010BD13B50446019100F052FD1F
:108A600030B10199204602B0BDE8104000F066BD6B
:108A7000012002B010BD00F06BBD4FF08053D3F861
:108A8000A400030E552B01D0AA2B01D180F0404049
:108A90007047000038B50D4C2578012D05D0032D09
:108AA0000CD0BDE8384000F055BD00F02BFD10B1F2
:108AB000022323706570FFF7CEFCF2E700F02AFD79
:108AC0000028F8D0002323706370F4E7347B002083
:108AD00037B5002401AB18190DF0ACFF60BB0134B1
:108AE000032CF7D1154B9DF80420154903EBC20068
:108AF000086001461348043101609DF805101248D2
:108B000003EBC10404602046104C043020609DF843
:108B100006000F4C03EBC00525602B460D4C0433BB
:108B20002360012303FA01F103FA02F20A430A491E
:108B30000A600A4A8340136003B030BD10F501405B
:108B4000407B00204C7B0020447B0020507B002099
:108B5000487B0020547B0020387B00203C7B002099
:108B600020B1034B800143F001031847704700BF59
:108B7000208F04000DF04ABE0DF054BE1CF068BDFD
:108B80001AF04EBB1DF00EBB70B58AB0064600F061
:108B900052FD0446304600F053FD054620461AF0CB
:108BA000C9FC00281BDD284600F07AFF2028034678
:108BB00028BF20239BB201AA02A9204601931AF0E4
:108BC00073FC60B1019B13B1304600F050FDBDF85D
:108BD000042002A9284600F0C7FF0128DED10AB010
:108BE00070BD000013B504460C48C36823B9204685
:108BF0001AF0ACFC02B010BD406801AA21469847AB
:108C00000028F4D1019800F03AFD0028F2D0019834
:108C1000FFF7BAFF019800F035FDEBE7587B002025
:108C200070B588B0044600F006FD0646204600F008
:108C30000DFD054630461AF071FC022821DC28465D
:108C400000F02CFF0446E0B1202828BF2024A4B265
:108C500022466946284601F00FF8012811D0224625
:108C6000694630461AF0C6FB68B91AF043FD00F0B9
:108C7000FD00082805D1064A936813B15068012108
:108C8000984708B070BD21B2284600F00FFFD1E729
:108C9000587B002010B5044600F0F7FC50B1204688
:108CA000FFF7BEFF204600F0DFFC204600F0F0FC9E
:108CB000002010BD0220FCE710B50446FFF7EAFFD4
:108CC00058B9204600F0E1FC38B12046FFF7A8FF74
:108CD0002046BDE8104000F0DBBC10BD10B50446D6
:108CE00000F0CDFC50B12046FFF74EFF204600F0CB
:108CF000B0FC2046BDE8104000F0C4BC10BD000030
:108D000007B501460948C3686BB1406801AA984796
:108D100048B9019800F0B9FC28B10198FFF780FF2D
:108D2000019800F0B5FC03B05DF804FB587B00200F
:108D300037B5154D2C780CBBC5E901446C70AC708F
:108D4000EC60FFF7C5FE02201AF0A8FA98B10F4BAD
:108D5000186800901B798DF80430052168461AF0D8
:108D600023FC40B14FF416701AF05EFC18B10220DB
:108D70001AF090FC20B9012003B030BD0020FBE7C1
:108D800001232B702046F7E7587B00202D8F04002D
:108D900010B50E4C62780AB1012010BD43686360C3
:108DA0008368A360C368E3600078012802D00228CA
:108DB000F2D110461AF0DAFB0028EDD01AF0FEFAD4
:108DC0000028E9D0012363700020E6E7587B0020EB
:108DD000034B9A781AB901229A701AF0FFBA7047B9
:108DE000587B0020014B5878704700BF587B00200B
:108DF00008B51AF007FC80F00100C0B208BD13B539
:108E000002AB03E906000446FFF77AFF9DF8003045
:108E10002BB1204602B0BDE81040FFF7E3BE02B020
:108E200010BD82B002AB03E9060002B0FFF768BFD5
:108E300013B50446FFF7D6FE204602B0BDE8104049
:108E4000FFF75EBF054B10B500249C705C70204698
:108E500001341AF07BFB082CF9D110BD587B00209F
:108E6000704710B50446FFF739FF204600F0E5FBD8
:108E7000BDE8104000F012BE10B50446FFF72EFF0B
:108E80002046BDE8104000F0D8BBF7B5054601917B
:108E90001646FFF723FF284600F0CFFB0199324624
:108EA000074600F0E9FE0128044606D0384631B2F4
:108EB00000F0FCFD2846FFF711FF204603B0F0BD8F
:108EC00037B505460191FFF709FF284600F0B5FBCD
:108ED0000199002200F097FE0128044602D028469E
:108EE000FFF7FCFE204603B030BD10B50446FFF787
:108EF000F5FE2046BDE8104000F0BCBB38B5044686
:108F0000FFF7ECFE204600F098FB054600F0C6FD9A
:108F100001B2284600F0CAFD2046BDE83840FFF700
:108F2000DDBE10B50446FFF7B5FE204600F08BFB12
:108F3000BDE8104000F0B4BD10B50446FFF7AAFE2E
:108F40002046BDE8104000F07EBB37B505460191D4
:108F5000144662B1FFF79EFE284600F074FB2246DD
:108F6000019900F001FE04462846FFF7A5FE2046C1
:108F700003B030BD70B5054608460E4600F08EFDC4
:108F8000044670B12846FFF785FE284600F05BFBDB
:108F900000220146304600F036FE04462846FFF720
:108FA0008BFE204670BD37B5044600F06EFB98B1CD
:108FB000204600F040FB05461AF0B0FA022805DC16
:108FC00000220DF1070128461AF014FA204600F09D
:108FD0005FFB002003B030BD0220FBE7FFF76CBE53
:108FE00002207047024B00225A701A72704700BF6D
:108FF000687B0020014B5878704700BF687B0020D9
:10900000024B587880F00100704700BF687B002059
:1090100010B5837804464068BBB1012B1ED0606850
:10902000FFF7DCFF63785BB363694BB32069FFF73D
:1090300018FA28B36068FFF7B6FF012820D0D4E9FA
:109040000401BDE81040FFF70BBAFFF74EFF002800
:10905000E5D00123A370FFF7FEF9E0E700F0EBFA9B
:109060001AF05CFA10B10023A370D8E76068FFF72C
:109070009AFF0128D3D00028F5D00228CFD1EAE703
:1090800010BD037A0BB1FFF7C3BF704770B5084D31
:10909000064668680C4600F0CEFA864205D12B7A67
:1090A00023B16B680020236070BD00230120FAE724
:1090B000687B002070B5084D2B7A06460C461BB91C
:1090C00000230120236070BD686800F0B4FA864276
:1090D000F6D1EB680020F5E7687B002038B50B4D32
:1090E0006B78044683B12B7A68682BB100F0A3FA41
:1090F000201A18BF012038BD214600F099FA012836
:10910000F9D001232B72F6E70120F4E7687B0020F9
:109110004068FFF711BF4068FFF703BF4068FFF7E3
:10912000EDBE4068FFF7CCBE4068FFF7AEBE4068BA
:10913000FFF7A2BE4068FFF794BE00000248037A22
:109140000BB1FFF765BF7047687B002008B5054B82
:109150001A7801202AB15870D3E90401FFF780F989
:10916000002008BD687B002038B504464068FFF742
:10917000ECFE0128054603D0D4E90401FFF770F99D
:10918000284638BD38B504464068FFF7F3FE01288D
:10919000054603D0D4E90401FFF762F9284638BD3B
:1091A0007FB5204C2578064625B96570FFF7C0FDD0
:1091B000012801D1012032E03388ADF8043001A943
:1091C0007388ADF80630201D00F0FCF90128F1D0BD
:1091D00004F10C002572FFF7E9FB0128EAD0124BDD
:1091E000E068029402A90393FFF7E8FB0128E1D0AD
:1091F0002846A5701AF060FA0F201AF039FA2846AE
:109200001AF05CFA1E201AF021FA04F11000FFF7A0
:1092100023F90128CED0736863610123237004B061
:1092200070BD00BF687B0020348F04000048704789
:109230005C8F040001207047034B1A7801200AB1AB
:1092400058700020704700BF807B0020014B587889
:10925000704700BF807B0020024B587880F00100EF
:10926000704700BF807B0020037813B14068FFF790
:10927000B5BE704770B50A4B03EB800304465E68C9
:1092800070680D4600F0D7F9844205D1337823B1D8
:10929000736800202B6070BD00230120FAE700BF37
:1092A000807B002070B50A4B03EB800304465E68A8
:1092B00033780D461BB9002301202B6070BD706808
:1092C00000F0B9F98442F6D1B3680020F5E700BF99
:1092D000807B002038B50D4B5A7804469AB103EBD9
:1092E00080035D682B7868682BB100F0A4F9231A1D
:1092F0005842584138BD214600F09AF90128F9D06A
:1093000001232B70F6E70120F4E700BF807B0020EB
:10931000054900224A70012351F823000133092B2B
:109320000270F9D1704700BF807B00204068FFF7D2
:1093300021BE4068FFF709BE4068FFF7FDBD4068E9
:10934000FFF7EFBD4068FFF7D9BD4068FFF7B8BD34
:109350004068FFF79ABD4068FFF78EBD4068FFF791
:1093600080BD000038B5064D012455F824301A7828
:1093700012B15868FFF732FE0134092CF5D138BD1F
:10938000807B00202DE9F0431D4C277885B00646F0
:109390009FBB6770FFF7CCFC01281AD0DFF8648010
:1093A00001250C2000F0A4FC814600F8047B3388E2
:1093B000ADF8043001A97388ADF8063000F002F969
:1093C000012806D009F10800FFF7F0FA012803D1BF
:1093D000012005B0BDE8F083D9F8080002A9CDE965
:1093E0000298FFF7EBFA0128F2D044F825900135F6
:1093F000092DD6D101232370EBE70020E9E700BF58
:10940000807B0020808F040000487047A88F0400F4
:10941000012906D1037823B1037A13B940F201136D
:109420000381704730B50128174D85B005D002285B
:1094300018D000236B601B68FFDEFFF7E5FF686054
:1094400003689847114B8DF8000002936846104B53
:1094500001950393FFF79CFC012806D1012400230A
:109460006B600EE0FFF7E2FEE9E76B689B689847E8
:1094700001280446F2D001232B70FEF7ECFF002CEC
:10948000EDD1204605B030BDA47B00201194020030
:1094900095940200034608465B6811465B681847CE
:1094A00007B5FFF745FC012803D1012003B05DF8A3
:1094B00004FB4FF480736846ADF80030ADF802301D
:1094C000FFF760FF0128F0D04FF001224FF47A73CC
:1094D0006846CDE90023FFF763FE0128E6D0034B81
:1094E00000221A705A601A72E0E700BFA47B0020C5
:1094F000034B1B7813B90078FFF794BF0120704726
:10950000A47B0020024B1878003818BF0120704758
:10951000A47B0020024B1878B0FA80F04009704715
:10952000A47B0020044B1A78012A02D15B689B6956
:1095300018470120704700BFA47B0020034B5B68E5
:109540000BB1DB6918470120704700BFA47B0020E6
:10955000FFF74EBC70B51A4C2378012B02D0022BBA
:1095600013D070BD237A43B96368002BF9D01B6A0E
:10957000002BF6D0BDE870401847FFF729FC022306
:109580002370BDE87040FEF766BFFFF72BFC054671
:109590000028E6D120722070FEF75DFF667A56B192
:1095A000636865721B6898472378002BD9D1BDE8A2
:1095B0007040FFF737BF6368DB6898476660D0E7A5
:1095C000A47B0020F0B5044685B018200E4600F0BC
:1095D0008FFB4FF0FF332060054640F8043B01232A
:1095E0008DF8043000273388029701A9ADF80C30BC
:1095F00000F08CFB0128044617D002238DF80430BC
:1096000001A97388029705F10800ADF80C3000F04D
:109610007DFB0128044608D005F11000AF8100F061
:10962000C3F905F1140000F0BFF9204605B0F0BD04
:1096300001600020704700687047406800F088BBF8
:10964000406800F087BB806800F082BB806800F053
:1096500081BB10B50446406800F088FB237B13B142
:109660004FF48073A38110BD806800F07FBB01239D
:109670000373704703460022407B5A7370470069AA
:1096800000F094B9006900F093B9406900F08EB918
:10969000406900F08DB910B50446006900F086F904
:1096A00038B1A06800F062FB206900F081F9002069
:1096B00010BD0220FCE7F7B50446FFF7ECFF0028D9
:1096C0004CD1206900F072F9002847D0637F2BBB92
:1096D000A06800F03FFB064600F0E2F9F0B16068D8
:1096E0000CF0A1FA87B2FFB9304600F0D9F9A8B161
:1096F000304600F0C6FA0190304600F0C6FA024645
:1097000060B101236377636801991B68C3F88470B3
:1097100060680CF08BFA922818BF6777206903B055
:10972000BDE8F04000F044B9304600F0AAFA0190DC
:10973000304600F0AAFA05460028EFD0B84228BF0C
:109740003D46ADB22A46019960680CF06FFA29B225
:1097500030467D1B00F0BEF9AFB2C4E703B0F0BDE8
:10976000F7B5054601911646FFF795FFA86800F08A
:10977000EFFA01993246074600F07EFA01280446C6
:1097800003D031B2384600F091F92846FFF793FF35
:10979000204603B0F0BD10B50446406900F006F95C
:1097A00038B1E06800F0E2FA606900F001F90020E9
:1097B00010BD0220FCE7F8B50446FFF7ECFF28BB1C
:1097C000606900F0F3F808B3257FD5B9E06800F0D0
:1097D000C1FA064600F062F998B12946304600F019
:1097E0006FFA29460746304600F073FA0123024615
:1097F00020832377606839460CF0F0F908B125839F
:1098000025776069BDE8F84000F0D2B8F8BD0000E7
:1098100038B5032915D8DFE801F0241502091948E5
:109820000123C376BDE83840FFF745BF154C00253E
:10983000A068E57600F090FAE06800F08DFA2583E4
:10984000A58338BD0F4C0023E068237700F082FA2F
:10985000B4F9181000F02AF92046BDE83840FFF7A7
:10986000AABF084C0023A068637700F073FA05468E
:1098700060680CF0D4F901B2284600F02BF92046BC
:10988000D0E700BFB07B002037B5C37E019105460D
:10989000144683B162B1FFF77EFFE86800F058FA22
:1098A0002246019900F060F904462846FFF783FF3D
:1098B000204603B030BD0124FAE70000F0B51C4C8F
:1098C000A57E85B035BB0126802701A904F10800DB
:1098D0008DF804600295ADF80C7000F017FAB042F4
:1098E00002D1012005B0F0BD022301A904F10C0052
:1098F0008DF804300295ADF80C7000F007FA0128DD
:10990000EFD004F1100000F04FF804F1140000F063
:109910004BF8A67607480023C4E900002383E376CA
:10992000A38309F079F9003818BF0120DAE700BFF6
:10993000B07B0020CC8F040010B5054C2046FFF70B
:10994000AAFEA06800F004FABDE8104000F0A6B836
:10995000B07B00200A4601460148FFF701BF00BF67
:10996000B07B002010B5074CE07E48B12046FFF7E1
:1099700012FFE06800F0ECF9BDE8104000F090B88C
:1099800010BD00BFB07B00200A4601460148FFF72A
:109990007BBF00BFB07B00200248C37E0BB1FFF746
:1099A0000ABF7047B07B002000F004B800F00DB88B
:1099B00000F015B810B50446042000F099F9002312
:1099C00020600360BFF35F8F10BD08B5012106F072
:1099D000CCFABFF35F8FB0FA80F0400908BDBFF347
:1099E0005F8F002303607047012B2DE9F04107468C
:1099F00088461E4604D1436809789954BDE8F08131
:109A0000002BFBD005894068D318AB4210440CDD15
:109A1000AC1AA4B222461DF0F5FB7868321B08EBA5
:109A20000401BDE8F0411DF0EDBB3246F9E700232B
:109A30004381C360438A03827047438A8B421FBFBE
:109A4000C3894182C91A01827047018909B101396C
:109A500089B2FFF7F2BF70B5064614200D4600F03C
:109A600047F9306004462868AD8818B915B1284612
:109A700000F03EF9606025812046FFF7D8FFFFF730
:109A8000E4FF00232370184670BD0A89496801600D
:109A9000828070474089704780897047C0897047CD
:109AA000008A70470089013880B27047002910D0C1
:109AB0004389028989B2D8BF9B180B449BB29A4252
:109AC00098BF9B1A4381C3895B1AC381038A1944D7
:109AD00001827047002910D08389028989B2D8BFDA
:109AE0009B180B449BB29A4298BF9B1A8381C389EF
:109AF0000B44C381038A591A0182704742898A4202
:109B0000F0B414D00489C78916B20DB2AE42CABFF0
:109B10000B198B1A9B1A1BB2BB4204DDAE42B8BFB5
:109B20001219891A0BB2F0BC1946FFF7BFBFF0BC7F
:109B3000704782898A42F0B414D00489078A16B229
:109B40000DB2AE42CABF0B198B1A9B1A1BB2BB4295
:109B500004DDAE42B8BF1219891A0BB2F0BC194627
:109B6000FFF7B8BFF0BC704738B5038A934204468C
:109B7000154609D313468289FFF736FF204629B2DE
:109B8000FFF7A8FF002038BD0120FCE72DE9F041D8
:109B900080460D4616461C46CBB107897B1E9BB2FC
:109BA0009C4219D8138AA34216D341682B19BB4291
:109BB00029440FDD7A1B92B23046E41BFFF7D4FF35
:109BC0002544D8F80410AAB23046FFF7CDFF002094
:109BD000BDE8F0812246F7E70120F9E738B5C389EF
:109BE0009342044615460CD313460A464189FFF7B3
:109BF000CDFF012803D029B22046FFF757FF0020F0
:109C000000E0012038BD38B514460D8AC28995425E
:109C100028BF15462A46FFF7E1FF012801D004B10D
:109C2000258038BDF8B51C46C389A34205460E46BB
:109C300017461DD3012C04D143685B5C13700020D0
:109C4000F8BDBCB1028941683319934231440CDD3F
:109C5000921B38461DF0D6FA28896968221A801BA3
:109C6000324438441DF0CEFAE9E722463846F9E797
:109C70000120E5E72046E3E713460A464189FFF75E
:109C8000D1BF8389406818447047438982899342D1
:109C900003D9013B981A80B27047008903B9013893
:109CA000801AF8E7002A09D0008992B2D8BF0918B3
:109CB000114489B288429CBF091A89B2084670478C
:109CC00008B50AB203464189FFF7ECFF5B68184408
:109CD00008BD10B50AB204464189FFF7E3FFA38926
:109CE000834236BF2289181A101A80B210BD0000B4
:109CF000054983070A681CBF031D23F003001044B5
:109D000008601046704700BF705C00207FB50646B3
:109D10000C200C46FFF7ECFF2146306011F8043BA5
:109D2000054600F8043BFFF796FE01280ED06C466E
:109D300069682046FFF7A9FE94E8030002AB83E8B8
:109D40000300194605F10800FFF785FE04B070BD59
:109D5000406870478068704710B504464068FFF758
:109D600066FEA068BDE81040FFF761BE37B5037816
:109D7000012B044603D0022B14D003B030BD406841
:109D8000FFF788FE0190A068FFF786FE019905465F
:109D9000A068FFF7B3FE6068294603B0BDE8304015
:109DA000FFF7C7BE4068FFF777FE0190A068FFF796
:109DB00071FE01990546A068FFF7BBFE6068294661
:109DC00003B0BDE83040FFF799BE000010B5074C66
:109DD0000A44914201D1C04310BD11F8013B4340F8
:109DE000DBB254F8233083EA1020F2E7F08F04004E
:109DF00072DF704773DF704738B5012204460D46A5
:109E0000B0F81414D0F8100401F0C4FC00B10570CF
:109E100004F13C0204F5826104F15400BDE83840CD
:109E2000FFF7E6BF80F830107047F8B504460F46DC
:109E300000296DD000286BD091F87A301BB191F8D1
:109E40009830002B66D14FF0000C84F802C007F167
:109E500078060FCE251D0FC50FCE0FC596E807005B
:109E600085E8070084F830C0D7F8A4306363D7F8DA
:109E7000A830A3634FF6FF7504F58263C4F820345D
:109E8000A4F824540722614604F22640FDF788FA1C
:109E900023780BB984F8545094F82430002B14BF65
:109EA000EE231F2304F15501C4F81014A4F8143450
:109EB00004F21442384601F080FA40BB94F8243092
:109EC000002B14BFEE231F2304F23121C4F8181411
:109ED000A4F81C3404F21C4207F13C0001F06DFAB6
:109EE000A8B9A369A4F848304FF480730125A4F8F9
:109EF000503063692064014684F83C50636404F187
:109F00003C0204F15400FFF773FF00B92570F8BD5F
:109F10000E20FCE70720FAE7F8B5077804460D465F
:109F2000002F00F00A8100F22646817007220021EE
:109F30003046FDF735FAE38813B1A378012B04D03E
:109F4000E3794BB1A378022B06D1636BABB101224D
:109F500084F82D240820984704F2274304F22D4169
:109F600013F8012B12B99942FAD117466B1E032B35
:109F700057D8DFE803F0050B0F1284F82D34EBE718
:109F8000A3791BB194F8243003B95FB9E3790BB11D
:109F9000002F48D1237A002B47D1637A002B0CBFC6
:109FA00000250425636BA570002B40D0033D012DD7
:109FB0003DD86279002A3AD094F82E24002A36D16E
:109FC00084F83024012284F82F240720984704F1D4
:109FD0003C05182200212846FDF7E2F9E26A012338
:109FE000511E994284F83C3001D9042A00D1D3B2E1
:109FF00094F8242084F8513042B1A36A591E0129F3
:10A0000002D9042B18BF012384F85230A178002311
:10A0100084F8503004291BD8DFE801F0770D223591
:10A0200059000025BEE70225BCE70325BAE7002357
:10A0300084F82F34CBE7C4E91063C4F8203402233A
:10A04000012284F83C30802384F83120A4F8483081
:10A05000A378002B5CD1636B002B6AD1002067E0F2
:10A060000223002A84F8313014BF0723032384F825
:10A070003C302369A4F848300023C4F82034E36856
:10A0800026646364E4E763696364A369A4F8483001
:10A0900012B1062384F83C306379B3B194F82E34BE
:10A0A0009BB994F8303483B1022384F850300421F2
:10A0B0002046FFF7A1FE0028CAD1052384F83130DD
:10A0C00004F58263C4F82034C2E70323F6E7E369AA
:10A0D0006364236AA4F8483012B1062384F83C3044
:10A0E000637983B194F82E346BB994F8303453B15A
:10A0F000022384F8503004212046FFF77DFE00281B
:10A10000A6D10623DAE70423D8E784F831309FE7A5
:10A11000D4F820142A4604F15400FFF769FE38B938
:10A1200094F8301094F85400FFF764FE002892D0A1
:10A13000F8BD94F83100984790E70820F8E710B58B
:10A140000388112B0C460AD0262B1FD0102B05D1CB
:10A15000C37B012B02D18388A1F8243410BD0023D6
:10A1600081F82E348288B1F824349A42F6D10B79E2
:10A17000002BF3D101212046FFF7CEFE0028EDD0C1
:10A18000A36B002BEAD0BDE810401847037A013BCF
:10A19000012BE3D8897805230131B1FBF3F303EBFD
:10A1A0008303C91AC9B2E6E710B590F82D344BB154
:10A1B000002480F82D44072200F226401DF022F8EA
:10A1C000204610BD0820FCE790F82F345BB10099C1
:10A1D00000230A4314BF01221A4680F82F3480F866
:10A1E0003024184670470820704770B5054616465B
:10A1F00008460AB90E2070BD00231360002DF9D067
:10A200002B68002BF6D0EB8813F003040ED101F07D
:10A210002DFDC0B214280BD02B7983420AD9EA88CD
:10A220002B6800FB023030602046E4E70720E2E7BD
:10A230000520E0E70420DEE7A8DF704737B50546D4
:10A240000C46E1B1D8B10388502B18D14B7CB3B187
:10A25000C2884B899A4212D1038A022B0FD10B6814
:10A260006BB1123001F07BFDAB88ADF8063080F0A9
:10A2700001008DF80400236801A92046984703B027
:10A2800030BD2DE9F0410E4690B0054600286AD059
:10A29000002968D00B6803600B794374FF230374B3
:10A2A0002A1D012041F60F0302A98DF80A00ADF81E
:10A2B0000830FFF7C1FF044600284ED12022337B2F
:10A2C0008DF8033001460DEB0200FDF769F842F608
:10A2D0001923ADF820304FF0011309930DF103035A
:10A2E0000A936B7C9DF82D20A8881B0143F0020384
:10A2F00022F0120203F0120313438DF82D30B37BCA
:10A300008DF83330AA1D737B8DF8313008A901F028
:10A3100039FD044608BBB16819B30DF10408404685
:10A3200001F021FD21460746142203A8FDF738F865
:10A33000B8B242F60813ADF80C30ADF81600F37B56
:10A34000ADF81A0005F10E02E8888DF8123003A965
:10A35000CDF81C8001F0C0FD0446204610B0BDE8D9
:10A36000F081E881F9E70E24F7E7A8DF70470000E5
:10A37000F0B5074689B014461E460D4611B9084689
:10A380000BF067FD14B920460BF063FD202200217D
:10A390006846FDF705F89DF80D300E9AADF800708F
:10A3A00043F002038DF80D30064BADF804401888D9
:10A3B000ADF80640694602958DF8116001F0E2FCA7
:10A3C00009B0F0BD949C002030B587B041F60A0377
:10A3D0005C4AADF80C30044603A901208DF80E004C
:10A3E000FFF7C3FF0546002849D12288002A49D13A
:10A3F000228952B1544B0093E16894F83C3042F604
:10A400002420FFF7B5FF002847D1228A52B14F4BD5
:10A410000093616994F83C3042F62520FFF7A8FFCD
:10A4200000283AD1228B52B1494B0093E16994F84C
:10A430003C3042F62720FFF79BFF00282DD1228CCD
:10A440004AB1444B0093616A94F83C3042F62620AE
:10A45000FFF78EFF08BB228D4AB13F4B0093E16AA4
:10A4600094F83C3042F62820FFF782FFA8B9236B0E
:10A47000ABB9616B002938D1A36B002B42D12846C0
:10A4800007B030BD354B0093616894F83C3042F61C
:10A490002920FFF76DFF0028AAD00546EFE71A68CC
:10A4A0008DF810201A68120A8DF811205A888DF83C
:10A4B0001220DA788DF813205A688DF814209B68E2
:10A4C0008DF815301A0A1B0C8DF81730244B8DF8B7
:10A4D00016200093082294F83C3004A942F6232069
:10A4E000FFF746FF0028C4D0D7E71E4B0A79009338
:10A4F000096894F83C3042F62A20FFF739FF00281B
:10A50000BAD0CAE71A788DF810205A888DF8112031
:10A51000120A8DF812209A888DF81320120A8DF8ED
:10A520001420DB888DF815301B0A8DF816300E4B81
:10A530000093072294F83C3004A942F65020FFF71C
:10A5400017FFAAE7949C0020749C00208C9C00209C
:10A55000649C00205C9C0020969C00206C9C002049
:10A560009E9C0020849C00207C9C0020A8DF7047DB
:10A57000A9DF7047ACDF7047AEDF7047B0DF7047D0
:10A5800064DF7047F0B513241C80D0F87C41059E31
:10A590004CBBD0F88041002C49D1D0F88441002C2C
:10A5A00067D10020F0BDD0F87C7137F834401F88A7
:10A5B0003C441C80877CECB2A742EAD90CFB040720
:10A5C0000135B7F814E08E454FEAC407EBD142F6E7
:10A5D0004D23138001239370D470D0F87C21D25B7B
:10A5E00032800120DEE700254FF00A0CE2E7D0F8C8
:10A5F000807137F834401F883C441C8090F8787094
:10A60000ECB2A742C9D90CFB04070135B7F87AE0D0
:10A610008E454FEAC407EAD142F64D231380022348
:10A620009370D470D0F88031DB5B3380D9E700259C
:10A630004FF00A0CE2E7D0F8847137F834401F88F5
:10A640003C441C8090F8DE70ECB2A742A9D90CFB08
:10A6500004070135B7F8E0E08E454FEAC407EAD1B8
:10A6600042F64D23138003239370D470D0F88431C5
:10A67000DAE700254FF00A0CE4E72DE9F043154630
:10A680008BB004468846D0F87801A9886A461E46F1
:10A69000FFF7ABFD10B1636803B19847009F8FB31C
:10A6A0000021102201A8B5F80E90FCF779FE0123D5
:10A6B0008DF804300023ADF80830BDF84830A88884
:10A6C000ADF80C90A3EB0903ADF80E309DF80A30FD
:10A6D0004E44374443F0010301A904978DF80A3032
:10A6E000FFF74CFF10B1636803B1984723684BB183
:10A6F000D8F80000069007228DF81420099505A9C6
:10A70000204698470BB0BDE8F0832DE9F04186B0B4
:10A7100005460C4616468988D0F878016A461F46D9
:10A72000FFF763FD10B16B6803B198470098F0B173
:10A73000228AE389BDF8301013448B4217DC04F100
:10A740001208414638441CF05DFD2B687BB10422A1
:10A750008DF80420E2893068ADF80C20228A02903E
:10A76000CDE90484ADF80E2001A92846984706B02B
:10A77000BDE8F0812DE9F0418EB006460F469046C7
:10A780000021202206A8149C1D46FCF709FE42F673
:10A790004D23ADF818303B788DF8253023788DF8AF
:10A7A000293063788DF82A30A3788DF82B30159AEC
:10A7B0003089ADF81C80012306A98DF824308DF86E
:10A7C000273001F0DFFAF8B91422014601A8FCF79E
:10A7D000E7FD42F60813ADF8043023788DF80A300F
:10A7E000294663788DF80B30684601F0BCFA159A5B
:10A7F000CDF814D080B2ADF80E00ADF8120001A96A
:10A8000032F8080B01F068FB0EB0BDE8F08170B5BE
:10A81000138A022B86B004460E46154613D10368F0
:10A820008BB102F1120001F09AFA002818BF02233E
:10A830003068029008BF03238DF804300595236823
:10A8400001A92046984706B070BDF0B5144689B0FE
:10A8500005460F462022002168461E46FCF7A0FD53
:10A8600062788DF81220111E4FF00803ADF8043005
:10A8700018BF01219DF80D302889ADF80070C9007E
:10A8800023F01A0341F01201194323788DF8113097
:10A89000A3788DF80D108DF81330324601236946E8
:10A8A0008DF80F3001F06EFA09B0F0BD30B587B009
:10A8B00004460D46D0F87801898801AAFFF795FC77
:10A8C00010B1636803B19847019BFBB110220021CE
:10A8D00002A8FCF765FD01238DF80830ADF81230B1
:10A8E000019B05939DF80E30A8880022ADF80C203E
:10A8F00043F00103EA89ADF8102002A98DF80E306B
:10A90000FFF73CFE10B1636803B1984707B030BD54
:10A91000F0B50388502B8BB005460C4657D0512B11
:10A9200000F00E81102B3FD18188D4F878010023EC
:10A9300004AA0493FFF759FC10B1636803B1984768
:10A94000049888B3D4F87C11002934D0A67C002365
:10A950001322B3422AD3D4F8801121B194F878603D
:10A960000023B34229D3D4F8841121B194F8DE60D6
:10A970000023B34226D30021FCF712FD63899BB16B
:10A98000049B01261E700822002105A8FCF708FD83
:10A99000049B6189A888059605AA0693FFF7EAFD3E
:10A9A00010B1636803B198470BB0F0BD31F8337054
:10A9B00001333A44CDE71322CDE731F83370013348
:10A9C0003A44CEE731F8337001333A44D1E7C188D5
:10A9D000B4F86E01022300228842ADF80C30ADF8C5
:10A9E0000E201ED1A988D4F8780104AAFFF7FDFB38
:10A9F00010B1636803B19847049A002AD4D02B8A17
:10AA0000012BD1D1AB7C0BB1012BCDD18DF8143002
:10AA100053702368002BC7D0099505A92046984795
:10AA2000C2E7608988421AD1A988D4F8780104AABB
:10AA3000FFF7DBFB10B1636803B19847049A002A63
:10AA4000B2D02B8A012BAFD1AB7C1BB1012BABD188
:10AA5000062100E005218DF814101370D9E7B4F831
:10AA6000520188420BD142F62223ADF81430ADF8E2
:10AA700016202A4605A92046FFF7C9FE94E7B4F838
:10AA80004E01884207D142F62221ADF81410ADF8EC
:10AA9000162008220DE0B4F856318B4212D142F64E
:10AAA0003223ADF814300A23ADF81620ADF80C307F
:10AAB0000122ADF80E20009205AA29462046FFF794
:10AAC00024FE71E7B4F862318B4202D142F633239F
:10AAD000CBE7B4F85E318B4217D0A07C04F10E06B0
:10AAE0000A27D3B298421AD80DF10E03009305AA93
:10AAF00003AB2046FFF746FD00283FF455AFBDF8F5
:10AB00000E300093BDF80C30D6E742F63323ADF893
:10AB100014300B23ADF81620ADF80C30B9E7013234
:10AB200007FB02FC36F80CC08C45DAD142F64D2208
:10AB3000ADF8142001228DF816208DF8173098E713
:10AB40008079022300220128ADF80E30ADF81020E4
:10AB50007FF42AAF298966898E4204D1294620468E
:10AB6000FFF7A4FE20E7B4F84E618E420AD142F608
:10AB70002221ADF81410ADF816200822ADF81020EF
:10AB800000920FE0B4F856318B4211D142F63223D5
:10AB9000ADF814300A23ADF81620ADF80E30ADF83C
:10ABA000100000902A4605A92046FFF766FDFBE647
:10ABB000B4F85E318B4209D142F63323ADF814303C
:10ABC0000B23ADF81620ADF80E30D6E704AB00939A
:10ABD00005AA0DF10E032046FFF7D4FC00283FF430
:10ABE000E3AEBDF810300093BDF80E30DAE72DE982
:10ABF000F04F0C4697B00546002800F0148200295B
:10AC000000F011828B7A0A2B00F290800B7C0A2BC9
:10AC100000F28C800B7E0A2B00F288800B680360A8
:10AC20004B6843608B7A83740B7C80F878300B7EA2
:10AC300080F8DE3005F10802012041F6120304A974
:10AC40008DF81200ADF81030FFF790FC0646002892
:10AC500078D1074694F83620FBB29A4268D8238907
:10AC600053B30127202200210EA894F83C9094F8B9
:10AC70003D808DF82470FCF793FB42F64E23ADF82F
:10AC800038304FF001130F9309AB10939DF8453006
:10AC900028898DF8499023F0060343F0060305F157
:10ACA0000A020EA98DF845308DF84A808DF847705C
:10ACB00001F068F8002845D1A37A002B45D1237C08
:10ACC000002B7CD1237E002B40F0AD802022002180
:10ACD0000EA8FCF765FB42F64B23ADF83830A38C89
:10ACE000ADF83C30ADF83E30236A109394F82C3028
:10ACF0008DF84930BDF84430288923F43F7323F0A0
:10AD0000030343F4007343F0010305F5A2720EA997
:10AD1000ADF8443001F036F8A0B994F82630002B95
:10AD200000F0DF80A36A002B40F06E81072009E06D
:10AD3000A16B288931F813100EAAFFF719FC01370F
:10AD4000002887D017B0BDE8F08FE368002BB6D09D
:10AD50004FF000084FF00A09D4F80CB05FFA88F7FA
:10AD60000BEBC70A012200210EA8FCF719FB9AF889
:10AD700005209DF83830003A18BF0122D20023F098
:10AD80001A0342F012021A438DF838203BF837209C
:10AD900009FB07570AF104031437009301970AF1DE
:10ADA00002030EA92846FFF7E5FC0028CAD1A27AC3
:10ADB00008F101085FFA88F39A42CDD87FE763690A
:10ADC000002B3FF47FAF4FF000084FF00A0901223B
:10ADD00000210EA8D4F814B0FCF7E2FA9DF8383040
:10ADE00023F00E035FFA88F743F00E038DF8383036
:10ADF0003BF837200BEBC70A09FB07570AF104039E
:10AE00007A37009301970AF102030EA92846FFF74B
:10AE1000B1FC002896D1227C08F101085FFA88F382
:10AE20009A42D4D84EE7E369002B3FF44FAF4FF07E
:10AE30000A08012200210EA8D4F81CA0FCF7B0FAE1
:10AE40009DF8382022F00A02F7B242F00A028DF88B
:10AE500038203AF837200AEBC70908FB075709F1F1
:10AE60000403E0370093019709F102030EA9284675
:10AE7000FFF780FC00287FF465AF227E0136F3B235
:10AE80009A42D6D822E7A06A3A460DF10F0100EBAC
:10AE90008600FFF775FB00287FF454AF01461422AB
:10AEA00009A8FCF77DFA42F60713ADF8243094F8B0
:10AEB0002C308DF82A30B5F844019DF80F30ADF8EC
:10AEC0002E3005F5A67209A9ADF832300D9701F0C4
:10AED00003F800287FF436AF013694F826309E42FE
:10AEE000D1DB237A93B305F5A77304F1420242F64E
:10AEF00022212846FFF7A9FC00287FF423AF014652
:10AF000020220EA8FCF74CFA42F63223ADF8383076
:10AF10009DF84530288923F00E0343F00E030122EB
:10AF20008DF8453094F84530ADF83C208DF8493027
:10AF30008DF8472094F846308DF84A3005F5AB720D
:10AF40000EA900F01FFF00287FF4FCAE637A002BEF
:10AF50005DD1238E8DF824301B0A8DF8253094F8AE
:10AF600032308DF82630202294F833308DF8273097
:10AF700000210EA8FCF714FA42F64A23ADF8383047
:10AF80009DF84530288943F002038DF8453094F848
:10AF900034308DF8493009AE4FF0041305F5B37223
:10AFA0000EA90F93109600F0EDFE00287FF4CAAEB4
:10AFB00001468DF8240020220EA894F83E70FCF77C
:10AFC000EFF942F64C23ADF838309DF8453028892A
:10AFD0008DF84A7043F004038DF8453005F5B772DB
:10AFE0004FF001130EA9CDE90F3600F0CBFE00287B
:10AFF0007FF4A8AEE368C5F87C316369C5F8803199
:10B00000E369C5F884319DE6064605AF65E705F5B9
:10B01000AF7304F13F0242F633212846FFF715FCD7
:10B02000002896D08EE60E208CE62DE9F04186B001
:10B030000E46BDF8308015461F46044600284DD008
:10B04000002B4BD0837C8B424AD94FF6FF73984537
:10B0500048D0ADF80220D0F8780101AA4146FFF7A8
:10B06000C4F878BB019BD4F87C2113330193C3B29D
:10B070009E422AD832F83630AB422DD32A46394682
:10B0800001981CF0BFF80021102202A8FCF788F9F3
:10B090000A2101FB06444046A38AADF8083001238B
:10B0A0008DF80A300023ADF80C3002A90DF102032F
:10B0B000CDE90437FFF760FA20B9049B1B88AB4247
:10B0C00018BF0C2006B0BDE8F08132F83010019BAB
:10B0D0000B4401930130CAE70C20F3E70E20F1E79F
:10B0E0000720EFE70820EDE7F0B50C4687B01646DD
:10B0F0001D460746002836D0AAB34FF6FF739D427F
:10B1000033D0ADF80210D0F8780101AA2946FFF734
:10B110006CF830BB0198082C00F10200019003D8B4
:10B12000224631461CF06EF80021102202A8FCF7DE
:10B1300037F9B7F84E31ADF8083001238DF80A30F1
:10B140000023ADF80C3002A90DF102032846CDE929
:10B150000436FFF711FA20B9049B1B88A34218BFDD
:10B160000C2007B0F0BD0E20FBE70820F9E72DE921
:10B17000F04788B08946BDF84060BDF84850174692
:10B180009A46044600284CD04FF6FF739D424AD0A1
:10B1900006F103081FFA88F3082BADF802303ED8F9
:10B1A000D0F8780101AA2946FFF71FF8A0BB019B40
:10B1B0008DF808900B3301938DF809708DF80AA073
:10B1C0002EB1119932460DF10B001CF01BF802AEA6
:10B1D000BDF80220019831461CF014F8102200211D
:10B1E0000DEB0200FCF7DCF8B4F85E31ADF810307E
:10B1F00001238DF812300023ADF8143004A90DF1AD
:10B2000002032846CDE90636FFF7B6F920B9069BBA
:10B210001B88434518BF0C2008B0BDE8F0870C2000
:10B22000FAE70E20F8E70820F6E72DE9F743DDF806
:10B230002C900E4690461F46054600283DD0B9F199
:10B24000000F3AD090F878308B4238D9BDF82810EA
:10B25000D0F8780101AAFEF7C8FF0446C8B9019BDF
:10B26000A97C133301930346DAB2914215D8D5F87D
:10B2700080110023DAB2964218D831F8362008EB54
:10B28000070393421DDC01994246394448461BF0AE
:10B29000B9FF204603B0BDE8F083D5F87C2132F831
:10B2A0003300019A024401920133DDE731F83300A3
:10B2B000019A024401920133DCE70E24E9E70724F6
:10B2C000E7E70924E5E76DDF704779DF70477DDF49
:10B2D000704764DF70472DE9F04F85B000250E9C64
:10B2E000BDF83CB0B4F800A00191074690461E4658
:10B2F000A9463A884A450DDC45B12388013BA3EBBA
:10B300000A039BB2FF2B3AD806F80A30002005B09A
:10B31000BDE8F08F7A6852F82900039000220DF101
:10B320000B0103A8FFF7D5FF0028F0D19DF80B20F3
:10B33000424521D12288002D14BF0020022002EBBB
:10B340000801014459451ADC3DB9013292B2019B12
:10B350002280B35422880132228022880DF10B0111
:10B36000324403A8FFF7B5FF0028D0D121889DF80B
:10B370000B200A442280012509F10109B9E70C20BC
:10B38000C5E72DE9F341089FBDF824801546CDE9B6
:10B390000078022204461E46FFF79DFF50B933464F
:10B3A000102229462046CDE9087802B0BDE8F041D8
:10B3B000FFF791BF02B0BDE8F0812DE9F04F002307
:10B3C0001788138090F82D3085B006460D46144638
:10B3D00053B3082F01D80C2027E102A8FFF773FF11
:10B3E000002840F0228123880822EA542388013370
:10B3F0009BB21B222380EA542088013080B2208037
:10B4000006220DF1090128441BF0FCFE23889DF85B
:10B41000082006339BB212F0FE0218BF01222380DF
:10B42000EA54238801332380B378FBB123880433A3
:10B43000BB42D0D802A8FFF748FF002840F0F580B3
:10B4400023880322EA54238801339BB219222380E4
:10B45000EA542388BDF8082001339BB2E918238001
:10B46000EA54120A4A70238802332380F2789AB190
:10B470002388D91CB942AED80221E954238801336C
:10B480009BB201212380E95423880B449BB2238083
:10B49000EA5423880B4423807268AAB12388D91CFC
:10B4A000B94298D8022192F90020E9542388013347
:10B4B0009BB20A212380E954238801339BB2238065
:10B4C000EA542388013323803389002B40F0A18084
:10B4D000338A5BB1CDE900472B460722032106F1F1
:10B4E0001000FFF74EFF002840F09F80338B5BB1C8
:10B4F000CDE900472B461522142106F11800FFF76D
:10B5000040FF002840F09180326A002A40F090808D
:10B51000D6F82480B8F1000F30D0B8F80430218874
:10B52000981C8A1C0244BA423FF655AFFE283FF6EB
:10B5300052AF03336B54238801339BB2FF22238025
:10B54000EA54238801339BB22380B8F80020EA54E0
:10B55000E918120A4A702088023080B22080B8F8B8
:10B5600004205AB1D8F8081000296BD028441BF0E9
:10B5700049FE2388B8F804201344238096F82C3021
:10B58000002B40F09880307800284ED03388012B73
:10B5900058D0228802F1020CBC453FF61CAF0128AE
:10B5A00005D17378023313449F42FFF414AF023F76
:10B5B000BF1ABFB202A905EB0C00ADF80870FFF787
:10B5C00086FE90BB3178BDF80830022900F0B980C2
:10B5D00072789A4202D39F4280F0B180012940F0F4
:10B5E000B280974293B2C0F0AE80ADF80830082127
:10B5F000BDF80830FE2B3FF6EEAE22880133AB5487
:10B600002288013292B22280A954228813442380D6
:10B610000BE0CDE900472B460622022106F1080087
:10B62000FFF7AFFE00283FF453AF05B0BDE8F08F41
:10B63000B4F800C00CF10603BB423FF6CCAE118853
:10B64000052901D80720F0E76FF4486E01EB0E03DF
:10B650009BB24FF27D3E7345F4D95388052BF1D947
:10B660006FF44860181880B27045EBD94FF6FF7040
:10B67000814201D09942E5D8052305F80C30238892
:10B6800001339BB212212380E954238801339BB2FA
:10B6900023801188E954E818090A4170238802338D
:10B6A0009BB223805288EA54E918120A4A70238810
:10B6B000023323802CE7B36A002BC3D04FF000087D
:10B6C0004FF00C0A4FF0160BB16A5FFA88F20AFBD2
:10B6D00002F201EB0209B9F80430981CFE283FF68B
:10B6E0007AAE208803332B54238801339BB2238006
:10B6F00005F803B0238801339BB223808A5AEA54A9
:10B70000E918120A4A702088023080B22080B9F805
:10B7100004205AB1D9F80810002993D028441BF00E
:10B7200071FD2388B9F804201344238096F82C2057
:10B7300008F101085FFA88F39A42C5D823E7092186
:10B7400056E79F42FBD2ADF8087050E730B5C8B15C
:10B75000F2B10024651C8D4206DA1588A54212D884
:10B7600005196D789D420ED1A14211D9005D48B1F5
:10B77000013880B230B10234A3B210FA84F4A1428D
:10B7800006DB138030BD055D01352C44A4B2E1E732
:10B790000020F7E713B513460022ADF806200DF19F
:10B7A00006020446FFF7D2FF10B1BDF80630E018DC
:10B7B00002B010BD75DF704776DF70477ADF7047E3
:10B7C0007BDF7047034B1A8882420CBF184600206B
:10B7D000704700BFC49C0020024B9B6903B118470F
:10B7E000704700BFA89C002073B585B22846FFF7BC
:10B7F000E9FF044638B3174E027A337B9A420CD2E3
:10B8000000F10A012846FFF7D5FFF0B111281AD040
:10B8100002B0BDE87040FFF7DFBF00230372337C46
:10B8200043B13B212846FFF7C7FF30F0080301D0A2
:10B83000FFF7D2FF736933B100228DF80420ADF811
:10B84000065001A8984702B070BD237A01332372D5
:10B85000F9E700BFA89C002037B50B46497A0F4A8C
:10B8600079B9D2E901141D7A0246002D18BF21468C
:10B87000586806F02BFD78B103B0BDE83040FFF703
:10B88000ABBF00211972536933B10122ADF8060034
:10B890008DF8042001A8984703B030BDA89C002073
:10B8A0004B8802889A4212D842889A420FD38088E5
:10B8B0008B8840F2F311884294BF021A421A9A42CE
:10B8C00005D80844984234BF00200120704700206A
:10B8D0007047000070B50388122B014659D004D878
:10B8E000102B1ED0112B44D070BD502BFCD12F4BF0
:10B8F000C288DB899A42F7D1038A022BF4D1868869
:10B900003046FFF75FFF05460028EDD001F1120039
:10B9100000F025FA38BB686806F006FD0028E3D081
:10B9200009E0C37B012BDFD14FF6FF70FFF74AFF21
:10B93000054620B90420BDE87040FFF74DBF8E8852
:10B940001B4A0680002303721368C0F80A3053684C
:10B95000C0F80E3010310A30FFF7A2FF134B6872A7
:10B96000DB89002BC0D129463046BDE87040FFF787
:10B9700073BF8088FFF726FF04460028B4D04068D4
:10B9800006F0D2FC08B1FFF727FF4FF6FF732380C4
:10B99000AAE786883046FFF715FF05460028A3D0A2
:10B9A00008310A30FFF77CFF6872DCE7A89C0020B2
:10B9B000D89C0020F8B5064648B305460FCD154F74
:10B9C0003C460FC495E8070084E807003068124C35
:10B9D0003C60B0B1FFF7F2FEC0B932681368236073
:10B9E000536863600D480E4A4FF6FF7303800D4B9A
:10B9F00040F8043F002106F057FC002818BF032040
:10BA000004E02046FFF7DCFE0028EBD0F8BD0E2056
:10BA1000FCE700BFA89C0020D89C0020C49C00200C
:10BA2000E9B70200E09C0020F7B5174601900E46EA
:10BA300091B1019C6CB100252C46294601A804F067
:10BA4000D8FB18B13946A8B2B04701340135142DDE
:10BA5000F3D1204603B0F0BD0C46FAE70AB104F07A
:10BA6000A7BB04F0BCBB73B50191019C06466CB149
:10BA700000252C46294601A804F0BBFB18B106EBB3
:10BA8000440301349D800135142DF3D130463460D8
:10BA900002B070BD2DE9F04703888488103B8CB05C
:10BAA00005460A2B21D8DFE803F00640202020209D
:10BAB000202020654700DFF8E880D8F80830DB4315
:10BAC0000093D8F80410684604F07EFA009901A8A3
:10BAD000FFF7C9FF0DF108090027019B9F4207D31B
:10BAE000132C12D904200AF0B4F90CB0BDE8F08789
:10BAF00039F802AB00260136514608EB860004F007
:10BB00006EFB1E2EF7D10137E7E71F48214604F0F0
:10BB10004FFB1E48214604F04BFBEB7B022BE4D18C
:10BB20001B48214604F044FBDFE7174821460CB0D0
:10BB3000BDE8F04704F053BB027A16483F2A4FEAAB
:10BB40001215214694BF00220122FFF787FF022D24
:10BB500094BF0022012210482146FFF77FFF012DEC
:10BB60000E4894BF0022012221460CB0BDE8F047E8
:10BB7000FFF774BF037A002BB7D1427A0548C2F3AE
:10BB8000C0022146F1E700BF089D0020049D00206F
:10BB90000C9D0020189D0020149D0020109D002069
:10BBA000009D00201328014602D8024804F021BB62
:10BBB00000207047049D002007B50190FFF7F2FFB9
:10BBC000019930B1044804F014FB002814BF02208E
:10BBD000012003B05DF804FB0C9D002007B5019027
:10BBE000FFF7E0FF019930B1044804F002FB0028A0
:10BBF00014BF0220012003B05DF804FB089D002063
:10BC000007B50190FFF7CEFF019928B1044803B0B2
:10BC10005DF804EB04F0EDBA03B05DF804FB00BF7F
:10BC2000109D002007B50190FFF7BCFF019928B1D6
:10BC3000044803B05DF804EB04F0DBBA03B05DF830
:10BC400004FB00BF149D002007B50190FFF7AAFF79
:10BC5000019928B1044803B05DF804EB04F0C9BAB7
:10BC600003B05DF804FB00BF189D002010B504462A
:10BC7000FFF798FF002814BF2046142010BD0000D5
:10BC800008B51821024804F0BDFAC0B208BD00BFD3
:10BC9000009D002070B50A4E054630460C4604F063
:10BCA000A8FA58B12846FFF77DFF38B10734294676
:10BCB00006EB8400BDE8704004F09BBA002070BD24
:10BCC000009D0020F8B50B4F054638460C46164639
:10BCD00004F08FFA60B12846FFF764FF40B10734E3
:10BCE0003246294607EB8400BDE8F840FFF7B6BEB0
:10BCF000F8BD00BF009D002073B50B4D01920446B6
:10BD00000E460146284604F074FA50B1063405EB9D
:10BD10008404019A6068314602B0BDE87040FFF7C4
:10BD200083BE02B070BD00BF009D0020AADF704737
:10BD3000ABDF7047002301380B70042806D8DFE81A
:10BD400000F00306080A0C0011230B707047212332
:10BD5000FBE73123F9E71223F7E72223F5E7008811
:10BD600000F0010070470B7803704B78437002209D
:10BD7000704738B5044608460D461BF0E1FF656084
:10BD8000208038BDF0B58B7891B0012B0C4638BFC0
:10BD900001238DF80E3005460B88ADF80C300021DC
:10BDA000164668460322FBF7FBFA607C6946FFF7FC
:10BDB000C1FFA07C0DF10101FFF7BCFFE27B237BFB
:10BDC000217D43EAC203227C43EA02139DF802204C
:10BDD000002922F0190203F0190314BF02210121E6
:10BDE000134361F342031C22002109A88DF802309D
:10BDF000FBF7D6FA637B13F0300F15D002AF0322A6
:10BE000000213846FBF7CCFAE07C0DF10901FFF781
:10BE100091FF11238DF808309DF80A300E9701220A
:10BE200062F342038DF80A30637B8DF824301422CC
:10BE3000A37B8DF82530002104A8FBF7B1FA03ABF2
:10BE40000493A388ADF81C30A368CDF814D01BB1BF
:10BE5000E288ADF818200893A369002B31D001AF18
:10BE6000032200213846FBF79BFAA3691A88ADF834
:10BE70002C205A88ADF82E205A680D97187B0A920C
:10BE80003946FFF757FFA3690DF10501587BFFF70E
:10BE900051FFA3699A7A197A41EAC201DA7A9B7B47
:10BEA00041EA02119DF80620002B01F0190122F051
:10BEB000190214BF02230123114363F342018DF8D9
:10BEC0000610E36903B10C93334604AA09A9284676
:10BED000FFF72CFF11B0F0BDF0B50C4689B0054658
:10BEE00016460021142203A8FBF75AFAA378A0797A
:10BEF000012B38BF01238DF80A3001AF2388ADF83C
:10BF00000830394602AB0393FFF714FFE0790DF1D7
:10BF10000501FFF70FFFE2786379217A049743EA7E
:10BF2000C203227943EA02139DF80620002922F079
:10BF3000190203F0190314BF02210121134361F315
:10BF400042038DF806306389ADF81430A389ADF84B
:10BF50001630E389ADF8183032462369079303A9F8
:10BF60002846FFF7E5FE09B0F0BD90DF7047A5DF7A
:10BF70007047B5DF70470000F0B52D4E7388032B76
:10BF800085B007460D460BD92A482B4C241AE408E5
:10BF900024040A463B46294944F0040005F0B7FE54
:10BFA00000236A4602A93846ADF80850ADF80A5099
:10BFB000ADF80C30ADF80E300093ADF80430FFF75B
:10BFC000D4FF054688B373886BB105F0DBFF1A4CCC
:10BFD0001B4903461748241AE40824043A4644F04F
:10BFE000010005F094FEBDF80020BDF8023052EAD1
:10BFF00003010BD0718849B10E480F4C1149241A26
:10C00000E408240444F0010005F081FEBDF804209A
:10C010005AB173884BB10748074B0B491B1ADB0811
:10C020001B0443F0010005F069FE284605B0F0BD91
:10C03000985E002020D90400C8D90400F8930400B9
:10C040002794040071940400B094040078B14FF078
:10C05000171303601B2303711723C380038141F669
:10C060001B320023016143818281184670470E20F4
:10C07000704700002DE9F043828887B005460C46E2
:10C08000002A40F0A0810388242B00F0058129D8E4
:10C09000112B00F0CC80232B00F04881102B76D0A0
:10C0A000A37A002B00F08F81E1880020FFF75FFF6B
:10C0B0000346002840F072814FF480726281A64AE4
:10C0C0005288032A40F27F81A448A54DE288A54901
:10C0D0002D1AED082D0445F0040007B0BDE8F0432B
:10C0E00005F015BE3A2B00F0AA80552BD8D19A4EF8
:10C0F000C5887388032B0AD9984B99489A49C01A66
:10C10000C00800042B4640F0040005F000FEE38860
:10C110007088172D2A4638BF17229A4228BF1A4620
:10C12000002103282281A1720AD98D488B4D0091EC
:10C13000401BC00800048D4940F0040005F0F1FDEB
:10C14000E1880020FFF715FF70B1738863B105F037
:10C1500019FF834B8649024680481B1ADB081B04E3
:10C1600043F0010005F0CAFDE27A002A98D1236964
:10C17000002B95D040F67721ADF812202289ADF83A
:10C180001010ADF8142004A92046984788E70B79D1
:10C190000B73C37B012B24D0022B25D0E28823898B
:10C1A000934215D26C4D6B88032B0AD96B4B6C48AC
:10C1B0007049C01AC0080004002340F0040005F0D4
:10C1C000A6FDE1880020FFF7D2FE78B90123E372D3
:10C1D000217B637B8B42BFF463AF0020FFF7CCFE73
:10C1E0005EE70B88E380D9E74B88FBE711286A8874
:10C1F0000FD10123032AA372EAD95948574B5E494C
:10C20000C01AC0080004002240F0040005F076FDCA
:10C21000DEE7002ADCD005F0B5FE514B5749024657
:10C220004E481B1ADB081B0443F00100EEE71723FE
:10C23000CB800B8141F61B334A818B8130E74189EA
:10C24000E388994228BF1946434B5B88172938BFBA
:10C250001721032B21810BD9404B4148C01AC0083C
:10C260000004134640F004000A46454905F04FFD1E
:10C27000236973B1E27A62B140F67722ADF81020FB
:10C280000022ADF812202289ADF8142004A920461E
:10C2900098470023638103E72F4D017A6B88B0F83C
:10C2A0000880B0F80A908689C7896173032B2CD95E
:10C2B0002A4B2B48C01AC0080004134640F0040063
:10C2C0000A463049039005F022FD6B88032B1CD9E8
:10C2D0002D4903984A4605F011FD6B88032B14D9AC
:10C2E0002A490398424605F009FD6B88032B0CD9B7
:10C2F000274903983A4605F001FD6B88032B04D9C2
:10C3000024490398324605F0F9FC2369002B3FF4D9
:10C31000C7AE00228DF815204DF67A21ADF8122017
:10C32000627BADF810108DF814202CE70A4B067ACA
:10C330005B88032B0AD9094B09481749C01AC00862
:10C340000004334640F0040005F0E1FC217BA8889E
:10C35000B14228BF314641E7985E002020D9040051
:10C36000C8D9040059970400019604003B960400C4
:10C370007A96040006950400439504009595040000
:10C38000C6950400A9960400D8960400EA96040015
:10C39000FC9604000C9704001C970400112812D08E
:10C3A0000A4B5B887BB105F0EDFD094B094902465C
:10C3B00009481B1ADB081B0443F0010007B0BDE865
:10C3C000F04305F09BBC07B0BDE8F083985E002009
:10C3D000C8D904009595040020D90400B0DF704747
:10C3E00066DF704710B5002104464088FFF7F8FF6C
:10C3F000034608B9237210BD112801D10123F9E7C2
:10C400006368BDE81040184760B159B10378DE2B6E
:10C410000AD00B684360DE2303704FF6FF7343803E
:10C42000002070470E2070470820704728B103781D
:10C43000DE2B04D14180002070470E207047082079
:10C440007047F0B5054685B00C46002942D000285B
:10C4500040D00B78DE2B3DD182884B889A4204D1A4
:10C460000B7A13B10846FFF7BDFF2B88112B33D091
:10C47000512B0FD0012B2DD12B7A012B2AD1A9883A
:10C480006288914226D12046237205B0BDE8F04073
:10C49000FFF7A8BFAE886388B3421BD1AF79022FE4
:10C4A00018D1AD7B2B1F022B14D800211022684617
:10C4B000FAF776FF052D18BF4FF4C0736946304672
:10C4C00018BFADF804308DF80070FFF787FF08B192
:10C4D0006368984705B0F0BD6388AA889A4204BF94
:10C4E0004FF6FF736380F5E7A0DF7047A1DF704769
:10C4F000ADDF7047B3DF7047B4DF704710B5044657
:10C50000408800F087FEA0802046BDE8104001F082
:10C51000A9BE30B587B005460C461422002101A8FB
:10C52000FAF73EFF082301A88DF80430ADF8065055
:10C530000394FFF7E3FF07B030BD000070B586B08D
:10C5400005461422002101A8FAF72AFF4FF6FF73CF
:10C550009D42ADF8065046D0284600F0D3FC112885
:10C5600004463AD019D8F0B10B2823D01F4B5B8872
:10C5700073B1204605F006FD1D4E1E4902461E48B9
:10C58000361AF60836042B4646F0010005F0BFFBCC
:10C5900021462846FFF7BDFF03E043F2020398421D
:10C5A000E4D100221AE00F238DF8043001A8FFF730
:10C5B000A5FFF6E710238DF804300C4B5B88012BA8
:10C5C000F4D90D4B0A480D49C01AC00800042A4688
:10C5D00040F0020005F092FBE8E70122084B2846F4
:10C5E0001978FFF76FFB06B070BD00BFB05E00208A
:10C5F000F8D904002B98040020D90400AB9704005C
:10C60000839D0020FFF79ABF024B03491878002250
:10C61000FFF772BB859D00201DC602002DE9F04783
:10C62000DFF83C8188B098F800100446FFF732FB31
:10C630000646002840F08780204600F0CBFC082802
:10C64000054635D019D820B306285ED03F4B5B880D
:10C6500073B1284605F096FC3D4F3E4902463E48E0
:10C660003F1AFF083F04234647F0010005F04FFB47
:10C6700029462046FFF74DFF09E043F202039842A6
:10C6800005D043F20143984259D01128DED101254B
:10C6900046E03146142203A8FAF782FE112303A8CC
:10C6A0008DF80C30ADF80E400126FFF727FFEEE7BE
:10C6B0000DF10600FFF71EFF354601274FF0020A75
:10C6C0000DF10809BDF80630BB421ED900224946CB
:10C6D0003846CDE903A9FFF70FFFB0B9BDF8083020
:10C6E0003DB942F605255B1B5D425D410137BFB296
:10C6F000E8E742F602129342F8D101AB03AA3946A9
:10C7000020460493FFF7F4FE30B1204600F082FD8E
:10C7100000F092FC002503E0BDF80430002BF4D0BB
:10C720000E4B2A4619782046FFF7CCFA98F80010ED
:10C730003246204608B0BDE8F047FFF7C3BA2046AE
:10C74000FFF7FCFEA3E708B0BDE8F087B05E00206D
:10C75000F8D904007C98040020D90400859D0020AD
:10C76000869D002013B5044600F054FD00236A4660
:10C77000092101F0E3F8052805D1044B01221978BD
:10C780002046FFF79FFA02B010BD00BF819D002038
:10C7900008B5084B084918780022FFF7ADFA0246A1
:10C7A00030B9064B06491878BDE80840FFF7A4BA2F
:10C7B00008BD00BF849D00200DC80200819D00209F
:10C7C000C5C7020037B50446042200216846FAF7BF
:10C7D000E7FD42F6A623ADF800300A4B1868019039
:10C7E000012501AA694620468DF80250FFF77CFE1C
:10C7F00028B9054B2A4619782046FFF763FA03B09B
:10C8000030BD00BFBA9A0400809D002070B50121A0
:10C8100086B006462F4803F0A8FB0446BFF35F8F9F
:10C82000002851D1304600F0D1FA1128054640D0F9
:10C830001AD800284AD00B2839D0274B5B8873B10F
:10C84000284605F09FFB254C254902462548241A19
:10C85000E4082404334644F0010005F058FA294660
:10C860003046FFF756FE21E0862803D043F202034C
:10C870009842E1E71422214601A8FAF791FD072327
:10C880008DF80430144BADF806605B88012B0AD993
:10C890001248144B1449C01AC0080004324640F034
:10C8A000020005F02BFA01A8FFF728FE002422461B
:10C8B00000E001220D4B30461978FFF703FA1CB94E
:10C8C000BFF35F8F034B1C6006B070BD01240246AE
:10C8D000F0E700BF7C9D0020B05E0020F8D9040086
:10C8E000F198040020D90400BC980400849D002025
:10C8F00038B503780446A3B94088FFF71FFE658862
:10C90000284600F055FB28B1064B0122197828462D
:10C91000FFF7D8F96088FFF725FFBDE83840FFF73B
:10C9200037BF38BD859D002037B50378092B0446F5
:10C9300030D1427A72BB057A072D1BD0082D2ED03C
:10C94000012D27D180886A46294601F09BFA08BB51
:10C95000019B1B78F3B1A08800F08AFC4FF6FF73AF
:10C96000984217D0124B2A461978FFF7ABF9FFF718
:10C970004BFE0FE0808800F07BFC4FF6FF7398427F
:10C98000044607D00B4B01221978FFF79BF920468C
:10C99000FFF7E8FE03B0BDE83040FFF7F9BE064BF5
:10C9A00019680129F6D1BFF35F8F1A60F2E700BF63
:10C9B000859D0020849D00207C9D00202DE9F8436A
:10C9C000FFF75EF9DFF8B890DFF8B88089F800006B
:10C9D000FFF756F988F80000FFF752F91E4F1F4E77
:10C9E0003870FFF74DF93070FFF74AF91C4D1D4CB8
:10C9F0002870FFF745F92070FFF742F91A4B1870BD
:10CA000099F80030182B11D098F80030182B0DD061
:10CA10003B78182B0AD03378182B07D02B78182B9B
:10CA200004D02378182B01D018280ED10F4B5B8827
:10CA30004BB10F480F4B1049C01AC008000440F01A
:10CA4000010005F057F9032004E00C4B00201860AA
:10CA5000BFF35F8FBDE8F883859D0020869D002091
:10CA6000819D0020809D0020829D0020B05E0020DE
:10CA7000F8D9040020D904002E9904007C9D0020E0
:10CA8000849D0020839D002037B5154B0022CDE901
:10CA90000032144B0D4619780446FFF713F912497A
:10CAA000124B2046002D08BF0B46019300F0B2FB4D
:10CAB0000022694600F0AEFF80B10D4B5B88012B70
:10CAC0000CD905F05FFA0B4B0B4902460B481B1AB9
:10CAD000DB081B0443F0020005F010F903B030BD81
