:0200000270008C
:10700000000002208DCA0700B5CA0700B7CA0700F2
:10701000B9CA0700BBCA0700BDCA070000000000CC
:107020000000000000000000000000000DC6070086
:10703000C1CA070000000000C3CA0700C5CA070094
:10704000CDC70700C7CA070089CA070079CA070069
:107050007DCA0700C7CA070051C60700C7CA070094
:10706000C7CA0700C7CA0700C7CA0700C7CA0700C0
:10707000C7CA0700C7CA0700C7CA0700C7CA0700B0
:107080004DCA070059C20700C7CA070085CA0700D2
:10709000F5C20700C7CA070021C60700C7CA070014
:1070A000C7CA0700C7CA0700C7CA0700C7CA070080
:1070B000C7CA0700C7CA07000000000000000000A0
:1070C000C7CA0700C7CA0700C7CA070081CA0700A6
:1070D000C7CA0700C7CA0700C7CA0700CDC907004B
:1070E000A1C8070000000000000000000000000030
:1070F00000000000C7CA070000000000C7CA070060
:10710000000000000000000000000000000000007F
:10711000000000000000000000000000000000006F
:10712000000000000000000000000000000000005F
:10713000000000000000000000000000000000004F
:10714000000000000000000000000000000000003F
:10715000000000000000000000000000000000002F
:10716000000000000000000000000000000000001F
:10717000000000000000000000000000000000000F
:1071800000000000000000000000000000000000FF
:1071900000000000000000000000000000000000EF
:1071A00000000000000000000000000000000000DF
:1071B00000000000000000000000000000000000CF
:1071C00000000000000000000000000000000000BF
:1071D00000000000000000000000000000000000AF
:1071E000000000000000000000000000000000009F
:1071F000000000000000000000000000000000008F
:1072000010B5054C237833B9044B13B10448AFF3E0
:1072100000800123237010BD105A002000000000E0
:1072200094DE070008B5034B1BB103490348AFF3D5
:10723000008008BD00000000145A002094DE070002
:10724000A3F5803A704700BF174B002B08BF134BC4
:107250009D46FFF7F5FF00218B460F461348144A61
:10726000121A00F063F80E4B002B00D098470D4B1C
:10727000002B00D098470020002104000D000D488D
:10728000002802D00C48AFF3008000F02BF820005B
:10729000290004F077F900F011F800BF00000800A1
:1072A000000000000000000000000220105A002032
:1072B000A0830020000000000000000008B5074B7C
:1072C000044613B10021AFF30080054B1868836AB0
:1072D00003B19847204600F031F800BF00000000DD
:1072E000D8D7070070B50D4D0D4C641BA4100026B7
:1072F000A64209D10B4D0C4C06F062FA641BA41097
:107300000026A64205D170BD55F8043B98470136CA
:10731000EEE755F8043B98470136F2E7F0590020B4
:10732000F0590020F0590020F4590020024403468F
:10733000934200D1704703F8011BF9E7FEE700BF55
:107340004FF08053D3F83001A0F10D03584258415B
:1073500070477047034B53F8202093680BB1D068F7
:10736000184770472C5A002030B5124D2A68026029
:1073700008688B8802F114042C6048B943B198075F
:1073800019461CBF191D21F0030121442960204624
:1073900000215181D160518A5060138111820BB15B
:1073A000013B9BB28B424FF000001CBF5382138203
:1073B000107030BDE059002013B500236946044623
:1073C0000093ADF80430FFF7CFFF01281EBF2368FC
:1073D00001221A7002B010BD002910D083890289E1
:1073E00089B2D8BF9B180B449BB29A4298BF9B1A94
:1073F0008381C3890B44C381038A591A0182704770
:10740000438910B5048900298AB2D8BF1B191344D7
:107410009BB29C4298BF1B1B4381C3899B1AC381AB
:10742000038A1A44028210BD09B1FFF7E9BF704711
:10743000012902D0022907D0704700230375B2F951
:1074400000108068FFF7F0BF0023037570474368A2
:107450000022598A5A81DA60198283685A81DA6077
:107460005A8A1A82704738B50378012B044602D035
:10747000022B1ED038BD43688068598943898589AD
:10748000994207D0028938BF8918C91A89B209B24E
:10749000FFF7CAFF606883899D42EBD0018936BF40
:1074A0004919E91AC91A89B2BDE8384009B2FFF78B
:1074B00093BF43688068998983894589994207D039
:1074C000028938BF8918C91A89B209B2FFF784FF47
:1074D000606843899D42CDD0018936BF4919E91AB8
:1074E000C91A89B2BDE8384009B2FFF79DBF4368A9
:1074F00000689B691847000010B5084A08484FF417
:107500008031C2F808138368D2F8044503F07F4342
:1075100023438360C2F8041310BD00BF0010014074
:10752000B882002008B503788B4214D0012901707D
:1075300012D0032912D0042912D0022912D1032318
:107540000A4A02EB4303597883690BB140699847B3
:10755000074B00221A7008BD0023F1E70123EFE773
:107560000223EDE700235B78FFDE00BF94DC070019
:1075700098820020836A0BB1406A1847704713B5A0
:1075800004460022022940686270626014D0032918
:1075900012D001290ED1D0E907342344C361C36856
:1075A00002625A81DA605A8A1A8201AAADF804404E
:1075B000FFF7E0FF02B010BD02B0BDE81040FFF7DA
:1075C000D9BF18DF704700001FB50FC86C4684E8AC
:1075D0000F0000230849029310224FF0FF3014F8E7
:1075E000013B4340DBB2013A51F8233083EA1020DB
:1075F000F5D1C04304B010BD94D80700704742686D
:1076000043691AB1DA6803219868104701780129A3
:1076100002D0022900D07047DA68F5E703681F2B13
:1076200083BF03F01F03036001484FF0A040704781
:107630000003005007B5436802461B78019301A878
:10764000FFF7ECFFD0F810350198C34003F00100BC
:107650005378012B08BF80F0010003B05DF804FBF4
:1076600007B5019001A8FFF7D9FF019B03F5E0736F
:10767000890040F8231003B05DF804FB10B5012326
:1076800050E8002F194640E8001494F0000FF7D19D
:10769000BFF35F8FB2FA82F0400910BD10B5044607
:1076A0000069FFF7EBFF40B1A068FFF7DCFE23693C
:1076B000BFF35F8F0020186010BD0220FCE710B5FB
:1076C0000446FFF7EBFFA3685B68D88910BD10B5CF
:1076D0000446FFF7E3FFA368586810BD10B50446E1
:1076E0004069FFF7CBFF40B1E068FFF7BCFE63697C
:1076F000BFF35F8F0020186010BD0220FCE710B5BB
:10770000C37E04462BB1FFF7E9FFE3685B68188A84
:1077100010BD1846FCE710B5C37E044623B1FFF741
:10772000DDFFE368586810BD1846FCE7064BD3F848
:107730000425064B19681A60914200D87047C36C43
:10774000806C0221184700BF00100140607B0020C0
:1077500070B50A4BD3F80425094B196891420446C9
:1077600006D81A60E36CA06C0121BDE87040184790
:10777000C56C806C1A600221A847F3E70010014035
:10778000607B002010B5034653E8000F00EA0102B9
:1077900043E8002494F0000FF6D110BD70B5A8B9ED
:1077A0000E4D0F4C0026641B1423B4FBF3F4A642C9
:1077B00001D1002009E02B6813B901361435F6E732
:1077C000DB69284698470028F7D070BD0368002B76
:1077D000E6D0BDE87040DB69184700BFF8590020CB
:1077E0000C5A0020014B43600020704778DD0700F1
:1077F0000846704700207047024B1868003818BFD1
:1078000001207047D080002070B50F4D2B782BB130
:107810000E4C23782BB920BF40BF20BF01232B7013
:1078200070BDFFF769FED4E9040150EA0103F2D00C
:10783000D4E90232D4E90A649B1942EB0402834280
:1078400072EB0103E7D3E9E798820020B8820020B9
:10785000094B5A7899780132D2B2914208BF00227E
:10786000197891421FBF02705878182202FB00302D
:1078700014BF043000207047D880002043788B422A
:1078800083BF8378C91840180020704743681B687D
:1078900018470000024B5B6803B11847704700BFF0
:1078A000F07C0020020600F00F034CBF02480348A2
:1078B000DB001844704700BF207F0020687F002055
:1078C00073B51B4D04462B680BB905212BE0A34271
:1078D0002CD10C2301A920468DF80430FFF7D6FFE8
:1078E000014600BB23681B682B60236805461860AF
:1078F000064665F07F00C0B2FFF7D4FF036801358C
:107900009C4208BFC0E90066092DF2D100252E4631
:10791000E8B2FFF7C7FF036801359C4208BFC0E922
:107920000066092DF4D1084602B070BD1D68CAE793
:10793000E481002038B5054B05461C6804B938BD04
:1079400029462046FFF7A2FF2368F6E7E4810020DE
:1079500038B5074B05461C680CB9062038BD2946CA
:107960002046FFF793FF0628F8D12368F3E700BF0E
:10797000E48100204B689A4228BF1A460B68C0E990
:10798000003248680B68801A48601A4400380A6060
:1079900018BF012070474B689A4228BF1A4662B14F
:1079A0000B68C0E900324B689B1A4B600B68101ED5
:1079B00013440B6018BF012070471346F1E730B540
:1079C0004C689C4209D200254560096801609342D9
:1079D0000CD1201E18BF012030BD43600D6805602A
:1079E0000868E41A18444C600860F0E70020F3E7E8
:1079F00000F1804000F51C3001230360BFF36F8F5E
:107A0000BFF34F8F7047002070470000054B10F008
:107A1000800FA3F1900208BF134600F00F0003EBA4
:107A200000107047907E0020C36903B1184770476B
:107A300008B5037A012B8CBF0C3000200121FFF721
:107A40001DFF007808BD03680022C3E91E22C3E9B8
:107A500020221A845A62DA6203F134025A677047AC
:107A60004360CA699A420DD38A690260C8691A44A0
:107A70008A610A6FC01A1A44C86100380A6718BFC1
:107A80000120704701F1280202608B6700207047D7
:107A90004360CA699A4227BF8A69026001F12802DD
:107AA000026026BF0B67CB618B6700207047000028
:107AB0002DE9F0411F46036891F8088005460E46FF
:107AC000002B00F08780A3F213337C2B00F21C8381
:107AD0007C2B00F21983DFE813F085008F009D00F6
:107AE000A900B500C100CD00D90017031703170383
:107AF000170317031703EF00FB0017031703170300
:107B0000170317012301310117031703170344015A
:107B100050017E0117031703170317036601720153
:107B20007E011703170317031703170317038A01AF
:107B300017031703170317039E01AA01B601C20119
:107B4000D00117031703DC01E801F40100020C0265
:107B5000170317031D0229023502410217031703F9
:107B60004D025902650271027D02170317031703C4
:107B70001703170317031703170317031703170335
:107B80001703170317031703170317031703170325
:107B90009C02A802170317031703BA02170317035F
:107BA00017031703D7021703170317031703D70287
:107BB000170317031703170317031703E302EF0253
:107BC00017031703170317030D03170317031703EF
:107BD00017030D030823037127B940F213332B60F9
:107BE000012048E10AB12B7913700B23012F2B716F
:107BF0000ED84FF44573F2E700240AB12B791355E0
:107C00000134337D2B71BC4205D340F21533E6E7D6
:107C10000124F2E700240AB12B7913550134022321
:107C2000BC422B7103D340F21633D8E700240AB1CB
:107C30002B79135501340223BC422B7103D340F23C
:107C40001733CCE700240AB12B79135501340223F2
:107C5000BC422B7103D34FF44673C0E700240AB132
:107C60002B7913550134737E2B71BC4203D340F240
:107C70001933B4E700240AB12B79135501340023DA
:107C8000BC422B7103D340F21A33A8E700240AB197
:107C90002B7913559D4B0021013419709B4B1B7898
:107CA000434502D340F29A3399E70923A7422B7147
:107CB00003D840F2213392E700240AB12B791355FF
:107CC00001340423BC422B7103D340F2223386E7F4
:107CD00000240AB12B7913558C4B317A1B788C48D0
:107CE000994204F1010440F2128206F1090103EB0A
:107CF000430301EB030CBC42CB5CC0F800C02B710A
:107D000003D340F227336AE700240AB12B791355D5
:107D100001340023BC422B7103D34FF44A735EE756
:107D200000240AB12B791355794B1B6801345B7819
:107D30002B71BC4203D340F2293350E700240AB12F
:107D40002B791355724B317D1B681B78994204F1D6
:107D500001041ED10223BC422B7103D340F22D3308
:107D60003DE700240AB12B79135501340223BC42AC
:107D70002B7103D340F22E3331E700240AB12B7963
:107D800013550134737E2B71BC4225D340F22F333F
:107D900025E7B17D994223D10A23BC422B7103D33D
:107DA0004FF44D731BE700240AB12B7913550134AE
:107DB0000023BC422B7103D340F235330FE700247C
:107DC0000AB12B79135501340023BC422B7103D324
:107DD00040F2363303E700240AB12B7913550134FE
:107DE0000023A7422B7103D840F23D33F7E600246D
:107DF0000AB12B791355464B317D1B681B7899428C
:107E000004F1010440F0EB800523BC422B7103D345
:107E100040F24233E3E600240AB12B7913550134D2
:107E20002423BC422B7103D340F24333D7E6002412
:107E30000AB12B79135501340023BC422B7103D3B3
:107E40004FF45173CBE600240AB12B79135501345A
:107E50001023BC422B7103D340F24533BFE600240C
:107E60000AB12B79135501340120BC42287105D386
:107E700040F246332B60BDE8F08100240AB12B7933
:107E8000135501340523BC422B7103D340F249330F
:107E9000A5E600240AB12B79135501342423BC42F2
:107EA0002B7103D340F24A3399E600240AB12B79AF
:107EB000135501340120BC42287103D340F24B33E7
:107EC000D8E700240AB12B79135501340323BC42AF
:107ED0002B7103D34FF4537381E600240AB12B793D
:107EE00013550134B37D2B71BC4203D340F24D33A3
:107EF00075E600240AB12B79135501340423BC42E2
:107F00002B7108D34FF4547369E600BF5C7B0020EB
:107F1000B082002000240AB12B79135501342423A8
:107F2000BC422B7103D340F2513358E600240AB10E
:107F30002B79135501340223BC422B7103D340F239
:107F400052334CE600240AB12B7913550134022335
:107F5000BC422B7103D340F2533340E600240AB1F4
:107F60002B79135501340523BC422B7103D340F206
:107F7000563334E600240AB12B79135501342423F7
:107F8000BC422B7103D340F2573328E600240AB1D8
:107F90002B79135501340623BC422B7103D34FF4C4
:107FA00056731CE600240AB12B7913550134337D36
:107FB0002B71BC4203D340F2593310E600240AB1BE
:107FC0002B7913550134B37D2B71BC4203D340F29E
:107FD0005A3304E600240AB12B79135501344E4B71
:107FE0001B6859784D4B19704D4B002119704C4B43
:107FF00019784A4B1B78994204D34A490B780133CC
:108000000B704BE60723A7422B7103D840F26E3367
:10801000E5E500240AB12B79135501340523BC4250
:108020002B7103D340F26F33D9E500240AB12B79C9
:1080300013553B4B1978384B1868FFF71FFC013478
:1080400003782B71BC4203D340F27333C7E500249D
:108050000AB12B791355304B317D1B681B7899423F
:1080600004F1010406D10323BC422B710DD34FF45C
:108070005E73B4E5B17D99420BD10223BC422B71F2
:1080800003D340F27D33AAE500240AB12B791355BE
:1080900001344023A7422B7103D84FF461739EE54E
:1080A00000240AB12B79135501340023BC422B71F3
:1080B00003D340F2853392E500240AB12B7913559E
:1080C000154B317D1B681B78994204F1010407D1DF
:1080D000336ABC421B782B710DD340F28A337EE5A4
:1080E000B17D99420BD10023BC422B7103D340F2E6
:1080F0008F3374E500240AB12B79135501340849F4
:108100000B7801330B7072E700202860B3E6002380
:1081100003601B78FFDE00BFB0820020407B0020A0
:108120005D7B00205C7B002038B5074C051E04F108
:10813000080318BF1C4623682BB11A6822605B68CD
:1081400028469847F7E738BDDC7C002020B9054B6E
:1081500001225A70FFF7E8BF012802D1014A90704E
:10816000F8E77047D47C002020B9034B01225A70F5
:10817000FFF7DABF704700BFD47C00204DDF7047A7
:108180004EDF70474FDF704710B50446FFF7F8FF2A
:1081900040B92046FFF7F2FF20B92046BDE8104065
:1081A000FFF7F0BF10BD0000012810B5044601D153
:1081B00000239847084B1B686BB10A2C07D00B2C87
:1081C00007D0092C07D10220BDE810401847002035
:1081D000FAE70120F8E710BD9082002000F180400E
:1081E000002382B0036003680193019B02B07047D3
:1081F000044B1A68D20704D4E02283F8002301223A
:108200001A60704700E100E000F1804000F5C040D6
:10821000002382B0036003680193019B02B07047A2
:1082200007B5019001A8FFF7F9F9019B00EB830066
:10823000D0F8003723F44033C0F80037D0F80037C7
:1082400043EA0141C0F8001703B05DF804FB08B52C
:1082500000F180431B68002B14BF0122002201D0D3
:10826000FFF7BCFF104608BD020713D400F00F0350
:1082700010F0800F084A0BBF03F5887303F5847371
:1082800002EB830352F8230008BF5868431E58428C
:10829000584170470020704700700240064A10F0B5
:1082A000800F00F00F0314BFD2F81005D2F81405A8
:1082B000D84000F0010070470070024010F0800FBD
:1082C00014BF0023102300F00F0018447047000073
:1082D00007B5094A00231370084AADF8053013703A
:1082E0008DF8073001238DF80430054B01A81B6879
:1082F000984703B05DF804FB667B0020D580002022
:10830000B47F002070470000084B00221A70084B11
:1083100093F89E20032A04D106486FF00101FFF76D
:1083200031BAD3F89030002BF6D07047157D00207D
:10833000007E00208C7D002008B50C4B00221A70B6
:108340000146FFF763FB837B032B0AD10846FFF747
:10835000B5FF01218140BDE808400548C943FFF74A
:1083600011BA0368002BF1D008BD00BF157D0020B5
:108370008C7D0020FFF7C8BF8120FFF7DDBF822082
:10838000FFF7DABF8320FFF7D7BF8420FFF7D4BF02
:108390008520FFF7D1BF8620FFF7CEBF8720FFF7EC
:1083A000CBBF000007B5124B00221A70114B93F897
:1083B0001E21032A07D110486FF4807103B05DF8C5
:1083C00004EBFFF7DFB9D3F8103173B90A486FF443
:1083D0008071FFF7D7F906238DF804308823ADF8B4
:1083E0000630064B01A81B68984703B05DF804FBF4
:1083F000157D0020007E00208C7D0020B47F0020B1
:1084000013B5134B00221A70124B9A7B032A07D123
:1084100011486FF4803102B0BDE81040FFF7B2B9E7
:108420001C687CB96FF480310B48FFF7ABF9062369
:108430008DF80430094BADF806401B6801A8984739
:1084400002B010BD4C2002B0BDE81040FFF7D0BA1A
:10845000157D0020007E00208C7D0020B47F002050
:1084600007B50E4B00221A700D4B93F88E20032A8D
:1084700011D0D3F8803073B90A486FF08071FFF7DC
:1084800081F906238DF804300823ADF80630064B39
:1084900001A81B68984703B05DF804FB157D002018
:1084A000007E00208C7D0020B47F002007B50023D3
:1084B0008DF804300B4BD3F82025ADF80620D3F807
:1084C000C034094A002B13680CBF4FF480714FF081
:1084D00001210B431360054B01A81B68984703B0AB
:1084E0005DF804FB00700240FC7D0020B47F00209A
:1084F00073B5012202FA01F51E491F4E0B6810F0F8
:10850000800F43EA050304460B6027D000F00F02FA
:108510001A4B33F8123003F1804303F51C331A6809
:108520004AB100221A60BFF36F8FBFF34F8F8028CC
:1085300011D0FFF701FF316829400AD106238DF8D9
:1085400004308DF806408DF807100D4B01A81B680C
:10855000984702B070BDFFF7D7FEECE733681D42C5
:10856000F7D106238DF804308DF806008DF807202A
:10857000EBE700BFFC7D00208C7D002000DD0700C4
:10858000B47F002008B5054B1A781046FFF796FE19
:10859000BDE8084001461046FFF7AABFD58000207D
:1085A00013B5244BD3F80044C3F80044BFF36F8FD6
:1085B000BFF34F8FBFF36F8FBFF34F8FE1050ED522
:1085C0001D4B01221A700023ADF805308DF80730DD
:1085D00002238DF80430194B01A81B689847A205A7
:1085E0000DD5154A00231370ADF805308DF807300E
:1085F00003238DF80430114B01A81B6898476305CD
:1086000016D50D4B1A789AB100221A70094B012128
:10861000C3F808155820FFF7EBF904238DF8043050
:10862000064BADF805201B688DF8072001A8984778
:1086300002B010BD00700240667B0020B47F0020B5
:10864000024AD2F80034002BFBD0704700E0014012
:108650000A4908B50223C1F80435BFF36F8FBFF391
:108660004F8FC1F80805FFF7EBFF0023C1F8043571
:10867000BFF36F8FBFF34F8F08BD00BF00E0014015
:1086800070B50E4E01231546C6F80435BFF36F8F43
:10869000BFF34F8F0024AC4207D10023C6F8043546
:1086A000BFF36F8FBFF34F8F70BD51F8243040F888
:1086B0002430FFF7C5FF0134EDE700BF00E00140C3
:1086C0001FB501238DF80030044BCDE90110D3E92B
:1086D00009126846904705B05DF804FB8C7C0020C9
:1086E00010B50E4B53F82000037893B9023010BD3B
:1086F000D3B221F8134013465A1C845C002CF7D1E6
:10870000DBB201335B00DBB243F4407304480B80FF
:10871000EDE7034900230138EEE700BFF0DD070075
:10872000F8810020024B4FF43C6043F001031847EE
:10873000F0DC070038B50E4B4FF40032C3F8802050
:10874000BFF34F8FBFF36F8F0A4C4FF48033012577
:10875000C4F84833C4F808336560FFF7E3FF064BFD
:10876000A56000241C60FFF7DDFF044B1C7038BDC2
:1087700000E100E0001001404C820020F181002067
:1087800010B4064C63690A4623B1014620695DF8BE
:10879000044B184701205DF8044B70477483002098
:1087A000438940681844704713B50E4B1C68046039
:1087B00004F10C0220461A6011F8043B00F8043B57
:1087C000FEF7D2FD01280AD0636869461A895B6802
:1087D000009304F10800ADF80420FEF7C5FD02B0D7
:1087E00010BD00BFE059002070B5EFF3108672B6DF
:1087F0000C4A946801239CB993600B4B0B4DD3F842
:10880000801029401160C3F88050D3F88410516063
:108810004FF0FF32C3F88420047006B962B670BD11
:108820000370FAE7A082002000E100E0FC06FFBD33
:1088300010B5064B002253E8001F01EA020043E88E
:10884000000494F0000FF6D110BD00BFD0800020CE
:1088500008B5FFF7EDFF002008BD00002DE9F0434B
:108860001D4687B0144B80460F4616464FF001094F
:1088700053E8004F44EA090243E8002191F0000F59
:10888000F6D1BCB9AA0831463846FFF7F9FEFFF722
:10889000CFFFD8F808304BB10E9A8DF80090CDE993
:1088A0000147CDE90365059268469847204607B021
:1088B000BDE8F0831124F9E7D08000202DE9F043D2
:1088C0001546984687B0174B81460E46012253E85D
:1088D000004F44EA020143E8001090F0000FF6D187
:1088E000ECB92746BD4214D1FFF7A2FFD9F80830F2
:1088F0005BB102228DF800200022CDE90126CDE9EE
:108900000325CDF8148068469847204607B0BDE897
:10891000F08306EB0730FFF79BFE0137E2E71124F7
:10892000F3E700BFD080002008B50E490B7893B95B
:108930004B608B600B61CB600B4B1A791AB90B4AF9
:108940001A6001221A71FFF753FC4FF08042012395
:10895000C2F818350B70064BD3F800340BB1012365
:108960008B7008BDD47C0020E87C00204D8107007E
:108970000000014010B5084B9A685AB150B9EFF3A6
:10898000108172B6054A1C6814605C685460986077
:1089900001B962B610BD00BFA082002000E100E076
:1089A0002DE9F743DFF88C8098F8023005460E4633
:1089B0001746BBB3B0B31C4B4A1F9A4230D8436929
:1089C00083B3437C0024012B0DF107000CBF8946C3
:1089D000A1468DF80740FFF707FF0DF10600FEF7EF
:1089E00037FFD8B101230370104B4560D3F804352D
:1089F000C0E90497C0E902369DF8063088F80130D6
:108A00009DF80700FFF7B6FF24B9094B4FF4801219
:108A1000C3F80021204603B0BDE8F0830424EFE74B
:108A20000724F7E70824F5E7FAFFFF0000100140EC
:108A300000E100E0D88000202DE9F743FEF75CFD5F
:108A40002B48D0E9045155EA01034DD0D0E9022664
:108A5000D0E90A43141946EB0303AC4273EB01005F
:108A60003CBF2C460B46A21A63EB0603B2F1807F93
:108A700073F1000338D21F4BDFF88490D3F80485DC
:108A800099F8023083B31C4B1F683E6A66B3736962
:108A900053B300250DF1070035748DF80750FFF72B
:108AA000A3FE0DF10600FEF7D3FED8B1022303703A
:108AB0009DF80630466089F801309DF80700FFF701
:108AC00059FF8DB90D4B4FF48012C3F80021A4EB70
:108AD0000801386A3A4621F07F4103B0BDE8F0430F
:108AE000FFF75EBF0425E8E703B0BDE8F08300BFF1
:108AF000B882002000100140D47A002000E100E09C
:108B0000D880002010B4144BD0E90012D3E9024001
:108B10008C4290411CD2D3E9044054EA000C03D0AB
:108B2000A14272EB000C07D2C3E90640C3E904126C
:108B30005DF8044BFFF780BF824208BFA14207D017
:108B4000D3E90640A14272EB000038BFC3E9061228
:108B50005DF8044B704700BFB882002070B5144C1C
:108B60004FF4803506464FF4FA704FF47A720023C2
:108B700000EBC130C4F80853490C04F09FFC0D4BC6
:108B8000D3E90223801843F10003C4F80453C4F866
:108B90000853C6E90003C4F80453FEF7ADFCC4F85B
:108BA00008533046FFF7AEFFC4F8045370BD00BF52
:108BB00000100140B882002038B50D4D4FF48033CD
:108BC000C5F808330446FEF797FC0A4BD4E90012B7
:108BD000D3E902038842934108D22046FFF792FF6F
:108BE00000204FF48033C5F8043338BD0120F8E786
:108BF00000100140B8820020F8B54FF4FA61044635
:108C0000C0680A4D0A4E0B4FFFF7A8FF207D00B940
:108C1000F8BD2B7803F5C07346F82370E068FFF7C2
:108C2000CBFF0028F2D00120F2E700BF387B002004
:108C3000000001403546526E2DE9F74F037D064690
:108C4000002B7AD140684368994203D2012003B0D7
:108C5000BDE8F08F8068013B03EB00339A42F5D802
:108C6000374CDFF8E4A0DFF8E4B001EA0405144073
:108C7000641B240B631C01939AF80030314A03F5FE
:108C8000C07301214BF8232073683175D3F800803D
:108C900098F8012022BB5868A842D7D8019F9A684B
:108CA0000F2F28BF0F2707EB153C02EB103294451E
:108CB000CCD8DFF89C9088F80110D9F80000C8F8EB
:108CC0000430FEF76BFD002835D1D9F8000048B913
:108CD00001230022012B88F80120C8F80420B5D018
:108CE000022025E00268002AF2D04368D3F800C0D1
:108CF0000CF1FF332B42EBD1C368AB42E8D80369D8
:108D0000691E0CFB07119942E2D8136929461C46DB
:108D10003A464B46A0470028DAD13046FFF76CFFB1
:108D2000012893D0019BDB1B05EB07350193A3D1F1
:108D3000002333758BE70223CBE7022087E700BFD0
:108D400000F0FFFF3546526E387B002000000140E6
:108D5000447B0020012970B502D0022923D070BDC8
:108D6000FEF7CAFB164BD3E9062152EA0104D3E908
:108D70000405C3E904210DD0D3E90846101A61EBBC
:108D80000505A04275EB060008D2121941EB060159
:108D9000C3E90621BDE87040FFF74EBE0020002168
:108DA000C3E90601F6E7064AD2E9023103F07F4340
:108DB00013F1807341F10001C2E90231CFE700BF36
:108DC000B88200202DE9F7430378052B04460BD128
:108DD0004E4AD2F88434D2F88024D2B222B94C4A16
:108DE000DBB2052B08BF14462378002B2CD1494B4E
:108DF0001D6815BB8DF80450474D01A8FFF7F4FC22
:108E00002B6813B9454B62881A80012655E8003F4C
:108E100003EB060245E8002191F0000FF6D19DF822
:108E20000400FFF7A7FD3E4B1B6813B131462046F7
:108E300098472B6803B0BDE8F0832B6860889B6877
:108E400098472B685D68D4E7364D55E8013F98B2E6
:108E5000E9890844A989884228BF401A298988429B
:108E600002BFBFF32F8F002207E0C0EA030045E8EE
:108E700001010029E9D14FF001028DF8032001938F
:108E8000019F9DF8033003F0FF09002BD2D02B681F
:108E900013FA87F8BAB2B8F1000FCBD02168995015
:108EA00000260DF102008DF80260FFF79DFC1B4BC0
:108EB000194A1B88116801335B1AA8F8063052E87A
:108EC000003F314642E8001090F0000FF7D1A8F8BB
:108ED00004309DF80200FFF74DFDBBB2B3EB174F16
:108EE00011D155E8012FC2EA024245E80123002BC7
:108EF000F7D10B4B1B68002B9CD04946204603B092
:108F0000BDE8F0431847B146F3E700BF00700240E8
:108F10003ADD0700EC81002038820020B07F00207D
:108F2000F07C0020C0800020FFF74CBF012805D056
:108F3000022805D030B90448FFF744BF0348FBE7D7
:108F40000348F9E7704700BF32DD07002EDD070058
:108F500036DD07000148FFF735BF00BF3FDD0700E2
:108F60004FF08043D3F83824920702D50348FFF727
:108F700029BFD3F83824D107F4D4704744DD070063
:108F80002DE9F74307460E46FFF788F9002863D01E
:108F9000324B1B78022B5FD100230DF107008DF8B7
:108FA0000730FFF721FC17F00F0503D12C4B1B787E
:108FB000BB424DD12B4BDFF8D0801C68D8F8003075
:108FC000E443A4B238461C43FFF778F94FF0010997
:108FD00009FA00F914EA09043CD13846FEF716FDF7
:108FE0000C2255433A0603462ED51F4A31681544D4
:108FF00001F06041B268B1F1005F02F001021ED1E0
:10900000DAB91A4A1A6096E8070085E80700D8F826
:1090100000005D6000229A609A73154B40EA0900D7
:109020008022C8F80000C3F804219DF80700FFF76C
:10903000A1FC204603B0BDE8F0830E4AE2E70AB97E
:109040000D4ADFE70D4ADDE70D4A15440D4AD9E721
:109050001024EAE71124E8E70824EAE73D8200202B
:10906000D5800020FC7D0020907D002075790700D0
:1090700000E100E097790700059F07003D9F07008A
:10908000207D0020BF7907008C7D0020F7B50646C3
:109090000D46FFF703F900283AD01E4B1B78022B30
:1090A00036D100230DF107008DF80730FFF79CFB48
:1090B000330703D1184B1B78B34225D1174B184FF8
:1090C0001C683B68E443A4B230461C43FFF7F6F843
:1090D000012303FA00F10C4018D13046FEF796FC4C
:1090E00084602B6803606B684360847338680D4B41
:1090F000084380223860C3F804219DF80700FFF779
:1091000039FC204603B0F0BD1024F6E71124F4E743
:109110000824F6E73D820020D5800020FC7D002059
:109120008C7D002000E100E01FB5C3889342184603
:1091300028BF1046934281BF174BB3F89C30B2FB57
:10914000F3F403FB142288BFB2FA82F2CDE90110D6
:109150008CBF5209002200230DF1030003928DF809
:109160000330FFF741FB01A98020FFF709FF044608
:1091700058B90A4B1B78802B01BF094A094BD2E929
:109180000001C3E9000118BF10249DF80300FFF798
:10919000F1FB204604B010BD007E0020D5800020E9
:1091A000E8DD0700187D002013B500230DF107004E
:1091B0008DF80730FFF718FB0F4A5368013B5360E7
:1091C000536893B94FF080410124C1F808434FF42C
:1091D0008070FFF703F84C60D1F80C3403F00113F2
:1091E000B3F1011FF8D0002353709DF80700FFF77B
:1091F000C1FB02B010BD00BFD47C0020831EDBB2D7
:10920000062BF7B598BF344A344E98BFD25C3378FA
:10921000A3F10203DBB288BF0022062B9ABF2E49BE
:10922000CB5C00239342054618D0002A4AD02C4C30
:109230002C4F637803F0FF023BB37B680020984714
:1092400000230DF107008DF80730FFF7CDFA6368B2
:109250009DF8070001336360FFF78CFB022D34D0CB
:10926000A5F10800424242413378022B2FD0A3F1EE
:1092700008014B424B41934204D01B4B1B4942B364
:10928000C3F80413357003B0F0BD0DF107008DF87D
:109290000720FFF7A9FAA26813467BB93A60A760D6
:1092A0006368002BD3D14FF48070FEF797FF4FF027
:1092B00080430122C3F804231A60C8E7BB42EFD001
:1092C0001B68EAE7FFF770FFC8E70122CCE701233C
:1092D000D1E7C3F80813D5E70CD807003D8200207A
:1092E000D47C0020E4590020007002400414800166
:1092F000012837B50CD0032820D038B9244B0122DF
:10930000C3F88020BFF34F8FBFF36F8F03B030BD22
:1093100000230DF107008DF80730FFF765FA1D48AF
:1093200003780BB9FFF700FBC3680133C360012367
:1093300083709DF80700FFF71DFBE7E74FF08044BF
:109340000125FEF755FF0DF107000023C4F818555D
:109350008DF80730FFF748FA0E4AD368013BD36017
:10936000D368002BE5D10C4BD3F80034002BE0D1AF
:109370000223C4F808334FF48270FEF72FFFE56034
:10938000D4F81834C3F30041DB03F9D49170D0E76B
:1093900000E100E0D47C00200000014013B500246F
:1093A0000DF107008DF80740FFF71EFA4FF08043DC
:1093B0004FF46072C3F808239DF80700FFF7DAFA4C
:1093C000014B1C6002B010BD90820020012813B533
:1093D000044603D0032816D002B010BD00230DF1BF
:1093E00007008DF80730FFF7FFF99DF80700FFF73A
:1093F000C1FA0D4B1B68002BEED0204602B0BDE831
:109400001040FEF7C1BE094BC02283F800230122A1
:109410001A60054B1B68002BDED04FF080434FF4E1
:109420006072C3F80423D7E79082002000E100E0D7
:1094300007B500230DF107008DF80730FFF7D4F9C9
:109440000B4BD3F8001C032271B949F27531C3F8F4
:10945000001CC3F8142DC3F8001C9DF80700FFF78B
:1094600089FA03B05DF804FBC3F8142DF5E700BFDB
:1094700000E0064013B500240DF107008DF8074009
:10948000FFF7B2F90A4BD3F8001C69B949F27532FB
:10949000C3F8002CC3F8141DC3F8002C9DF8070076
:1094A000FFF768FA02B010BDC3F8144DF6E700BF2D
:1094B00000E0064008B5FDF743FF08B1FFF7B8FF2D
:1094C0000D4B0122C3F80025BFF36F8FBFF34F8F01
:1094D000D3F800241205FBD54FF40062C3F8002432
:1094E000BFF36F8FBFF34F8FFDF72AFF18B1BDE8B1
:1094F0000840FFF7BFBF08BD0070024070B51E4EA8
:109500004FF40063C6F80034BFF36F8FBFF34F8F83
:10951000FFF7D0FFFDF714FF60B1184C23784BB173
:109520000025C6F80055BFF36F8FBFF34F8FFFF7CD
:10953000C1FF2570FDF704FF08B1FFF779FF0E4A60
:109540008023C2F81C350023C2F830350C4A40F2A3
:10955000FF1111600B4A13600B4A13700B4A137012
:109560000B4B02221A70FDF7EBFE18B1BDE87040FC
:10957000FFF780BF70BD00BF00700240EC590020B3
:10958000FC7D00208C7D0020157D0020D5800020F2
:10959000167D002013B5002304460DF107008DF859
:1095A0000730FFF721F92046FEF788FE0D4901221A
:1095B0000B6802FA00F023EA000314F008020B60C3
:1095C0000AD104F00F04084B04F5947443F82420E6
:1095D000BFF36F8FBFF34F8F9DF80700FFF7CAF9F6
:1095E00002B010BDFC7D002000700240F7B50023E2
:1095F00004460DF103008DF80330FFF7F5F820461F
:10960000FEF704FA05462046FEF758FE012214F044
:10961000800F02FA00F22E4819D1036832EA0303E0
:109620000AD02046FFF7B6FF0323AB739DF8030073
:10963000FFF7A0F903B0F0BD2B60036823EA020333
:109640000360244B186820EA02001860ECE7230747
:1096500015D4802C204B2ED004F00F0101F2DA310A
:109660004900C3F80018D3F80418D3F80468C9B245
:1096700041F002013143C3F80418D3F80438154E01
:109680000168336861EA03071742CFD0134321EA28
:1096900002013360002301602B600323AB738DF85C
:1096A00007300E4B8DF8064006221B688DF804200B
:1096B00001A89847BAE740F2B471C3F80018D3F88C
:1096C0000418D3F80468C9B241F00401D2E700BF1E
:1096D0008C7D0020FC7D002000700240B47F0020C3
:1096E00073B5184B184CD3F880542368174EDA43DF
:1096F000174B31781B6892B208461A43FEF7DEFD1D
:10970000012303FA00F0104202D00846FFF76EFF73
:109710006FF0011105F080050D483570FEF732F845
:10972000236843F0010323600023ADF805308DF872
:10973000073005238DF80430064B01A81B689847B5
:1097400002B070BD00700240FC7D0020D58000207A
:109750008C7D0020B47F002010B50446FFF746FF43
:10976000134A04F00F0064B2002C4FF00103B4BFA1
:10977000D2F81015D2F8141503FA00F36FEA0303B8
:10978000B5BF0B400B40C2F81035C2F81435BFF31B
:109790006F8FBFF34F8F074A074B13EA240338BF7D
:1097A00013461A5C01239340014AC2F8083310BDE6
:1097B0000070024012DD0700F6DC07002DE9F843D7
:1097C000154B1C680CB9BDE8F88394F8088004F1C7
:1097D00009050027FEB2B04501D82368F1E76368A8
:1097E000DB6813B1314620469847237AB34210D93B
:1097F00095F801900026F1B2894502D8013703356A
:10980000E8E72846FEF73AF80078FFF7A5FF0136AB
:10981000F1E700235B78FFDEE4810020030610B54A
:10982000044605D4FEF720FD10B12046FFF7B2FE36
:10983000034BC3F81845BFF36F8FBFF34F8F10BDB5
:10984000007002402DE9F34110F0080704460ED1E4
:109850002B4BC3F80C05BFF34F8F40F48072C3F855
:109860000C25BFF36F8FBFF34F8FFFF7D7FF254B4B
:10987000254A234D66B213EA260338BF134604F087
:109880000F08012113F8083001FA03F3C5F8043377
:109890002046FEF703FD80BB002EB4BFD5F810357F
:1098A000D5F8143501FA08F1B5BF19431943C5F8C5
:1098B0001015C5F81415BFF36F8FBFF34F8FB8F1B4
:1098C000000F1AD0002E18DBBFB90DF107008DF87C
:1098D0000770FEF789FF2046FFF75CFE2046FEF783
:1098E000EDFC0A4901220B6802FA00F023EA0003AA
:1098F0009DF807000B60FFF73DF802B0BDE8F0816E
:1099000000700240F6DC070012DD07008C7D0020AD
:1099100070B543689B6804460E46154613B92DB1D1
:10992000072002E098470628F9D070BD237AB34299
:1099300011D906EB4606093434446678E9B28E4202
:1099400001D80020F1E72046FDF798FF0078FFF7E7
:1099500079FF0135F2E76B78FFDE0000024B01462C
:10996000D3E90002104700BF687F002030B585B002
:109970000446FDF7B3FE20BB6069FDF77FFE00B330
:10998000237FCBB9E3689968CB89ABB10846FEF772
:1099900007FF4B898A89934288BF0A89D21A0546F4
:1099A00092B260682283012323770168098CC9077A
:1099B00009D40023238323776369BFF35F8F0022D9
:1099C0001A6005B030BD017A01298CBF0C3000202F
:1099D0000021FDF753FF930600780CBF01230023FD
:1099E00001A9CDE901520393FFF7CAFA0028E3D099
:1099F000DFE7F8B5002406460F460C60254670697F
:109A0000C289438972B34268D35CA3F13002D1B2F8
:109A1000092907D9A3F14102052A0DD8373B43EAAA
:109A2000051501E042EA05157368013301217360F1
:109A3000FDF7E6FC0C46E2E7A3F16102052A01D836
:109A4000573BECE72C2B09D173680133736001217C
:109A5000FDF7D6FC24B13D60002002E0232BF9D0B5
:109A60000120F8BD0320FCE738B504464069C389EE
:109A700063B143894268D55C0121FDF7D5FC232DF4
:109A800006D163680B446360002038BD0320FCE707
:109A90000846FAE738B500F10C010446FFF7A9FFC4
:109AA00070B904F110012046FFF7A3FF00280CBF96
:109AB0000223012323722046BDE83840FFF7D4BFBC
:109AC00038BD10B500F108010446FFF792FF50B908
:109AD00004F10C012046FFF78CFF20B92046BDE8B9
:109AE0001040FFF7C1BF10BD10B500F108010446DA
:109AF000FFF77FFF20B92046BDE81040FFF7B4BF55
:109B000010BD38B500F1080529460446FFF771FF7E
:109B100080B904F10C012046FFF76BFF50B904F146
:109B200010012046FFF765FF20B92046BDE8384008
:109B3000FFF79ABF38BDFFF797BFF8B5038A934286
:109B400004460F4615461FD3012A838908D142686F
:109B50000978D154204629B2FDF73EFC0020F8BD1B
:109B6000002AF7D00689406803EB020CB44518447C
:109B700007DDF61AB6B2324602F0B6FF6068AA1BDD
:109B8000B91902F0B1FFE5E70120E8E72DE9F0415E
:109B9000B0F80880154608F1FF3292B29A420646A4
:109BA0000C4619D32A8A9A4216D34168E7184745CA
:109BB00021440FDDA8EB0404A2B22846FFF7BDFF45
:109BC000A7EB0802716892B22846FFF7B6FF0020A3
:109BD000BDE8F0811A46F7E70120F9E738B50546F8
:109BE00014462AB921B22846FDF71EFC002038BDD4
:109BF00013460A464189FFF7C9FF0128F6D0F1E76D
:109C00002DE9F04F013985B005461346062927D8BE
:109C1000DFE811F0070014001B0028003300ED00FE
:109C200005014168D1E901201968013A02EB0032CF
:109C3000284605B0BDE8F04FFEF7FEBF5868002883
:109C40005FD019680844421EF2E782680020518AFA
:109C500011825081D060AA681B68128A934250D941
:109C600001204EE018689A88C3899342F8D3A96806
:109C700005B0BDE8F04FFFF7B1BFAA685868D289B8
:109C80009042EDD100283CD06A681B6851688B4235
:109C9000E6D35B1A1168497819B991698B42DFD212
:109CA000D361DFF89C814FF001096C6885F814904E
:109CB00026687278002A40F0BC80AF68B7F80EA022
:109CC000BAF1000FCCD0E369A16953448B42C7D8E5
:109CD000E3685A81DA605A8A1A826169E369E06846
:109CE000194401F0030221F00301FFF726FF0128C8
:109CF0000AD10120E3680022598A5A81DA60198268
:109D0000226205B0BDE8F08F228A524528BF524634
:109D1000226293B262BBE0686369C189E76901F0BE
:109D200003023B4423F00303C2F1040292B219443C
:109D3000FFF703FF0128DCD0E2681046FEF730FD94
:109D4000B2F80EB086F801907460E369D4F814A0FC
:109D500003930746D8F80000FDF720FD002844D102
:109D6000D8F8000060B90120002373707360C1E768
:109D7000E26879893846FFF709FF0128B9D0CAE7B8
:109D8000002FF0D00268002AEDD0BBF1000FEAD01E
:109D900043685968BBFBF1F307F0030C01FB13B3F5
:109DA00053EA0C03DFD10399C368514421F0030146
:109DB0009942D8D303690BF1FF3C8C449C45D2D81F
:109DC000CDF80080D2F80CA05B463A46D047002878
:109DD000C9D12846FEF710FF01283FF441AFAB6818
:109DE000DB89002B7FF461AF8BE70220BCE7D3E96E
:109DF0000002114D84184FF0FF32844206D19B6857
:109E0000D24393427FF42CAF00207AE710F8011B75
:109E10005140C9B255F8211081EA1222EDE7C0681D
:109E20006421FEF79BFE04232B70044B0020187066
:109E300067E7022065E700BF94D8070098820020FA
:109E4000447B002070B5C37E05460E46BBB1CC896D
:109E50008CB1FDF743FCEB685968F3890A8A9A4292
:109E600028BF1A46934208D33046FFF7B7FE044690
:109E70002846FFF77BFD204670BD0124F8E701244A
:109E8000F9E737B5C37E0191054614467BB15AB157
:109E9000FDF724FCEB68019958682246FFF74DFE58
:109EA00004462846FFF762FD204603B030BD01247A
:109EB000FAE70000064910B50446084602F056FECF
:109EC000034982B22046BDE81040FFF736BE00BF0E
:109ED000DCD70700064910B50446084602F046FEE6
:109EE000034982B22046BDE81040FFF726BE00BFFE
:109EF000E2D7070008B510461A4602F0F5FD00202B
:109F000008BD0000F8B54B680B4F934228BF1346BD
:109F10000C461D4606461A460968384602F0E4FD1E
:109F2000C6E9007560682268401B60602A440038FA
:109F3000226018BF0120F8BD50820020F8B54B68A0
:109F4000934228BF134606460D461C468BB10A4F66
:109F500009681A46384602F0C7FD376074606B68BE
:109F60001B1B6B602B68201E23442B6018BF012035
:109F7000F8BD0360F2E700BF508200202DE9F04FEA
:109F80002DED028B4B6883B080460C4692466BB930
:109F90000B681B681B684BB98D683DB9C0E900555B
:109FA000284603B0BDEC028BBDE8F08FE76804F1F2
:109FB000100357454FF0000908EE103A28BF5746E6
:109FC0004E46012547B3A3686168BB429B4628BF44
:109FD000BB4629B3244B5A46981902F085FD00234D
:109FE0006360A268E368A2EB0B02A3EB0B03A26021
:109FF000E360A7EB0B075E440ABBB9F1000F03D087
:10A000002268126812682260DBB12368DBB96360E2
:10A0100016B1B24588BF0025134BC8E90036BFE72B
:10A02000002BDED02168104A4B6818EE100AD3F8D6
:10A03000049032445B46C8474FF00109D1E7002B3A
:10A04000C0D10025BEE70023009321684B680022A1
:10A05000D3F804B068460123D84708B92061B1E7B6
:10A06000A3680133A360F0E75082002010B50446D6
:10A0700058B90868037B202B09D100F10E01072293
:10A08000183002F031FD204610BD0320FCE7062009
:10A09000FAE700002DE9F04F0B7889B004460D4631
:10A0A0000E2B1AD8DFE813F09A007E019A009A006E
:10A0B00019000F00EB00190019007B0119009A002C
:10A0C0009A009A009A004B78DA094FEA53176FD03A
:10A0D00017F0030703D0012F60D00625A5E003F099
:10A0E0001F03012BF9D18B78062BF6D191F804A030
:10A0F00091F803B00397B946636800225E68214671
:10A10000012303A8B047002835D18DF80A00059037
:10A110000190B945E1D963680DF10A02D3F80480D2
:10A120002146012305A8C04763680DF10B02D3F84F
:10A1300004802146012305A8C0479DF80B309DF8F7
:10A140000A80534563681DD1019A934516D1984EF4
:10A150005F6886F80080B21C214686F801A0A8F14D
:10A16000020305A8B84742463146681C09B0BDE85D
:10A17000F04FFEF7D9BF09F10109BDE7019E013695
:10A18000F2B201925B6800221E462146A8F102034A
:10A1900005A8B0479DF80A301F44BAE78B78212BF9
:10A1A0009BD1B1F80720072A97D101681831DCE765
:10A1B000012F92D18B780668202B11D0222B8CD1C5
:10A1C000B1F80730002B88D1328CB1F803303384DA
:10A1D00002F0010203F001018A422CD1002524E0A3
:10A1E000B1F80720072A7FF478AF3373B1F807304E
:10A1F000DBB27373002503A80E36CDE9056307951E
:10A200008DF80C50FEF7F0FA284605A9FEF7B8FEC7
:10A21000054630B9674B1B785BB9674B674AC3E9A2
:10A2200000249DF80C00FEF7A5FB284609B0BDE808
:10A23000F08F1025F5E78DB2C1F10301C9B2FDF72A
:10A24000F3FB002DCAD1237A012B94BF284604F1D9
:10A250000C000021FDF712FB0078FFF7C7F920463C
:10A26000FDF7E6FBFFF7C2F9002506F13403C6E966
:10A270001E55C6E920557562F5627367D5E7007A09
:10A2800008B104F109000021FDF7F8FAAB78027873
:10A290009A42A3D01B06EF780AD527B1032F14BF2B
:10A2A00003250025C1E701212046FDF7BDFB95E709
:10A2B00007F0FD03012B91D0002F77D126682046AF
:10A2C000FDF7B6FB3E4B059306F10C030693B56A0A
:10A2D0008146C5B9F36FB567C6E91F53F36A63B129
:10A2E000D6E90B0106F1240383E80300F56205A912
:10A2F0004846FEF7CBFE054600E075620021204689
:10A30000FDF792FB91E7D6F884A0706A554528BF07
:10A31000554606F134082A46414602F0E5FBF36F44
:10A320002B44C6E91F73AAEB0503B367F36A4544E0
:10A3300075672BB306F1240506F12C0898E8030095
:10A3400085E80300B36F706AF7621BB9736A002B6C
:10A35000CDD116E0B26A716F9A4214D802F0C4FBF4
:10A36000B36AB26FC6F88030D21AB267726F1A44FD
:10A37000726700212046FDF757FBF36A002BDDD101
:10A3800073620025BAE71A4602F0AEFBB26FB36AF9
:10A39000F2679B1AB362736A13447362D6E70321B0
:10A3A000FDF742FB2046FDF74EFB17E703253CE790
:10A3B000F8810020D5800020187D00206DA00700C6
:10A3C000617A070037B504680B46218CC90725D58B
:10A3D000A56F95B1954228BF15461846616F2A466C
:10A3E00002F082FBA36FC4F880505B1BA367636F0E
:10A3F0002B446367002003B030BD616A81B9C4E9B2
:10A400000932FDF715FB0C34064B009369460194A5
:10A41000FEF73CFE002808BF9220ECE70820EAE7A0
:10A420001120E8E7917A0700F8B50546FDF736F9FF
:10A4300060BB2869FDF722F940B36B7F0BBBAB68AB
:10A440009E68338AEBB16B681B68B3F87870F7B914
:10A45000338AB3B1B18973898B4236D95A1E521AE5
:10A4600092B272B10120736868776868006800244E
:10A47000C0F8844068681944FFF7A4FF922818BF09
:10A480006C772B69BFF35F8F00221A60F8BDB0892B
:10A49000738971688342014412D9013B1A1A94B23C
:10A4A000002CEED0BC4228BF3C4622466868FFF72D
:10A4B00089FF21B23046FCF78FFF3A1B97B2C6E7FF
:10A4C000328903B9013A121AE9E73289002BC6D161
:10A4D000013AC4E738B5032915D8DFE801F02315A0
:10A4E000020917480123C376BDE83840FFF79CBF37
:10A4F000134C0025A068E576FCF7A9FFE068FCF79F
:10A50000A6FF2583A58338BD0D4C00232377E36880
:10A51000B4F918109868FCF787FF2046BDE838406A
:10A52000FFF724BA064C0023637763681A68A368B0
:10A53000B2F980109868FCF74FFF2046D4E700BFBF
:10A54000147B00202DE9F041804614460E46FDF7AD
:10A55000A5F8D8F808305D68EB89A34228D3012C10
:10A560006F890DD16B68DB5D337021B22846FCF733
:10A570005BFF00244046FFF757FF2046BDE8F0810F
:10A58000002CF2D02A8969683B19934239440CDDCA
:10A59000D21B304602F0A8FA28896968221AC01B2B
:10A5A0003A44304402F0A0FADFE722463046F9E7A9
:10A5B0000124DFE738B505460C46FDF76FF8AB68B8
:10A5C000228A5868C3899A4228BF1A46934208D300
:10A5D0002146FFF703FB04462846FFF725FF2046E8
:10A5E00038BD0124F8E70000F8B5134E134B34686A
:10A5F0001B68240C24041C4301271CB940F2FF13E0
:10A600003360F8BD94FAA4F585B1B5FA85F30F2B44
:10A610001D460DDDA5F11000C0B2030701D4FEF701
:10A62000E5FF07FA05F524EA0504E6E72025F1E74A
:10A6300043F08000F1E700BFFC7D00208C7D00200E
:10A6400038B50E4C8025C4F8845163681B0613D5B9
:10A65000FFF7CAFF0A4B0022C3F80425BFF36F8F30
:10A66000BFF34F8FC4F88450BFF34F8FBFF36F8F8A
:10A670004FF0FF32C3F8082338BD00BF00E100E00F
:10A680000070024008B5FFF7DBFF094BD3F8042345
:10A69000C3F808230022C3F80025BFF36F8FBFF370
:10A6A0004F8F044B1A70044B01221A7008BD00BF73
:10A6B00000700240157D0020167D002030B5324D1F
:10A6C00085B02868FDF7FCF8044640BBA868FCF795
:10A6D000BEFEE868FCF7BBFE2C4B2C831A78EC76A8
:10A6E000AC83002A39D02A4D5C709C70DC701C70E1
:10A6F0002C687CB9822303A88DF80C30FEF762FB2E
:10A70000FFF7C0FFFEF74AFE224B1C60224B1C7075
:10A710001F4B0AE02046FDF7D3F80028E8D00120BF
:10A7200005B030BD0A681C60134619680029F9D1CC
:10A730001A4B1A68FAB91A4B196801BB4822194812
:10A740000191FCF7F3FD019917484822FCF7EEFD53
:10A75000019916480C22FCF7E9FD154B154C032214
:10A760001A7000214FF400522046FCF7DFFD124B17
:10A7700000201C60D4E712681960131DD9E709682E
:10A780001A600B1DD8E700BF147B002070830020E7
:10A79000E4810020B47F0020167D0020E8810020A5
:10A7A000EC810020207F0020687F0020F07C0020CA
:10A7B00074830020D45A0020E059002007B50238E5
:10A7C0000C280BD8DFE800F0070D0A0A0A0A14204B
:10A7D0002F0A0A102A00184B0122DA7003B05DF824
:10A7E00004FB154B0022F8E7134B01229A70F5E7A2
:10A7F000114B00229A70114B1B78012BEED803B03D
:10A800005DF804EBFEF77ABE0B4B00225A709A708B
:10A8100001A882238DF80430FEF7D4FA03B05DF866
:10A8200004EBFFF72FBF044B01225A7003B05DF811
:10A8300004EBFEF795BB00BF70830020167D00205F
:10A8400013B500230DF107008DF80730FDF7CCFF9D
:10A850000F4B1B7803F0FF043BB900249DF8070061
:10A86000FEF788F8204602B010BDFFF7BDFE094A8A
:10A87000D2F8003413F40073EFD10121C2F82C1583
:10A88000D2F80014890544BFC2F82C351C46E5E710
:10A89000667B00200070024037B503780F2B04461A
:10A8A00011D9A3F1800283F08003052B01D903B0F5
:10A8B00030BD052AFBD8DFE812F07E002B005F00D8
:10A8C0008B00970016010F2BF1D801A252F823F04C
:10A8D00037AA070067AA0700D5AA070095AA0700AC
:10A8E000B5AA0700E7AA0700FBAA0700AFA8070060
:10A8F00031AB070035AB070039AB0700AFA8070045
:10A90000AFA80700AFA80700AFA80700F3AA070089
:10A910008A48FFF723F88948FDF70CF80D20FCF76B
:10A92000B9FFFEF74BFF0020FEF716FF8020FEF771
:10A9300013FF834B1A68834BBAB100221A70824A04
:10A94000824BC3F80423824AE02182F82713802136
:10A9500051600120C3F80405BFF36F8FBFF34F8F21
:10A9600003B0BDE83040FEF749BC7A491A70097A55
:10A970000029E4D1784AE3E7FEF720FFFFF760FE05
:10A980000020FEF73BFC7548FCF7D4FF7348FEF748
:10A99000E5FF0E20FCF77EFF714B1B78023BDBB21C
:10A9A000062B84D86F4AD35C002B80D003B0BDE85F
:10A9B0003040FEF7F9BB6A4B1B78062B06D003F03C
:10A9C000FD03052B7FF473AF0220C9E70820C7E71A
:10A9D000634B1B78032B7FF46AAFFFF731FF00282E
:10A9E0003FF465AF0420BBE75D4B1B78032B05D11B
:10A9F000FFF726FF10B10420FEF700FC00250DF143
:10AA000007008DF80750FDF7EFFE4E4B1B7803F063
:10AA1000FF042BB14D4AD2F82C3553B1C2F82C5556
:10AA20009DF80700FDF7A6FF002C3FF440AF06207D
:10AA300096E71C46F4E74A4B1B78032B01D0082B02
:10AA400002D14948FFF728FF0020FCF723FF3C4BC9
:10AA50001D68002D3FF42BAF28462146FCF716FF5A
:10AA60002B685D68F5E7FEF7A9FE0020FEF7EAFE19
:10AA70008020FEF7E7FE0220FEF7C0FB0120FCF776
:10AA800009FF2046FEF76AFF204603B0BDE83040CC
:10AA9000FCF750BF324B1B78082B07D10220FEF782
:10AAA000ADFB284B00221A700320E8E70520FEF7D3
:10AAB000A5FBF9E70320FCF7EDFE2C48FEF74EFF5F
:10AAC0002A48FCF737FF264B1B78062B7FF47CAF18
:10AAD000072045E70320FEF791FB0220FCF7DAFE92
:10AAE0002046FCF727FF204603B0BDE83040FEF7C4
:10AAF00035BF0F20FCF7CEFEC6E78078FCF7D2FE0C
:10AB0000214643680068984700283FF4D0AEA378F8
:10AB100019073FF4CCAE1A073FF5C9AE0B4A43F410
:10AB20008073C2F81835BFF36F8FBFF34F8FBEE647
:10AB30000820DFE70920DDE70A20DBE743DD070027
:10AB4000E8810020667B00200714E00100700240CD
:10AB500000E100E0F07C00200714C00142DD0700A6
:10AB60003D8200200CD8070041DD070040DD0700D2
:10AB70007FB5C37E0BB1FEF7F9FE424B1B78002B6D
:10AB800058D0414D002302932B68002B26D13F4A19
:10AB900052E8021F1FFAA1F6D488A64202BFBFF3F3
:10ABA0002F8F00200DE0D48926449489A64228BF27
:10ABB000361BC1EA064642E80264002CE8D14FF099
:10ABC00001008DF8070032480391039901609DF858
:10ABD000070010B1136803EB11432B602C68002CA5
:10ABE0002AD0A38883B1E288B2F5006F24BF002287
:10ABF000E280E288ADF80A20511C013BE180A3808D
:10AC000002A8FFF749FE12E02046FFF745FE204B61
:10AC10001A885B889A4208D11C4B53E8021FC1EA8C
:10AC2000214143E80212002AF7D100232B60194B7F
:10AC300000221A7004B070BD174D2B68002BF9D09C
:10AC40000DF106008DF80640FDF7CEFD134B1A8876
:10AC5000B2F5006F28BF1C801A88ADF80A20511C7D
:10AC60001980012355E8002F9A422CBFD11A1146B2
:10AC700045E8001090F0000FF4D19DF80600FDF7B4
:10AC800079FEBDE770830020B4820020C0800020E0
:10AC90003C7B00209882002038820020B07F00207A
:10ACA000084B1A7882420CD0052818BF064A187043
:10ACB00018BF137805481CBF23F002031370FFF779
:10ACC000EBBD7047657B0020147D00203EDD070052
:10ACD0002DE9F04F0B780E2B87B00D4613D8A3B19A
:10ACE000013B0D2B11D8DFE813F012001B001600FA
:10ACF00010002700540210001000100010001B006C
:10AD00003E0242025202852B10D006243BE2032071
:10AD1000FFF7C6FFF9E7A8480021FCF733FD08B9A3
:10AD2000002430E25C20FCF763FEF9E7A34B1B78BC
:10AD3000032BEAD10420EBE70523082200210DF1C3
:10AD40000D008DF80C30FCF7F1FA9D4A9D4ED2F8BB
:10AD500080C45FFA8CF58DF80D50D2F88414C9B216
:10AD60008DF80E10D2F88834D2F88C0443EA002310
:10AD7000ADF80F30D2F8904498B2D2F8943444EA47
:10AD80000324ADF81140A3B2D2F89844D2F89C2421
:10AD900044EA022294B2ADF813200022326005F09A
:10ADA0001F06032E00F24781DFE816F0040024019D
:10ADB0007B01B4001CF0600FCCF3411B40F0AA8073
:10ADC000EB0900F0BB80062918D0082900F0A88004
:10ADD000002940F09F807C4C02222046FCF7A6FA16
:10ADE000237843F001022270784A1278970744BF13
:10ADF00043F003032370022273490CE0030A022B81
:10AE000014D0032B66D0012B40F08480002C00F07E
:10AE1000A6816F4912220DF10D00FEF785F9044657
:10AE2000062C77D0002C00F0A38097E0002C00F0D7
:10AE30009681DFF8BCA1092CDAF8005028BF09245C
:10AE40004FF009087DBBDFF88091624922464846F1
:10AE500001F04AFE604BDAF800209C60C3E900294B
:10AE600089F80460A9F80280BDF81320DA6001A80F
:10AE70008DF80450FDF7B8FC58498020FEF706F91C
:10AE8000044658B9564B1B78802B01BF554BD3E96C
:10AE900000014C4BC3E9000118BF10249DF80400C9
:10AEA000FDF768FDBCE7CDF804B04FF000096B6812
:10AEB0005B6800221F462946012301A8B84730B924
:10AEC0002B7A1E442B68C8441D68F6B2BAE709F114
:10AED0000109ECE7002C00F0428110F0FF0005D1E1
:10AEE000FDF7FEFBB0B10278014694E7012807D0D8
:10AEF000022805D0032811D0042801D0052809D143
:10AF0000394B03EB4000407820B1384B53F82030E8
:10AF1000002BE5D103A8FCF71BFDC0E00320EFE701
:10AF2000264A1278052A03D1274A1370012263E7C3
:10AF3000042AEFD1244B83F800B0F7E7032903D0AC
:10AF4000092905D00129E5D10128E3D10F2405E025
:10AF50001A4B1B78043B012B02D90824542012E021
:10AF600010F0FF0012D1FEF729FC0420FFF798FE35
:10AF7000144B1B68002B00F0F280194B1C78002C3E
:10AF80007FF4CEAE4C20FCF733FDFCE0012801D06D
:10AF90000724E3E7164B1C680CB90520E6E7267A80
:10AFA0000025E9B28E4201D82368F4E7002220464A
:10AFB000FEF7AEFC0135F4E7F4810020657B00204C
:10AFC00000700240187D0020F8810020147D0020D0
:10AFD00064DD070045DD0700FC7C002058DE07002B
:10AFE000D5800020E8DD070008DE0700F0DD07005F
:10AFF000E4810020744ADBB215680DB91024ADE776
:10B00000297A0022A81DD6B2B14201D82A68F3E7F6
:10B01000013202EB4204045D9C42F4D103A92846AC
:10B02000FCF734FC062804467FF4FCAE9DF80D10B6
:10B0300011F0600F01D0062490E7644BC9091A781B
:10B040009DF80E301BD08BB10A2BF4D1052A84D188
:10B050006B681B698BB13146284698475C490122D1
:10B0600008700DF10D00FEF75FF818E0052A7FF477
:10B0700074AF57490B800222F3E71846EEE70B2B1B
:10B08000D9D1052A7FF469AFBDF80F30FF2B3FF609
:10B090007FAF9DF80F2031462846FEF739FC044665
:10B0A000C0E6D8B213F00F031AD19DF80D3013F09B
:10B0B000600FC0D19DF80E20444B9DF811001B7805
:10B0C000012A30D0032A19D0002AB4D1052B02D08E
:10B0D00006077FF442AFFDF7C7F83D490880CAE78D
:10B0E000082B8BD8FCF7DEFB0068002886D003A96C
:10B0F000FCF7CCFB06280446D7D093E605079AD484
:10B10000BDF80F20002A96D1040794D0052B7FF4B8
:10B1100024AF304B40F48070C3F81805BFF36F8F35
:10B12000BFF34F8F24E7010785D4BDF80F20002A15
:10B1300081D102073FF47FAF052B7FF40EAF254B83
:10B14000C3F80C05BFF34F8F40F48072C3F80C2591
:10B15000BFF36F8FBFF34F8FFEF760FB08E7502000
:10B16000FCF746FCDCE50020FFF79AFDD8E54FF040
:10B170008043D3F8384414F0010401D00220F3E7EF
:10B180000120FFF78DFD204607B0BDE8F08F0120BC
:10B19000EAE7C87803283FF4B8AD0F4E336883B1AF
:10B1A0000022716832609847044600287FF4D6AECA
:10B1B000336823B1AB78002B7FF4B2ADE2E65020C8
:10B1C000E1E60E24CAE600BFE4810020657B002092
:10B1D000F881002000700240187D00202DE9F04F1A
:10B1E0005C4B1B7887B0002B5ED1DFF87CB1DFF8B9
:10B1F0007C81DBF80010D8F80040214054D011F0D9
:10B20000012454D094FAA4F4002C56D0B4FA84F457
:10B210000F2C54D9A4F11005EDB22846FCF7F6FB2B
:10B220004FFA85F905F00803B9F1000F82890193FF
:10B23000064647DAD0E9003104A8984700B93060E3
:10B24000444B059A019801211970B368A140D8F8C0
:10B250000040134424EA0101B9F1000FC8F80010BE
:10B26000B36004993C4B05F00F0563DA002859D010
:10B27000C3F8A016C3F8A426042000EB8500FCF751
:10B28000B7FB364A364B344913EA290338BF134615
:10B2900033F8153003F1804303F51C331A681AB9EB
:10B2A000D1F80021002AF9D007B0BDE8F08F91FA5B
:10B2B000A1F111B1B1FA81F4AAE72024AAE744F080
:10B2C0008005AAE7019B24492BB3D1F8C0A41AF446
:10B2D000803F18BF4FF0000A71683768534604A8D2
:10B2E000B847049A002AA9D0059A5245A6D201214E
:10B2F0000227A140B773C9435846FCF743FA062317
:10B300008DF80C30174B8DF80E501B688DF80F70B0
:10B3100003A898476DE705F00F0303F5947351F800
:10B3200023A0D9E7142000FB0533C3F80016C3F8A7
:10B330000426A1E728B1C3F8A017C3F8A427282042
:10B340009BE7142000FB0533C3F80017C3F804275C
:10B35000F5E700BF157D0020007002401CDD0700EE
:10B3600000DD0700B47F00208C7D0020FC7D0020E4
:10B37000174B37B500221A700446FCF747FB837B56
:10B38000032B0DD12046FCF799FF01218140C943D1
:10B390001048FCF7F7F903B0BDE83040FFF71EBFD7
:10B3A0000568002DF7D12046FCF788FF0121814078
:10B3B000C9430848FCF7E6F906238DF80430064B2C
:10B3C0008DF806401B688DF8075001A89847E2E702
:10B3D000157D00208C7D0020B47F00200120FFF728
:10B3E000C7BF0220FFF7C4BF0320FFF7C1BF04207F
:10B3F000FFF7BEBF0520FFF7BBBF0620FFF7B8BFB2
:10B400000720FFF7B5BF000038B5134BD3F86C44E5
:10B41000C3F86C44BFF36F8FBFF34F8F01251CB986
:10B42000BDE83840FFF7DABE94FAA4F171B1B1FA81
:10B4300081F30F2B19460BDDA1F11000C0B205FA04
:10B4400001F324EA0304FDF753F8E8E72021F3E7CA
:10B4500043F08000F3E700BF0070024008B5FBF73F
:10B460006FFF40B14FF080430022C3F80C21C3F8B6
:10B470001021C3F83825FBF763FF002846D04FF0B2
:10B4800080523B4BD2F80414C3F82015D2F80814AC
:10B49000C3F82415D2F80C14C3F82815D2F81014E8
:10B4A000C3F82C15D2F81414C3F83015D2F81814B8
:10B4B000C3F83415D2F81C14C3F84015D2F8201480
:10B4C000C3F84415D2F82414C3F84815D2F8281448
:10B4D000C3F84C15D2F82C14C3F85015D2F8301418
:10B4E000C3F85415D2F83414C3F86015D2F83814E0
:10B4F000C3F86415D2F83C14C3F86815D2F84014A8
:10B50000C3F86C15D2F84424C3F87025FBF718FF74
:10B5100048B14FF08043D3F80024D20744BF6FF006
:10B520000102C3F80024134AD2F8883043F47003B0
:10B53000C2F88830BFF34F8FBFF36F8F4FF0805347
:10B54000D3F830210D2A0ED1D3F83431022B02D892
:10B55000094AD35C3BB14FF01023D3F808224FF0D7
:10B560008043C3F85825054B054A1A6008BD00BF43
:10B5700000C0004000ED00E009D80700DC590020C1
:10B580000090D0032DE98048BA4B8FB008AA03F190
:10B59000100518685968144603C40833AB422246A4
:10B5A000F7D118689B882060A380B34BB34A012170
:10B5B0001970B34B1A60B34B1A7862B91970B24B59
:10B5C000C3F80C254FF48032C3F80425AF4BE021BB
:10B5D00083F810131A60002304A88DF81030FDF7CB
:10B5E00003F9AB4B1A78072A0BD8AA490A70511CE9
:10B5F0001970A5490123D1F8080593400343C1F808
:10B600000835A54E9DF81000A44CFDF7B3F9377826
:10B61000002F60D1002200232568C6E90223C6E975
:10B620000423C6E9062340F6CD420023C6E90823D9
:10B6300021220023C6E90A2305F150032360984B19
:10B64000AF641D60974BEB64394605F12408202256
:10B650002846FBF76BFE394620224046FBF766FE84
:10B660002D62C5F84480FDF765F88F4A0B2393706F
:10B670008E4B17801F608E4B1F708E4B1F70834B3D
:10B680004FF48011C020C3F8801183F814031960AF
:10B6900001F18041A1F56F21C1F8087583F811030C
:10B6A000854BD1F804151960937863B16B6C1A7CE3
:10B6B0001AB901225A74814A5A612B6A1A7C12B94A
:10B6C0005A747F4A5A61686C2A464FF40001FDF7AC
:10B6D00067F9012333707B4E4FF4FE2575602B68AC
:10B6E000012B40F0D5816B68102B40F0D1812846AA
:10B6F000FBF76AFFAB68984240F0CA8195E80F00FB
:10B7000006F1080787E80F00012300213370D1F804
:10B71000F82F013211D16C48C0F80435BFF36F8F98
:10B72000BFF34F8F694BC1F8F83FFCF789FFC0F8B2
:10B730000415BFF36F8FBFF34F8F0021D1F8FC3F8B
:10B74000013313D160480123C0F80435BFF36F8F74
:10B75000BFF34F8F4FF4FC23C1F8FC3FFCF770FFA1
:10B76000C0F80415BFF36F8FBFF34F8F2368584D98
:10B7700003F130022260574A6B60137863B956496F
:10B78000564B5748574F0360C1E901320860CF60FC
:10B79000FCF728F8012313706F684FF480537B6027
:10B7A000514B3A601B0BBB6080233B824FF000087B
:10B7B000852304A907F10C00CDF81080ADF81430F2
:10B7C000FBF7D2FD012800F0E6817B687B61BB6856
:10B7D0001B03C7E90638454BBB62C7E9088507F17B
:10B7E0002C00FBF7E9FD012800F0D5812768DFF880
:10B7F00008B107F1180307F114002360FBF7DCFD23
:10B80000012809D0C7E900880C22414607F1080049
:10B81000FBF78CFDCBF80470354F364B97F81A9038
:10B82000CBF81050CBF81430B9F1000F78D14FF0AD
:10B8300001084FF0800A04A907F108008DF8108074
:10B84000CDF81490ADF818A0FCF7AEFF404500F01D
:10B85000A281022304A907F10C008DF81030CDF865
:10B860001490ADF818A0FCF79FFF404500F09381BD
:10B8700044E000BFF3D7070098820020537307000D
:10B88000948200203C8200200000014000E100E0A2
:10B89000647B0020387B0020B8820020E059002023
:10B8A000D47A0020558D0700D88000209C8200208B
:10B8B00048820020498200204C8200202D7707001A
:10B8C00051770700FC7A002000E00140007007007B
:10B8D000E47A0020547B0020447B002014DE070023
:10B8E000F85900207F7507000060070031740700D9
:10B8F000147B0020019C07007483002023683B61B7
:10B900001A1D2260C3F80090BFF35F8F23687B612C
:10B910001A1D2260C3F80090BFF35F8F87F81A806A
:10B92000DFF8A08398F8000000233B83FB76BB83FD
:10B93000002840F01581DFF8909388F8010088F81E
:10B94000020088F80300FCF7EFFF99F8023003F0DB
:10B95000FF02002B00F0A4808DF8100004A8FCF773
:10B9600043FFD9F80C300133C9F80C309DF81000B2
:10B97000FDF700F84FF08042D2F81834D803FBD519
:10B980004FF080520D21D2F8A830D2F8A4200092B6
:10B990006FEA83436FEA9343AF4A9BB204A801F076
:10B9A000B1F84FF0000904A801F0E0F88145C0F0BB
:10B9B0008D80AA4BAA4A1A600022C3E90122A94A33
:10B9C000DA60A94A1178002940F0AA80A748A84B5C
:10B9D00003600123137089468A4619F0080F69F045
:10B9E0007F000CBF40234FF40073C0B20393FCF7F9
:10B9F0000DF809F10109039B8381B9F1090F80F862
:10BA00000EA0C0F800A0C0F808A0E6D14FF0400A90
:10BA10004FF000090846FBF7F9FF0131C9B20929C7
:10BA2000A0F80CA080F80E90C0F80090C0F8089024
:10BA30004FD1904B904883F80090904BC3F8009002
:10BA40008F4B48220021C3F80090FBF76FFC48227F
:10BA500000218C48FBF76AFC8B4B8C498C4AC3F85D
:10BA600000905A6083F808900B785BB98948037896
:10BA700043B94FF08042C2F87835FCF7B9FB012397
:10BA800003700B70844B4FF0000903F1090A2FE09B
:10BA900010230125C6E902530023C6E9043333E627
:10BAA00004A88DF81020FCF79FFED9F80C30002B6D
:10BAB0007FF457AF4FF48270FCF790FB4FF0804358
:10BAC0000222C3F8042301229A604AE709F101091E
:10BAD00069E711F0080F14BF4FF4007A4FF0400AE5
:10BAE00098E71878FBF7DEFE6B4B03606B4B436007
:10BAF0005FFA89F15046FBF7C1FE09F101090346DF
:10BB00000028EED103900B2263488DF8102004A981
:10BB1000FBF7BCFE039B18B1544A1360524A1370E2
:10BB2000514B93F80090B9F1010F31D1FDF736FC7C
:10BB30005B4B5C4A1A604FF080434FF46072C3F86D
:10BB40000423D3F83834D90708D5002388F8023005
:10BB5000FDF7D4FC88F80190FDF702FA88F8009010
:10BB6000DFF85C81C7E900884FF0000A08F1090995
:10BB70005FFA8AF14846FBF781FE002833D000784F
:10BB8000FBF790FE03680AF1010A002BF0D002E0F7
:10BB9000012388F80030444C444B454A1B78454902
:10BBA00003F5C07342F82310A26853685B6A0BB1B7
:10BBB00010689847404BDB7E4BB194F80080B8F199
:10BBC000010F00F0A581B8F1020F00F074822F6917
:10BBD0003B78013B032B00F29A82DFE813F08C02E2
:10BBE000A102B102BC02DFF8E49082465FFA8AF15A
:10BBF0004846FBF743FE40B10078FBF753FE03686D
:10BC00000AF1010A002BF1D0C5E7DFF8C4A0814694
:10BC10005FFA89F15046FBF731FE09F1010938B1AD
:10BC20000078FBF73FFE254BC0F800804360EFE74C
:10BC3000DFF898A081465FFA89F15046FBF71EFEB7
:10BC400009F10109002845D00078FBF72BFE1B4BBA
:10BC5000C0F800804360EEE7E8D70700C08000200E
:10BC6000B87F002008010800167D0020B47F002066
:10BC7000298F07003D820020207F0020E4810020E2
:10BC8000E8810020687F0020F07C0020D480002024
:10BC9000BDA70700AC820020B8DC0700D1AC0700CC
:10BCA000908200202D8F070074830020387B0020B5
:10BCB000000001403546526E147B002095A007001D
:10BCC00034DE070070830020D47C002040DE0700B3
:10BCD0003DDE0700BD4B1A68002A40F0EB80C3F838
:10BCE0000080BB480B2304A98DF81030FBF7CEFD74
:10BCF000814600287FF44FAF3B6A3BB923683B6223
:10BD000003F108022260B34A1F605A603B6ACBF815
:10BD100008304FF0010A41F20103AF488BF800A050
:10BD2000002704A90497ADF81430FBF71DFB50451C
:10BD30003FF431AFD4F80080C5F8108008F1240337
:10BD4000236008F11C03C8F808303223C8E90577DE
:10BD5000C8E90333A14F88F801A097F82231002BDE
:10BD60003FD140F2FF31FF205A09012A0CBF0A4699
:10BD70004FF0FF3203F01F0C22FA0CF2D20748BF3B
:10BD8000FA1803F1010348BF82F8C8002A2BEBD14F
:10BD9000924B4FF0FF32B9F1070F88BF07EB090153
:10BDA00009F1010943F8042B88BF81F8EA20B9F1B1
:10BDB000320FF0D1062200218948FBF7B7FA894BF0
:10BDC000E02283F8062340221A604FF4BE70FCF78D
:10BDD0001BFA854B4FF00042C3F80423012387F878
:10BDE0002231824B22689A644FF489731380804B0E
:10BDF000536097F9DA3002F1100A002BC4F800A062
:10BE000022DA082357F82310013155D1794947F830
:10BE100023104FFA83F93B44122087F8DA9083F815
:10BE2000EA000321FBF71CFCA9F1080997F81E3171
:10BE300047FA89F943F0040387F81E3199F8F23084
:10BE400063F03F0389F8F230C8F8042092F80190BB
:10BE5000B9F1010F21D153681B78F3B192F800B00A
:10BE600007EB0B0393F9C81007292EDD083947FAB1
:10BE700081F797F8F2309B09032B21D104A8CDF864
:10BE800010B0FBF7CBFB049BD0F81015D94001F0A4
:10BE9000010102315846FCF7C3F918322260564AB4
:10BEA0000121002388F800101370C5F80CA02B7531
:10BEB000297070E613680EE70133322BA2D1C3E775
:10BEC000012B0CBF02210321E4E7C8B20728E4D804
:10BED000880000F1804000F5C0400393D0F810C501
:10BEE0004CF0010CC0F810C501F1400040B28000D8
:10BEF00080B2FCF789F9039B93F9C83057F82330D7
:10BF0000002BCAD0384B09FA01F1C3F80413C4E777
:10BF1000A3685A68186852689047864667688146E1
:10BF2000BEE80F00D7F814A0D4469AF800B0ACE8E9
:10BF30000F00DEF80030CCF800308AF800B04FF087
:10BF4000000AC7E900AA0C22514607F10800FBF7D6
:10BF5000EDF97869C389002B3FF439AE4389426813
:10BF600012F803B04146FBF75FFABBF1450F20D052
:10BF7000BBF1550F1ED0BBF1570F20D0BBF1430FC3
:10BF800020D0BBF1530F3BD0C7F800A03A685AB19C
:10BF90007B6801337B60536833B13846984701466C
:10BFA00088B301287FF413AE01214846FBF728FA35
:10BFB0003AE0D046114B03EBC8033B60E6E74FF095
:10BFC0000208F7E74FF00308F4E700BFE481002020
:10BFD00034DE0700C8DC0700EC7A0020687B002014
:10BFE000847C002000E100E0006000402C5A00202A
:10BFF000A2DC070055730700988200206CD8070068
:10C000004FF00408D6E763681A683AB11278532AE9
:10C0100049D00DD8432A3DD0452A14D063684846FC
:10C02000B3F90410FBF700FA884A00231370CEE539
:10C03000552A1FD0572AF1D19A680492DB680593DC
:10C0400004A9052005E0187A01280BD002280CD09D
:10C0500004A9FCF795FB40BBA068FBF748FAFDF785
:10C0600029FFDBE7DB680493F2E7DA6804921B69D7
:10C070000593EDE79B68E36004A903200493FCF7B4
:10C080007FFB90B9A068FBF732FAFDF713FF02239C
:10C090002370C3E79A680492DA6805921B690693D5
:10C0A00004A90620D5E70720D3E7A068FBF71FFA0D
:10C0B000FDF710FFB2E7A3685A6818685268904706
:10C0C000C789002F3FF483ADA38904909F4228BF06
:10C0D0001F4604A90420ADF81470FCF751FB012899
:10C0E00002D1012323709FE7E368DB1BE360002B91
:10C0F0007FF46DADF5E73846FBF79CFA38B10221C5
:10C100003846FBF70FFAF968B868FCF727FD2B787B
:10C11000013B052B33D8DFE803F0293B325C686331
:10C120003846FBF787FA08B9012105E0B868FCF743
:10C1300043FD0028EBD003213846FBF7F3F9E6E78F
:10C140003846FBF777FA0028E1D104213846FBF79F
:10C15000E9F93969D8E73846FBF76CFA0028EAD1E3
:10C16000B868FCF729FD0028D1D0DDE7E868642134
:10C17000FCF7F4FC0223354A2B70002313701022C5
:10C1800000210DEB0200FBF7D1F8FBF73DFB03E5C7
:10C190002B691B78013B012B01D87369CBB10023BC
:10C1A0002B4970687361102200F08EFC78B17068C2
:10C1B000FCF74EFA2648FBF707FA042230612449BF
:10C1C0007068FCF75DFA7068102200F07DFC0323B4
:10C1D000D1E7E868FCF7F0FC0028D0D00523CAE7D7
:10C1E000FEF76CFAFBF710FBFCE7FEF767FA012895
:10C1F000F8D0184B4FF0FF32C3F88020C3F88021ED
:10C20000C3F88420C3F884210023CDE906334FF41A
:10C210008054062304A8CDE90434FBF7D2F907289B
:10C2200004BF4FF000531C60EFF305830023D4E9F3
:10C23000001283F3148883F3108883F3118883F347
:10C24000138881F308889047CCE700BF98820020CC
:10C25000047B002000E100E0F8B51F491F4B0025DA
:10C26000C1F84051C1F84451C1F84851C1F84C518E
:10C27000C1F80051C1F804511B684BB3D1F8044513
:10C2800017490968641A24F07F442F461A68A242AD
:10C2900009D8A41A15441A7CDE691AB1D3E905201D
:10C2A0001F749047AEB90F4A0F4B11781B788B4221
:10C2B00005D10133DBB2022B08BF002313701278C3
:10C2C0000A4B43F822500A4B4FF48012C3F8002166
:10C2D000F8BD3346DAE700BF001001409C82002021
:10C2E0004C820020498200204882002040820020A9
:10C2F00000E100E02DE9F04FA24AA3491378097844
:10C30000A24D994285B03CD00133DBB2022B08BF6D
:10C31000002313709E4912789E4B0F6853F8220039
:10C320003B1823F07F4300220B602B68164614460F
:10C33000944613B942B12B6006E0196881420ED9C8
:10C3400002B12B60091A196001272B68DFF84CA293
:10C3500001934FF00008BEB9DFF848B262E0401A1E
:10C360000C44D968D3F81CE0C3F800C031B13A19C5
:10C3700022F07F42C3E90121DE611E46734601229D
:10C38000D7E700263746E0E73446F669804B606819
:10C390001B68DFF814C2A168C21A22F07F4262450E
:10C3A00000F2A8800A442260012222742A68002335
:10C3B000C4E90133E361002A40F0A5802C60CAE79C
:10C3C0009BF802105A1CD2B291428BF8002004BF95
:10C3D00000228BF80020182202FB03B32A68197987
:10C3E0009C68022977D0032900F08180012919D1A6
:10C3F000207CB8B9D96861601A69A2605A69E260A4
:10C400009B69A361644B1B78002B18BF01466160D8
:10C41000BCE78C4200F094808946C9690029F8D1B4
:10C42000002323749BF800309BF801209A42C7D167
:10C430002B68B8F1000F04D1019A9A4201D1002F64
:10C4400043D0002B79D0D3F800A0544D504BD5F8F1
:10C4500004751C68DFF854813E1B98F8003026F004
:10C460007F4603369BB94FF48033C5F84433C5F893
:10C4700004334B4B4FF40032C3F880211A604FF065
:10C480000109C5F80090FCF74DF988F80090B24515
:10C490002CBF5444A41924F07F44C5F84045D5F876
:10C4A0000435DB1B23F07F43E41B033324F07F447C
:10C4B000A3420AD9D5F80435C5F84035FCF732F95E
:10C4C000374B4FF40032C3F80021334B00221A706F
:10C4D00005B0BDE8F08F114691469FE71174D2690F
:10C4E0000123002AFAD1002B9CD02A609AE700236E
:10C4F0001946F6E71B1A23F07F438B4234BFCB1A51
:10C500000023236050E721681368994213D85B1A0F
:10C510001360E26152E7091AD8691A4638B1034636
:10C5200018688842F7D3401A1860184613462160ED
:10C53000E061DC610FE71346F2E7FCF7FBF8C4E7C4
:10C540004C4511D1D3692B6073B9DFF844E0012069
:10C55000CDE90212CAF80800CEF800300E4B187070
:10C56000FCF7E0F8DDE902120B68C969C9F81C1094
:10C5700011B1086803440B602B68934218BF4FF059
:10C5800001084DE748820020498200209C8200205B
:10C590004C82002040820020F081002000100140E9
:10C5A00000E100E0D8800020FEFF7F00F181002044
:10C5B00070B5144B144A0C21D21AB2FBF1F2816906
:10C5C00011F8025C044635B900690021914205D199
:10C5D000012323600EE04FF0FF30F6E71E68AE4205
:10C5E0000CD1461C07D19D68D4E90001D4E902238F
:10C5F000A847206070BD5E688642F4D001310C33DC
:10C60000E4E700BF98DE070098DE07001EF0040F85
:10C610000CBFEFF30880EFF30980FFF7C9BF00BF3D
:10C6200038B5094B094DAB4208BF00231C4607E053
:10C63000D4E9003008349847AC424FF00003F5D0FD
:10C64000002CF5D138BD00BFA8DE0700A8DE07002A
:10C650002DE9FF470024CDE90244584D4FF4807284
:10C66000012102F1804303F5C04390B21B68012B06
:10C6700006D1D5F804330B4202D0FBF7C5FD0C43BD
:10C680000432B2F5907F4FEA4101EAD14B4BD3F827
:10C690007C31012B11D14FF4BE70FBF7B5FD4FF08B
:10C6A000A04344F00044D3F820250292C3F820258B
:10C6B000D3F820280392C3F82028E3B2D3B1404F27
:10C6C00001260025344210D0AB0003F1804303F56E
:10C6D000C043D3F81005D3F8101557F8253023B10F
:10C6E000C1F30141C0F3052098470135082D4FEAF9
:10C6F0004606E7D1002C59DA314D324C324E4FF01C
:10C700000008012716F9013B5A1C3CD0C3F3C201B3
:10C71000103169445FFA83F911F8081C03F03F02F5
:10C7200003F0070307FA03F319422CD001A8019282
:10C73000FAF774FF019B03F5E07350F82330C3F35D
:10C74000014ABAF1020F0CBF032102211046FBF788
:10C7500067FD01A80192FAF761FF019B07FA03F355
:10C76000C0F82035AB1893F9C83055F8233053B1D1
:10C770004FEA9911032904D0BAF1020F19D1012906
:10C7800001D11046984708F10108B8F12A0FB9D134
:10C790004FF0A043D3F820250292C3F82025D4F807
:10C7A00020350393C4F820351343A7D104B0BDE866
:10C7B000F087BAF1030FE6D10229E1E700600040FB
:10C7C000687B0020000300505A7C002010B54FF019
:10C7D0008043D3F80443620706D54FF48470FBF717
:10C7E00036FD08B100239847A30606D54FF48A709A
:10C7F000FBF72DFD08B100208047600607D54FF4F8
:10C800008C70FBF724FD10B101200023984721060E
:10C8100008D54FF48E70FBF71AFD18B11E4B00209F
:10C820001B689847E20508D54FF49070FBF70FFDA1
:10C8300018B1194B01201B689847A30508D54FF480
:10C840009270FBF704FD18B1134B02201B68984748
:10C850004FF08042D2F8003153B14FF48070FBF7B3
:10C86000BDFC0123C2F808330C4B00201B6898471D
:10C870004FF08042D2F8043163B14FF48270FBF77D
:10C88000ADFC0223C2F80833044BBDE810401B681E
:10C890000120184710BD00BF90820020E87C0020D6
:10C8A00070B5484BD3F824518AB0002D67D00022D0
:10C8B000C3F82421D3F824110191019902218DF8A4
:10C8C0001810D3F88014C3F880140991D3F83C35BC
:10C8D00008933D4B196B0791C3E90F2206A8D3E9D2
:10C8E00009129047374AD2F8443183B10021C2F887
:10C8F0004411D2F844310393039B334BD86B30B1CE
:10C90000C3E90F11196BD2F83C05FBF7D9FE2D4A8C
:10C91000D2F82031BBB10021C2F82011D2F8203169
:10C920000493049B0123D360274B986B58B1D2F832
:10C930004C250892DA6A8DF818100792996306A8B8
:10C94000D3E9091290471F4AD2F85831ABB1002100
:10C95000C2F85811D2F858310593059B1A4B986BC1
:10C9600058B1D2F84C250892DA6A8DF8181007925F
:10C97000996306A8D3E9091290470AB070BDD3F8AD
:10C980001021002AAED0C3F81051D3F81021029222
:10C99000029A0D4AD3F83C05D16B8842A2D1146C9F
:10C9A000116B64B1D3F8006226F02006C3F8006270
:10C9B000536BD46313631564FBF782FE92E7D46371
:10C9C000FAE700BF008002408C7C00202DE9F04196
:10C9D0001B4BD3F80413002301241D4671B9194FD2
:10C9E00003F4000623F400044FF00108D4B9FEF765
:10C9F000F5FB1EB3BDE8F041FCF772BE91FAA1F25F
:10CA00001148B2FA82F29600304404FA02F2066843
:10CA10002EB10560BFF36F8FBFF34F8F134321EA31
:10CA20000201DBE794FAA4F5B5FA85F557F825304D
:10CA300008FA05F5984724EA0504D7E7BDE8F08130
:10CA40000070024084DD07000071024013B5084CFD
:10CA5000D4F800314BB1074B1B6898470023C4F84A
:10CA60000031D4F800310193019B02B010BD00BF2A
:10CA7000000001409482002000231847002318473B
:10CA80000023184700231847002318470649074A80
:10CA9000074B9B1A03DD043BC858D050FBDCFEF764
:10CAA000DDFCFAF7D1FB0000C0DE0700785900205A
:10CAB000105A0020FEE7FEE7FEE7FEE7FEE7FEE78E
:10CAC000FEE7FEE7FEE7FEE710B5013902449042BB
:10CAD00001D1002005E0037811F8014FA34201D0F5
