:020000023000CC
:109000000080002031B9030059B903005BB90300A7
:109010005DB903005FB9030061B9030000000000FF
:1090200000000000000000000000000063B9030021
:1090300065B903000000000067B9030069B90300C7
:109040006BB903006BB9030025B903000DB9030028
:1090500019B903000000000081B703000000000000
:109060006BB903006BB903006BB903006BB9030064
:109070006BB903006BB903006BB903006BB9030054
:10908000E1B80300F9B303006BB903006BB9030047
:1090900095B403006BB9030051B703006BB903002B
:1090A0006BB903006BB903006BB90300000000004B
:1090B00000000000000000000000000000000000B0
:1090C00000000000000000000000000000000000A0
:1090D0000000000000000000000000006BB9030069
:1090E0000000000000000000000000000000000080
:1090F0000000000000000000000000000000000070
:10910000000000000000000000000000000000005F
:10911000000000000000000000000000000000004F
:10912000000000000000000000000000000000003F
:10913000000000000000000000000000000000002F
:10914000000000000000000000000000000000001F
:10915000000000000000000000000000000000000F
:1091600000000000000000000000000000000000FF
:1091700000000000000000000000000000000000EF
:1091800000000000000000000000000000000000DF
:1091900000000000000000000000000000000000CF
:1091A00000000000000000000000000000000000BF
:1091B00000000000000000000000000000000000AF
:1091C000000000000000000000000000000000009F
:1091D000000000000000000000000000000000008F
:1091E000000000000000000000000000000000007F
:1091F000000000000000000000000000000000006F
:1092000010B5054C237833B9044B13B10448AFF3C0
:1092100000800123237010BD902600200000000074
:1092200034BE030008B5034B1BB103490348AFF339
:10923000008008BD000000009426002034BE03001A
:10924000A3F5803A704700BF174B002B08BF134BA4
:109250009D46FFF7F5FF00218B460F461348144A41
:10926000121A00F063F80E4B002B00D098470D4BFC
:10927000002B00D098470020002104000D000D486D
:10928000002802D00C48AFF3008000F02BF820003B
:10929000290001F079FC00F011F800BF000008007F
:1092A0000000000000000000008000209026002048
:1092B000A84A0020000000000000000008B5074B8D
:1092C000044613B10021AFF30080054B1868836A90
:1092D00003B19847204600F031F800BF00000000BD
:1092E000A0B9030070B50D4D0D4C641BA4100026F1
:1092F000A64209D10B4D0C4C02F046FB641BA41096
:109300000026A64205D170BD55F8043B98470136AA
:10931000EEE755F8043B98470136F2E77026002047
:109320007026002070260020742600200244034688
:10933000934200D1704703F8011BF9E7FEE700BF35
:109340004FF08053D3F83001A0F110035842584138
:1093500070470000024AD2F80034002BFBD070475F
:1093600000E00140013901299CBF002380F833301F
:10937000704770470028ACBF00F16040064B4FEAD1
:109380004111ACBF00F5614000F00F00C9B2B4BF9D
:10939000195480F80013704714ED00E0012399423E
:1093A000437302D0022902D07047817370470023B3
:1093B000C373704700234381C360438A03827047AD
:1093C00003890BB1013B9BB2428A9A421FBFC289FB
:1093D00043829B1A0382704738B50F4D2A6802609A
:1093E0000B68898802F114042C604BB941B18807DD
:1093F0000B461CBF0B1D23F0030323442B602346A5
:10940000104653601181FFF7D5FFFFF7D9FF002306
:109410000370184638BD00BF6C260020838910B544
:10942000048900298AB2D8BF1B1913449BB29C42FD
:1094300098BF1B1B8381C3891344C381038A9A1A73
:10944000028210BD09B1FFF7E9BF704710B5084AA5
:1094500008484FF48031C2F808138368D2F80445F5
:1094600003F07F4323438360C2F8041310BD00BFA1
:1094700000100140784A0020836A0BB1406A184707
:10948000704713B50022022944684270426013D02D
:10949000032911D001290DD1D4E907300344ADF8D7
:1094A00004002262E068E361FFF784FF01AA20461E
:1094B000FFF7E2FF02B010BD204602B0BDE8104049
:1094C000FFF7DABF18DF70474FF44053064A596878
:1094D000914201BF986800F1FF3020F47F6020F0D6
:1094E0000F0018BF00207047DBE5B15138B5FFF71A
:1094F00061FF838942680C46D5180221D1546C70F3
:10950000BDE83840FFF78ABF836890F825101A78C5
:10951000012393404FF0A04211B1C2F808357047C3
:10952000C2F80C3570470170062918D8DFE801F041
:1095300004040D040F040F0083681A78012393407C
:109540004FF0A042C2F80C357047FFF7DDBF8368CB
:109550001A78012393404FF0A042C2F808357047B3
:109560000278032A034607D0052A10D0012A0DD11C
:1095700002220270FFF7C8BF04221A709B681A7893
:10958000012393404FF0A042C2F8083570470622ED
:10959000F3E7426843691AB1DA6803219868104713
:1095A0000178012902D0022900D07047DA68F5E776
:1095B00010B5012350E8002F194640E8001494F03C
:1095C000000FF7D1BFF35F8FB2FA82F0400910BDF0
:1095D00007B502780B4622B1012A0AD003B05DF824
:1095E00004FB4A69002AF9D0086903B05DF804EB6E
:1095F0001047426801928268009200224A738A6989
:10960000002AEBD0186969469047E7E7064BD3F884
:109610000425064B19681A60914200D87047C36C44
:10962000806C0221184700BF00100140A0470020B5
:1096300070B50A4BD3F80425094B196891420446CA
:1096400006D81A60E36CA06C0121BDE87040184791
:10965000C56C806C1A600221A847F3E70010014036
:10966000A047002070B5A8B90E4D0F4C0026641B12
:109670001423B4FBF3F4A64201D1002009E02B68C7
:1096800013B901361435F6E7DB69284698470028F8
:10969000F7D070BD0368002BE6D0BDE87040DB69F1
:1096A000184700BF782600208C260020F8B50668F1
:1096B0001546727803460C46002A36D1C1F30B02D8
:1096C000002A34D14068884231D89A6805EB1131BC
:1096D00002EB103291424FF0010023D8154F707009
:1096E00038687360FFF7BEFFE8B93868B0B1026848
:1096F000A2B19DB143681B68591E21420ED1C168B9
:109700008C420BD3016903FB0543013B8B4205D817
:109710001769084B2A462146B84718B10120002393
:1097200073707360F8BD0220F9E70220FAE70120A8
:10973000F8E700BF88470020014B436000207047D6
:1097400008BE03000846704700207047024B1868A7
:10975000003818BF01207047C848002070B50F4D71
:109760002B782BB10E4C23782BB920BF40BF20BFE4
:1097700001232B7070BDFFF769FED4E9040150EAA4
:109780000103F2D0D4E90232D4E90A649B1942EB16
:109790000402834272EB0103E7D3E9E7084A0020A1
:1097A000784A0020094B5A7899780132D2B2914216
:1097B00008BF0022197891421FBF02705878182202
:1097C00002FB003014BF043000207047CC4800205A
:1097D000002808DB0123420900F01F0003FA00F013
:1097E000014B43F82200704700E100E000234350A2
:1097F00082B043580193019B02B070471FB54A7D68
:10980000022AD3B207D0032B0FD0012B00D1436221
:1098100005B05DF804FB00238DF804300293039338
:1098200001A88B6889699847F2E701238DF8043015
:10983000D0F83C350293D0F84C35F0E738B5D0F885
:10984000283105460C46CBB14FF49471FFF7CEFF9B
:10985000637D012BDAB211D12368E168C0F84415A9
:10986000C0F8483563682169C0F83415C0F8383548
:109870000223826221466375FFF7C0FFD5F80431E9
:1098800073B14FF482712846FFF7B0FF637D022B5E
:1098900006D1032363752146BDE83840FFF7AEBF0C
:1098A00038BD000001490248FFF7C8BF90480020BA
:1098B00000300040024B4FF43C6043F00103184776
:1098C00000BE030038B50E4B4FF40032C3F88020C1
:1098D000BFF34F8FBFF36F8F0A4C4FF480330125D6
:1098E000C4F84833C4F808336560FFF7E3FF064B5C
:1098F000A56000241C60FFF7DDFF044B1C7038BD21
:1099000000E100E000100140004A0020F149002081
:1099100010B4054CA36D0A461BB10146606D10BC26
:10992000184710BC704700BF1C4A002010B5084CF7
:1099300001444FF0FF32884201D1D04310BD10F8EE
:10994000013B5340DBB254F8233083EA1222F2E7A2
:10995000C4B90300F0B50268012A89B003461AD1E0
:1099600042681C2A17D101AC024600F118072646AE
:1099700010685168254603C50832BA422C46F7D113
:109980001068286000241C2130469D680394FFF76E
:10999000CDFF854202D0012009B0F0BD2046FBE793
:1099A00010B50446FFF7D6FF38B92169E068FFF724
:1099B000BDFF6369181A18BF012010BD43894068B4
:1099C0001844704773B5234A136803600D4603F1CA
:1099D00030011160204A1378044663B91F49204BB7
:1099E0002048214E0360C1E901320860CE60FFF7D4
:1099F000A3FE01231370246822602B6863606B68E8
:109A0000A3602B89238200260533694604F10C00EC
:109A10000096ADF80430FFF7DFFC012817D063682B
:109A20006361A36826621B03C4E90636EB686362C0
:109A30002B69A362694604F12C000096ADF804601E
:109A4000FFF7CAFC01281EBFE36A01221A7002B0A8
:109A500070BD00BF6C26002098470020884700207A
:109A600014BE0300782600208394030070B5EFF342
:109A7000108672B60C4A946801239CB993600B4B14
:109A80000B4DD3F8801029401160C3F88050D3F8F3
:109A9000841051604FF0FF32C3F88420047006B97F
:109AA00062B670BD0370FAE7104A002000E100E0E2
:109AB000FC06FFBD10B5064B002253E8001F01EA6B
:109AC000020043E8000494F0000FF6D110BD00BF7F
:109AD000C848002008B5FFF7EDFF002008BD0000D2
:109AE0002DE9F04314461E46224A87B080460F46B1
:109AF000012352E8005F45EA030142E8001090F0BC
:109B0000000FF6D19DBB1C4AC2F80435BFF36F8F1E
:109B1000BFF34F8F26F0030020442146A7EB040932
:109B200088421CD1144B4FF00009C3F80495BFF3D1
:109B30006F8FBFF34F8FFFF7BDFFD8F8083053B1D9
:109B400001228DF800200E9A0592CDE90197CDE90A
:109B5000034668469847284607B0BDE8F08309EBFE
:109B6000010351F8042B1A60FFF7F4FBD8E7112525
:109B7000F1E700BFC848002000E001402DE9F047B0
:109B800015461F4686B01F4B80460E46012253E8FD
:109B9000004F44EA020143E8001090F0000FF6D1B4
:109BA00074BB194821464FF00209A2468D4213D1D9
:109BB000FFF780FFD8F8083053B102228DF800205B
:109BC0000022CDE90126CDE903250597684698478F
:109BD000204606B0BDE8F08706EB0133C0F80495D7
:109BE000BFF36F8FBFF34F8FC0F80835FFF7B2FB9D
:109BF000C0F804A5BFF36F8FBFF34F8F0131D5E7D6
:109C00001124E5E7C848002000E0014010B5084BEA
:109C10009A685AB150B9EFF3108172B6054A1C68C0
:109C200014605C685460986001B962B610BD00BFF2
:109C3000104A002000E100E02DE9F743DFF88080C2
:109C400098F8023005460E461746BBB3B0B31D4B1D
:109C50004A1F9A4230D8436983B3437C0024012BC6
:109C60000DF107000CBF8946A1468DF80740FFF7AC
:109C7000FDFE0DF10600FFF795FDD8B1012303703D
:109C8000114B4560D3F80435C0E90497C0E90236AA
:109C90009DF8063088F801309DF80700FFF7B6FF01
:109CA00024B90A4B4FF48012C3F80021204603B0B8
:109CB000BDE8F0830424EFE70724F7E70824F5E77D
:109CC000CC480020FAFFFF000010014000E100E056
:109CD0002DE9F743FFF7BAFB2B48D0E9045155EAC9
:109CE00001034DD0D0E90226D0E90A43141946EB0E
:109CF0000303AC4273EB01003CBF2C460B46A21A97
:109D000063EB0603B2F1807F73F1000338D21F4B7F
:109D1000DFF87C90D3F8048599F8023083B31D4BAB
:109D20001F683E6A66B3736953B300250DF10700DF
:109D300035748DF80750FFF799FE0DF10600FFF717
:109D400031FDD8B1022303709DF80630466089F8D2
:109D500001309DF80700FFF759FF8DB90E4B4FF406
:109D60008012C3F80021A4EB0801386A3A4621F0BA
:109D70007F4103B0BDE8F043FFF75EBF0425E8E78D
:109D800003B0BDE8F08300BF784A00200010014016
:109D9000CC4800203447002000E100E010B4134B11
:109DA000D0E90012D3E902408C4290411BD2D3E9A2
:109DB000044054EA000C03D0A14272EB000C06D21E
:109DC000C3E90640C3E9041210BCFFF781BF824219
:109DD00008BFA14207D0D3E90640A14272EB0000C0
:109DE00038BFC3E9061210BC704700BF784A002094
:109DF000F8B50F4C0F4F4FF48035C4F808530646A2
:109E0000D7E90201121841EB0301C4F80453C4F866
:109E10000853C6E90021C4F80453FFF717FBC4F840
:109E200008533046FFF7BAFFC4F80453F8BD00BF2B
:109E300000100140784A00202DE9F8434FF48032A9
:109E4000044600230069DFF85880DFF85890164D6B
:109E5000FFF7CEFF94F83300C8B198F80030134AEA
:109E600003F5C0734FF4803642F823902769C5F894
:109E70000863FFF7EBFA0E49D7E90023D1E90201A5
:109E8000904271EB030304D3C5F804630120BDE8DD
:109E9000F8833846FFF782FFC5F80463DAE700BFAE
:109EA000844700203546526E0010014000000140FA
:109EB000784A002010B590F832300446C3B990F8C3
:109EC00033300122B3B980F833200B498068FFF7A3
:109ED000EDFB10B92046FFF7AFFF012815BF0123A6
:109EE000002384F8323084F8333008BF012010BDDD
:109EF0000020FCE71046FAE700D00300012970B506
:109F000002D0022923D070BDFFF7A0FA164BD3E987
:109F1000062152EA0104D3E90405C3E904210DD066
:109F2000D3E90846101A61EB0505A04275EB06005F
:109F300008D2121941EB0601C3E90621BDE87040C1
:109F4000FFF7C6BE00200021C3E90601F6E7064A76
:109F5000D2E9023103F07F4313F1807341F1000134
:109F6000C2E90231CFE700BF784A0020134B984284
:109F700073B50D4609D0B0F1402F1BD0A3F5805327
:109F8000984219D0002002B070BD0D4C00230DF195
:109F900007008DF80730FFF769FD267916B9012310
:109FA000256023719DF80700FFF730FE002EE9D0F1
:109FB0001120E8E7034CE9E7034CE7E700300040F5
:109FC000D8490020E0490020E84900202DE9F84F59
:109FD0000546C068C38943BB82894389466893426A
:109FE00016441DD9013B9C1AA4B26869B0F80E80D2
:109FF000B8F1000F1CD0FFF7E1FC0746284695F8A2
:10A0000000A0FFF790FA6B681978012912D0022995
:10A0100000F08E8051462846BDE8F84FFFF783BA1E
:10A02000048903B9013CA41ADEE700242646DCE7D4
:10A030004746E3E75A7B002AECD1604AD3F804C0D4
:10A040005A6159731D619CF804905D4A242000FBFD
:10A0500009F002EB000E9EF81DB0BBF1000F2CD1F1
:10A06000105808B18EF81D10242101FB0921C1E907
:10A07000037891F81FE0BEF1FF0FC1E905640BD032
:10A08000012000FA0EF091F81EE04FF0A041BEF161
:10A09000000F15D0C1F8080527B107F06041B1F1F4
:10A0A000005F05D17EB106F06041B1F1005F0AD0DA
:10A0B000242101FB09220021517700225A73A9E7CC
:10A0C000C1F80C05E8E7DCF800004FF48C71C0F82B
:10A0D0004475C0F84885C0F83465C0F83845FFF7C6
:10A0E00085FB0023C0F85035C0F8403501230361DB
:10A0F000242303FB09F3D358B3B9D0F81831002B4C
:10A10000FBD0242303FB0922D17FFF2907D00123A1
:10A110008B40917F4FF0A04219B1C2F80C35BDE8D9
:10A12000F88FC2F80835FAE74023C0F80433F6E7A1
:10A130005A7B002A7FF46EAF01225A731F4A5A617C
:10A14000D3F804C01F4A1D619A619CF80420012ABB
:10A15000B3D8B4F5004FB0D2B8F5004FADD227B1A7
:10A1600007F06041B1F1005FA7D126B106F0604170
:10A17000B1F1005FA1D114491C2000FB021090F83E
:10A1800015E00EF0FF00BEF1000F02D002380128EA
:10A1900093D81C2050430B18C3E9037641F8008084
:10A1A0005C600124DCF800005C75C2EBC202BDE813
:10A1B000F84F01EB8201FFF721BB00BF619503005F
:10A1C0004848002045A803009048002010B50446E8
:10A1D0004069FFF78BF920460121BDE81040FFF7E9
:10A1E000F5BEF8B5038A934204460F4615461FD3C1
:10A1F000012A838908D142680978D154204629B2BE
:10A20000FFF720F90020F8BD002AF7D00689406842
:10A2100003EB020CB445184407DDF61AB6B2324619
:10A2200001F0A4FB6068AA1BB91901F09FFBE5E7E8
:10A230000120E8E72DE9F347038A934204461546D7
:10A2400004D20122104602B0BDE8F087C06A531C58
:10A2500003814160FFF7AEF829B2FFF7B1F8E06A79
:10A26000FFF7F0F826687378002B40F0A780E76AC4
:10A27000FD89002DE5D0E369A2692B449342E0D823
:10A28000E068FFF797F86169E369E068194401F055
:10A29000030221F00301FFF7A4FF012806D10122E8
:10A2A000E068FFF787F800232362CBE7238AAB42FD
:10A2B00028BF2B4623621FFA83FA0BB3B7F8089026
:10A2C00009F1FF3292B29245E9D8D4F80C80B8F87F
:10A2D00010205245E3D37D8979682B444B452944AE
:10A2E0003CDDA9EB050292B24046FFF77AFF0AEB8C
:10A2F0000502A2EB0902796892B24046FFF771FFAE
:10A30000E0686369C189E56901F003022B4423F029
:10A310000303C2F1040292B21944FFF762FF01285D
:10A32000BDD0E268DFF898901046FFF747FB0123A5
:10A33000B2F80E80737074600746D9F80000656942
:10A34000D4F81CA0FFF78EF9002835D1D9F8000009
:10A3500030B90122002373707360A1E75246CCE745
:10A36000002FF6D0D0F800C0BCF1000FF1D0B8F14A
:10A37000000FEED043685A68B8FBF2F302FB138378
:10A3800007F003021343E4D1C36805EB0A0121F08F
:10A3900003019942DDD3036908F1FF320A449A426E
:10A3A000D7D8CDF80090DCF80C5043463A46A84781
:10A3B0000028CED1002245E70222CBE7022241E766
:10A3C0008847002001392DE9F84F04461546062933
:10A3D00008D8DFE801F004092C396AB7C40001236A
:10A3E00080F83030BDE8F88F90F8333013B1002397
:10A3F0001371F7E716683046FFF7ACFA024688B9E2
:10A40000334603F1180C04F11406186859683746EE
:10A4100003C7083363453E46F7D118683860012307
:10A4200084F83130B2FA82F040092871DAE75368D3
:10A43000926C29689A4288BFAB64AA6C05F1080047
:10A44000BDE8F84F01F092BA90F8333013B990F8A4
:10A45000313013B90023EB60C4E7FFF72BFD01286F
:10A460001FD062682B6851688B421AD35B1A11683F
:10A470004978B1B991698B4213D2D361012384F831
:10A480003330D5E901126068FFF7D4FE48B92046A1
:10A49000FFF7D2FC28B9A9682868FFF747FAE860F7
:10A4A000A0E7002384F83330D5E7566816B90123B6
:10A4B0002B7297E790F833300BB10023F8E7176859
:10A4C000426853689F4239D392683E44013B013E43
:10A4D00003EB02339E4231D83A4B1F401E40FFF738
:10A4E000E9FCF61B360B012806F1010626D0DFF841
:10A4F000D880DFF8D890DFF8D8A098F8003003F5BE
:10A50000C0730F2E49F823A0B3464FF0010328BFB4
:10A510004FF00F0B606884F833305A463946FFF726
:10A52000C5F858B92046FFF787FC012806D0B6EBDE
:10A530000B0607EB0B37E0D10028B8D0002384F8D6
:10A540003330B5E790F831303BB11430FFF728FADB
:10A55000B0FA80F04009287044E70120F8E790F84D
:10A5600033305BB990F8313043B100F1140528461F
:10A57000FFF716FA40B1002384F833300423237028
:10A58000144B00221A702DE7A268134B51688B42BE
:10A59000F1D35B1A116849780029ECD191698B429B
:10A5A000E9D2D3610123A269A06884F83330294637
:10A5B000FFF740FE0028DED12046FFF73DFC0028D3
:10A5C000DCD0D8E700F0FFFF844700200000014006
:10A5D0003546526E084A002000D00300F8B5194BEA
:10A5E0001C680122DA7394F8253006460D4643BBF9
:10A5F000206AFEF7DDFF20B3A069FEF7DBFE83894A
:10A600004268EDB2D118AF1CD75403234B7002211E
:10A61000FEF704FF1DB12A463146FFF7E2FD22781E
:10A620000123022A84F8253006D1A26812789340CB
:10A630004FF0A042C2F80835236ABFF35F8F0022B3
:10A640001A60F8BD1C4A002008B510461A4601F0F1
:10A650008DF9002008BD00002DE9F843364F3D6814
:10A6600095F8243023B9A7F850300020B87340E0A3
:10A67000E869FEF79DFF00285CD02B69DE89A7F80A
:10A6800050602C69E389B34252D3012EB4F80A809A
:10A6900031D1636813F808303B7433B2002B10D00B
:10A6A0006389228933449BB2DCBF9B189BB29342DF
:10A6B00028BF9B1A6381E3899B1BE381238A1E4485
:10A6C00026822869FEF776FE95F82600002385F895
:10A6D000243038B1D5E90312C5E90321012285F8F8
:10A6E00024201846EB69BFF35F8F00221A60002810
:10A6F000BBD0BDE8F883002ECFD02289616808EB7B
:10A7000006039342414407F110090EDDA2EB080253
:10A71000484601F02BF920896168321AA0EB080045
:10A720004244484401F022F9B7E732464846F9E787
:10A730000120D7E70220DCE71C4A002070B594B066
:10A74000FFF78AFF044600283FD12C4BB3F8502076
:10A75000012A51D11A7C423A152A4DD8DFE802F07D
:10A760000B4C4C3A494C4C104C4C4C4C4C4C4C4CBB
:10A7700038334C4C3E3C00210120FFF7C9F824E05F
:10A780001F4D204901232846CDE901130393FFF70C
:10A79000E1F8A8B9AB6904934FF480560596FEF72B
:10A7A00093FE194B0422CDE908368023CDE90A2314
:10A7B0003044CDE906052C2101A8FFF70FFF04E086
:10A7C0004FF0FF33E7E701221A71204614B070BD45
:10A7D0000222F9E70322F7E70422F5E701A90620A0
:10A7E000FFF796F89DF804308DF800300121684697
:10A7F000E3E700210720C0E70124E6E71C4A002028
:10A8000000D0030052464757008003000A4838B57D
:10A8100000240A4D0471C0E9154421460822053080
:10A82000FEF784FD4FF4005221462846FEF77EFDD8
:10A83000034B1D60204638BD1C4A00202C270020F9
:10A840006C26002070B583681A78012393404FF07E
:10A85000A0420446C2F80C354069FEF7ABFD2378F0
:10A86000062B0D4604D1E36A13B1A06A0221984772
:10A8700094F826302BB184212046BDE87040FFF7C4
:10A88000A5BC6968012901D88121F5E7E06809B212
:10A89000FEF7D8FDE2681046FFF790F84378022BE8
:10A8A000054618D0032B4FD0012B40F0A28003782F
:10A8B000022B0ED1D389022B34BF81218021104677
:10A8C000FEF778FD8029DFD16069FEF70FFE0321D6
:10A8D0002FE08121F3E70378022B31D1D389012BBB
:10A8E0002ED9206AFEF764FE40B3A369DA8922B14B
:10A8F0006269D18909B9C4E90532226ABFF35F8F61
:10A9000000231360802584F825306069C38953B91A
:10A91000FEF750FD838942680221D618D1540323E3
:10A920007370FEF77BFDE068FEF744FD802D09D1D2
:10A9300005212046BDE87040FFF748BB8425E4E7C9
:10A940008125F0E7294697E72378042B4FD1D18959
:10A9500003788B424BD84942104609B2FEF772FD8C
:10A960002978E068FEF76EFDE268538911890233A9
:10A970009BB28B42538124BF5B1A5381D389023B24
:10A98000D381138A02331382E069FEF711FEC0B946
:10A99000012384F82630832594F8263013B9E06823
:10A9A000FEF708FD29462046FFF710FC802D01D058
:10A9B000832D2DD1E36A5BB3A06A0121BDE870400D
:10A9C0001847E168CB8923B12269D3896BB9C4E9FF
:10A9D0000321E269BFF35F8F00211160002BD7D103
:10A9E000012384F824308025D6E70223F1E781256E
:10A9F000D2E71046FEF7DEFC2378042B01D180213C
:10AA000062E794F825300BB1852135E7822133E7E1
:10AA100070BD000010B5FEF793FC40B14FF08043CD
:10AA20000022C3F80C21C3F81021C3F83825FEF723
:10AA300087FC002846D04FF080524C4BD2F80414CB
:10AA4000C3F82015D2F80814C3F82415D2F80C1452
:10AA5000C3F82815D2F81014C3F82C15D2F8141422
:10AA6000C3F83015D2F81814C3F83415D2F81C14F2
:10AA7000C3F84015D2F82014C3F84415D2F82414B2
:10AA8000C3F84815D2F82814C3F84C15D2F82C1482
:10AA9000C3F85015D2F83014C3F85415D2F8341452
:10AAA000C3F86015D2F83814C3F86415D2F83C1412
:10AAB000C3F86815D2F84014C3F86C15D2F84424D2
:10AAC000C3F87025FEF73CFC48B14FF08043D3F843
:10AAD0000024D20744BF6FF00102C3F800244FF0F6
:10AAE0008053D3F83021102A0ED1D3F83431032B00
:10AAF00002D81F4AD35C3BB14FF01023D3F8082291
:10AB00004FF08043C3F858254FF01023D3F80022AC
:10AB1000002A03DBD3F80432002B22DA1549012383
:10AB20004FF01020C1F804351224FEF713FCC0F8D2
:10AB30000042FEF70FFCC0F80442FEF70BFC0023B6
:10AB4000C1F80435FEF706FCBFF34F8F0A490B4BE3
:10AB5000CA6802F4E0621343CB60BFF34F8F00BFBB
:10AB6000FDE7074B074A1A6010BD00BF00C0004058
:10AB7000BEB9030000E0014000ED00E00400FA056A
:10AB8000682600200090D0032DE98048A64BA3B092
:10AB900002AA03F1100518685968144603C4083363
:10ABA000AB422246F7D118689B882060A3809F4B58
:10ABB0009F4A012119709F4B1A609F4B1A7872B9F6
:10ABC00019709E4BC3F80C254FF48032C3F804254E
:10ABD0009B4BE02283F810231020FEF7F9FD0FAD08
:10ABE000002328468DF83C30FEF740FF954B1A783D
:10ABF000072A0BD894490A70511C19708F490123F8
:10AC0000D1F8080593400343C1F808359DF83C008E
:10AC1000FEF7FCFF8D490E78002E61D10022002343
:10AC2000C1E90223C1E90423C1E9062340F6CD426C
:10AC30000023C1E9082321220023C1E90A23844B10
:10AC40001C6804F150021A60824BA6641C60824B9F
:10AC5000E364314604F1240720222046FEF766FB18
:10AC6000314620223846FEF761FB24626764FEF716
:10AC700029FE7A4A0B239370794B16801E60794B1C
:10AC80001E70794B1E706E4B4FF48011C020C3F8BC
:10AC9000801183F81403196001F18041A1F56F213F
:10ACA000C1F8086583F81103704BD1F804151960D9
:10ACB000937863B1636C1A7C1AB901225A746C4A96
:10ACC0005A61236A1A7C12B95A746A4A5A61224636
:10ACD000606C4FF40001FEF7AFFF5C4A0123137074
:10ACE000654E4FF47C3474602368012B40F03B8246
:10ACF0006368102B40F0378294E80F0085E80F005E
:10AD0000002328461193FEF711FEA368834240F00A
:10AD10002A8294E80F0006F1080787E80F00012354
:10AD200000213370D1F8F82F013211D15348C0F807
:10AD30000435BFF36F8FBFF34F8F514BC1F8F83F0E
:10AD4000FEF708FBC0F80415BFF36F8FBFF34F8FFA
:10AD50000021D1F8FC3F013313D148480123C0F84A
:10AD60000435BFF36F8FBFF34F8F4FF47833C1F8C3
:10AD7000FC3FFEF7EFFAC0F80415BFF36F8FBFF387
:10AD80004F8F4FF480530F933E4B3F4E3F4F1296E1
:10AD90001B0B109329468023301DADF844301397C8
:10ADA000FEF710FE01283A4C00F0C481394B0F9396
:10ADB0000123109329461C2306F10800CDE91267F0
:10ADC000ADF84430FEF7FEFD012800F0B381204AC3
:10ADD000314B1768DFF8C4B0DFF8C490276007F183
:10ADE000300AC3F800A02F4BBB634FF0020387F873
:10ADF00030300023BB8707F1540187F850309BF8AF
:10AE00001430116007F14C027A63C7F84C90002BA4
:10AE100040F0908124494846FFF7A8F88046002872
:10AE200040F0888142E000BFA4B90300084A002036
:10AE300073930300044A0020F249002000000140FF
:10AE400000E100E0A447002084470020784A002069
:10AE50006C26002034470020FD9E0300CC480020D3
:10AE60000C4A0020FC490020FD490020004A002037
:10AE70000D960300319603006C47002000E001406E
:10AE80000090030000800300384700206593030012
:10AE90001C4A002000D003002C47002090480020CE
:10AEA00000300040C4BD0300A59803004FF0A0434C
:10AEB0000722C3F81C07C3F85007C3F84407C3F8B8
:10AEC0003C070F23C9F808351423C9F8103511239E
:10AED000C9F80C25C9F81435FF23C9F834054FF417
:10AEE0008271C9F83805C9F84405C9F84805C9F898
:10AEF0005405C9F85C354846C9F8C035FEF776FCFC
:10AF00004FF49471FEF772FCD9F8003243F0040359
:10AF1000C9F80032C54BCBF8083040F202438BF839
:10AF20001580CBF818A0C9F80433F86C114640F32B
:10AF30000730FEF71FFAF86C40F30730FEF748FCC5
:10AF40004FF001038BF814300223C9F80035DFF805
:10AF5000E092C7F804A099F89E30002B54D1B54870
:10AF6000DFF8D4B2CA46494642464FF0805CDCF86E
:10AF70003031102B40F0FF80DCF83431032B00F22D
:10AF8000FA80DFF8B8E21EF803E0BEF1000F0CBF54
:10AF900003465B46D340DB0748BF4FF0FF3302F167
:10AFA000010248BF81F86830202A01F10101DED199
:10AFB0004FF0FF33B8F1070F88BF09EB080208F123
:10AFC00001084AF8043B88BF82F88030B8F11A0FB4
:10AFD000F0D104229A480021FEF7A8F9994BE0220B
:10AFE00083F806230620FEF7F3FB974B0022C3F8F5
:10AFF0007C21D3F87C210192019A4FF00042C3F8E2
:10B000000423012389F89E30DFF840A2DAF80030EB
:10B0100003F11002CAF800208D4A13644FF4047241
:10B020001A8099F97820013211D1FE2289F878200E
:10B030004FF0A0424FF48031C2F80C150321C2F842
:10B04000401799F89C2042F0010289F89C20BB60CF
:10B050004FF000084323294607F10C00CDF83C804F
:10B06000ADF84030FEF7B8F9012863D0294607F162
:10B070001000FEF7B1F901285CD0294607F1140051
:10B08000FEF7AAF9012855D0294607F11800FEF766
:10B09000A3F901284ED0DAF80030FB611A1DCAF876
:10B0A0000020C3F80080BFF35F8FDAF800303B6206
:10B0B0001A1DCAF80020C3F80080BFF35F8F654BEC
:10B0C00087F80080FB622068A7F82480822187F837
:10B0D0002680BC62FFF77AF8082241465E4884F871
:10B0E0000480FEF723F95D4BA3655D48A4F80E804C
:10B0F0008123294684F80D80A4F850806665CDF838
:10B100003C80ADF84030FEF767F9012812D0DAF83C
:10B110000030336103F10802CAF8002051481C22B4
:10B120004146FEF703F9012333704F4BC6F83080D8
:10B1300083F80080DFF83481DFF834914D4F98F8C0
:10B1400000304D4A03F5C07342F82390A37B23B32C
:10B15000E37B13BB2379052B00F2CF80DFE803F0FC
:10B16000CF0D42589FB210230122C6E902230023CB
:10B17000C6E90433D3E503460CE7FFF76DFA8246D0
:10B1800048B9B4F850301B2B13D88DF800000121BA
:10B190006846FFF723FA002323713378013B042B21
:10B1A00000F2BE80DFE813F0B100C400BC00E9008B
:10B1B0001901DFF8C8E08DF840A0BEE80F000DF1DE
:10B1C000200CACE80F009EE8070008AB8CE80700F5
:10B1D000294602200F93FEF79BFB9DF840308DF827
:10B1E0000030D4E7FFF738FA0028D4D1B4F8503053
:10B1F000082BD0D1D4E904232946CDE90F2303201D
:10B2000040232193FEF784FBBDF8841011A8C0E70A
:10B21000FFF722FA0028BED1B4F85030082B2FD007
:10B220008DF82000012108A8B3E700BFD1950300E5
:10B23000A8470020FFC117703F8E16F0BAB903006F
:10B240004248002000E100E0006000406C26002041
:10B25000AC2600209D930300214A0020C5A30300D3
:10B26000444700204C470020084A00208447002023
:10B270003546526E00100140000001402C4A00206B
:10B28000D4E904238DF8440029460520CDE90F2395
:10B29000FEF73EFB9DF844308DF82030C2E7FFF703
:10B2A000DBF960B9B4F85030082B7FF474AF4D4A25
:10B2B00002F10B0303CB1060516005236CE70128FA
:10B2C000FBD168E7FFF7C8F900287FF464AFD4F832
:10B2D00005300F93444B1093D4F80920B4F8503044
:10B2E0001290294604209A4294BF11921193FEF7BE
:10B2F0000FFB129B0893042195E700232371FFF7AE
:10B300001DFA01287FF449AF45E70023306942F276
:10B310006662FEF76DFD0223344A3370002313701A
:10B32000102200212846FEF701F8FEF717FA06E77B
:10B33000637B23B196F830300BB10323ECE74FF475
:10B34000803AD6F810B0C7F808A3FEF77FF8284A6D
:10B35000DBE90013D2E90202884272EB030305D253
:10B360005846FEF71BFDC7F804A3D9E704231F4A7C
:10B37000C7F804A3337000231370FFF747FA0128BE
:10B380002DD01C4B4FF0FF32C3F88020C3F8802132
:10B39000C3F88420C3F884210023CDE911334FF48E
:10B3A000805406232846CDE90F34FEF78BF8072892
:10B3B00004BF4FF000531C60EFF305830023D4E972
:10B3C000001283F3148883F3108883F3118883F3C6
:10B3D000138881F30888904701E0FFF717FAFEF71A
:10B3E000BDF9FCE7214A00202C4A0020084A002031
:10B3F000784A002000E100E0F8B51F491F4B002506
:10B40000C1F84051C1F84451C1F84851C1F84C51FC
:10B41000C1F80051C1F804511B684BB3D1F8044581
:10B4200017490968641A24F07F442F461A68A2421B
:10B4300009D8A41A15441A7CDE691AB1D3E905208B
:10B440001F749047AEB90F4A0F4B11781B788B428F
:10B4500005D10133DBB2022B08BF00231370127831
:10B460000A4B43F822500A4B4FF48012C3F80021D4
:10B47000F8BD3346DAE700BF001001400C4A002057
:10B48000004A0020FD490020FC490020F44900202A
:10B4900000E100E02DE9F04FA24AA34913780978B2
:10B4A000A24D994285B03CD00133DBB2022B08BFDC
:10B4B000002313709E4912789E4B0F6853F82200A8
:10B4C0003B1823F07F4300220B602B68164614467E
:10B4D000944613B942B12B6006E0196881420ED937
:10B4E00002B12B60091A196001272B68DFF848A206
:10B4F00001934FF00008BEB9DFF840B262E0401A95
:10B500000C44D968D3F81CE0C3F800C031B13A1933
:10B5100022F07F42C3E90121DE611E46734601220B
:10B52000D7E700263746E0E73446F669804B606887
:10B530001B68DFF80CC2A168C21A22F07F42624584
:10B5400000F2A8800A442260012222742A680023A3
:10B55000C4E90133E361002A40F0A5802C60CAE70A
:10B560009BF802105A1CD2B291428BF8002004BF03
:10B5700000228BF80020182202FB03B32A681979F5
:10B580009C68022977D0032900F08180012919D114
:10B59000207CB8B9D96861601A69A2605A69E26012
:10B5A0009B69A361674B1B78002B18BF0146616044
:10B5B000BCE78C4200F094808946C9690029F8D123
:10B5C000002323749BF800309BF801209A42C7D1D6
:10B5D0002B68B8F1000F04D1019A9A4201D1002FD3
:10B5E00043D0002B79D0D3F800A0534D504BD5F861
:10B5F00004751C68DFF850813E1B98F8003026F077
:10B600007F4603369BB94FF48033C5F84433C5F801
:10B6100004334E4B4FF40032C3F880211A604FF0D0
:10B620000109C5F80090FEF745F988F80090B24589
:10B630002CBF5444A41924F07F44C5F84045D5F8E4
:10B640000435DB1B23F07F43E41B033324F07F44EA
:10B65000A3420AD9D5F80435C5F84035FEF72AF9D2
:10B660003A4B4FF40032C3F80021364B00221A70D7
:10B6700005B0BDE8F08F114691469FE71174D2697D
:10B680000123002AFAD1002B9CD02A609AE70023DC
:10B690001946F6E71B1A23F07F438B4234BFCB1ABF
:10B6A0000023236050E721681368994213D85B1A7E
:10B6B0001360E26152E7091AD8691A4638B10346A5
:10B6C00018688842F7D3401A18601846134621605C
:10B6D000E061DC610FE71346F2E7FEF7F3F8C4E739
:10B6E0004C4511D1D3692B6073B9DFF844E00120D8
:10B6F000CDE90212CAF80800CEF80030114B1870DC
:10B70000FEF7D8F8DDE902120B68C969C9F81C1008
:10B7100011B1086803440B602B68934218BF4FF0C7
:10B7200001084DE7FC490020FD4900200C4A00209B
:10B73000004A0020F449002000100140CC480020BD
:10B74000FEFF7F00F0490020F149002000E100E009
:10B7500038B5094B094DAB4208BF00231C4607E032
:10B76000D4E9003008349847AC424FF00003F5D0DC
:10B77000002CF5D138BD00BF38BE030038BE030031
:10B780002DE9F04385B00024504B514851490194B4
:10B79000012225461E68012E08D1D0F80463164206
:10B7A00004D01D601E680296029E144304338B422F
:10B7B0004FEA4202EED1464BD3F87C21012A0FD149
:10B7C0000022C3F87C21D3F87C310393039B4FF014
:10B7D000A04344F00044D3F820250192C3F820256B
:10B7E000E3B2D3B13C4F01260025344210D0AB0068
:10B7F00003F1804303F5C043D3F81005D3F81015C7
:10B8000057F8253023B1C1F30141C0F30420984714
:10B810000135082D4FEA4606E7D1002C4EDA2E4EB0
:10B820004FF0A0442D4F00254FF0010817F9013BC0
:10B830005A1C39D0C3F3C20210326A44D9B212F88A
:10B840000C2C03F03F0003F0070308FA03F31A423D
:10B850002AD0830003F1A043D3F80027D3F800E7F0
:10B860002EF4403EC3F800E7C2F30142D3F800C70C
:10B87000022A0CBF4FF003094FF002094CEA094CB1
:10B88000C3F800C708FA00F3C4F82035331893F959
:10B89000683056F823303BB18909032903D0022AC6
:10B8A0000FD1012900D198470135122DBED1D4F80E
:10B8B00020350193C4F82035002BB3D105B0BDE885
:10B8C000F083032AF0D10229ECE700BF00610040B9
:10B8D0000060004020610040A84700203048002060
:10B8E00013B5084CD4F800314BB1074B1B6898478F
:10B8F0000023C4F80031D4F800310193019B02B059
:10B9000010BD00BF00000140044A0020014B1B682D
:10B91000184700BFD8490020014B1B68184700BFDB
:10B92000E0490020014B1B68184700BFE849002090
:10B930000649074A074B9B1A03DD043BC858D05001
:10B94000FBDCFFF767F8FDF77FFC000040BE03005B
:10B950000826002090260020FEE7FEE7FEE7FEE72F
:10B96000FEE7FEE7FEE7FEE7FEE7FEE70A44914258
:10B9700000F1FF3300D1704710B511F8014B03F807
:10B98000014F9142F9D110BDF8B500BFF8BC08BC19
:10B990009E467047F8B500BFF8BC08BC9E4670478D
:10B9A00008260020546869732069732077696E69DE
:10B9B000646561207465737421000100000000005B
:10B9C0000001000000000000963007772C610EEEA9
:10B9D000BA51099919C46D078FF46A7035A563E9E6
:10B9E000A395649E3288DB0EA4B8DC791EE9D5E00D
:10B9F00088D9D2972B4CB609BD7CB17E072DB8E70C
:10BA0000911DBF906410B71DF220B06A4871B9F360
:10BA1000DE41BE847DD4DA1AEBE4DD6D51B5D4F499
:10BA2000C785D38356986C13C0A86B647AF962FDFE
:10BA3000ECC9658A4F5C0114D96C0663633D0FFA4B
:10BA4000F50D088DC8206E3B5E10694CE44160D551
:10BA5000727167A2D1E4033C47D4044BFD850DD23B
:10BA60006BB50AA5FAA8B5356C98B242D6C9BBDB4E
:10BA700040F9BCACE36CD832755CDF45CF0DD6DC49
:10BA8000593DD1ABAC30D9263A00DE518051D7C8F0
:10BA90001661D0BFB5F4B42123C4B3569995BACF7B
:10BAA0000FA5BDB89EB802280888055FB2D90CC69C
:10BAB00024E90BB1877C6F2F114C6858AB1D61C115
:10BAC0003D2D66B69041DC760671DB01BC20D29834
:10BAD0002A10D5EF8985B1711FB5B606A5E4BF9FC1
:10BAE00033D4B8E8A2C9077834F9000F8EA80996B4
:10BAF00018980EE1BB0D6A7F2D3D6D08976C64911F
:10BB0000015C63E6F4516B6B62616C1CD830658537
:10BB10004E0062F2ED95066C7BA5011BC1F4088214
:10BB200057C40FF5C6D9B06550E9B712EAB8BE8B55
:10BB30007C88B9FCDF1DDD62492DDA15F37CD38CDE
:10BB4000654CD4FB5861B24DCE51B53A7400BCA3DC
:10BB5000E230BBD441A5DF4AD795D83D6DC4D1A40E
:10BB6000FBF4D6D36AE96943FCD96E34468867ADE5
:10BB7000D0B860DA732D0444E51D03335F4C0AAA84
:10BB8000C97C0DDD3C710550AA41022710100BBE87
:10BB900086200CC925B56857B3856F2009D466B9CE
:10BBA0009FE461CE0EF9DE5E98C9D9292298D0B003
:10BBB000B4A8D7C7173DB359810DB42E3B5CBDB7B0
:10BBC000AD6CBAC02083B8EDB6B3BF9A0CE2B60331
:10BBD0009AD2B1743947D5EAAF77D29D1526DB04E6
:10BBE0008316DC73120B63E3843B64943E6A6D0D31
:10BBF000A85A6A7A0BCF0EE49DFF099327AE000A7C
:10BC0000B19E077D44930FF0D2A3088768F2011E0E
:10BC1000FEC206695D5762F7CB67658071366C19A5
:10BC2000E7066B6E761BD4FEE02BD3895A7ADA10C6
:10BC3000CC4ADD676FDFB9F9F9EFBE8E43BEB717A7
:10BC4000D58EB060E8A3D6D67E93D1A1C4C2D83831
:10BC500052F2DF4FF167BBD16757BCA6DD06B53F97
:10BC60004B36B248DA2B0DD84C1B0AAFF64A0336D6
:10BC7000607A0441C3EF60DF55DF67A8EF8E6E3155
:10BC800079BE69468CB361CB1A8366BCA0D26F259E
:10BC900036E2685295770CCC03470BBBB9160222EB
:10BCA0002F260555BE3BBAC5280BBDB2925AB42B00
:10BCB000046AB35CA7FFD7C231CFD0B58B9ED92C15
:10BCC0001DAEDE5BB0C2649B26F263EC9CA36A757A
:10BCD0000A936D02A906099C3F360EEB8567077231
:10BCE00013570005824ABF95147AB8E2AE2BB17B98
:10BCF000381BB60C9B8ED2920DBED5E5B7EFDC7C1F
:10BD000021DFDB0BD4D2D38642E2D4F1F8B3DD6875
:10BD10006E83DA1FCD16BE815B26B9F6E177B06F70
:10BD20007747B718E65A0888706A0FFFCA3B06665D
:10BD30005C0B0111FF9E658F69AE62F8D3FF6B61EA
:10BD400045CF6C1678E20AA0EED20DD75483044E8C
:10BD5000C2B30339612667A7F71660D04D4769491A
:10BD6000DB776E3E4A6AD1AEDC5AD6D9660BDF402D
:10BD7000F03BD83753AEBCA9C59EBBDE7FCFB247E0
:10BD8000E9FFB5301CF2BDBD8AC2BACA3093B353C5
:10BD9000A6A3B4240536D0BA9306D7CD2957DE54CE
:10BDA000BF67D9232E7A66B3B84A61C4021B685DA7
:10BDB000942B6F2A37BE0BB4A18E0CC31BDF055A20
:10BDC0008DEF022D010000002C47002000300040C4
:10BDD00000000000003000400000000002000000F1
:10BDE00030470020004000400100000000400040BB
:10BDF0000100000000000000000000000000000042
:10BE00000738FDD870470000001000000400000053
:10BE10000100000039970300D59A030049A60300EA
:10BE2000E19A03007D9B03004597030049970300B7
:08BE30004D9703000000000023
:08BE380008D4FF7F01000000A7
:10BE400000000000000000000000000000000000F2
:10BE500000000000000000000000000000000000E2
:10BE600000000000000000000000000000000000D2
:10BE700000000000000000000000000000000000C2
:10BE800000000000000000000000000000000000B2
:10BE900000000000000000000000000000000000A2
:10BEA0000090D0032C27002025920300019203006C
:10BEB0000000000000000000939503000000000057
:04BEC000FFFF03007D
:020000020000FC
:020000041000EA
:041014000090030045
:0410180000E00300F1
:040000033000B931DF
:00000001FF
