:020000022000DC
:1070000000000220653704008D3704008F3704002C
:107010009137040093370400953704000000000006
:10702000000000000000000000000000973704008E
:1070300099370400000000009B3704009D370400CE
:10704000E16F03002D8F0200ED8D0300BD7503007D
:107050000D7103009F3704009F3704009F37040021
:107060009F3704009F3704009F3704009F370400B8
:107070009F3704009F3704009F3704009F370400A8
:107080009F370400ED2D03009F3704009F37040055
:107090009F3704009F3704001D6703009F370400DB
:1070A0009F370400358F0200318F0200F97403000E
:1070B0009F3704009F37040000000000000000001C
:1070C0009F370400AD9103009F3704001D7103003A
:1070D0009F3704009F3704009F370400098B03008B
:1070E0009F370400000000000000000000000000C6
:1070F000000000009F370400000000009F370400DC
:10710000000000000000000000000000000000007F
:10711000000000000000000000000000000000006F
:10712000000000000000000000000000000000005F
:10713000000000000000000000000000000000004F
:10714000000000000000000000000000000000003F
:10715000000000000000000000000000000000002F
:10716000000000000000000000000000000000001F
:10717000000000000000000000000000000000000F
:1071800000000000000000000000000000000000FF
:1071900000000000000000000000000000000000EF
:1071A00000000000000000000000000000000000DF
:1071B00000000000000000000000000000000000CF
:1071C00000000000000000000000000000000000BF
:1071D00000000000000000000000000000000000AF
:1071E000000000000000000000000000000000009F
:1071F000000000000000000000000000000000008F
:107200000348044B834202D0034B03B11847704735
:10721000205E0020205E0020000000000548064996
:107220000B1AD90F01EBA301491002D0034B03B194
:1072300018477047205E0020205E002000000000FC
:1072400010B5064C237843B9FFF7DAFF044B13B1AE
:107250000448AFF300800123237010BD885F002035
:10726000000000005CED040008B5044B1BB10449AC
:107270000448AFF30080BDE80840CFE700000000FD
:107280008C5F00205CED0400A3F5803A704700BFDE
:10729000154B002B08BF114B9D46FFF7F5FF002152
:1072A0008B460F461148124A121A00F079F80C4B1F
:1072B000002B00D098470B4B002B00D098470020A4
:1072C000002104000D000B4800F016F800F044F80F
:1072D0002000290012F036F900F014F80000080030
:1072E000000000000000000000000220885F002075
:1072F000680201202D730200002301461A46184639
:1073000000F0A0B808B5074B044613B1002100F007
:10731000EFF8054B1868836A03B19847204600F0E0
:107320004BF900BFF1740200209B040038B5084BF4
:10733000084D5B1B9C1007D0043B1D44013C55F8D5
:1073400004399847002CF9D1BDE8384022F0E2BB5F
:10735000205E00201C5E002070B50D4E0D4D761B8A
:10736000B61006D0002455F8043B01349847A642D5
:10737000F9D1094E094D761B22F0C6FBB61006D096
:10738000002455F8043B01349847A642F9D170BD5A
:10739000C45D0020C45D00201C5E0020C45D002090
:1073A000830730B548D0541E002A3FD0CAB20346E6
:1073B00001E0013C3AD303F8012B9D07F9D1032CDE
:1073C0002DD9CDB245EA05250F2C45EA054536D91C
:1073D000A4F1100222F00F0C03F1200EE6444FEA54
:1073E000121C03F1100242E9045542E90255103221
:1073F0007245F8D10CF1010214F00C0F03EB0212EC
:1074000004F00F0C13D0ACF1040323F00303043396
:10741000134442F8045B9342FBD10CF003042CB1FB
:10742000CAB21C4403F8012B9C42FBD130BD644618
:107430001346002CF4D1F9E703461446BFE71A4679
:10744000A446E0E7F0B5264C256885B0064605B3AE
:107450006C681F2C41DCA6B1D5F8880048B3D0F881
:10746000007140F824204FF0010C0CFA04FC00EBF2
:1074700084024CEA0707022EC0F80071C2F880307F
:1074800010D0A31C01346C6045F82310002005B017
:10749000F0BD1448144D25600028D9D00068C5F807
:1074A0008800D5E7D0F8043143EA0C03C0F8043172
:1074B000E7E70E480191CDE9022370B14FF48470E3
:1074C00020F026FF48B10027C0E94077DDE902231C
:1074D0006C680199C5F88800C3E74FF0FF30D6E724
:1074E0003060002000000000A45F00201183040031
:1074F0002DE9F84FDFF8BCA0DAF800702DED028B13
:10750000E7B108EE100A89467D68D7F888806C1EBE
:1075100014D407EB8506043608EB8505B9F1000F96
:1075200010D0B8F1000F02D0EB6F4B450AD0013CF0
:10753000631CA5F10405A6F10406EFD1BDEC028B96
:10754000BDE8F88F7B683268013BA34216BF002379
:107550007C603360002AEAD0D7F804B0B8F1000F9D
:107560001AD0D8F80001012303FA04F1014213D024
:10757000D8F80401014218D155F8041C18EE100A7D
:1075800090477A685A450BD1DAF80030BB42CED02A
:107590001F46002FB8D1D1E790477A685A45F3D0FB
:1075A000DAF80070002FAFD1C8E755F8040C904707
:1075B000E7E700BF30600020FEE700BF4FF08053D8
:1075C000D3F83001A0F10D03584258417047000034
:1075D000024AD2F80034002BFBD0704700E0014093
:1075E00008B5FFF7EBFF40B14FF080430022C3F82E
:1075F0000C21C3F81021C3F83825FFF7DFFF00285E
:1076000046D04FF080524E4BD2F80414C3F82015E8
:10761000D2F80814C3F82415D2F80C14C3F82815AE
:10762000D2F81014C3F82C15D2F81414C3F830157E
:10763000D2F81814C3F83415D2F81C14C3F8401546
:10764000D2F82014C3F84415D2F82414C3F848150E
:10765000D2F82814C3F84C15D2F82C14C3F85015DE
:10766000D2F83014C3F85415D2F83414C3F86015A6
:10767000D2F83814C3F86415D2F83C14C3F868156E
:10768000D2F84014C3F86C15D2F84424C3F870251E
:10769000FFF794FF48B14FF08043D3F80024D2079E
:1076A00044BF6FF00102C3F80024264AD2F88830A4
:1076B00043F47003C2F88830BFF34F8FBFF36F8F6E
:1076C0004FF08053D3F830210D2A0ED1D3F8343146
:1076D000022B02D81C4AD35C3BB14FF01023D3F8E5
:1076E00008224FF08043C3F858254FF01021D1F8FD
:1076F0000C32DB071FD515480123C0F80435FFF70E
:1077000067FFD1F80C3223F00103C1F80C32FFF708
:107710005FFF0023C0F80435FFF75AFFBFF34F8F18
:1077200008490B4BCA6802F4E0621343CB60BFF315
:107730004F8F00BFFDE7074B074A1A6008BD00BF27
:1077400000C0004000ED00E0249B040000E0014088
:107750000400FA05E05900200090D0036CDF704768
:107760006DDF704776DF704778DF70477ADF7047EC
:107770007CDF70478FDF7047A0DF70470EF047BE99
:107780007FB508220346019201A94FF6FF7202A8B5
:1077900007F0D4F908B10EF03AFE019902A807F0FB
:1077A000A5F908B10EF033FE07B05DF804FB000048
:1077B00010B5734BB2B0082800F2DF80DFE810F09C
:1077C0006C0009001F002F003F004C005C0085008A
:1077D000C40001221A706B4B00221A706A4B5B883E
:1077E000022B70D969486A4B6A49C01AC008000464
:1077F00040F0030032B0BDE810400AF06FBD012236
:107800001A70604B00221A705F4B5B88022B5AD9AA
:107810005E485F4B6049C01AC0080004E8E7594A57
:107820000021117001221A70574B5B88022B4AD934
:107830005648574B5949C01AC0080004D8E70122DE
:107840001A70514B5B88022B3DD95048504B54491C
:10785000C01AC0080004CBE701221A70494B00226D
:107860001A70494B5B88022B2DD94848484B4D492B
:10787000C01AC0080004BBE701221A70414B002265
:107880001A70414B5B88022B1DD94048404B46493A
:10789000C01AC0080004ABE700221A70394B01225D
:1078A0001A70394B5B88022B09D93848384B3F494D
:1078B000C01AC008000440F003000AF00FFD0AF0EF
:1078C00091FB0028FBD132B010BD00221A700823B2
:1078D000CDE9023312AA03AB02A904A807F0EEF81F
:1078E0000528294C2BD16388032B18D92748284B0E
:1078F0002F49C01AC008000440F004000AF0EEFC52
:107900006388032B0BD9224B20482A49C01AC00890
:107910000004DDE9022340F004000AF0ECFC022040
:10792000FFF72EFF039B0093029A234812AB04A992
:1079300002F020FF0028C6D00EF069FDC3E7002842
:10794000DED00EF064FDDBE700221A701B4B1888B6
:107950004FF6FF739842B6D012A907F0A9F905288F
:10796000B1D008B10EF053FD0620FFF709FF0DF16D
:107970005901114802F0EEFEDCE700221A70A2E77E
:107980004361002044610020705E002088EE040006
:1079900038EE0400279B0400549B0400779B0400EE
:1079A000969B0400B59B0400E39B0400119C04001B
:1079B0002F9C0400649C040074610020FC6500207E
:1079C00007B50B78052B18D0062B1CD0042B17D12C
:1079D0008B79022B14D1CB7993B90C4A01920C4AC2
:1079E0000C48128800921946012203F05EFF38B15C
:1079F00003B05DF804EB0EF00ABD074B01221A70CC
:107A000003B05DF804FB044B0022F8E71466002085
:107A1000EA590020EC5900204761002030B587B0BA
:107A2000082301934FF6FF72012301A902A807F072
:107A300085F808B10EF0EBFC144D6B88022B0BD9C6
:107A4000134B1448019A1449C01AC00800040823B3
:107A500040F003000AF04FFC019902A807F024F857
:107A60006B88022B04460AD909480A4B0B491B1A9A
:107A7000DB081B04224643F003000AF033FC14B178
:107A800020460EF0C4FC07B030BD00BF705E002081
:107A900038EE040088EE0400B79C0400F09C04005B
:107AA00010B5044607F00AFE204607F031FE2046D6
:107AB00007F064FB2378033B0A2B1FD8DFE803F0B1
:107AC000061E1E1E1E1E491E1F1E35002D4B5B88E6
:107AD000032B09D92C482D4B2D49C01AC00800048E
:107AE00040F004000AF0FAFB0AF07CFA0028FBD10F
:107AF000284B01221A70284BA2881A8010BD214BF6
:107B00005B88032B09D92048204B2449C01AC008A0
:107B1000000440F004000AF0E1FB0AF063FA0028D8
:107B2000FBD11F4B01221A70E8E7164B5B88032B31
:107B300009D91548154B1B49C01AC008000440F06C
:107B400004000AF0CBFB0AF04DFA0028FBD1164BDB
:107B5000E8E7237CDB07D1D5237A072BCED1094B6D
:107B60005B88032B09D90848084B1049C01AC00884
:107B7000000440F004000AF0B1FBBDE81040FFF73C
:107B80004DBF00BF705E002088EE040038EE040098
:107B90001B9D040041610020FC650020429D040003
:107BA0004A6100206C9D040040610020979D040004
:107BB0000EF02DBC0EF02BBC0EF029BC08B505480C
:107BC000032102F07FFC18B1BDE808400EF01FBC95
:107BD00008BD00BF7461002008B5FFF71FFFBDE8B6
:107BE0000840FFF7EBBF0000014B1878704700BF5B
:107BF00043610020014B1878704700BF44610020AA
:107C000013B504466846FFF7ABFD0098BDF80420A5
:107C10009DF8063020602046A280A37102B010BDFE
:107C200008B5FFF79BFDB0FA80F0400908BD0000E1
:107C30002DE9F047AEB00AF04FFC08B10EF0E7FBBB
:107C40000EF0D2FC08B10EF0E2FB002303A90120E4
:107C500003930EF0A3FD08B10EF0D9FB03A80EF0BC
:107C6000F5FD08B10EF0D3FBBD4A0A2108200AF049
:107C700099FC08B10EF0CBFB1123BA488DF8043003
:107C800021F05EF901AD82B2B6492846FFF770FDDA
:107C900008B10EF0BCFB40F2C130FFF765FD08B142
:107CA0000EF0B5FB0822002103A8FFF779FB06239D
:107CB000ADF80C30ADF80E30ADF8103003A82B2322
:107CC000ADF81230FFF752FD08B10EF0A0FBA64848
:107CD000002104F005FD08B10EF099FBAC22002153
:107CE00003A8FFF75DFBA14A0892A14AA1481278B8
:107CF0008DF88520002202232821CDE9232240F699
:107D0000B832CDE925128DF80C3040F2011240F264
:107D10000163ADF80E30ADF8882001234FF44862BE
:107D2000CDE92723ADF81C30ADF88630924B2C936B
:107D300003A9924B2D9302F04EFB08B10EF067FBA6
:107D40008C488F4C012102F043FB03A8FFF758FF3A
:107D50006388032B0BD98B488B4B9DF80D208B49E7
:107D6000C01AC008000440F004000AF0BBFA884BB7
:107D70001E789DF80D30B34213D003A88DF80D6026
:107D8000FFF74EFF6288032A03460AD97E487D4CDE
:107D90008049241AE4082404324644F004000AF01E
:107DA000AAFA7D4B7D48039303A904F077FE08B13E
:107DB0000EF02DFB43F2EF53ADF8063012230224F0
:107DC000ADF8083040220123002103A8ADF80A30A5
:107DD0008DF80440FFF7E4FA03A8714904F013FB9F
:107DE00003A811958DF8484002F02EFE08B10EF060
:107DF0000EFB1022002103A8FFF7D2FA0023039301
:107E0000012205936748684B8DF8102003A906935B
:107E100002F011FD08B10EF0FAFA644F644CDFF87D
:107E2000AC81082200213846FFF7BAFA2822002147
:107E30002046FFF7B5FA082200214046FFF7B0FAC6
:107E40004FF440737B8040F2012208232380A8F87E
:107E50000220238303224FF48273022540F202267C
:107E60004FF0010940F2011A22814FF48171228200
:107E7000638340F2031240F20513618162826384DE
:107E800048220021A4F802A0A680A571A681A573AE
:107E9000A682A575A683A577A4F82090A68484F869
:107EA000265003A83D80BE80A8F80090A8F8046082
:107EB000FFF776FA3F4B03933F4B049305238DF86E
:107EC0001630D323ADF830303C4B0B9300233C4AA3
:107ED0008DF8423011933B48ADF814A04FF00233B7
:107EE00003A906948DF81C90CDF820808DF824907D
:107EF0000A978DF838500F928DF84050ADF85060C9
:107F00008DF852501293ADF84C608DF84E5003F03E
:107F1000AEF908B10EF07BFA1C22002103A8FFF78E
:107F20003FFA00234FF4A032CDE903324FF4F022A0
:107F30000592ADF81A3003228DF81C30089303A87F
:107F4000214B8DF81820099304F074F808B10EF055
:107F50005EFA06F0D7FCD8B30EF059FA38E000BF4D
:107F600034600020E5600020BC650020E659002058
:107F7000E460002074610020B17702007D77020088
:107F8000705E002088EE040038EE0400D99D0400E5
:107F9000E4590020EF9D0400B57B0200006600203C
:107FA0000C9E0400A86500206402020238610020D3
:107FB0004C610020C1790200B97B02007C5B00208B
:107FC00001010003EC590020B17B02000C66002087
:107FD0000522002103A8FFF7E3F931238DF80C30C7
:107FE00007238DF80D3010238DF80E309DF80F30DB
:107FF00023F0030343F003038DF80F309DF8103096
:1080000023F0030343F0030303A88DF8103006F0B8
:1080100033FD08B10EF0FBF9054806F015FD08B177
:108020000EF0F5F9034B01221A702EB0BDE8F0876F
:10803000A17A02004261002008B50AF03FFB09F076
:10804000D1FF18B9BDE808400AF05CBA08BD0000CD
:108050004FF6FF73984270B504462BD0164D6B88CF
:10806000022B0AD91548164B16491B1ADB081B04AC
:10807000224643F003000AF035F9134E0023204650
:10808000337006F021FE08B10EF0C1F9337873B1F8
:108090006B88022B0ED90A48084B0C49C01AC0083D
:1080A0000004BDE8704040F003000AF017B9FFF784
:1080B000C3FFEBE770BD00BF705E002038EE040028
:1080C00088EE0400409E04004A6100203B9E0400AC
:1080D00007B50B46014628B11A460E48019320F019
:1080E000A9F9019B0C4A012111700C4A5288032AFC
:1080F0000DD90B4A0B480C49801AC008054A0004E8
:1081000040F0040003B05DF804EB0AF0F4B803B0EB
:108110005DF804FB1861002045610020705E0020BE
:1081200038EE040088EE04007E9E0400004870478C
:1081300018610020014B1888704700BFFC650020C3
:1081400010B5124C86B006AB03E9030006220DF110
:108150001101204620F06EF90D4B5B88032B13D9DB
:108160000C4B0D4822780D49C01A6379039323798B
:108170000293C008E37801930004A378009340F0D1
:10818000040063780AF0DBF806B010BD126100202D
:10819000705E002038EE040088EE04009A9E040011
:1081A000F0B503883B2B8DB0064600F08F8015D8C4
:1081B000112B5DD0212B71D0102B1ED03388352B85
:1081C00040F0A2807389002B00F09E80B18906F1F7
:1081D00010000DB0BDE8F040FFF77ABF562B00F05D
:1081E0008880572BEAD1494A00231370484A1370FC
:1081F000484A1370484A1370E0E7484B5B88022BEB
:1082000009D94748474B4849C01AC008000440F004
:1082100003000AF063F8454B454FB08838800022D0
:108220001A704FF6FF72ADF806204FF42852012362
:10823000ADF8082002A901AA06F10805ADF804303E
:108240008DF80A30FFF798FA0FCD03AC0FC40FCDAD
:108250000FC42B682360DDE90301FFF771FF398844
:10826000344804F02DFC0028A8D00EF0D0F8A5E783
:108270002A4B5B88022B09D929482A4B2E49C01A60
:10828000C008000440F003000AF028F82B4B00223D
:108290001A70274B4FF6FF721A808FE71F4B5B88CF
:1082A000032B09D91E481F4B2549C01AC0080004DA
:1082B00040F004000AF012F80023B0888DF80C306A
:1082C00003A98DF80D30FFF755FACCE7134B5B8807
:1082D000032B09D91248134B1A49C01AC0080004CD
:1082E00040F0040009F0FAFFB0881321FFF73AFAD2
:1082F000B9E70A4B5B88032BF6D90948094B1249A9
:10830000C01AC0080004EBE70DB0F0BD48610020C2
:1083100049610020466100204B610020705E002012
:1083200088EE040038EE0400CE9E04004361002075
:10833000EA59002000660020E49E0400416100200C
:10834000FD9E04001D9F04003E9F040000487047EE
:1083500012610020014B1878704700BF4161002076
:10836000014B1878704700BF42610020014B18781C
:10837000704700BF45610020014B1870704700BF77
:108380004561002007B50B490B4B09781B88024655
:1083900059B9009308220346084803F086F9B0FA59
:1083A00080F0400903B05DF804FB0821034803F0A6
:1083B000DBF9F4E747610020EA590020EC5900207E
:1083C0001FB5164B1A88164B1B78E3B940F6FF749D
:1083D000A042144BA8BF2046A142A8BF2146187056
:1083E00089B2C0F3032040EA011009115870997056
:1083F0000D4800920221032203F057F9B0FA80F0F1
:10840000400904B010BD002402924BB242B2CDE943
:1084100000442146044803F0EAF9EFE7EA59002056
:10842000476100200F610020EC5900201FB50F4B61
:1084300019880F4B1A787AB90E4B18705A709A70C7
:108440000D4800910322012103F02FF9B0FA80F0CA
:10845000400905B05DF804FB00230291CDE900332B
:1084600001461A46044803F0C2F9EFE7EA59002032
:10847000476100200C610020EC59002007B50B4B30
:108480000246187870B90A4B5A700A4A1870128856
:108490009970094800920121032203F006F9B0FA0D
:1084A00080F0400903B05DF804FB00BF4761002085
:1084B00009610020EA590020EC59002007B5074A5D
:1084C00012880092034608220321054803F0EDF8C4
:1084D000B0FA80F0400903B05DF804FBEA590020CF
:1084E000EC590020014B1878704700BF466100200E
:1084F000014B01221A7070474661002007B5074AF8
:1085000012880092034601220421054803F0CDF8A9
:10851000B0FA80F0400903B05DF804FBEA5900208E
:10852000EC590020014B1878704700BF4B610020C8
:10853000014B01221A7070474B61002008B50C4BAB
:108540001B78014693B10B4B0B481A8802F0E7F9F0
:10855000132807D943F20143984207D0BDE80840E9
:108560000DF055BF054BC340DB07F7D508BD00BF75
:1085700041610020EA590020A865002001810A001D
:1085800007B5064A12780132034600922421044AB4
:10859000044820F0BFFA03B05DF804FBE459002062
:1085A0005F9F0400E5600020014B1870704700BF1A
:1085B000E4590020014B1870704700BFE4600020B0
:1085C0007047000000230129036002D0022904D172
:1085D0000123044A02EBC30303600068B0FA80F091
:1085E00040097047689F040007B500230093684660
:1085F000054B019300F0BEFB012802D0012000F0E2
:10860000EBFB03B05DF804FBC185020000F00DBC7C
:10861000074A002302EB43014978814203D112F853
:10862000130000F00EBC01330E2BF3D10120704774
:10863000789F040000F0F7BB00F0B6BB07B5014619
:1086400001A8FFF7BFFF012803D0019B586800F085
:10865000CDFB03B05DF804FB37B50C460146684618
:108660001546FFF7AFFF012803D10124204603B0D0
:1086700030BD009B01A9586800F0C5FB0128F4D06B
:10868000019800F067FB21462A4601F043FD0128CE
:108690000446EBD0019800F061FBE7E737B50D46E3
:1086A00001466846FFF78EFF012804460BD0009B69
:1086B00001A9586800F0A7FB0128044603D00198DF
:1086C00000F044FB2860204603B030BD37B50D46AE
:1086D00001466846FFF776FF012804460DD0009B4F
:1086E00001A9586800F08FFB0128044605D00198C5
:1086F00000F030FB01F0AAFC2880204603B030BD1A
:1087000037B50D4601466846FFF75CFF0128044671
:108710000DD0009B01A9586800F075FB01280446A4
:1087200005D0019800F012FB01F08EFC2880204655
:1087300003B030BD00F088BB704710B50446082078
:1087400001F0ACFD2060002010BD38B505460C4698
:1087500011F0DAFA241841F10001C5E9004138BDF1
:1087600010B5044611F0D0FAD4E90023904271EB21
:1087700003032CBF0120002010BD0000BFF34F8F6A
:108780000549064BCA6802F4E0621343CB60BFF3AD
:108790004F8F00BFFDE700BF00ED00E00400FA05C9
:1087A000012905D9032905D1034B00221A7070470E
:1087B0000CF0B5BF704700BF38660020012905D90D
:1087C000032905D1034B00221A7070470CF04DB8F5
:1087D000704700BF35660020012905D9032905D15E
:1087E000034B00221A7070470CF03FB8704700BF6F
:1087F0003A660020023808B50C2852D8DFE800F0AD
:10880000223A515151516898825151075200564BAA
:108810005B88022B09D95548554B5649C01AC008E8
:10882000000440F0030009F059FD09F0DBFB0028CB
:10883000FBD1514B01221A70FFF792FD002830D076
:10884000FFF79CFF484B5B88022B09D94748484BF0
:108850004A49C01AC008000440F0030009F03EFD78
:1088600009F0C0FB0028FBD10AF0C2FC444B0122F6
:108870001A7016E03C4B5B88022B09D93B483C4BF5
:108880004049C01AC008000440F0030009F026FD6A
:1088900009F0A8FB0028FBD13B4B01221A70384B92
:1088A000187008BD304B5B88022B09D92F48304B1C
:1088B0003649C01AC008000440F0030009F00EFD5C
:1088C00009F090FB0028FBD1BDE808400AF074BC19
:1088D000254B5B88022B09D92448254B2C49C01A0B
:1088E000C008000440F0030009F0F8FC09F07AFB2E
:1088F0000028FBD10FF02CFE0028D2D1BDE80840A3
:108900000AF058BC184B5B88022B09D91748184B42
:108910002049C01AC008000440F0030009F0DEFC42
:1089200009F060FB0028FBD1BDE808400AF046BC16
:108930000D4B5B88022B09D90C480D4B1649C01A08
:10894000C008000440F0030009F0C8FC09F04AFB2D
:108950000028FBD10AF042FC0B4B1B78002B7FF464
:108960006FAF0E4B83E700BF705E002088EE0400FF
:1089700038EE0400949F04003D660020A09F040090
:108980003E660020AE9F04003C660020B99F0400B4
:10899000C49F0400D79F0400E19F04003B660020B1
:1089A000012908B51ED0032918D0D1B90CF0B7FAA7
:1089B0000E4B01221A700E4B5B88022B09D90D4811
:1089C0000D4B0E49C01AC008000440F0030009F026
:1089D00085FC09F007FB0028FBD102E0084B0022D0
:1089E0001A7008BDBDE808400CF099BA3666002040
:1089F000705E002088EE040038EE0400F39F04004F
:108A00003766002007B54FF080521B48536E126E38
:108A100000921121194A20F07DF819480AF03EFB16
:108A200008B10DF0F4FC17480AF0FCFB08B10DF09A
:108A3000EEFC154B154818600AF0F4FB08B10DF078
:108A4000E6FC13480AF0EEFB08B10DF0E0FC11481B
:108A50000AF0E8FB08B10DF0DAFC01F005FA0AF0C3
:108A600091FB08B10DF0D3FC0AF0A4FB03B05DF854
:108A700004EB0AF0A3BB00BF1566002022A004008F
:108A800054A204007CA1040028660020F8A1040080
:108A900094A00400DCA00400044B187818B1044B27
:108AA000187880F0010000F0010070473C6600205B
:108AB0003B660020014B1878704700BF3E660020DF
:108AC0000AF0A0BB38B5114D0AF066FE01F03AFA83
:108AD00001F008FA2A6841F287339A42044613DC0F
:108AE000C2F59C5308339BB2984204D3581E084BDE
:108AF000012184B2197007482146104401F000FAA0
:108B000028682044286038BD0023EFE74067002034
:108B100039660020F667002008B5054BC3E900015F
:108B2000194681200AF06CFCB0FA80F0400908BDBB
:108B30009C6700200A46014601480CF0AFBD00BF0B
:108B4000F8A10400014601480CF00CBDF8A1040096
:108B5000014601480CF03ABDF8A104000146014865
:108B60000CF068BDF8A10400014B1878704700BFF5
:108B700035660020014B01221A70704735660020CF
:108B800010B5094C2346032203F8012B4A00014685
:108B900018461FF04FFC0922214604480BF0B5FE91
:108BA000B0FA80F0400910BD2C66002094A00400AB
:108BB000014B1878704700BF3A660020014B012234
:108BC0001A7070473A66002010B5094C23460A46D1
:108BD000042103F8011B014618461FF02BFC02225A
:108BE000214604480BF091FEB0FA80F0400910BD18
:108BF000F4670020DCA00400044B1B7813B9044B7D
:108C00001868704741F28730704700BF396600200E
:108C10004067002000487047F6670020024A0023A2
:108C20001360024A137070474067002039660020C5
:108C300070B506460D4675B101F06AF9044638B1C3
:108C4000A84228BF2C46A1B2304601F073F918B1F2
:108C5000FFF738FFEFE72C462D1B2644EBD170BD04
:108C600000F016B808B500F039F8BDE8084000F08B
:108C70003BB81FB50FC86C4684E80F0000231022D4
:108C800021464FF0FF30029301F076FB04B010BD97
:108C900038B5114C4FF4FE2565602B68012B12D1BD
:108CA0006B68102B0FD12846FFF7E3FFAB689842A3
:108CB00009D163680FCB04F1080585E80F00012393
:108CC0002370002038BD10230122C4E902230023B1
:108CD000C4E90433F3E700BF807B0020014B01228D
:108CE0005A617047807B002010B5104C10226068DC
:108CF00004F108011FF06CFBB0B1606810F0B2F82D
:108D000004F10800FFF7B5FF0422206104F1080117
:108D1000606810F0BFF86068102204F108011FF0CD
:108D200057FB003818BF012010BD00BF807B00201A
:108D300010B50446082001F0B1FA2060002010BDF3
:108D40000B6803604B68436000207047436800680D
:108D50005B681847436800689B69184743685B6A0B
:108D60000BB100681847704783680BB1406818471B
:108D70007047000037B50A4C00940023238002237B
:108D80000546A3706846074B019300F0E9FD0128F2
:108D90001FBF2B6863606B68A36003B030BD00BF6A
:108DA000987B0020698D020037B50A4D2B787BB97E
:108DB000AB788DF8043001A800F000FE01280446CD
:108DC00003D001232B70FFF7B7FC204603B030BD62
:108DD0000124FAE7987B0020034A0346107808B97B
:108DE0009370704701207047987B002010B50446AF
:108DF00000F0EEFD28B124B12046BDE8104000F09F
:108E0000F7BD012010BD13B50446019100F0E0FD4F
:108E100030B10199204602B0BDE8104000F0F4BD29
:108E2000012002B010BD00F0F9BD4FF08053D3F81F
:108E3000A400030E552B01D0AA2B01D180F0404095
:108E4000704700F0EDBD000010B50C4C2378012BED
:108E500005D0032B0CD0BDE8104000F0E3BD00F0BE
:108E6000B7FD10B14FF481732380FFF765FCF2E783
:108E700000F0B6FD0028F8D00023F5E7987B00202D
:108E800037B5002401AB18190EF0B2F860BB0134FD
:108E9000032CF7D1154B9DF80420154903EBC200B4
:108EA000086001461348043101609DF8051012481E
:108EB00003EBC10404602046104C043020609DF890
:108EC00006000F4C03EBC00525602B460D4C043308
:108ED0002360012303FA01F103FA02F20A430A496B
:108EE0000A600A4A8340136003B030BD10F50140A8
:108EF000AC7B0020B87B0020B07B0020BC7B002036
:108F0000B47B0020C07B0020A47B0020A87B002035
:108F100020B1034B800143F001031847704700BFA5
:108F200060A204000DF050BF0DF05ABF1DF0A8BCA8
:108F30001BF07CBA1EF04EBA70B58AB0064600F03F
:108F400023FE0446304600F024FE054620461BF072
:108F5000F7FB00281BDD284601F078F8202803469F
:108F600028BF20239BB201AA02A9204601931BF02F
:108F7000A1FB60B1019B13B1304600F022FEBDF8A9
:108F8000042002A9284601F0C5F80128DED10AB064
:108F900070BD000010B4064CE3680A4623B10146D8
:108FA00060685DF8044B184701205DF8044B70477A
:108FB000C47B002007B501A9FFF7ECFF10B90198A9
:108FC00000F013FE03B05DF804FB13B501A90446DD
:108FD000FFF7E0FF20B120461BF0BEFB02B010BD42
:108FE000019800F0F6FD0028F8D00198FFF7A4FFE3
:108FF000019800F0F1FDF1E770B588B0044600F08B
:10900000C3FD0646204600F0CAFD054630461BF06B
:109010008BFB022821DC284601F016F80446E0B15B
:10902000202828BF2024A4B222466946284601F001
:10903000F9F8012811D02246694630461BF0E0FAC3
:1090400068B91BF06FFC00F0FD00082805D1064A46
:10905000936813B150680121984708B070BD21B2E0
:10906000284600F0F9FFD1E7C47B002007B501A92D
:10907000FFF790FF48B9019800F0B1FD28B10198C1
:10908000FFF7BAFF019800F0ADFD03B05DF804FBF7
:1090900010B5044600F0A3FD50B12046FFF7ACFF29
:1090A000204600F08BFD204600F09CFD002010BD06
:1090B0000220FCE710B50446FFF7EAFF58B9204646
:1090C00000F08DFD38B12046FFF796FF2046BDE841
:1090D000104000F087BD10BD10B5044600F079FDCA
:1090E00050B12046FFF728FF204600F05BFD2046E8
:1090F000BDE8104000F070BD10BD000037B5154D43
:109100002C780CBBC5E901446C70AC70EC60FFF7C7
:10911000B7FE02201BF0C8F998B10F4B18680090F9
:109120001B798DF80430052168461BF043FB40B1E4
:109130004FF416701BF090FB18B102201BF0C2FB1D
:1091400020B9012003B030BD0020FBE701232B70C4
:109150002046F7E7C47B00206DA2040010B50E4C3A
:1091600062780AB1012010BD436863608368A36020
:10917000C368E3600078012802D00228F2D11046CB
:109180001BF0FAFA0028EDD01BF01EFA0028E9D0F7
:10919000012363700020E6E7C47B0020034B9A782C
:1091A0001AB901229A701BF01FBA7047C47B0020C5
:1091B000014B5878704700BFC47B002008B51BF0F6
:1091C00027FB80F00100C0B208BD00000A4A08B5C4
:1091D000002312F81310814208D102EB43035878A0
:1091E0001BF028FB80F00100C0B208BD01330E2B3C
:1091F000EFD10120F9E700BF73A2040013B502AB61
:1092000003E906000446FFF731FF9DF8003013B173
:109210002046FFF7DAFE204602B0BDE81040FFF717
:10922000C9BE82B002AB03E9060002B0FFF71EBF61
:1092300013B50446FFF7C9FE2046FFF717FF204687
:1092400002B0BDE81040FFF7B5BE0000054B10B5F9
:1092500000249C705C70204601341BF07DFA082CC1
:10926000F9D110BDC47B0020704710B50446FFF74C
:1092700033FF204600F08AFCBDE8104000F0E4BE59
:1092800010B50446FFF728FF2046BDE8104000F067
:109290007DBCF7B5054601911646FFF71DFF284630
:1092A00000F074FC01993246074600F0BBFF01282C
:1092B000044606D0384631B200F0CEFE2846FFF70D
:1092C0000BFF204603B0F0BD37B505460191FFF70F
:1092D00003FF284600F05AFC0199002200F069FFC4
:1092E0000128044602D02846FFF7F6FE204603B0C8
:1092F00030BD10B50446FFF7EFFE2046BDE8104034
:1093000000F062BC38B50446FFF7E6FE204600F0E8
:109310003DFC054600F098FE01B2284600F09CFE98
:109320002046BDE83840FFF7D7BE10B50446FFF72A
:10933000AFFE204600F030FCBDE8104000F086BED5
:1093400010B50446FFF7A4FE2046BDE8104000F02B
:1093500023BC37B505460191144662B1FFF798FE6C
:10936000284600F019FC2246019900F0D3FE04467D
:109370002846FFF79FFE204603B030BD70B5054676
:1093800008460E4600F060FE044670B12846FFF71E
:109390007FFE284600F000FC00220146304600F027
:1093A00008FF04462846FFF785FE204670BD37B506
:1093B000044600F014FC98B1204600F0E5FB054699
:1093C0001BF0B2F9022805DC00220DF10701284646
:1093D0001BF016F9204600F005FC002003B030BD5C
:1093E0000220FBE710B5044600F003FC2046BDE870
:1093F0001040FFF75FBE022070470000014B587815
:10940000704700BFD47B0020024B587880F00100E9
:10941000704700BFD47B002010B5837804464068B5
:10942000BBB1012B1ED06068FFF7DCFF63785BB334
:1094300063694BB32069FFF793F928B36068FFF7BE
:10944000B6FF012820D0D4E90401BDE81040FFF7A1
:109450007CB9FFF74EFF0028E5D00123A370FFF78A
:109460006BF9E0E700F090FB1BF05EF910B1002310
:10947000A370D8E76068FFF79AFF0128D3D00028CF
:10948000F5D00228CFD1EAE710BD037A0BB1FFF780
:10949000C3BF704770B5084D064668680C4600F0BB
:1094A00073FB864205D12B7A23B16B6800202360C1
:1094B00070BD00230120FAE7D47B002070B5084D71
:1094C0002B7A06460C461BB900230120236070BD91
:1094D000686800F059FB8642F6D1EB680020F5E79A
:1094E000D47B002038B50E4D6B7804460BB90120B3
:1094F00038BD2B7A68682BB100F046FB201A18BFE4
:109500000120F5E7214600F03CFB0128EFD0686818
:1095100000F017FB01281CBF01232B72E8E700BFF6
:10952000D47B0020034B002258685A701A7200F056
:1095300015BB00BFD47B00204068FFF701BF406827
:10954000FFF7F3BE4068FFF7DDBE4068FFF7BCBE23
:109550004068FFF79EBE4068FFF792BE4068FFF785
:1095600084BE00000248037A0BB1FFF755BF704775
:10957000D47B002008B5054B1A7801202AB1587019
:10958000D3E90401FFF7E1F8002008BDD47B0020F7
:1095900038B504464068FFF7DCFE0128054603D0D5
:1095A000D4E90401FFF7D1F8284638BD38B50446A0
:1095B0004068FFF7E3FE0128054603D0D4E9040123
:1095C000FFF7C3F8284638BD012937B504460D46D4
:1095D00003D0022901D003B030BD237A002BFAD08A
:1095E000606800F0D1FAE3690190002BF3D0A06924
:1095F00001AA29469847EEE770B5224C267886B036
:10960000054626B96670FFF779FD012801D10120D2
:1096100035E02B6803A9CDE90334201D1A4B0593CF
:1096200000F04CFA0128F2D004F10C002672FFF78A
:109630007FFB0128EBD0154BE068019401A9029350
:10964000FFF77EFB0128E2D03046A6701BF04CF9F4
:109650000F201BF025F930461BF048F91E201BF0A7
:109660000DF904F11000FFF768F80128CFD06B68FE
:109670006361AB68A361EB68E3610123237006B00B
:1096800070BD00BFD47B0020C995020090A20400E9
:1096900000487047B8A2040001207047034B1A78B5
:1096A00001200AB158700020704700BFF47B0020F1
:1096B000014B5878704700BFF47B0020024B58786C
:1096C00080F00100704700BFF47B002070B50A4BAA
:1096D00003EB800304465E68B0680D4600F054FA60
:1096E000844205D1337923B1B36800202B6070BD6B
:1096F00000230120FAE700BFF47B0020037913B1B7
:109700008068FFF76FBE704770B50A4B03EB8003AC
:1097100004465E6833790D461BB9002301202B6097
:1097200070BDB06800F030FA8442F6D1F3680020D2
:10973000F5E700BFF47B002038B50F4B5A7804469C
:109740000AB9012038BD03EB80035D682B79A86856
:109750002BB100F019FA231A58425841F2E721467A
:1097600000F00FFA0128ECD0A86800F0EAF901280F
:109770001CBF01232B71E5E7F47B002070B5074E79
:1097800000257570012456F82430013498681D7145
:1097900000F0E4F9092CF6D170BD00BFF47B002085
:1097A0008068FFF7EBBD8068FFF7D3BD8068FFF7E7
:1097B000C7BD8068FFF7B9BD8068FFF7A3BD8068AB
:1097C000FFF782BD8068FFF764BD8068FFF758BD72
:1097D0008068FFF74ABD000038B5064D012455F8F2
:1097E00024301A7912B19868FFF7FCFD0134092C76
:1097F000F5D138BDF47B0020012937B50C4603D0E4
:10980000022901D003B030BD0379002BFAD00568DE
:10981000806800F0B9F90190AB6A002BF2D0686A59
:1098200001AA21469847EDE72DE9F043204C237823
:1098300087B00546002B38D16370FFF75FFC012825
:109840001BD01C4FDFF870800126102000F026FD91
:109850000023046003712B680597CDE9033081462E
:1098600003A9083000F02AF9012806D009F10C00FC
:10987000FFF75EFA012803D1012007B0BDE8F083AD
:10988000D9F80C0001A9CDE90198FFF759FA012890
:10989000F2D044F826900136092ED6D16B68636267
:1098A000AB68A36201232370E7E70020E5E700BF70
:1098B000F47B0020F9970200DCA204000048704706
:1098C00004A3040003690BB1C0681847704701295D
:1098D00006D1037823B1037A13B940F2011303814F
:1098E0007047000030B50128174D85B005D002281B
:1098F00018D000236B601B68FFDEFFF7DFFF686096
:1099000003689847114B8DF8000002936846104B8E
:1099100001950393FFF722FC012806D101240023BF
:109920006B600EE0FFF7B4FEE9E76B689B68984751
:1099300001280446F2D001232B70FEF7FDFE002C17
:10994000EDD1204605B030BD207C0020CF9802002C
:1099500055990200034608465B6811465B68184744
:10996000F0B585B00546FFF7C9FB012802D10120FB
:1099700005B0F0BD0F4C104E01944FF00127684622
:1099800000970296FFF750FF0128F0D04FF47A734A
:109990006846CDE9013400970396FFF72DFE0128B4
:1099A000E6D000236360237223702B68E3606B684A
:1099B0002361DDE7207C0020C5980200034B1B7863
:1099C00013B90078FFF78EBF01207047207C00207C
:1099D000024B1878003818BF01207047207C002007
:1099E000024B1878B0FA80F040097047207C0020C4
:1099F000044B1A78012A02D15B689B691847012041
:109A0000704700BF207C0020034B5B680BB1DB6913
:109A100018470120704700BF207C0020FFF7CEBB15
:109A2000FFF7D4BB70B51A4C2378012B02D0022B60
:109A300013D070BD237A43B96368002BF9D01B6A39
:109A4000002BF6D0BDE870401847FFF7A7FB0223B4
:109A50002370BDE87040FEF76FBEFFF7A9FB054617
:109A60000028E6D120722070FEF766FE667A56B1B5
:109A7000636865721B6898472378002BD9D1BDE8CD
:109A80007040FFF72FBF6368DB6898476660D0E7D8
:109A9000207C0020436A0BB1006A1847704710B55C
:109AA0000023044603744FF47A71C069FEF74DFE3B
:109AB00003232371BDE81040FEF73EBE7FB5064686
:109AC00028200D4600F0EAFB4FF0FF3330600126FE
:109AD000036006710446FEF72FFE2B888DF80460A4
:109AE00001A9002604F108000296ADF80C3000F040
:109AF000E3FB012802D1012004B070BD02238DF8E0
:109B0000043001A96B88029604F10C00ADF80C300A
:109B100000F0D2FB0128EED004F114002682A674D6
:109B200000F018FA04F1180000F014FA04F11C0017
:109B3000FEF703FE01281FBF6B682362AB686362F8
:109B4000DAE710B54FF47A710446C069FEF7FDFDFF
:109B500002232371FEF7F0FD002010BD4FF0FF330C
:109B600010B50446036001230371FEF7E5FDA0680C
:109B700000F0C8FBE06800F0C5FB00236374A37429
:109B800010BD01600020704700687047806800F0D9
:109B9000B5BB806800F0B4BBC06800F0AFBBC06864
:109BA00000F0AEBB10B50446806800F0B5FB637CE6
:109BB0001BB10123A3740023637410BDC06800F0BF
:109BC000ABBB01234374704703460022807C9A7428
:109BD0007047406900F0C0B9406900F0BFB98069C2
:109BE00000F0BAB9806900F0B9B901230374FEF737
:109BF000A3BD10B50379032B044618D0042B1DD048
:109C0000022B1ED1037C43B12046FFF748FF012100
:109C10002046BDE81040FFF73DBFE069FEF7A0FD1C
:109C200078B104232371FEF787FD0221F0E7037C5E
:109C3000002BF2D0BDE81040FFF731BF037C002BB2
:109C4000E2D110BD10B50446006900F085F938B1C5
:109C5000A06800F061FB206900F080F9002010BDD1
:109C60000220FCE7F7B50446FFF7ECFF00284CD1D3
:109C7000206900F071F9002847D0637F2BBBA068F2
:109C800000F03EFB064600F0E1F9F0B160680CF030
:109C9000A8FA87B2FFB9304600F0D8F9A8B130462B
:109CA00000F0C5FA0190304600F0C5FA024660B1F6
:109CB00001236377636801991B68C3F88470606847
:109CC0000CF092FA922818BF6777206903B0BDE8BC
:109CD000F04000F043B9304600F0A9FA0190304658
:109CE00000F0A9FA05460028EFD0B84228BF3D464B
:109CF000ADB22A46019960680CF076FA29B2304676
:109D00007D1B00F0BDF9AFB2C4E703B0F0BDF7B5FD
:109D1000054601911646FFF795FFA86800F0EEFA98
:109D200001993246074600F07DFA0128044603D027
:109D300031B2384600F090F92846FFF793FF2046ED
:109D400003B0F0BD10B50446406900F005F938B124
:109D5000E06800F0E1FA606900F000F9002010BD51
:109D60000220FCE7F8B50446FFF7ECFF28BB60696A
:109D700000F0F2F808B3257FD5B9E06800F0C0FA2A
:109D8000064600F061F998B12946304600F06EFAB7
:109D900029460746304600F072FA01230246208326
:109DA0002377606839460CF0F7F908B125832577E9
:109DB0006069BDE8F84000F0D1B8F8BD38B50329B6
:109DC00015D8DFE801F02415020919480123C376EC
:109DD000BDE83840FFF746BF154C0025A068E57682
:109DE00000F090FAE06800F08DFA2583A58338BD75
:109DF0000F4C0023E068237700F082FAB4F91810C2
:109E000000F02AF92046BDE83840FFF7ABBF084C08
:109E10000023A068637700F073FA054660680CF0D1
:109E2000DCF901B2284600F02BF92046D0E700BF4C
:109E3000347C002037B5C37E01910546144683B1BA
:109E400062B1FFF77FFFE86800F058FA22460199F7
:109E500000F060F904462846FFF784FF204603B06F
:109E600030BD0124FAE70000F0B51C4CA57E85B09A
:109E700035BB0126802701A904F108008DF8046094
:109E80000295ADF80C7000F017FAB04202D1012033
:109E900005B0F0BD022301A904F10C008DF80430D7
:109EA0000295ADF80C7000F007FA0128EFD004F12C
:109EB000100000F04FF804F1140000F04BF8A67603
:109EC00007480023C4E900002383E376A38309F055
:109ED000A9F9003818BF0120DAE700BF347C002060
:109EE00028A3040010B5054C2046FFF7ABFEA06880
:109EF00000F004FABDE8104000F0A6B8347C002061
:109F00000A4601460148FFF702BF00BF347C00202B
:109F100010B5074CE07E48B12046FFF713FFE0681C
:109F200000F0ECF9BDE8104000F090B810BD00BFA3
:109F3000347C00200A4601460148FFF77BBF00BF82
:109F4000347C00200248C37E0BB1FFF70BBF704783
:109F5000347C002000F004B800F00DB800F015B813
:109F600010B50446042000F099F900232060036036
:109F7000BFF35F8F10BD08B5012106F0EAFABFF309
:109F80005F8FB0FA80F0400908BDBFF35F8F0023F8
:109F900003607047012B2DE9F041074688461E46B5
:109FA00004D1436809789954BDE8F081002BFBD0B7
:109FB00005894068D318AB4210440CDDAC1AA4B23A
:109FC00022461EF037FA7868321B08EB0401BDE820
:109FD000F0411EF02FBA3246F9E700234381C360F7
:109FE000438A03827047438A8B421FBFC3894182E1
:109FF000C91A01827047018909B1013989B2FFF795
:10A00000F2BF70B5064614200D4600F047F93060E7
:10A0100004462868AD8818B915B1284600F03EF905
:10A02000606025812046FFF7D8FFFFF7E4FF00239B
:10A030002370184670BD0A894968016082807047A4
:10A040004089704780897047C0897047008A70478F
:10A050000089013880B27047002910D043890289F5
:10A0600089B2D8BF9B180B449BB29A4298BF9B1AE7
:10A070004381C3895B1AC381038A194401827047F3
:10A08000002910D08389028989B2D8BF9B180B445C
:10A090009BB29A4298BF9B1A8381C3890B44C381A8
:10A0A000038A591A0182704742898A42F0B414D057
:10A0B0000489C78916B20DB2AE42CABF0B198B1AFA
:10A0C0009B1A1BB2BB4204DDAE42B8BF1219891AFB
:10A0D0000BB2F0BC1946FFF7BFBFF0BC70478289D6
:10A0E0008A42F0B414D00489078A16B20DB2AE4287
:10A0F000CABF0B198B1A9B1A1BB2BB4204DDAE42BE
:10A10000B8BF1219891A0BB2F0BC1946FFF7B8BFD5
:10A11000F0BC704738B5038A93420446154609D30C
:10A1200013468289FFF736FF204629B2FFF7A8FFC2
:10A13000002038BD0120FCE72DE9F04180460D46A6
:10A1400016461C46CBB107897B1E9BB29C4219D890
:10A15000138AA34216D341682B19BB4229440FDD51
:10A160007A1B92B23046E41BFFF7D4FF2544D8F89F
:10A170000410AAB23046FFF7CDFF0020BDE8F08101
:10A180002246F7E70120F9E738B5C3899342044630
:10A1900015460CD313460A464189FFF7CDFF012827
:10A1A00003D029B22046FFF757FF002000E001202E
:10A1B00038BD38B514460D8AC289954228BF154668
:10A1C0002A46FFF7E1FF012801D004B1258038BD00
:10A1D000F8B51C46C389A34205460E4617461DD353
:10A1E000012C04D143685B5C13700020F8BDBCB146
:10A1F000028941683319934231440CDD921B384681
:10A200001EF018F928896968221A801B32443844E4
:10A210001EF010F9E9E722463846F9E70120E5E7A4
:10A220002046E3E713460A464189FFF7D1BF8389F9
:10A2300040681844704743898289934203D9013B9F
:10A24000981A80B27047008903B90138801AF8E77C
:10A25000002A09D0008992B2D8BF0918114489B2E6
:10A2600088429CBF091A89B20846704708B50AB2ED
:10A2700003464189FFF7ECFF5B68184408BD10B541
:10A280000AB204464189FFF7E3FFA389834236BF40
:10A290002289181A101A80B210BD000005498307E0
:10A2A0000A681CBF031D23F0030010440860104619
:10A2B000704700BF705C00207FB506460C200C463E
:10A2C000FFF7ECFF2146306011F8043B054600F82B
:10A2D000043BFFF796FE01280ED06C4669682046C5
:10A2E000FFF7A9FE94E8030002AB83E803001946D8
:10A2F00005F10800FFF785FE04B070BD40687047A7
:10A300008068704710B504464068FFF766FEA06895
:10A31000BDE81040FFF761BE37B50378012B044656
:10A3200003D0022B14D003B030BD4068FFF788FE85
:10A330000190A068FFF786FE01990546A068FFF727
:10A34000B3FE6068294603B0BDE83040FFF7C7BEE2
:10A350004068FFF777FE0190A068FFF771FE019952
:10A360000546A068FFF7BBFE6068294603B0BDE85C
:10A370003040FFF799BE000010B5074C0A449142E7
:10A3800001D1C04310BD11F8013B4340DBB254F88A
:10A39000233083EA1020F2E74CA3040072DF7047F9
:10A3A00073DF704738B5012204460D46B0F8141427
:10A3B000D0F8100401F02EFD00B1057004F13C024C
:10A3C00004F5826104F15400BDE83840FFF7E6BFB0
:10A3D00080F830107047F8B504460F4600296DD05C
:10A3E00000286BD091F87A301BB191F89830002B8F
:10A3F00066D14FF0000C84F802C007F178060FCE4A
:10A40000251D0FC50FCE0FC596E8070085E807008C
:10A4100084F830C0D7F8A4306363D7F8A830A363BA
:10A420004FF6FF7504F58263C4F82034A4F8245471
:10A430000722614604F22640FCF7B2FF23780BB9ED
:10A4400084F8545094F82430002B14BFEE231F23BB
:10A4500004F15501C4F81014A4F8143404F21442A1
:10A46000384601F0EAFA40BB94F82430002B14BFC0
:10A47000EE231F2304F23121C4F81814A4F81C346D
:10A4800004F21C4207F13C0001F0D7FAA8B9A36915
:10A49000A4F848304FF480730125A4F85030636964
:10A4A0002064014684F83C50636404F13C0204F1EA
:10A4B0005400FFF773FF00B92570F8BD0E20FCE7CC
:10A4C0000720FAE7F8B5077804460D46002F00F09C
:10A4D0000A8100F226468170072200213046FCF7EF
:10A4E0005FFFE38813B1A378012B04D0E3794BB16C
:10A4F000A378022B06D1636BABB1012284F82D2423
:10A500000820984704F2274304F22D4113F8012B49
:10A5100012B99942FAD117466B1E032B57D8DFE8C0
:10A5200003F0050B0F1284F82D34EBE7A3791BB170
:10A5300094F8243003B95FB9E3790BB1002F48D107
:10A54000237A002B47D1637A002B0CBF002504250A
:10A55000636BA570002B40D0033D012D3DD862797F
:10A56000002A3AD094F82E24002A36D184F83024D8
:10A57000012284F82F240720984704F13C05182273
:10A5800000212846FCF70CFFE26A0123511E994284
:10A5900084F83C3001D9042A00D1D3B294F82420A5
:10A5A00084F8513042B1A36A591E012902D9042B03
:10A5B00018BF012384F85230A178002384F850306A
:10A5C00004291BD8DFE801F0770D2235590000255A
:10A5D000BEE70225BCE70325BAE7002384F82F3441
:10A5E000CBE7C4E91063C4F820340223012284F8C5
:10A5F0003C30802384F83120A4F84830A378002B25
:10A600005CD1636B002B6AD1002067E00223002A33
:10A6100084F8313014BF0723032384F83C302369C6
:10A62000A4F848300023C4F82034E3682664636447
:10A63000E4E763696364A369A4F8483012B10623B0
:10A6400084F83C306379B3B194F82E349BB994F814
:10A65000303483B1022384F8503004212046FFF7C0
:10A66000A1FE0028CAD1052384F8313004F58263A5
:10A67000C4F82034C2E70323F6E7E3696364236A7E
:10A68000A4F8483012B1062384F83C30637983B1D2
:10A6900094F82E346BB994F8303453B1022384F813
:10A6A000503004212046FFF77DFE0028A6D1062366
:10A6B000DAE70423D8E784F831309FE7D4F8201490
:10A6C0002A4604F15400FFF769FE38B994F83010B7
:10A6D00094F85400FFF764FE002892D0F8BD94F877
:10A6E0003100984790E70820F8E710B50388112B50
:10A6F0000C460AD0262B1FD0102B05D1C37B012B73
:10A7000002D18388A1F8243410BD002381F82E34AF
:10A710008288B1F824349A42F6D10B79002BF3D118
:10A7200001212046FFF7CEFE0028EDD0A36B002BC1
:10A73000EAD0BDE810401847037A013B012BE3D86B
:10A74000897805230131B1FBF3F303EB8303C91AC5
:10A75000C9B2E6E710B590F82D344BB1002480F86B
:10A760002D44072200F226401DF064FE204610BD55
:10A770000820FCE790F82F345BB1009900230A43CE
:10A7800014BF01221A4680F82F3480F8302418466E
:10A7900070470820704770B50546164608460AB946
:10A7A0000E2070BD00231360002DF9D02B68002B04
:10A7B000F6D0EB8813F003040ED101F0A1FDC0B276
:10A7C00014280BD02B7983420AD9EA882B6800FB26
:10A7D000023030602046E4E70720E2E70520E0E7AA
:10A7E0000420DEE7A8DF7047ACDF7047AEDF7047BC
:10A7F00037B505460C46E1B1D8B10388502B18D1C6
:10A800004B7CB3B1C2884B899A4212D1038A022B86
:10A810000FD10B686BB1123001F0EBFDAB88ADF8D6
:10A82000063080F001008DF80400236801A920465D
:10A83000984703B030BD2DE9F0410E4690B0054673
:10A8400000286AD0002968D00B6803600B79437434
:10A85000FF2303742A1D012041F60F0302A98DF87E
:10A860000A00ADF80830FFF7BDFF044600284ED1BE
:10A870002022337B8DF8033001460DEB0200FCF7FC
:10A880008FFD42F61923ADF820304FF001130993E4
:10A890000DF103030A936B7C9DF82D20A8881B0102
:10A8A00043F0020322F0120203F0120313438DF867
:10A8B0002D30B37B8DF83330AA1D737B8DF831308A
:10A8C00008A901F0A9FD044608BBB16819B30DF150
:10A8D0000408404601F091FD21460746142203A8D2
:10A8E000FCF75EFDB8B242F60813ADF80C30ADF8D7
:10A8F0001600F37BADF81A0005F10E02E8888DF81A
:10A90000123003A9CDF81C8001F030FE0446204629
:10A9100010B0BDE8F081E881F9E70E24F7E72DE9F2
:10A92000F04194B016468DF807100546002857D020
:10A93000027CCBB29A4255D003AF082200213846A0
:10A94000FCF72EFD4FF001080DF10703E988CDF863
:10A950000C803A464FF6FF700493FFF745FF04461C
:10A9600010BB9DF807302B746B7C002B3CD001464C
:10A97000102205A8FCF714FDEB88ADF81430BDF8E3
:10A980000E30ADF81830049B08934FF6FE739E42CC
:10A990008DF8168007971DD109A801F0A7FC0AAF12
:10A9A0002546099B9D4203D3204614B0BDE8F081A3
:10A9B00037F8026B304601F051FC022805D105A999
:10A9C000304624B9FFF712FF04460135E9E7FFF7E7
:10A9D0000DFFFAE705A93046FFF708FF0446E3E755
:10A9E0000E24E1E70024DFE70824DDE7A8DF704755
:10A9F000F0B5074689B014461E460D4611B9084603
:10AA00000BF005FD14B920460BF001FD20220021BA
:10AA10006846FCF7C5FC9DF80D300E9AADF8007045
:10AA200043F002038DF80D30064BADF80440188852
:10AA3000ADF80640694602958DF8116001F0ECFC16
:10AA400009B0F0BD189D002030B587B041F60A036B
:10AA50005C4AADF80C30044603A901208DF80E00C5
:10AA6000FFF7C4FF0546002849D12288002A49D1B2
:10AA7000228952B1544B0093E16894F83C3042F67D
:10AA80002420FFF7B5FF002847D1228A52B14F4B4F
:10AA90000093616994F83C3042F62520FFF7A8FF47
:10AAA00000283AD1228B52B1494B0093E16994F8C6
:10AAB0003C3042F62720FFF79BFF00282DD1228C47
:10AAC0004AB1444B0093616A94F83C3042F6262028
:10AAD000FFF78EFF08BB228D4AB13F4B0093E16A1E
:10AAE00094F83C3042F62820FFF782FFA8B9236B88
:10AAF000ABB9616B002938D1A36B002B42D128463A
:10AB000007B030BD354B0093616894F83C3042F695
:10AB10002920FFF76DFF0028AAD00546EFE71A6845
:10AB20008DF810201A68120A8DF811205A888DF8B5
:10AB30001220DA788DF813205A688DF814209B685B
:10AB40008DF815301A0A1B0C8DF81730244B8DF830
:10AB500016200093082294F83C3004A942F62320E2
:10AB6000FFF746FF0028C4D0D7E71E4B0A790093B1
:10AB7000096894F83C3042F62A20FFF739FF002894
:10AB8000BAD0CAE71A788DF810205A888DF81120AB
:10AB9000120A8DF812209A888DF81320120A8DF867
:10ABA0001420DB888DF815301B0A8DF816300E4BFB
:10ABB0000093072294F83C3004A942F65020FFF796
:10ABC00017FFAAE7189D0020F89C0020109D002088
:10ABD000E89C0020E09C00201A9D0020F09C0020B2
:10ABE000229D0020089D0020009D0020A8DF7047C6
:10ABF000A9DF7047ACDF7047AEDF7047B0DF70474A
:10AC000064DF7047F0B513241C80D0F87C41059EAA
:10AC10004CBBD0F88041002C49D1D0F88441002CA5
:10AC200067D10020F0BDD0F87C7137F834401F8820
:10AC30003C441C80877CECB2A742EAD90CFB040799
:10AC40000135B7F814E08E454FEAC407EBD142F660
:10AC50004D23138001239370D470D0F87C21D25BF4
:10AC600032800120DEE700254FF00A0CE2E7D0F841
:10AC7000807137F834401F883C441C8090F878700D
:10AC8000ECB2A742C9D90CFB04070135B7F87AE04A
:10AC90008E454FEAC407EAD142F64D2313800223C2
:10ACA0009370D470D0F88031DB5B3380D9E7002516
:10ACB0004FF00A0CE2E7D0F8847137F834401F886F
:10ACC0003C441C8090F8DE70ECB2A742A9D90CFB82
:10ACD00004070135B7F8E0E08E454FEAC407EAD132
:10ACE00042F64D23138003239370D470D0F884313F
:10ACF000DAE700254FF00A0CE4E72DE9F0431546AA
:10AD00008BB004468846D0F87801A9886A461E466A
:10AD1000FFF741FD10B1636803B19847009F8FB3FF
:10AD20000021102201A8B5F80E90FCF739FB012391
:10AD30008DF804300023ADF80830BDF84830A888FD
:10AD4000ADF80C90A3EB0903ADF80E309DF80A3076
:10AD50004E44374443F0010301A904978DF80A30AB
:10AD6000FFF74CFF10B1636803B1984723684BB1FC
:10AD7000D8F80000069007228DF81420099505A93F
:10AD8000204698470BB0BDE8F0832DE9F04186B02E
:10AD900005460C4616468988D0F878016A461F4653
:10ADA000FFF7F9FC10B16B6803B198470098F0B158
:10ADB000228AE389BDF8301013448B4217DC04F17A
:10ADC0001208414638441DF035FB2B687BB1042244
:10ADD0008DF80420E2893068ADF80C20228A0290B8
:10ADE000CDE90484ADF80E2001A92846984706B0A5
:10ADF000BDE8F0812DE9F0418EB006460F46904641
:10AE00000021202206A8149C1D46FCF7C9FA42F630
:10AE10004D23ADF818303B788DF8253023788DF828
:10AE2000293063788DF82A30A3788DF82B30159A65
:10AE30003089ADF81C80012306A98DF824308DF8E7
:10AE4000273001F0E9FAF8B91422014601A8FCF70D
:10AE5000A7FA42F60813ADF8043023788DF80A30CB
:10AE6000294663788DF80B30684601F0C6FA159ACA
:10AE7000CDF814D080B2ADF80E00ADF8120001A9E3
:10AE800032F8080B01F072FB0EB0BDE8F08170B52E
:10AE9000138A022B86B004460E46154613D103686A
:10AEA0008BB102F1120001F0A4FA002818BF0223AE
:10AEB0003068029008BF03238DF80430059523689D
:10AEC00001A92046984706B070BDF0B5144689B078
:10AED00005460F462022002168461E46FCF760FA10
:10AEE00062788DF81220111E4FF00803ADF804307F
:10AEF00018BF01219DF80D302889ADF80070C900F8
:10AF000023F01A0341F01201194323788DF8113010
:10AF1000A3788DF80D108DF8133032460123694661
:10AF20008DF80F3001F078FA09B0F0BD30B587B078
:10AF300004460D46D0F87801898801AAFFF72BFC5A
:10AF400010B1636803B19847019BFBB11022002147
:10AF500002A8FCF725FA01238DF80830ADF812306D
:10AF6000019B05939DF80E30A8880022ADF80C20B7
:10AF700043F00103EA89ADF8102002A98DF80E30E4
:10AF8000FFF73CFE10B1636803B1984707B030BDCE
:10AF9000F0B50388502B8BB005460C4657D0512B8B
:10AFA00000F00E81102B3FD18188D4F87801002366
:10AFB00004AA0493FFF7EFFB10B1636803B198474D
:10AFC000049888B3D4F87C11002934D0A67C0023DF
:10AFD0001322B3422AD3D4F8801121B194F87860B7
:10AFE0000023B34229D3D4F8841121B194F8DE6050
:10AFF0000023B34226D30021FCF7D2F963899BB129
:10B00000049B01261E700822002105A8FCF7C8F940
:10B01000049B6189A888059605AA0693FFF7EAFDB7
:10B0200010B1636803B198470BB0F0BD31F83370CD
:10B0300001333A44CDE71322CDE731F833700133C1
:10B040003A44CEE731F8337001333A44D1E7C1884E
:10B05000B4F86E01022300228842ADF80C30ADF83E
:10B060000E201ED1A988D4F8780104AAFFF793FB1B
:10B0700010B1636803B19847049A002AD4D02B8A90
:10B08000012BD1D1AB7C0BB1012BCDD18DF814307C
:10B0900053702368002BC7D0099505A9204698470F
:10B0A000C2E7608988421AD1A988D4F8780104AA35
:10B0B000FFF771FB10B1636803B19847049A002A47
:10B0C000B2D02B8A012BAFD1AB7C1BB1012BABD102
:10B0D000062100E005218DF814101370D9E7B4F8AB
:10B0E000520188420BD142F62223ADF81430ADF85C
:10B0F00016202A4605A92046FFF7C9FE94E7B4F8B2
:10B100004E01884207D142F62221ADF81410ADF865
:10B11000162008220DE0B4F856318B4212D142F6C7
:10B120003223ADF814300A23ADF81620ADF80C30F8
:10B130000122ADF80E20009205AA29462046FFF70D
:10B1400024FE71E7B4F862318B4202D142F6332318
:10B15000CBE7B4F85E318B4217D0A07C04F10E0629
:10B160000A27D3B298421AD80DF10E03009305AA0C
:10B1700003AB2046FFF746FD00283FF455AFBDF86E
:10B180000E300093BDF80C30D6E742F63323ADF80D
:10B1900014300B23ADF81620ADF80C30B9E70132AE
:10B1A00007FB02FC36F80CC08C45DAD142F64D2282
:10B1B000ADF8142001228DF816208DF8173098E78D
:10B1C0008079022300220128ADF80E30ADF810205E
:10B1D0007FF42AAF298966898E4204D12946204608
:10B1E000FFF7A4FE20E7B4F84E618E420AD142F682
:10B1F0002221ADF81410ADF816200822ADF8102069
:10B2000000920FE0B4F856318B4211D142F632234E
:10B21000ADF814300A23ADF81620ADF80E30ADF8B5
:10B22000100000902A4605A92046FFF766FDFBE6C0
:10B23000B4F85E318B4209D142F63323ADF81430B5
:10B240000B23ADF81620ADF80E30D6E704AB009313
:10B2500005AA0DF10E032046FFF7D4FC00283FF4A9
:10B26000E3AEBDF810300093BDF80E30DAE72DE9FB
:10B27000F04F0C4697B00546002800F014820029D4
:10B2800000F011828B7A0A2B00F290800B7C0A2B43
:10B2900000F28C800B7E0A2B00F288800B68036022
:10B2A0004B6843608B7A83740B7C80F878300B7E1C
:10B2B00080F8DE3005F10802012041F6120304A9EE
:10B2C0008DF81200ADF81030FFF790FC064600280C
:10B2D00078D1074694F83620FBB29A4268D8238981
:10B2E00053B30127202200210EA894F83C9094F833
:10B2F0003D808DF82470FCF753F842F64E23ADF8EC
:10B3000038304FF001130F9309AB10939DF845307F
:10B3100028898DF8499023F0060343F0060305F1D0
:10B320000A020EA98DF845308DF84A808DF84770D5
:10B3300001F072F8002845D1A37A002B45D1237C77
:10B34000002B7CD1237E002B40F0AD8020220021F9
:10B350000EA8FCF725F842F64B23ADF83830A38C45
:10B36000ADF83C30ADF83E30236A109394F82C30A1
:10B370008DF84930BDF84430288923F43F7323F019
:10B38000030343F4007343F0010305F5A2720EA911
:10B39000ADF8443001F040F8A0B994F82630002B05
:10B3A00000F0DF80A36A002B40F06E81072009E0E7
:10B3B000A16B288931F813100EAAFFF719FC013789
:10B3C000002887D017B0BDE8F08FE368002BB6D017
:10B3D0004FF000084FF00A09D4F80CB05FFA88F774
:10B3E0000BEBC70A012200210EA8FBF7D9FF9AF840
:10B3F00005209DF83830003A18BF0122D20023F012
:10B400001A0342F012021A438DF838203BF8372015
:10B4100009FB07570AF104031437009301970AF157
:10B4200002030EA92846FFF7E5FC0028CAD1A27A3C
:10B4300008F101085FFA88F39A42CDD87FE7636983
:10B44000002B3FF47FAF4FF000084FF00A090122B4
:10B4500000210EA8D4F814B0FBF7A2FF9DF83830F5
:10B4600023F00E035FFA88F743F00E038DF83830AF
:10B470003BF837200BEBC70A09FB07570AF1040317
:10B480007A37009301970AF102030EA92846FFF7C5
:10B49000B1FC002896D1227C08F101085FFA88F3FC
:10B4A0009A42D4D84EE7E369002B3FF44FAF4FF0F8
:10B4B0000A08012200210EA8D4F81CA0FBF770FF97
:10B4C0009DF8382022F00A02F7B242F00A028DF805
:10B4D00038203AF837200AEBC70908FB075709F16B
:10B4E0000403E0370093019709F102030EA92846EF
:10B4F000FFF780FC00287FF465AF227E0136F3B2AF
:10B500009A42D6D822E7A06A3A460DF10F0100EB25
:10B510008600FFF775FB00287FF454AF0146142224
:10B5200009A8FBF73DFF42F60713ADF8243094F865
:10B530002C308DF82A30B5F844019DF80F30ADF865
:10B540002E3005F5A67209A9ADF832300D9701F03D
:10B550000DF800287FF436AF013694F826309E426D
:10B56000D1DB237A93B305F5A77304F1420242F6C7
:10B5700022212846FFF7A9FC00287FF423AF0146CB
:10B5800020220EA8FBF70CFF42F63223ADF838302C
:10B590009DF84530288923F00E0343F00E03012265
:10B5A0008DF8453094F84530ADF83C208DF84930A1
:10B5B0008DF8472094F846308DF84A3005F5AB7287
:10B5C0000EA900F029FF00287FF4FCAE637A002B5F
:10B5D0005DD1238E8DF824301B0A8DF8253094F828
:10B5E00032308DF82630202294F833308DF8273011
:10B5F00000210EA8FBF7D4FE42F64A23ADF83830FE
:10B600009DF84530288943F002038DF8453094F8C1
:10B6100034308DF8493009AE4FF0041305F5B3729C
:10B620000EA90F93109600F0F7FE00287FF4CAAE23
:10B6300001468DF8240020220EA894F83E70FBF7F6
:10B64000AFFE42F64C23ADF838309DF845302889DE
:10B650008DF84A7043F004038DF8453005F5B77254
:10B660004FF001130EA9CDE90F3600F0D5FE0028EA
:10B670007FF4A8AEE368C5F87C316369C5F8803112
:10B68000E369C5F884319DE6064605AF65E705F533
:10B69000AF7304F13F0242F633212846FFF715FC51
:10B6A000002896D08EE60E208CE62DE9F04186B07B
:10B6B0000E46BDF8308015461F46044600284DD082
:10B6C000002B4BD0837C8B424AD94FF6FF739845B1
:10B6D00048D0ADF80220D0F8780101AA4146FFF722
:10B6E0005AF878BB019BD4F87C2113330193C3B281
:10B6F0009E422AD832F83630AB422DD32A463946FC
:10B7000001981CF097FE0021102202A8FBF748FECA
:10B710000A2101FB06444046A38AADF80830012304
:10B720008DF80A300023ADF80C3002A90DF10203A8
:10B73000CDE90437FFF760FA20B9049B1B88AB42C0
:10B7400018BF0C2006B0BDE8F08132F83010019B24
:10B750000B4401930130CAE70C20F3E70E20F1E718
:10B760000720EFE70820EDE7F0B50C4687B0164656
:10B770001D460746002836D0AAB34FF6FF739D42F8
:10B7800033D0ADF80210D0F8780101AA2946FFF7AE
:10B7900002F830BB0198082C00F10200019003D898
:10B7A000224631461CF046FE0021102202A8FBF77B
:10B7B000F7FDB7F84E31ADF8083001238DF80A30A7
:10B7C0000023ADF80C3002A90DF102032846CDE9A3
:10B7D0000436FFF711FA20B9049B1B88A34218BF57
:10B7E0000C2007B0F0BD0E20FBE70820F9E72DE99B
:10B7F000F04788B08946BDF84060BDF8485017460C
:10B800009A46044600284CD04FF6FF739D424AD01A
:10B8100006F103081FFA88F3082BADF802303ED872
:10B82000D0F8780101AA2946FEF7B5FFA0BB019B1D
:10B830008DF808900B3301938DF809708DF80AA0EC
:10B840002EB1119932460DF10B001CF0F3FD02AE42
:10B85000BDF80220019831461CF0ECFD10220021B9
:10B860000DEB0200FBF79CFDB4F85E31ADF8103033
:10B8700001238DF812300023ADF8143004A90DF126
:10B8800002032846CDE90636FFF7B6F920B9069B34
:10B890001B88434518BF0C2008B0BDE8F0870C207A
:10B8A000FAE70E20F8E70820F6E72DE9F743DDF880
:10B8B0002C900E4690461F46054600283DD0B9F113
:10B8C000000F3AD090F878308B4238D9BDF8281064
:10B8D000D0F8780101AAFEF75EFF0446C8B9019BC3
:10B8E000A97C133301930346DAB2914215D8D5F8F7
:10B8F00080110023DAB2964218D831F8362008EBCE
:10B90000070393421DDC01994246394448461CF026
:10B9100091FD204603B0BDE8F083D5F87C2132F8D4
:10B920003300019A024401920133DDE731F833001C
:10B93000019A024401920133DCE70E24E9E707246F
:10B94000E7E70924E5E76DDF704779DF70477DDFC2
:10B95000704764DF70472DE9F04F85B000250E9CDD
:10B96000BDF83CB0B4F800A00191074690461E46D1
:10B97000A9463A884A450DDC45B12388013BA3EB33
:10B980000A039BB2FF2B3AD806F80A30002005B014
:10B99000BDE8F08F7A6852F82900039000220DF17B
:10B9A0000B0103A8FFF7D5FF0028F0D19DF80B206D
:10B9B000424521D12288002D14BF0020022002EB35
:10B9C0000801014459451ADC3DB9013292B2019B8C
:10B9D0002280B35422880132228022880DF10B018B
:10B9E000324403A8FFF7B5FF0028D0D121889DF885
:10B9F0000B200A442280012509F10109B9E70C2036
:10BA0000C5E72DE9F341089FBDF824801546CDE92F
:10BA10000078022204461E46FFF79DFF50B93346C8
:10BA2000102229462046CDE9087802B0BDE8F04151
:10BA3000FFF791BF02B0BDE8F0812DE9F04F002380
:10BA40001788138090F82D3085B006460D461446B1
:10BA500053B3082F01D80C2027E102A8FFF773FF8A
:10BA6000002840F0228123880822EA5423880133E9
:10BA70009BB21B222380EA542088013080B22080B0
:10BA800006220DF1090128441CF0D4FC23889DF8FE
:10BA9000082006339BB212F0FE0218BF0122238059
:10BAA000EA54238801332380B378FBB1238804331D
:10BAB000BB42D0D802A8FFF748FF002840F0F5802D
:10BAC00023880322EA54238801339BB2192223805E
:10BAD000EA542388BDF8082001339BB2E91823807B
:10BAE000EA54120A4A70238802332380F2789AB10A
:10BAF0002388D91CB942AED80221E95423880133E6
:10BB00009BB201212380E95423880B449BB22380FC
:10BB1000EA5423880B4423807268AAB12388D91C75
:10BB2000B94298D8022192F90020E95423880133C0
:10BB30009BB20A212380E954238801339BB22380DE
:10BB4000EA542388013323803389002B40F0A180FD
:10BB5000338A5BB1CDE900472B460722032106F16A
:10BB60001000FFF74EFF002840F09F80338B5BB141
:10BB7000CDE900472B461522142106F11800FFF7E6
:10BB800040FF002840F09180326A002A40F0908007
:10BB9000D6F82480B8F1000F30D0B8F804302188EE
:10BBA000981C8A1C0244BA423FF655AFFE283FF665
:10BBB00052AF03336B54238801339BB2FF2223809F
:10BBC000EA54238801339BB22380B8F80020EA545A
:10BBD000E918120A4A702088023080B22080B8F832
:10BBE00004205AB1D8F8081000296BD028441CF062
:10BBF00021FC2388B8F804201344238096F82C30C5
:10BC0000002B40F09880307800284ED03388012BEC
:10BC100058D0228802F1020CBC453FF61CAF012827
:10BC200005D17378023313449F42FFF414AF023FEF
:10BC3000BF1ABFB202A905EB0C00ADF80870FFF700
:10BC400086FE90BB3178BDF80830022900F0B9803B
:10BC500072789A4202D39F4280F0B180012940F06D
:10BC6000B280974293B2C0F0AE80ADF808300821A0
:10BC7000BDF80830FE2B3FF6EEAE22880133AB5400
:10BC80002288013292B22280A95422881344238050
:10BC90000BE0CDE900472B460622022106F1080001
:10BCA000FFF7AFFE00283FF453AF05B0BDE8F08FBB
:10BCB000B4F800C00CF10603BB423FF6CCAE1188CD
:10BCC000052901D80720F0E76FF4486E01EB0E0359
:10BCD0009BB24FF27D3E7345F4D95388052BF1D9C1
:10BCE0006FF44860181880B27045EBD94FF6FF70BA
:10BCF000814201D09942E5D8052305F80C3023880C
:10BD000001339BB212212380E954238801339BB273
:10BD100023801188E954E818090A41702388023306
:10BD20009BB223805288EA54E918120A4A70238889
:10BD3000023323802CE7B36A002BC3D04FF00008F6
:10BD40004FF00C0A4FF0160BB16A5FFA88F20AFB4B
:10BD500002F201EB0209B9F80430981CFE283FF604
:10BD60007AAE208803332B54238801339BB223807F
:10BD700005F803B0238801339BB223808A5AEA5422
:10BD8000E918120A4A702088023080B22080B9F87F
:10BD900004205AB1D9F80810002993D028441CF087
:10BDA00049FB2388B9F804201344238096F82C20FB
:10BDB00008F101085FFA88F39A42C5D823E7092100
:10BDC00056E79F42FBD2ADF8087050E730B5C8B1D6
:10BDD000F2B10024651C8D4206DA1588A54212D8FE
:10BDE00005196D789D420ED1A14211D9005D48B16F
:10BDF000013880B230B10234A3B210FA84F4A14207
:10BE000006DB138030BD055D01352C44A4B2E1E7AB
:10BE10000020F7E713B513460022ADF806200DF118
:10BE200006020446FFF7D2FF10B1BDF80630E01855
:10BE300002B010BD75DF704776DF70477ADF70475C
:10BE40007BDF7047034B1A8882420CBF18460020E4
:10BE5000704700BF489D0020024B9B6903B1184703
:10BE6000704700BF2C9D002073B585B22846FFF7B0
:10BE7000E9FF044638B3174E027A337B9A420CD25C
:10BE800000F10A012846FFF7D5FFF0B111281AD0BA
:10BE900002B0BDE87040FFF7DFBF00230372337CC0
:10BEA00043B13B212846FFF7C7FF30F0080301D01C
:10BEB000FFF7D2FF736933B100228DF80420ADF88B
:10BEC000065001A8984702B070BD237A013323724F
:10BED000F9E700BF2C9D002037B50B46497A0F4A81
:10BEE00079B9D2E901141D7A0246002D18BF214606
:10BEF000586806F0F1FC78B103B0BDE83040FFF7B8
:10BF0000ABBF00211972536933B10122ADF80600AD
:10BF10008DF8042001A8984703B030BD2C9D002067
:10BF20004B8802889A4212D842889A420FD380885E
:10BF30008B8840F2F311884294BF021A421A9A4247
:10BF400005D80844984234BF0020012070470020E3
:10BF50007047000070B50388122B014659D004D8F1
:10BF6000102B1ED0112B44D070BD502BFCD12F4B69
:10BF7000C288DB899A42F7D1038A022BF4D18688E2
:10BF80003046FFF75FFF05460028EDD001F11200B3
:10BF900000F02FFA38BB686806F0CCFC0028E3D02C
:10BFA00009E0C37B012BDFD14FF6FF70FFF74AFF9B
:10BFB000054620B90420BDE87040FFF74DBF8E88CC
:10BFC0001B4A0680002303721368C0F80A305368C6
:10BFD000C0F80E3010310A30FFF7A2FF134B687221
:10BFE000DB89002BC0D129463046BDE87040FFF701
:10BFF00073BF8088FFF726FF04460028B4D040684E
:10C0000006F098FC08B1FFF727FF4FF6FF73238077
:10C01000AAE786883046FFF715FF05460028A3D01B
:10C0200008310A30FFF77CFF6872DCE72C9D0020A6
:10C030005C9D0020F8B5064648B305460FCD154F68
:10C040003C460FC495E8070084E807003068124CAE
:10C050003C60B0B1FFF7F2FEC0B9326813682360EC
:10C06000536863600D480E4A4FF6FF7303800D4B13
:10C0700040F8043F002106F01DFC002818BF0320F3
:10C0800004E02046FFF7DCFE0028EBD0F8BD0E20D0
:10C09000FCE700BF2C9D00205C9D0020489D0020F7
:10C0A00069BE0200689D0020F7B5174601900E4654
:10C0B00091B1019C6CB100252C46294601A804F0E1
:10C0C0008CFB18B13946A8B2B04701340135142DA4
:10C0D000F3D1204603B0F0BD0C46FAE70AB104F0F4
:10C0E0005BBB04F070BB73B50191019C06466CB15B
:10C0F00000252C46294601A804F06FFB18B106EB79
:10C10000440301349D800135142DF3D13046346051
:10C1100002B070BD2DE9F04703888488103B8CB0D5
:10C1200005460A2B21D8DFE803F006402020202016
:10C13000202020654700DFF8E880D8F80830DB438E
:10C140000093D8F80410684604F032FA009901A868
:10C15000FFF7C9FF0DF108090027019B9F4207D394
:10C16000132C12D904200AF052F90CB0BDE8F08764
:10C1700039F802AB00260136514608EB860004F080
:10C1800022FB1E2EF7D10137E7E71F48214604F0B6
:10C1900003FB1E48214604F0FFFAEB7B022BE4D19F
:10C1A0001B48214604F0F8FADFE7174821460CB097
:10C1B000BDE8F04704F007BB027A16483F2A4FEA71
:10C1C0001215214694BF00220122FFF787FF022D9E
:10C1D00094BF0022012210482146FFF77FFF012D66
:10C1E0000E4894BF0022012221460CB0BDE8F04762
:10C1F000FFF774BF037A002BB7D1427A0548C2F328
:10C20000C0022146F1E700BF909D00208C9D0020D8
:10C21000949D0020A09D00209C9D0020989D0020C2
:10C22000889D00201328014602D8024804F0D5BAA0
:10C23000002070478C9D002007B50190FFF7F2FFAA
:10C24000019930B1044804F0C8FA002814BF022054
:10C25000012003B05DF804FB949D002007B5019018
:10C26000FFF7E0FF019930B1044804F0B6FA002866
:10C2700014BF0220012003B05DF804FB909D002054
:10C2800007B50190FFF7CEFF019928B1044803B02C
:10C290005DF804EB04F0A1BA03B05DF804FB00BF45
:10C2A000989D002007B50190FFF7BCFF019928B1C8
:10C2B000044803B05DF804EB04F08FBA03B05DF8F6
:10C2C00004FB00BF9C9D002007B50190FFF7AAFF6B
:10C2D000019928B1044803B05DF804EB04F07DBA7D
:10C2E00003B05DF804FB00BFA09D002010B5034B18
:10C2F00004465968FFF7F7FE204610BD889D0020D0
:10C3000010B50446FFF78EFF002814BF2046142006
:10C3100010BD000008B51821024804F067FAC0B249
:10C3200008BD00BF889D002070B50A4E0546304606
:10C330000C4604F052FA58B12846FFF773FF38B1A3
:10C340000734294606EB8400BDE8704004F045BA86
:10C35000002070BD889D0020F8B50B4F054638467B
:10C360000C46164604F039FA60B12846FFF75AFF2A
:10C3700040B107343246294607EB8400BDE8F84057
:10C38000FFF7ACBEF8BD00BF889D002073B50B4D14
:10C39000019204460E460146284604F01EFA50B1AA
:10C3A000063405EB8404019A6068314602B0BDE8AA
:10C3B0007040FFF779BE02B070BD00BF889D0020BD
:10C3C000AADF7047ABDF7047002301380B700428E9
:10C3D00006D8DFE800F00306080A0C0011230B70F2
:10C3E00070472123FBE73123F9E71223F7E72223E4
:10C3F000F5E7008800F0010070470B7803704B7878
:10C4000043700220704738B5044608460D461CF0BC
:10C4100097FD6560208038BDF0B58B7891B0012B19
:10C420000C4638BF01238DF80E3005460B88ADF859
:10C430000C300021164668460322FAF7B1FF607CF3
:10C440006946FFF7C1FFA07C0DF10101FFF7BCFFBA
:10C45000E27B237B217D43EAC203227C43EA021371
:10C460009DF80220002922F0190203F0190314BFDD
:10C4700002210121134361F342031C22002109A878
:10C480008DF80230FAF78CFF637B13F0300F15D074
:10C4900002AF032200213846FAF782FFE07C0DF15B
:10C4A0000901FFF791FF11238DF808309DF80A303C
:10C4B0000E97012262F342038DF80A30637B8DF8F8
:10C4C00024301422A37B8DF82530002104A8FAF72C
:10C4D00067FF03AB0493A388ADF81C30A368CDF8C5
:10C4E00014D01BB1E288ADF818200893A369002B83
:10C4F00031D001AF032200213846FAF751FFA3697A
:10C500001A88ADF82C205A88ADF82E205A680D975D
:10C51000187B0A923946FFF757FFA3690DF1050111
:10C52000587BFFF751FFA3699A7A197A41EAC20151
:10C53000DA7A9B7B41EA02119DF80620002B01F07C
:10C54000190122F0190214BF02230123114363F3DE
:10C5500042018DF80610E36903B10C93334604AA37
:10C5600009A92846FFF72CFF11B0F0BDF0B50C4625
:10C5700089B0054616460021142203A8FAF710FFD9
:10C58000A378A079012B38BF01238DF80A3001AFC1
:10C590002388ADF80830394602AB0393FFF714FF48
:10C5A000E0790DF10501FFF70FFFE2786379217A59
:10C5B000049743EAC203227943EA02139DF8062056
:10C5C000002922F0190203F0190314BF02210121EE
:10C5D000134361F342038DF806306389ADF81430DC
:10C5E000A389ADF81630E389ADF8183032462369D7
:10C5F000079303A92846FFF7E5FE09B0F0BD90DFD9
:10C600007047A5DF7047B5DF70470000F0B52D4ECD
:10C610007388032B85B007460D460BD92A482B4C4F
:10C62000241AE40824040A463B46294944F004003D
:10C6300005F061FE00236A4602A93846ADF80850AD
:10C64000ADF80A50ADF80C30ADF80E300093ADF8EF
:10C650000430FFF7D4FF054688B373886BB105F04B
:10C6600097FF1A4C1B4903461748241AE408240470
:10C670003A4644F0010005F03EFEBDF80020BDF84A
:10C68000023052EA03010BD0718849B10E480F4CB9
:10C690001149241AE408240444F0010005F02BFE9B
:10C6A000BDF804205AB173884BB10748074B0B49BA
:10C6B0001B1ADB081B0443F0010005F013FE28469B
:10C6C00005B0F0BDA05E002038EE0400E8EE0400E6
:10C6D00054A7040083A70400CDA704000CA80400FD
:10C6E00078B14FF0171303601B2303711723C38026
:10C6F000038141F61B320023016143818281184688
:10C7000070470E20704700002DE9F043828887B003
:10C7100005460C46002A40F0A0810388242B00F037
:10C72000058129D8112B00F0CC80232B00F0488103
:10C73000102B76D0A37A002B00F08F81E1880020A7
:10C74000FFF75FFF0346002840F072814FF48072CC
:10C750006281A64A5288032A40F27F81A448A54DEF
:10C76000E288A5492D1AED082D0445F0040007B014
:10C77000BDE8F04305F0BFBD3A2B00F0AA80552B71
:10C78000D8D19A4EC5887388032B0AD9984B9948FB
:10C790009A49C01AC00800042B4640F0040005F076
:10C7A000AAFDE3887088172D2A4638BF17229A42BF
:10C7B00028BF1A46002103282281A1720AD98D4878
:10C7C0008B4D0091401BC00800048D4940F00400CF
:10C7D00005F09BFDE1880020FFF715FF70B173881D
:10C7E00063B105F0D5FE834B8649024680481B1A8B
:10C7F000DB081B0443F0010005F074FDE27A002A17
:10C8000098D12369002B95D040F67721ADF81220FE
:10C810002289ADF81010ADF8142004A920469847DD
:10C8200088E70B790B73C37B012B24D0022B25D017
:10C83000E2882389934215D26C4D6B88032B0AD969
:10C840006B4B6C487049C01AC0080004002340F0CC
:10C85000040005F050FDE1880020FFF7D2FE78B912
:10C860000123E372217B637B8B42BFF463AF002023
:10C87000FFF7CCFE5EE70B88E380D9E74B88FBE748
:10C8800011286A880FD10123032AA372EAD95948D3
:10C89000574B5E49C01AC0080004002240F0040053
:10C8A00005F020FDDEE7002ADCD005F071FE514BDB
:10C8B000574902464E481B1ADB081B0443F001008F
:10C8C000EEE71723CB800B8141F61B334A818B8126
:10C8D00030E74189E388994228BF1946434B5B887A
:10C8E000172938BF1721032B21810BD9404B414811
:10C8F000C01AC0080004134640F004000A46454927
:10C9000005F0F9FC236973B1E27A62B140F677224F
:10C91000ADF810200022ADF812202289ADF81420C5
:10C9200004A9204698470023638103E72F4D017A2D
:10C930006B88B0F80880B0F80A908689C78961735F
:10C94000032B2CD92A4B2B48C01AC00800041346CD
:10C9500040F004000A463049039005F0CCFC6B8897
:10C96000032B1CD92D4903984A4605F0BBFC6B8864
:10C97000032B14D92A490398424605F0B3FC6B886F
:10C98000032B0CD9274903983A4605F0ABFC6B887A
:10C99000032B04D924490398324605F0A3FC2369EC
:10C9A000002B3FF4C7AE00228DF815204DF67A21FA
:10C9B000ADF81220627BADF810108DF814202CE732
:10C9C0000A4B067A5B88032B0AD9094B0948174999
:10C9D000C01AC0080004334640F0040005F08BFC88
:10C9E000217BA888B14228BF314641E7A05E0020E4
:10C9F00038EE0400E8EE0400B5AA04005DA90400C6
:10CA000097A90400D6A9040062A804009FA8040006
:10CA1000F1A8040022A9040005AA040034AA040015
:10CA200046AA040058AA040068AA040078AA0400D0
:10CA3000112812D00A4B5B887BB105F0A9FD094B88
:10CA40000949024609481B1ADB081B0443F0010090
:10CA500007B0BDE8F04305F045BC07B0BDE8F08382
:10CA6000A05E0020E8EE0400F1A8040038EE040007
:10CA7000B0DF704766DF704710B50021044640887C
:10CA8000FFF7F8FF034608B9237210BD112801D142
:10CA90000123F9E76368BDE81040184760B159B158
:10CAA0000378DE2B0AD00B684360DE2303704FF659
:10CAB000FF734380002070470E20704708207047A6
:10CAC00028B10378DE2B04D14180002070470E206E
:10CAD000704708207047F0B5054685B00C46002920
