:020000022000DC
:1070000000000220A12A0400C92A0400CB2A04009F
:10701000CD2A0400CF2A0400D12A04000000000079
:10702000000000000000000000000000D32A04005F
:10703000D52A040000000000D72A0400D92A040041
:107040009D64030009BE020021710300796A0300F8
:10705000C9650300DB2A0400DB2A0400DB2A0400E4
:10706000DB2A0400DB2A0400DB2A0400DB2A0400FC
:10707000DB2A0400DB2A0400DB2A0400DB2A0400EC
:10708000DB2A040049590300DB2A0400DB2A040040
:10709000DB2A0400DB2A0400B95C0300DB2A0400BD
:1070A000DB2A040011BE02000DBE0200B569030018
:1070B000DB2A0400DB2A04000000000000000000BE
:1070C000DB2A0400C9740300DB2A0400D96503002D
:1070D000DB2A0400DB2A0400DB2A0400C980030049
:1070E000DB2A040000000000000000000000000097
:1070F00000000000DB2A040000000000DB2A04007E
:10710000000000000000000000000000000000007F
:10711000000000000000000000000000000000006F
:10712000000000000000000000000000000000005F
:10713000000000000000000000000000000000004F
:10714000000000000000000000000000000000003F
:10715000000000000000000000000000000000002F
:10716000000000000000000000000000000000001F
:10717000000000000000000000000000000000000F
:1071800000000000000000000000000000000000FF
:1071900000000000000000000000000000000000EF
:1071A00000000000000000000000000000000000DF
:1071B00000000000000000000000000000000000CF
:1071C00000000000000000000000000000000000BF
:1071D00000000000000000000000000000000000AF
:1071E000000000000000000000000000000000009F
:1071F000000000000000000000000000000000008F
:107200000348044B834202D0034B03B11847704735
:10721000BC5E0020BC5E002000000000054806495E
:107220000B1AD90F01EBA301491002D0034B03B194
:1072300018477047BC5E0020BC5E002000000000C4
:1072400010B5064C237843B9FFF7DAFF044B13B1AE
:107250000448AFF300800123237010BDF05F0020CD
:1072600000000000A0DE040008B5044B1BB1044977
:107270000448AFF30080BDE80840CFE700000000FD
:10728000F45F0020A0DE0400A3F5803A704700BF41
:10729000154B002B08BF114B9D46FFF7F5FF002152
:1072A0008B460F461148124A121A00F079F80C4B1F
:1072B000002B00D098470B4B002B00D098470020A4
:1072C000002104000D000B4800F016F800F044F80F
:1072D0002000290010F070FA00F014F800000800F7
:1072E000000000000000000000000220F05F00200D
:1072F000A0F400202D730200002301461A46184610
:1073000000F0A0B808B5074B044613B1002100F007
:10731000EFF8054B1868836A03B19847204600F0E0
:107320004BF900BFF1740200CC8C040038B5084B57
:10733000084D5B1B9C1007D0043B1D44013C55F8D5
:1073400004399847002CF9D1BDE8384021F0B8BC89
:10735000BC5E0020B85E002070B50D4E0D4D761B52
:10736000B61006D0002455F8043B01349847A642D5
:10737000F9D1094E094D761B21F09CFCB61006D0C0
:10738000002455F8043B01349847A642F9D170BD5A
:10739000545E0020545E0020B85E0020545E002041
:1073A000830730B548D0541E002A3FD0CAB20346E6
:1073B00001E0013C3AD303F8012B9D07F9D1032CDE
:1073C0002DD9CDB245EA05250F2C45EA054536D91C
:1073D000A4F1100222F00F0C03F1200EE6444FEA54
:1073E000121C03F1100242E9045542E90255103221
:1073F0007245F8D10CF1010214F00C0F03EB0212EC
:1074000004F00F0C13D0ACF1040323F00303043396
:10741000134442F8045B9342FBD10CF003042CB1FB
:10742000CAB21C4403F8012B9C42FBD130BD644618
:107430001346002CF4D1F9E703461446BFE71A4679
:10744000A446E0E7F0B5264C256885B0064605B3AE
:107450006C681F2C41DCA6B1D5F8880048B3D0F881
:10746000007140F824204FF0010C0CFA04FC00EBF2
:1074700084024CEA0707022EC0F80071C2F880307F
:1074800010D0A31C01346C6045F82310002005B017
:10749000F0BD1448144D25600028D9D00068C5F807
:1074A0008800D5E7D0F8043143EA0C03C0F8043172
:1074B000E7E70E480191CDE9022370B14FF48470E3
:1074C00020F0B4F848B10027C0E94077DDE9022395
:1074D0006C680199C5F88800C3E74FF0FF30D6E724
:1074E00098600020000000000C6000202D76040051
:1074F0002DE9F84FDFF8BCA0DAF800702DED028B13
:10750000E7B108EE100A89467D68D7F888806C1EBE
:1075100014D407EB8506043608EB8505B9F1000F96
:1075200010D0B8F1000F02D0EB6F4B450AD0013CF0
:10753000631CA5F10405A6F10406EFD1BDEC028B96
:10754000BDE8F88F7B683268013BA34216BF002379
:107550007C603360002AEAD0D7F804B0B8F1000F9D
:107560001AD0D8F80001012303FA04F1014213D024
:10757000D8F80401014218D155F8041C18EE100A7D
:1075800090477A685A450BD1DAF80030BB42CED02A
:107590001F46002FB8D1D1E790477A685A45F3D0FB
:1075A000DAF80070002FAFD1C8E755F8040C904707
:1075B000E7E700BF98600020FEE700BF4FF0805370
:1075C000D3F83001A0F10D03584258417047000034
:1075D000024AD2F80034002BFBD0704700E0014093
:1075E00008B5FFF7EBFF40B14FF080430022C3F82E
:1075F0000C21C3F81021C3F83825FFF7DFFF00285E
:1076000046D04FF080524E4BD2F80414C3F82015E8
:10761000D2F80814C3F82415D2F80C14C3F82815AE
:10762000D2F81014C3F82C15D2F81414C3F830157E
:10763000D2F81814C3F83415D2F81C14C3F8401546
:10764000D2F82014C3F84415D2F82414C3F848150E
:10765000D2F82814C3F84C15D2F82C14C3F85015DE
:10766000D2F83014C3F85415D2F83414C3F86015A6
:10767000D2F83814C3F86415D2F83C14C3F868156E
:10768000D2F84014C3F86C15D2F84424C3F870251E
:10769000FFF794FF48B14FF08043D3F80024D2079E
:1076A00044BF6FF00102C3F80024264AD2F88830A4
:1076B00043F47003C2F88830BFF34F8FBFF36F8F6E
:1076C0004FF08053D3F830210D2A0ED1D3F8343146
:1076D000022B02D81C4AD35C3BB14FF01023D3F8E5
:1076E00008224FF08043C3F858254FF01021D1F8FD
:1076F0000C32DB071FD515480123C0F80435FFF70E
:1077000067FFD1F80C3223F00103C1F80C32FFF708
:107710005FFF0023C0F80435FFF75AFFBFF34F8F18
:1077200008490B4BCA6802F4E0621343CB60BFF315
:107730004F8F00BFFDE7074B074A1A6008BD00BF27
:1077400000C0004000ED00E0D08C040000E00140EB
:107750000400FA05E05900200090D00308B504F0B9
:10776000E1F908BD38B5044648B1FFF7F7FF054613
:1077700010F014F8FFF7F2FF431BA342F8D338BD13
:1077800011DF704708B5FA2004F0A2F90EF086FB6D
:1077900020B90EF089FB08B10EF006F90EF0FCFCE2
:1077A00020B90EF0FFFC08B10EF0FEF800200EF03C
:1077B00031FC00200EF09CFB0EF066FC0028FBD094
:1077C0000EF01CFC0028F7D00DF0F0FD18B1BDE85C
:1077D00008400EF0E9B808BD08B5FFF7D1FF0C4B23
:1077E0004FF0FF32C3F88020C3F88021C3F8842013
:1077F000C3F88421BFF34F8F0649074BCA6802F4D0
:10780000E0621343CB60BFF34F8F00BFFDE700BFC3
:1078100000E100E000ED00E00400FA0508B50020FA
:1078200001F086FB30B94FF0E023D3F8F03DDB07E1
:1078300000D500BE08BD0378024613F0010011D147
:107840001378C3F380015B070FD4137813F00100A2
:107850000AD113785B0708D4137843F0040313703C
:107860000120704700207047084670470378C3F333
:1078700080015B0708D5037813F0010203BF03788A
:1078800062F3820303700021084670478388C07842
:1078900000F003000228C3F30A0315D003281DD00B
:1078A00001280FD1022940F2FF3208BF4FF4806255
:1078B0009A420FD24FF0E023D3F8F00D10F0010000
:1078C00008D000BE00207047022904D1B3F5007F24
:1078D000F0D101207047402BFBD9EBE702290CBF08
:1078E0004FF4806240229A42F3D2E3E730B50A4473
:1078F000914200D330BD4C78052C06D18C7804F031
:107900007F0500EB4505E4092B550C782144EFE792
:1079100030B4104B02249A6B83F82C10996883F8CA
:10792000304093F83C408A1A9A6224B942F2050525
:107930009D8783F83E4051B14AB11A7BD20930BCD1
:1079400014BF93F82E1093F82F1001F075BC30BCC3
:10795000704700BF9C62002038B5154B154C05469A
:1079600073B1607B10F050FB50B942F2077384F89A
:107970003E00A38728460121BDE83840FFF7C8BF75
:10798000A26BA36894F82F109B1AB3F5007F28BF51
:107990004FF40073084A9BB2284601F00BFC30B943
:1079A0004FF0E023D3F8F03DDB0700D500BE38BD33
:1079B000098003009C6200209C60002070B5284C68
:1079C000E28AA36852BA92B286B0054612B1B3FBFE
:1079D000F2F292B2A06BD4F81110B0FBF2F61B1ABF
:1079E000B3F5007F28BF4FF4007309BA009302FB80
:1079F00016021C4B607B314410F0CEFA031E0CDAE9
:107A000043F60223A38701210023284684F83E3051
:107A100006B0BDE87040FFF77BBF94F82E100FD181
:107A2000CDE9033307228DF8101003A819468DF80D
:107A30000C508DF80D20059301F0C2FA06B070BD10
:107A4000084A9BB2284601F0B5FB0028F6D14FF05A
:107A5000E023D3F8F03DDB07F0D500BEEEE700BF32
:107A60009C6200209C600020C28A836852BA92B255
:107A700023B9002A0CBF002002207047C17B2829AF
:107A800004D1017BC90906D1022070472A2902D1FD
:107A9000017BC909F8D122B1934234BF02200020F2
:107AA0007047012070470000044880F83C1080F8BF
:107AB0003D2080F83E300120704700BF9C620020CE
:107AC000024840220021FFF76BBC00BF9C620020EF
:107AD000024840220021FFF763BC00BF9C620020E7
:107AE00073B54B79082B054602D0002002B070BD5B
:107AF0008B79062BF9D1CB79502BF6D1162A07D8E2
:107B00004FF0E023D3F8F03DD907EED500BEECE707
:107B1000164C8B7884F82D3004F12E030E780193E7
:107B200004F12F03009302231A46314401F0F0FAC6
:107B300038B94FF0E023D3F8F03DDA07D5D500BED1
:107B4000D4E7002384F8303094F82F101F23224606
:107B5000284601F02FFB30B94FF0E023D3F8F03D79
:107B6000DB0700D500BE1720C0E700BF9C620020E5
:107B700001297FB50646154614D1137803F07F021C
:107B8000022A48D16C78012C45D16A88002A42D15A
:107B9000AB883D4D95F83020042ADBB204D119465C
:107BA00001F04AFB01201AE095F82E10994218D1F5
:107BB000022AF7D1AA6BAB689B1AAB62032385F844
:107BC000303005F120020D2301F0F4FA0028E9D14C
:107BD0004FF0E023D3F8F03DDB0752D500BE04B0F0
:107BE00070BD95F82F109942DCD1002ADAD10191AD
:107BF00001F014FB01990028D4D1304601F058FB64
:107C00000028CFD1002385F830301F4A95F82F1077
:107C10001F233046D8E703F06003202B31D16B7867
:107C2000FE2B13D0FF2B2CD16B8853BBE9888AB273
:107C30003ABB154B304699872946C3E90D2283F894
:107C4000302083F83E2001F05BFEABE76B88C3B9C0
:107C5000EB88012B15D18DF80F300C4B1BB110F0B8
:107C600001F98DF80F009DF80F3053B1013B8DF8ED
:107C70000F300DF10F0201232946304601F052FE6C
:107C800090E70020ABE700BF9C620020657E030008
:107C90002DE9F041AB4C94F83070012F8EB00546C1
:107CA0001E4600F0B781032F00F02982002F42D139
:107CB00094F82F308B4201D0012013E01F2E03D106
:107CC0002268A14B9A4210D094F82E100423284623
:107CD00084F8303001F0B0FA94F82F10284601F003
:107CE000ABFA00200EB0BDE8F081984B23626368C8
:107CF000E67BD4F8088084F82C70C4E909370123A6
:107D000084F8303006F0FD03282BC4E90D872CD110
:107D10002046FFF7A9FE014618B12846FFF7F8FDF7
:107D200009E0B8F1000F00F06F81282E40F0C48107
:107D30002846FFF743FE94F83030022BBCD194F86C
:107D40002E10284601F0B4FA0028B5D1A368A26B22
:107D500094F82E10934240F2FB81207BC00900F082
:107D6000F781284601F068FAA6E7B8F1000F17D0AE
:107D7000237BDB0914D1B8F5007F01D90121CCE7C1
:107D8000734A1FFA88F3284601F014FA0028D2D16A
:107D90004FF0E023D3F8F03DDA07A2D500BEA1E70B
:107DA000252E677B08D8192E14D8032E00F0F680F4
:107DB000122E00F09A805EB394F83C30002BDDD197
:107DC000A38E634A6349607B10F0C8F8002880F2F4
:107DD0001481D3E71A3E0B2EEED801A353F826F0F8
:107DE0005D7F0200337E0200B97D0200B97D020092
:107DF000B97D0200B97D0200B97D0200B97D0200A3
:107E0000B97D0200A57E0200B97D02004F7E02000E
:107E1000384610F077F8002840F0F28094F83C30B3
:107E2000002BC9D143F60223A387002384F83E30F8
:107E3000C2E7494B002B00F0E380E17C3846C1F3F8
:107E4000400301F00102090910F092F8E3E70DF197
:107E50000E0204A9384610F073F8049B13B1BDF864
:107E60000E203AB994F83C30002BA5D143F60222FB
:107E7000A287DBE712BA013B1BBA0692344805938E
:107E8000082205A91FF066FC0820A368002B3FF418
:107E900075AF834228BF034663632D4A94F82E10C2
:107EA0009BB270E70023CDE90533079308238DF8D3
:107EB00017300DF10E02022304A938468DF81C304C
:107EC00010F03EF8049A002ACCD0BDF80E30002BFA
:107ED000C8D012BA06925BBA1D48ADF81E300C220B
:107EE00005A91FF037FC0C20CFE72422002105A8AC
:107EF000FFF756FA80238DF8153002238DF81630DF
:107F00008DF8173008221F23202107A88DF818307C
:107F1000FFF746FA1022202109A8FFF741FA0422B0
:107F200020210DA8FFF73CFA0DAB09AA07A9384696
:107F30000FF0A0FF0648242205A91FF00BFC242007
:107F4000A3E700BF9C620020555342435553425360
:107F50009C600020AB620020717F030003238DF83A
:107F6000143000238DF815308DF816308DF8173049
:107F70007E4B8BB1384610F047F89DF8163080F0F4
:107F8000010060F3C713042279488DF8163005A963
:107F90001FF0E0FB042078E70120EEE71222002129
:107FA00005A8FFF7FDF9F02394F83C208DF8143074
:107FB0000A238DF81B304FF0000362F303038DF8A2
:107FC000163094F83D308DF82030694894F83E30F2
:107FD0008DF82130122205A91FF0BCFB654BBBB107
:107FE00063494FF400723846AFF300800023984293
:107FF000A38784F83E30FFF6DFAE00287FF445AF5C
:10800000A368002B7FF4BAAE022384F8303092E6E6
:108010001220EBE7E37BA06B282B05D1636B304488
:108020009842A063F0D283E62A2B49D1E28A52BA61
:1080300092B21AB1A368B3FBF2F292B2D4F8111063
:108040004B4FB0FBF2FC09BA02FB1C020096607BAE
:108050003B4661440FF0B6FF002809DAA36B3344B6
:10806000A36343F60223A387002384F83E3085E60A
:1080700086421BD9361A40B1A16B11FA80F1A16377
:108080003246391838461FF0FFFB94F82F30079618
:108090000021072205A8CDE905118DF814508DF8AF
:1080A00015208DF8183000F08BFF44E6A36B1E44BA
:1080B000636BA6639E42A7D22846FFF74DFC3AE6C3
:1080C000237B3044DB09A0630CD1A38E284A607B5C
:1080D00004F10F010FF042FF002803DA3946284669
:1080E000FFF716FCD4E90D329A428DD24FF0E0230F
:1080F000D3F8F03DDB077FF51EAE00BE1BE694F81B
:108100002E308B427FF417AE0D2E7FF414AEE37B3E
:10811000282B09D02A2B14D0174B53B1607B04F1C4
:108120000F01AFF3008004E0144B13B1607BAFF399
:108130000080002384F83030114A94F82F101F2358
:1081400021E6104B002BF4D0607B0FF051FFF0E7DD
:108150009B1AA362032384F830300B4A0D23284670
:1081600001F028F800287FF4A7AD11E6098003008C
:108170009C600020000000000000000000000000E3
:108180009C620020F17F0300BC62002070B500F10A
:1081900010050446284601F05DFE3F2817D9A17856
:1081A000002000F0EBFF90B1284601F053FE3F287D
:1081B000A17807D904F594724023BDE870400020EF
:1081C00000F0F8BFBDE87040002000F0E5BF70BDD2
:1081D00070B500F11C040546204601F012FE08B9F6
:1081E000002070BD6978002000F0C8FF0028F7D09B
:1081F00005F5B47631462046402201F04FFE6978FD
:10820000044668B103463246002000F0D3FF48B967
:108210004FF0E023D3F8F03DDB07E1D500BEE0E707
:1082200000F0BAFF2046DCE737B50E4C00254FF4CE
:10823000D47200212046FFF7B3F804F1280100951D
:108240000123802204F1100001F0C8FD00950123F4
:10825000802204F1A80104F11C0001F0BFFD03B06D
:1082600030BD00BFDC62002010B5084C1022002198
:108270002046FFF795F804F1100001F055FE04F1D7
:108280001C00BDE8104001F04FBE00BFDC620020C2
:108290002DE9F0474B79012B8046924603D000250B
:1082A0002846BDE8F0878B79012BF8D1CB79002BDC
:1082B000F5D10C7823460C446278242A06D1534524
:1082C000EDD8227813449BB21444F5E7042AE6D192
:1082D0006279012AE3D1A279032AE0D1E579002D60
:1082E000DDD1DFF8849099F8017099F802201743E6
:1082F00032D1A27889F8002026789D19ADB22644A3
:1083000010E0B378DA0914BF89F8013089F8023037
:10831000337801371D44ADB21E44FFB233781D449B
:10832000ADB21E442379BB4203D80F48FFF72EFF9E
:10833000B6E75545F9D87378052BEFD1314640465D
:1083400000F0C2FE0028DCD14FF0E023D3F8F03D6E
:10835000DA07A4D500BEA2E74FF0E023D3F8F03D42
:10836000DB079CD500BE9BE7DC6200200020704745
:1083700073B5204D1C46AB788B4206461DD06B78FA
:108380008B422BD12846FFF723FF28BB05F11C00A9
:1083900001F037FD00BBFCB114F03F031CD169783C
:1083A0000193304600F0EAFE019B0446A0B16978D3
:1083B0001A46304600F0FEFE19E0A2B205F59471AF
:1083C00005F1100001F0AAFD0B4B13B10020AFF333
:1083D00000800848FFF7DAFE012408E04FF0E023B0
:1083E000D3F8F04D14F0010401D000BE0024204663
:1083F00002B070BDDC6200200000000070B50446D1
:108400008178002000F00AFF054668B9201D01F0C0
:1084100021FD3F2808D9A17804F19C022846402379
:10842000BDE8704000F0C6BE70BDF8B505464178A5
:10843000002000F0F3FE064610B100242046F8BDEF
:1084400005F1DC074022394605F1100001F026FD58
:1084500004460028F1D0034669783A46304600F0D9
:10846000A9FE0028EAD14FF0E023D3F8F03DDB0766
:10847000E3D500BE0446E1E737B50D4C00254FF4C7
:108480008E7200212046FEF78BFF04F11C0100953F
:1084900001234022201D01F0A1FC00950123402270
:1084A00004F15C0104F1100001F098FC03B030BD50
:1084B0008464002010B5074C042200212046FEF7FA
:1084C0006FFF201D01F030FD04F11000BDE81040E9
:1084D00001F02ABD846400202DE9F34113464A7956
:1084E000FF2A07460D4603D0002002B0BDE8F08108
:1084F0001F4E7178B2780A43F6D1AA782878327084
:108500002A792C1882B3234401E021780C44617845
:10851000052901D09C42F8D3DFF85880CDF80480BB
:1085200008F10103009321460223384600F0F0FDD4
:1085300038B94FF0E023D3F8F03DDB07D4D500BEC7
:10854000D3E72B79B178C3EBC3031C4439B1402383
:1085500008F19B02384600F02DFE0028E9D0737820
:1085600013B10348FFF761FF601B80B2BDE700BF96
:10857000846400208564002008B5114882788A420E
:1085800004D042788A4211D0002008BD9AB200F18E
:108590009C01043001F0C2FC0A4B13B10020AFF380
:1085A00000800748FFF72AFF0120EEE7064A1AB1CC
:1085B00099B20020AFF300800148FFF736FFF3E7E0
:1085C0008464002000000000000000002DE9F04756
:1085D0001A4E8C2505FB006A0746894600209AF84A
:1085E000011090461C4600F0C9FD18B355460835E9
:1085F000B9F1000F16D03F2C8AF8089005F1010060
:1086000018D8224641461FF0A5F80134A4B28C20A8
:1086100000FB0760234641782A460020BDE8F0476A
:1086200000F0C8BD402C05D82246414628461FF020
:1086300091F8ECE70020BDE8F08700BFA0650020BE
:1086400002488C220021FEF7ABBE00BFA0650020CF
:108650000020FFF7F5BF0000F7B54B79032B074665
:108660000E4603D00024204603B0F0BD0C79C4EBC5
:10867000C4041234A4B2944207D94FF0E023D3F8D3
:10868000F03DDA07EED500BEECE71D4D95F801C0D0
:10869000BCF1000FF1D10A78114491F801E0BEF16C
:1086A000210FEAD1C5F8881016F802C06A1C0192A1
:1086B000AA1C00926144327900F02AFD0028DCD027
:1086C000B379A978012B04BFF379EB7001232B71E7
:1086D000B3782B70D5F88830B3F80730EB800029D9
:1086E000C1D0084A4023384600F064FD0028BAD1C2
:1086F0004FF0E023D3F8F03DDB07B4D500BEB2E77E
:10870000A0650020E8650020F7B51378154603F052
:108710001F02012A06460C4601D000246BE0664F7A
:10872000AA883978D2B29142F7D113F060031FD0F2
:10873000202BF2D16B78013B0A2BEED801A252F824
:1087400023F000BFB58702007F8802008B880200FB
:108750001B8702001B8702001B8702001B87020089
:108760001B870200118802005B88020097880200C4
:10877000012C01D001243EE06A78062ACDD16A8816
:10878000120A212A0AD1D7F88820002AC5D01378E6
:10879000294603B0BDE8F04001F0C4B8222ABCD19C
:1087A00018460FF0B9FDFB8802462946304601F015
:1087B000B9F820E0012CDDD1EB886988402B4FEA25
:1087C0001122184628BF402011F0FF0116D0012BBE
:1087D00014D90138394B397280B2009000200FF063
:1087E000A3FD0444A4B264B94FF0E023D3F8F03DF4
:1087F000DB0792D500BE204603B0F0BD304B00240D
:10880000EBE72F4A23462946304601F08BF8B1E7C3
:10881000012C05D1EB88402B3FF67FAF294AC4E7F6
:10882000032CA7D1EB886988402B4FEA1122184608
:1088300028BF402011F0FF010DD0012B0BD997F874
:1088400048308B4207D101381F4B80B20090002086
:108850000FF080FD8EE71B4BF8E7012C8AD1698869
:108860001A4B090A79712BB10020AFF30080002860
:108870003FF453AF2946304601F042F87AE7012C25
:108880007FF478AF124A23468FE7012C7FF472AF52
:10889000104A234689E7012CECD0032C7FF46AAF01
:1088A00069880D4BC9B23971002B3FF463AF0020CA
:1088B000AFF300805EE700BFA0650020A96500203F
:1088C000A8650020E8650020E965002000000000A0
:1088D000A5650020A46500200000000037B51C4CF1
:1088E000A2788A42054660780CD0884226D1194A7F
:1088F00012B9012003B030BD17499AB20020AFF37E
:108900000080F6E79042F2D000229BB2114610465A
:10891000009304F148030FF01DFDA178402304F1FA
:108920004802284600F046FC0028E2D14FF0E02340
:10893000D3F8F03DDA0708D500BEDBE74FF0E023BF
:10894000D3F8F03DDB0700D500BE0020D2E700BF22
:10895000A065002000000000A865002070B500F1AF
:1089600010050446284601F075FA3F2817D9E1782A
:10897000002000F003FC90B1284601F06BFA3F287C
:10898000E17807D904F50A724023BDE87040002061
:1089900000F010BCBDE87040002000F0FDBB70BDD1
:1089A00010B5044600F094FA08B9002010BD00F09C
:1089B00097FA0028F9D1044B4FF42A7000FB0430D9
:1089C000007900F00100F1E72C660020064B4FF41F
:1089D0002A7202FB0030D0F806300B6043898B808E
:1089E000037B8B71704700BF2C66002008B5044BD9
:1089F0004FF42A7202FB0030103001F002FA08BD79
:108A00002C66002070B54FF42A74074E444304F1DD
:108A1000100092B2304401F041FA05463019FFF7D8
:108A20009DFF284670BD00BF2C660020034B4FF40D
:108A30002A7202FB0030103001F046BA2C6600208A
:108A40002DE9F041044600F043FA10B90020BDE8DA
:108A5000F08100F045FA06460028F7D14FF42A715C
:108A6000164D4C4304F11C08A844404601F0C9F9D6
:108A70000028EBD02F193046B97800F07FFB002892
:108A8000E4D004F51A74254429464022404601F0FA
:108A900005FAB978044668B103462A46304600F024
:108AA00089FB48B94FF0E023D3F8F03DDB07CDD583
:108AB00000BECCE700F070FB2046C8E72C66002023
:108AC00070B50B4C4FF42A7303FB00441C3492B274
:108AD0000546204601F022FA0646204601F091F9AB
:108AE0003F2802D92846FFF7ABFF304670BD00BFD4
:108AF0002C66002008B5044B4FF42A7202FB0030AC
:108B00001C3001F0A7F908BD2C66002037B5144CC5
:108B10004FF42A7200212046FEF742FCFF234FF457
:108B2000424201256371E28000230822638122739F
:108B3000009304F128012B464FF4807204F11000D9
:108B4000258101F04BF900952B464FF4807204F516
:108B5000947104F11C0001F041F903B030BD00BF75
:108B60002C66002010B50A4C002105222046FEF795
:108B700017FC04F110001C3401F0D6F9204601F076
:108B8000D3F920460121BDE8104001F0D2B900BF61
:108B90002C660020F7B54B79022B064603D0002542
:108BA000284603B0F0BD8B79022BF8D1204FBB785B
:108BB0007BBB8B783B700C7809250C4403E0237851
:108BC0001D44ADB21C446378242B1BD19542F6D9C9
:108BD0006378042B12D163790A2B0FD1154B2778B8
:108BE00001930133009302231A46E119304600F045
:108BF0008FFA70B10E3517FA85F5ADB20C48FFF754
:108C0000ADFECDE7052BE3D12146304600F05CFAFE
:108C100038B94FF0E023D3F8F03DDB07BFD500BEF5
:108C2000BDE7A3787B7023781D44ADB21C44CFE729
:108C30002C6600202E66002070B50B461146127877
:108C400002F06002202A47D1244E8A883478944268
:108C500042D14A78203A032A3ED8DFE802F00214D3
:108C60001731012B05D11E4A072300F05BFE0120BE
:108C700070BD032BFBD11B4B002BF8D018490020F3
:108C8000AFF30080F3E7012BF1D1ECE7012B02D128
:108C900000F036FEEBE7032BE9D14C881248347123
:108CA00004F0010585F0010101F043F90F4B002BA1
:108CB000DDD0C4F34002294600200EF0E7FED6E7DF
:108CC000012BE5D0032BD2D1094B002BCFD0498803
:108CD0000020AFF30080CAE70020C9E72C6600201F
:108CE0003266002000000000486600208D7A0300F4
:108CF000000000002DE9F347394D1C46EB788B420C
:108D000007460E4607D0AB788B425BD1AB78B342B7
:108D100035D001245FE0A2B205F50A7105F110001B
:108D200001F0FCF82F4B2BB92F4B03BB2C48FFF75E
:108D300015FEEBE795F905300133F5D005F50A7915
:108D40004FF0000805F1100AA045EDD019F8013BDD
:108D500095F905209A4207D1504601F062F818B9FA
:108D600095F90510AFF3008008F10108ECE71F4802
:108D700001F057F80028D9D1AFF30080D6E71C4B9B
:108D800013B10020AFF300800020FFF759FE002848
:108D9000BFD1184801F035F80028BAD1002CB8D05E
:108DA00014F03F03B5D1A9780193384600F0E6F9F5
:108DB000019B04460028ACD0A9781A46384600F03A
:108DC000F9F908E04FF0E023D3F8F04D14F0010476
:108DD00001D000BE0024204602B0BDE8F08700BFED
:108DE0002C66002000000000000000003C6600200F
:108DF00000000000486600200B4B63B10B4B1B7852
:108E0000834206D90A4B1B6800EB400003EBC0000D
:108E10007047C01AC0B2042803D8064B00EB4000CC
:108E2000F4E70020704700BF00000000D868002071
:108E3000D4680020D48C040037B50C460546C868B9
:108E4000019200F0ABFDE368019A0121284603B0CE
:108E5000BDE830401847000070B5144E05460024A8
:108E60002046FFF7C9FF38B94FF0E023D3F8F03DB3
:108E7000DB0700D500BE70BD4368284698473378AD
:108E80000134E4B20433A342EADA3722002108486D
:108E9000FEF786FA1022FF210648FEF781FABDE8A8
:108EA000704005481222FF21FEF77ABAD8680020E8
:108EB000D9680020DC680020EC680020034A0346E3
:108EC00010780BB101F03CB901F040B9F459002021
:108ED000024B5878003818BF01207047D96800202D
:108EE000024B1878C0F38000704700BFD96800209B
:108EF00010B5094B1A78C2F38004520708D51B78C5
:108F000003F01803182B05D1044B187801F03CF935
:108F1000204610BD0024FBE7D9680020F45900204A
:108F2000024B1878FF3818BF01207047F459002011
:108F3000F8B51C4E3378FF2B05462FD11A4C1B4831
:108F400037220021FEF72CFA201D00F0EDFF184B10
:108F50001C60184B23B11848AFF30080174B186002
:108F6000154F00242046FFF747FF40B94FF0E0239C
:108F7000D3F8F03D13F0010312D000BEF8BD036832
:108F800098473B780134E4B20433A342EADA284636
:108F9000357001F0D3F8284601F0D2F80120EDE752
:108FA0001846EBE7F4590020E4590020D968002066
:108FB0001069002000000000D8680020D46800205C
:108FC000F0B54378023B85B005460C46032B12D81A
:108FD000DFE803F002631921314B1A786FF30002C6
:108FE0001A701A7800216FF341021A7059701A78BA
:108FF00061F382021A702B4B1E6814B93368204645
:109000009847294637E0264B1A78D60743D51A7871
:1090100042F00402EEE7224A1378D8073BD51378D2
:109020006FF382031370E6E7FFF7E6FE20B14369B2
:1090300013B169682878984701363B78F0B2043359
:109040008342F1DA164A1378590724D513786FF35F
:10905000820313700023CDE9013303932B788DF83D
:10906000043005238DF805300E4B1E6814B93368A3
:109070002046984701A9301D00F02CFF054614B981
:1090800033680120984735B94FF0E023D3F8F03D1D
:10909000DB0700D500BE05B0F0BD034F0026CCE7CE
:1090A000D968002010690020D86800201FB54FF44F
:1090B0000063CDE90130039101A81146FFF780FF5D
:1090C00005B05DF804FB000038B58B7803F07F0332
:1090D000082B0C4608D94FF0E023D3F8F03DDB070E
:1090E00000D500BE002038BD074B1D78074B204639
:1090F0009978FEF7CBFB0028EDD021462846BDE845
:10910000384001F049B800BFF4590020D968002068
:109110002DE9F047DDE9085681460C4690469A460F
:109120000027B84501DC01200EE06378052B04D14F
:10913000E37803F0030353450AD04FF0E023D3F85C
:10914000F03DDA0702D40020BDE8F08700BEFAE760
:1091500021464846FFF7B8FF38B94FF0E023D3F86F
:10916000F03DDB07EFD500BEEEE7A378DA0914BFC8
:1091700033702B70237801371C44D2E7CB0901F000
:109180007F00253303EB4003024800211844FEF71B
:1091900052BB00BFD9680020CB0901F07F00253306
:1091A00003EB4003024800211844FEF75FBB00BFF9
:1091B000D9680020174838B501F07F0500EB45005D
:1091C00000EBD11420346079C00709D54FF0E023BB
:1091D000D3F8F03DDA0701D4002038BD00BEFBE72C
:1091E000607940F0010060710B48007801F0A8F848
:1091F0000028F2D1637960F300036371637960F34F
:10920000820363714FF0E023D3F8F03DDB07E3D531
:1092100000BEE2E7D9680020F4590020054B01F0B8
:109220007F0203EB420303EBD11191F8250000F01C
:1092300001007047D968002010B50C4B01F07F0287
:1092400003EB420303EBD114203463799B070BD467
:10925000074B187801F0E4F8637943F00203637177
:10926000637943F00103637110BD00BFD96800202A
:10927000F459002010B50C4B01F07F0203EB4203C0
:1092800003EBD114203463799B070BD5074B187877
:1092900001F0EAF863796FF34103637163796FF367
:1092A0000003637110BD00BFD9680020F45900208D
:1092B000054B01F07F0203EB420303EBD11191F860
:1092C0002500C0F340007047D96800202DE9F04F19
:1092D0008E4B1B78FF2B87B000F08D828C4B1D6866
:1092E0002C46002054F8043B9847204603A900F080
:1092F000C3FD2B68044601209847002C00F07B82B8
:109300009DF80D30013B072B00F2B582DFE813F02A
:1093100008001300B3027E02A0021F004A02AC0242
:109320009DF80C00FFF798FD00F030FB794B9DF89D
:1093300010209A70D2E79DF80C00FFF78DFD00F029
:1093400025FB754B002BC9D0AFF30080C6E7714CED
:109350009DF80C50237843F00103237094F82530D6
:109360006FF3000384F8253094F825306FF38203FF
:1093700084F8253094F826306FF3000384F8263003
:1093800094F826306FF3820384F82630002000F032
:1093900005FB9DF8106006F06002602A11D14FF0C5
:1093A000E023D3F8F03DDC0700D500BE9DF80C00AB
:1093B000002101F035F89DF80C00802101F030F813
:1093C0008CE7402A0DD155480028EFD000F0E6FA8E
:1093D00004AA012128460EF029FE00287FF47EAF62
:1093E000E4E706F01F06012E00F07181022E00F066
:1093F0009881002ED3D1202A0FD19DF814300F2B45
:10940000D4D82344D878FFF7F7FC01460028CDD004
:1094100004AA2846FFF710FDDFE7002ABFD19DF818
:109420001130092BBBD801A252F823F0B9960200E3
:10943000A79602009F930200939602009F9302005A
:1094400055940200D19502009F9302006F94020090
:109450008594020004A800F0A7FA9DF8121028468F
:1094600000F080FE237843F00203237036E7637830
:109470008DF80A3001230DF10A0204A9284600F0F4
:1094800051FA2BE79DF812A063789A4537D063789C
:109490003BB1284600F00AFFA6782846FFF7DCFC1F
:1094A000A670BAF1000F2AD00AF1FF30C0B20EF058
:1094B000CBFC10B14378022B08D04FF0E023D3F857
:1094C000F03DDF077FF56BAF00BE68E7C379C3F3FC
:1094D0008012C3F340131B0143EA4213227822F0A7
:1094E0003002134323704388C31800F10906009328
:1094F000009BB34216D80A4B0BB1AFF3008084F83F
:1095000001A004A9284600F0FBF9E7E6F459002081
:1095100010690020D9680020000000002D800300A1
:109520000000000073780B2B03BF3378F778F61830
:1095300001277378042BC0D1009B9A1B93B201932F
:109540004FF0000BB94B1B785FFA8BF8043343459F
:10955000B3DB4046FFF750FC81460028ADD0019AAE
:10956000D9F80830314628469847082802462CD9B1
:10957000019B834229D3012F09D1D9F80830AC4986
:109580008B4208BF0227AB498B4208BF022700214C
:10959000CBB29F420DD843463146A7480192FEF711
:1095A000A5F9A24B019A1B780433984516449FDD18
:1095B00083E7B078034454FA83F30131D878FF2865
:1095C0007FF47BAF83F80380E2E70BF1010BB9E78F
:1095D000BDF81200030A5A1EC0B20E2A3FF6E6AECC
:1095E00001A151F822F000BF259602004F9602001B
:1095F00071960200AD930200AD93020085960200C1
:109600004F960200AD930200AD930200AD930200AD
:10961000AD930200AD930200AD930200AD93020042
:10962000379602000EF00CFC1223024604A92846CD
:1096300000F078F9D1E6814B002B3FF4B7AE0EF085
:10964000F1FC024600283FF4AAAE4388EEE7022B65
:1096500007D10EF0F9FB00283FF4A1AE4388024683
:10966000E4E7774B002B3FF4A1AEAFF30080F2E7C5
:10967000BDF814100EF0EEFB024600283FF496AE43
:109680000378D3E76F4B002B3FF490AEAFF300802D
:10969000F2E7BDF81230012B7FF488AE237843F057
:1096A000080323702DE7BDF81230012B7FF47EAE46
:1096B00023786FF3C303F4E72378C3F340129B08C6
:1096C00003F002031343ADF80A300223D3E69DF8FA
:1096D00014300F2B3FF66AAE2344D878FFF78CFB8B
:1096E000014600283FF462AE04AA2846FFF7A4FB17
:1096F00000287FF4F3AD9DF8103013F060047FF480
:1097000055AE9DF811300A3B012B3FF64FAE00F0ED
:1097100045F99DF811300A2B7FF4F3AE8DF80A401D
:10972000A8E69DF8141001F07F03082B3FF637AE32
:1097300004EB430303EBD113D87CFFF75DFB074633
:109740002AB100283FF432AE04AA014661E69DF832
:10975000113003F0FD02012A08D0002B7FF41FAE68
:109760002846FFF7A5FDADF80A00AEE7BDF81220C8
:1097700022B9012B284612D1FFF77CFD002F3FF4C0
:10978000ADAD04AA39462846FFF756FB002000F08D
:1097900005F994F82630DE073FF5A0ADB1E6FFF7F6
:1097A0004BFDEBE79DF81010274B01F07F0403EB16
:1097B000440303EBD11393F825006FF3000083F803
:1097C000250093F825006FF3820083F825003CB94B
:1097D000059B9DF811209DF80C0000F0F3F87DE545
:1097E000D87CFFF709FB48B94FF0E023D3F8F03DF0
:1097F000D80700D500BE07B0BDE8F08F0469059B0F
:109800009DF811209DF80C00A04767E50E4B1A78D3
:10981000D1077FF563AD0D4A002A3FF45FAD18789C
:10982000C0F3C000AFF3008058E500BFD868002047
:10983000958B020091820200EC68002025800300D5
:109840000000000000000000D968002000000000B7
:109850000D4B1B78DA077FF541AD0C4B002B3FF425
:109860003DADAFF3008039E5049B002B3FF436ADEE
:109870000598984732E54FF0E023D3F8F03DDB0739
:109880007FF52CAD00BE29E5D9680020000000005E
:1098900037B514490446CA89888991F90050831A5A
:1098A0009BB2402B28BF4023002D10DA904214D0E9
:1098B0001A4689680C4801931DF04CFF0A4A019B27
:1098C0008021204603B0BDE83040FFF773BC9042D2
:1098D0004FF0000103D10022F3E78021FBE7024AA9
:1098E000EFE700BFD4690020E869002011F0800F85
:1098F0004FF000031A460CBF80211946FFF75ABCEF
:1099000030B4074C05460B4608684968224603C236
:109910000022C4E902222846197830BCFFF7E6BFCE
:10992000D4690020F8B5184E0C4605460868496809
:10993000B260374603C70021F181E1888B4228BF1E
:109940000B46B381E18889B153B14AB94FF0E023A6
:10995000D3F8F03DDA0701D40020F8BD00BEFBE7E4
:109960002846FFF795FF30B10120F6E72178284619
:10997000FFF7BCFFF7E74FF0E023D3F8F03DDB073C
:10998000EAD500BEE9E700BFD469002002481422EE
:109990000021FDF705BD00BFD4690020014B18610F
:1099A000704700BFD469002010B50246044C00681F
:1099B0005168234603C30023C4E9023310BD00BF2E
:1099C000D469002070B52D4C1E462378C909B1EB2F
:1099D000D31F054618D04EB14FF0E023D3F8F03D29
:1099E000DA0701D4002070BD00BEFBE7244B13B1A1
:1099F0002146AFF3008023690BB90120F3E71F4A2A
:109A0000032128469847F8E794F90030002B06DB3D
:109A1000A0680028E6D01B4932461DF09BFEA268D4
:109A2000E38932443344A260E2889BB29A42E381E4
:109A300001D03F2E1ED823696BB921782846FFF745
:109A400055FF0028D9D14FF0E023D3F8F03DDB07D4
:109A5000C8D500BEC7E70221084A284698470146F4
:109A60000028EAD1284600F0DBFC8021284600F0DF
:109A7000D7FCC2E72846FFF70BFFE2E7D4690020D6
:109A800000000000E86900200A4492B291424FEAC7
:109A9000400001D8824201DB121A92B21046704790
:109AA00038B50546D41A0846A988A4B29A423CBFE4
:109AB00004EB4104A4B2B4B1A14205D2914294BFD7
:109AC000521A521893B26B81994209D9EA882968CF
:109AD000C2F30E0202FB03111DF03CFE012038BD53
:109AE0005B1A9BB2F0E72046F9E7930813B501EB48
:109AF0008303044699420BD112F0030206D00023DF
:109B000001A801931DF026FE019B236002B010BD49
:109B100051F8040B2060EDE72DE9F04385B085880E
:109B2000BDF830401E1BB6B2A3423CBF06EB450653
:109B3000B6B280460F466EB3B54206D29D4294BF80
:109B40005B1B5B199CB244812E46964228BF164689
:109B5000A54223D9B8F806209DF83430D8F8001073
:109B6000A5EB0409751BC2F30E0025441FFA89FCFE
:109B700015FB00F519FB00F9012B02461FFA89F9C4
:109B8000ADB200FB041116D066450AD872433846C0
:109B90001DF0E0FD304605B0BDE8F083641BA4B2C3
:109BA000D6E74A4638461DF0D5FDD8F800102A46BB
:109BB00007EB0900ECE7664506D816FB00F292B207
:109BC0003846FFF792FFE5E729F00304A4B22246E6
:109BD00038460191FFF789FF19F003092AD0C9F12E
:109BE00004039BB2AB4201994FF0000228BF2B4601
:109BF0002144ED1A039203AAADB201EB0904104609
:109C0000A1420DD1D8F8002009F1FF398144D118C3
:109C10008A420AD1039B3B60002DBBD02A46CFE786
:109C200011F801CB02F801CBEAE712F8013B09F881
:109C3000013FEDE7D8F80010EEE713B5930800EB0D
:109C40008303984209D112F0030204D00B680193F8
:109C500001A91DF07FFD02B010BD0C6840F8044B57
:109C6000EFE72DE9FF471646C279078945898488C1
:109C7000D20980468946BFB2ADB214D1AF4236BFD9
:109C8000C5EB44057D1BED19ADB2A54236BF651B82
:109C90000025ADB2AE4228BF2E46002E4ED1304632
:109CA00004B0BDE8F087A64209D32BB9C188361BA2
:109CB000C1F30E0101FB06992F462646EDE7AF42A0
:109CC0004FEA440136BF4A1B7A1BD21992B2324482
:109CD0008A42E2DBA21B92B229462046FFF7D4FE5D
:109CE0000746DAE7AEEB04001FFA80FEA645F9D27C
:109CF000B8F80620D8F80000A4EB0E05341BC2F318
:109D00000E0174441FFA85FC14FB01F415FB01F5E8
:109D1000012B0A46ADB2A4B201FB0E001AD0664573
:109D20000ED8724349461DF015FDB8F804003246BE
:109D30003946FFF7A9FEA8F80800B0E7BE46D5E708
:109D40002A4649461DF006FDD8F80000224609EBD8
:109D50000501E8E7664506D816FB01F292B24946CE
:109D6000FFF76BFFE1E725F0030A1FFA8AFA524674
:109D700049460190FFF761FF15F003052BD0C5F1AF
:109D800004039BB2A3420198D9F80020039228BF94
:109D90002346E41A0AF1FF3A0DF10C0CA4B2504428
:109DA0002946624601391CF801EB00F801EF11F079
:109DB000FF01F7D1D8F800001544E918421EA94266
:109DC00004D11844002CB0D02246C8E715F801CBC6
:109DD00002F801CFF3E7D8F80000F3E7B2F5004F3F
:109DE0000DD882809DF800200160C3F30E0343EA82
:109DF000C233C380002343810381012070470020C8
:109E000070470389428981889BB292B2934236BFE0
:109E1000C2EB41029B1A9B1898B2884228BF0846A1
:109E200070470289438992B29BB2D31A5842584173
:109E3000704703894289818892B29BB2934236BFB0
:109E4000C2EB41029B1A9B189BB299428CBF002027
:109E5000012070478288038940899BB280B2834287
:109E600036BFC0EB4200181AC01880B2824286BFCB
:109E7000101A80B20020704710B502894389044649
:109E80009BB292B2FFF70CFE6189034682B289B29F
:109E9000A088FFF7F9FD6081184610BD73B50389EE
:109EA00045890026ADB20446CDE900569BB2FFF7C6
:109EB00033FE61890346024689B2A088FFF7E4FDBC
:109EC0006081184602B070BD0289438992B29BB28C
:109ED000FFF7E6BD37B5044605890191FFF7A9FFF5
:109EE000ADB2019910B1E079C00912D0A2882B4619
:109EF0009A4210D9E2882068C2F30E0202FB0300E6
:109F00001DF028FCA08801222946FFF7BDFD208115
:109F1000012003B030BD9B1A9BB2E9E712B10023C8
:109F2000FFF79FBE10467047002343810381012045
:109F30007047C37961F3C713C3710120704742DFD3
:109F4000704743DF704744DF704712DF70470000FF
:109F500007B54FF4405300205A68084B9A420AD183
:109F60008DF807000DF10700FFF7EFFF9DF80700E0
:109F7000003818BF012003B05DF804FBDBE5B151E8
:109F800007B5FFF7E5FF58B1002301A80193FFF7DC
:109F9000DAFF0198003818BF012003B05DF804FB18
:109FA0004FF08043D3F80C0400F00110A0F101132E
:109FB00058425841F1E7000001230360BFF36F8F5F
:109FC000BFF34F8F074B984202D0043B984207D112
:109FD000BFF35B8F044B002283F82021BFF35B8F1C
:109FE000704700BF50700240286A0020F0B42B492F
:109FF000BFF35B8F01F590724FF00104D2E84F3F41
:10A00000C2E8454F002DF9D1BFF35B8FDBB25BB1E6
:10A01000234B5A68C2F30802003A0146F0BC2148BB
:10A0200018BF0122FFF742B808281F4B1AD1D3F8F6
:10A03000C024D00308D5BFF35B8F002381F8203103
:10A04000BFF35B8FF0BC704791F80B010028F2D092
:10A05000D1F800111548C3F8A017C3F8A427F0BC25
:10A06000FFF7AABF01EB401500F59472460153F8C3
:10A070002240EF88AA888959D21B92B2A4B2A24288
:10A0800028BF2246142404FB0033C3F80017C3F88A
:10A090000427074B03EB8000E1E700BF286A00209C
:10A0A00000ED00E0B5A002000070024048700240E0
:10A0B00028700240C0B2FFF799BF000010B40D4AEB
:10A0C000BFF35B8F01464FF00104D2E84F3FC2E877
:10A0D0004C4FBCF1000FF8D1BFF35B8FDBB22BB15B
:10A0E00005485DF8044B0122FEF7E0BF5DF8044B24
:10A0F000FFF762BF486B0020BDA002000D4B03EBD1
:10A100004013D98A9A8A521A198B92B28A4228BF6E
:10A110000A4619691423434303F1804303F51C33B2
:10A12000C3F80016C3F80426034B03EB8000FFF7C7
:10A13000C5BF00BF286A00200470024070470000BD
:10A14000014B80225A60704700E100E0044B8022FE
:10A15000C3F88420BFF34F8FBFF36F8F704700BFEA
:10A1600000E100E0074BD3F80014D3F800240A43C1
:10A17000C3F800240022C3F858214FF48002C3F82A
:10A180000423704700700240024B0022C3F82C25C4
:10A19000704700BF0070024070B58A78404C8E88CE
:10A1A00002F07F03580000EBD21004EB0010C6F35E
:10A1B0000A060681C97801F0030101294FEAD21588
:10A1C00029D00120374900FA03F4D5B903F10C0670
:10A1D000B040C1F80403D1F8140503F5947320438B
:10A1E000C1F8140541F823502E4BC3F8182542F44A
:10A1F0008072C3F80C25BFF36F8FBFF34F8F012020
:10A2000014E002339840C1F80403D1F81035234319
:10A21000C1F81035E8E7082B09D04FF0E023D3F858
:10A22000F00D10F0010001D000BE002070BD1D4BEC
:10A23000DDB9B4F8181111B18021C3F81C15002143
:10A24000C3F85011D3F8001311F4001108BFC3F87C
:10A250005411144B4FF44011C3F80413D3F81415E0
:10A2600041F48071C3F81415BEE70021C3F82C1126
:10A27000B4F8081111B18021C3F81C15094BD3F8AB
:10A28000001311F4001108BFC3F854110649C3F8B4
:10A290000413D3F8101541F48071C3F81015A3E727
:10A2A000286A002000700240000820001F4B802216
:10A2B0002DE9F041C3F88420BFF34F8FBFF36F8FB8
:10A2C00001241B4DDFF87480274604F10C03A21C07
:10A2D00007FA02F207FA03F31343C5F80833A300A1
:10A2E00003F1804303F51C3300265E6008EB441045
:10A2F0009E62202231460134FDF752F8082CE4D149
:10A300000C4BC5F808332022C5F81C6531466E6237
:10A310000948AE64FDF744F8C5F81475C5F8107522
:10A32000024B80225A60BDE8F08100BF00E100E0EE
:10A330000070024000083000286B0020286A0020CE
:10A34000F0B501F07F000F46304C450005EBD71506
:10A350004FEA051E04EB05151E46EB7A85B0C909C8
:10A3600003F0FF0C5BB14FF0E023D3F8F03D13F0A6
:10A37000010301D000BE0023184605B0F0BD44F82B
:10A380000E20AE80A5F806C0F8B9F6B9204BD3F878
:10A390008034C3F3C0138B4217D01E48FFF78EFEE4
:10A3A0001D4B59680396C1F3080100394FF00703AC
:10A3B00018BF012101A8CDE901668DF805308DF89F
:10A3C0000870FEF7FDFD0123D6E70125D1B904EBA6
:10A3D0004012D57220B91148FFF770FE2B46CBE72B
:10A3E000BFF36F8FBFF34F8F947A04F0FF03002CFD
:10A3F000F4D0D47A04F0FF05002CBDD09172FFF7A1
:10A40000F5FDEBE7FFF77AFEE8E700BF286A0020DA
:10A41000007002405070024000ED00E04C700240BD
:10A4200011F07F0008B507D10D4B01225A65BFF32B
:10A430006F8FBFF34F8F08BD0828F8D0084B41F449
:10A440008072C909C3F81825F1D1064B03EB4013FC
:10A450009A7A002AEBD09972FFF7C8FDE7E700BFB0
:10A4600000700240286A002011F0770F12D00A4BCA
:10A4700041F48072C3F80C15C3F80C25CA09C3F85F
:10A48000181504BF01F5947143F82120BFF36F8FB5
:10A49000BFF34F8F704700BF00700240184B01227E
:10A4A000002110B5C3F81425C3F810250A468B0007
:10A4B00003F1804303F51C33013108295A609A6285
:10A4C000F5D10F4B0F4C5A629A64C3F85821D3F858
:10A4D0000014D3F800240A43C3F80024D3F800235F
:10A4E000C3F80823084AC3F8042300214FF49272EA
:10A4F0002046FCF755FF40232383238110BD00BF76
:10A5000000700240286A00200514C0012DE9F04FB8
:10A51000B94BBA4AD3F80013002387B01C46012078
:10A520001D4621FA03F6F6070BD552F8236046B113
:10A5300000FA03F6344342F82350BFF36F8FBFF3A2
:10A540004F8F0133192BECD1E2070BD5FFF7A6FF94
:10A550000023012103A8CDE9033305938DF80D10E5
:10A56000FEF72EFD14F4006FA54D08D0A24BD3F8D2
:10A57000A8369BB2A5F81631012385F81C31A30239
:10A580002CD59D4ED6F8143513F4807303D00820D3
:10A59000FFF72CFD0123D6F81025D70540F1568191
:10A5A00095F81C317BB1002385F81C31B5F81631C4
:10A5B0004FF4E0608822CDE903029BB2012103A899
:10A5C0000593FEF7FDFC0023CDE90333059301213C
:10A5D000032303A88DF80D30FEF7F2FC610234D599
:10A5E000854BD3F8006406F4E062C3F80024F2055A
:10A5F0000CD50121C3F82C150023CDE903330593B5
:10A6000003A804238DF80D30FEF7DAFC77050FD58B
:10A61000794B0122C3F808259A65D3F8002312F478
:10A62000001208BFC3F854214FF40012C3F80423EA
:10A63000B6050AD50023CDE903330593012105238F
:10A6400003A88DF80D30FEF7BBFC200236D56A4B0F
:10A65000D3F88014C9B28DF80410D3F88424D2B290
:10A660008DF80520D3F888048DF80600D3F88C0403
:10A670008DF80700D3F890048DF80800D3F89404FF
:10A680008DF80900D3F898048DF80A00D3F89C34AB
:10A690008DF80B30490601D1052A0FD00023CDE9F2
:10A6A0000333059301A90623082204A88DF80D3071
:10A6B0001DF050F8012103A8FEF782FC514B234006
:10A6C0007BB1BFF35B8F95F82031BFF35B8F002B1D
:10A6D00040F0C4804FF0E023D3F8F03DDA0700D516
:10A6E00000BE474FDFF81091DFF820B1B8460026D2
:10A6F0004FF0140A06F10C0324FA03F3DB07F1B25E
:10A7000028D50AFB0693D8F80020D3F8083705EBC4
:10A71000461C12FA83F2C8F80020BCF806E098B292
:10A7200073449BB2082E4FEA4612ACF8063000F094
:10A730009D80B8F80830834240F09880BCF806301D
:10A74000B8F804009BB2984240F2908011B9584684
:10A75000FFF7B4FC0136092E08F12008CAD12A4BB4
:10A760002340002B00F08C80234BD3F86C84C3F87B
:10A770006C84BFF36F8FBFF34F8F14F4806408D0E5
:10A78000D3F88044D3F880341906C4F3C01440F1E0
:10A790008E804FF00009DFF868A000264FF0140B00
:10A7A00028FA06F3DA07F0B201D4EEB9E4B1124B9D
:10A7B000DAF810100BFB0633D3F8083651FA83F1A0
:10A7C000CAF8101005EB4611B1F816C01FFA8CFC40
:10A7D0005CFA83F39BB2CB82CB8ABAF814C09BB2EB
:10A7E0009C4567D9FFF78AFC0136082E0AF1200A3A
:10A7F000D6D1002401260BE0007002400071024017
:10A80000286A0020FCFB1F00000400014C7002407D
:10A8100004F1100328FA03F3DB07E0B203D47CB998
:10A82000B9F1000F0CD005EB44126301D17A002975
:10A8300052D0D288B98892B291424DD9FFF7D6FB57
:10A840000134082C07F12007E2D119E0002B7FF436
:10A85000BAAE4FF40013C6F80833B4E60023BFF3D2
:10A860005B8F85F82031BFF35B8F3AE72A44D37AB8
:10A870004BB94FF0E023D3F8F03DD80700D500BE28
:10A8800007B0BDE8F08FD388A8F804300020D0725C
:10A89000D388CDE903009BB207228DF8101003A8DE
:10A8A00001218DF80D200593FEF78AFB52E74FF04A
:10A8B000010970E7CB8A0021CDE9031160F07F0028
:10A8C00007219BB28DF80D108DF81000012103A80F
:10A8D0000593FEF775FB87E72B449E72B0E700BF38
:10A8E00001287FB5044600F08D80022846D000285C
:10A8F00042D1614BD3F80025002A3DD14FF48002AC
:10A90000C3F808234FF40062C3F80024BFF36F8F2D
:10A91000BFF34F8F4FF08053D3F830310D2B0CD154
:10A92000564BD3F8001C0322D1B949F27531C3F854
:10A93000001CC3F8142DC3F8001C4F4B0124C3F8AE
:10A940000045BFF36F8FBFF34F8FFFF719FB98B927
:10A95000FFF7FEFA38B104B0BDE87040FFF7EFBA78
:10A96000C3F8142DE9E74FF08043C3F80001D3F892
:10A9700000210192019A1C6004B070BD3E4CD4F8D5
:10A9800004351BB1FFF7FCFA0028F5D1D4F80034E8
:10A990001B05FBD54FF40063C4F80034BFF36F8F81
:10A9A000BFF34F8F4FF08053D3F830310D2B0BD1C5
:10A9B000324BD3F8001C09BB49F27532C3F8002CA6
:10A9C000C3F8141DC3F8002C2B4C2D4E80250123F9
:10A9D000C4F81C55C4F80433C6F88451FEF7A0FA35
:10A9E00000B17560FFF7CCFA0028FBD00123C4F852
:10A9F0000435BFF36F8FBFF34F8FBDE70022C3F85D
:10AA0000142DE1E71C4BD3F80025002AB4D0002216
:10AA1000C3F80425BFF36F8FBFF34F8F1849802011
:10AA2000C1F88400BFF34F8FBFF36F8FD3F80013CB
:10AA3000C3F80813C3F80025BFF36F8FBFF34F8F20
:10AA4000FFF786FA98B1FFF77CFA0E4B5968C1F30D
:10AA5000080100230039CDE90133039318BF012118
:10AA6000022301A88DF80530FEF7AAFA84E74FF01B
:10AA700080435C60E9E700BF0070024000E00640F0
:10AA800000E100E000ED00E06CDF70476DDF704733
:10AA900076DF704778DF70477ADF70477CDF70477A
:10AAA0008FDF7047A0DF70470AF07EBF7FB50822B6
:10AAB0000346019201A94FF6FF7202A806F0FCFDC1
:10AAC00008B10AF071FF019902A806F0CDFD08B1A6
:10AAD0000AF06AFF07B05DF804FB000010B5734B85
:10AAE000B2B0082800F2DF80DFE810F06C00090047
:10AAF0001F002F003F004C005C008500C4000122B5
:10AB00001A706B4B00221A706A4B5B88022B70D94B
:10AB100069486A4B6A49C01AC008000440F0030043
:10AB200032B0BDE810400AF087B901221A70604BBC
:10AB300000221A705F4B5B88022B5AD95E485F4B2C
:10AB40006049C01AC0080004E8E7594A00211170A2
:10AB500001221A70574B5B88022B4AD95648574B33
:10AB60005949C01AC0080004D8E701221A70514B95
:10AB70005B88022B3DD95048504B5449C01AC0083D
:10AB80000004CBE701221A70494B00221A70494B8E
:10AB90005B88022B2DD94848484B4D49C01AC00844
:10ABA0000004BBE701221A70414B00221A70414B8E
:10ABB0005B88022B1DD94048404B4649C01AC0084B
:10ABC0000004ABE700221A70394B01221A70394B8E
:10ABD0005B88022B09D93848384B3F49C01AC00856
:10ABE000000440F003000AF027F909F0A9FF00284B
:10ABF000FBD132B010BD00221A700823CDE9023318
:10AC000012AA03AB02A904A806F016FD0528294CD8
:10AC10002BD16388032B18D92748284B2F49C01AFA
:10AC2000C008000440F004000AF006F96388032B12
:10AC30000BD9224B20482A49C01AC0080004DDE97C
:10AC4000022340F004000AF004F90220FFF72EFF6F
:10AC5000039B0093029A234812AB04A902F048FB1D
:10AC60000028C6D00AF0A0FEC3E70028DED00AF014
:10AC70009BFEDBE700221A701B4B18884FF6FF7310
:10AC80009842B6D012A906F0D1FD0528B1D008B17E
:10AC90000AF08AFE0620FFF709FF0DF1590111485D
:10ACA00002F016FBDCE700221A70A2E75B6C0020C2
:10ACB0005C6C0020085F002094DF04004CDF04007F
:10ACC0004C8D0400798D04009C8D0400BB8D040024
:10ACD000DA8D0400088E0400368E0400548E0400C1
:10ACE000898E04008C6C00201471002007B50B784D
:10ACF000052B18D0062B1CD0042B17D18B79022BD7
:10AD000014D1CB7993B90C4A01920C4A0C481288A1
:10AD100000921946012203F086FB38B103B05DF8BA
:10AD200004EB0AF041BE074B01221A7003B05DF834
:10AD300004FB044B0022F8E72C710020FA59002094
:10AD4000FC5900205F6C002030B587B008230193C8
:10AD50004FF6FF72012301A902A806F0ADFC08B16D
:10AD60000AF022FE144D6B88022B0BD9134B1448AA
:10AD7000019A1449C01AC0080004082340F00300D7
:10AD80000AF067F8019902A806F04CFC6B88022BC8
:10AD900004460AD909480A4B0B491B1ADB081B0455
:10ADA000224643F003000AF04BF814B120460AF0A3
:10ADB000FBFD07B030BD00BF085F00204CDF040082
:10ADC00094DF0400DC8E0400158F040010B50446E7
:10ADD00007F032FA204607F059FA204606F08CFFB9
:10ADE0002378033B0A2B1FD8DFE803F0061E1E1E44
:10ADF0001E1E491E1F1E35002D4B5B88032B09D9D3
:10AE00002C482D4B2D49C01AC008000440F0040006
:10AE10000AF012F809F094FE0028FBD1284B012219
:10AE20001A70284BA2881A8010BD214B5B88032B17
:10AE300009D92048204B2449C01AC008000440F01A
:10AE4000040009F0F9FF09F07BFE0028FBD11F4B3D
:10AE500001221A70E8E7164B5B88032B09D91548C5
:10AE6000154B1B49C01AC008000440F0040009F04B
:10AE7000E3FF09F065FE0028FBD1164BE8E7237CD1
:10AE8000DB07D1D5237A072BCED1094B5B88032B67
:10AE900009D90848084B1049C01AC008000440F0FE
:10AEA000040009F0C9FFBDE81040FFF74DBF00BF27
:10AEB000085F002094DF04004CDF0400408F040092
:10AEC000596C002014710020678F0400626C002010
:10AED000918F0400586C0020BC8F04000AF064BD00
:10AEE0000AF062BD0AF060BD08B50548032102F012
:10AEF000A7F818B1BDE808400AF056BD08BD00BF6C
:10AF00008C6C002008B5FFF71FFFBDE80840FFF775
:10AF1000EBBF0000014B1878704700BF5B6C00204E
:10AF2000014B1878704700BF5C6C002013B50446D5
:10AF30006846FFF7ABFD0098BDF804209DF8063089
:10AF400020602046A280A37102B010BD08B5FFF7B3
:10AF50009BFDB0FA80F0400908BD00002DE9F047E4
:10AF6000AEB00AF067F808B10AF01EFD0AF00AFE5A
:10AF700008B10AF019FD002303A9012003930AF088
:10AF8000DBFE08B10AF010FD03A80AF02DFF08B19E
:10AF90000AF00AFDBD4A0A2108200AF0B1F808B1FA
:10AFA0000AF002FD1123BA488DF804301DF068F94B
:10AFB00001AD82B2B6492846FFF770FD08B10AF02C
:10AFC000F3FC40F2C130FFF765FD08B10AF0ECFC7C
:10AFD0000822002103A8FCF7E3F90623ADF80C30A2
:10AFE000ADF80E30ADF8103003A82B23ADF81230B9
:10AFF000FFF752FD08B10AF0D7FCA648002104F083
:10B000002DF908B10AF0D0FCAC22002103A8FCF70E
:10B01000C7F9A14A0892A14AA14812788DF8852063
:10B02000002202232821CDE9232240F6B832CDE9BF
:10B0300025128DF80C3040F2011240F20163ADF898
:10B040000E30ADF8882001234FF44862CDE9272364
:10B05000ADF81C30ADF88630924B2C9303A9924B7F
:10B060002D9301F076FF08B10AF09EFC8C488F4CBE
:10B07000012101F06BFF03A8FFF758FF6388032B42
:10B080000BD98B488B4B9DF80D208B49C01AC008FB
:10B09000000440F0040009F0D3FE884B1E789DF8B0
:10B0A0000D30B34213D003A88DF80D60FFF74EFFAB
:10B0B0006288032A03460AD97E487D4C8049241AB7
:10B0C000E4082404324644F0040009F0C2FE7D4B3B
:10B0D0007D48039303A904F09FFA08B10AF064FCC9
:10B0E00043F2EF53ADF8063012230224ADF80830D6
:10B0F00040220123002103A8ADF80A308DF8044056
:10B10000FCF74EF903A8714903F03BFF03A8119522
:10B110008DF8484002F056FA08B10AF045FC1022BA
:10B12000002103A8FCF73CF90023039301220593B7
:10B130006748684B8DF8102003A9069302F039F98F
:10B1400008B10AF031FC644F644CDFF8AC8108228E
:10B1500000213846FCF724F9282200212046FCF77C
:10B160001FF9082200214046FCF71AF94FF44073FA
:10B170007B8040F2012208232380A8F80220238349
:10B1800003224FF48273022540F202264FF0010998
:10B1900040F2011A22814FF481712282638340F2CE
:10B1A000031240F205136181628263844822002108
:10B1B000A4F802A0A680A571A681A573A682A57594
:10B1C000A683A577A4F82090A68484F8265003A827
:10B1D0003D80BE80A8F80090A8F80460FCF7E0F875
:10B1E0003F4B03933F4B049305238DF81630D32335
:10B1F000ADF830303C4B0B9300233C4A8DF8423085
:10B2000011933B48ADF814A04FF0023303A9069404
:10B210008DF81C90CDF820808DF824900A978DF839
:10B2200038500F928DF84050ADF850608DF8525064
:10B230001293ADF84C608DF84E5002F0D6FD08B177
:10B240000AF0B2FB1C22002103A8FCF7A9F8002396
:10B250004FF42032CDE903324FF470220592ADF85D
:10B260001A3003228DF81C30089303A8214B8DF867
:10B270001820099303F09CFC08B10AF095FB06F036
:10B28000FFF8D8B30AF090FB38E000BF4C6B002009
:10B29000FD6B0020D4700020F6590020FC6B0020CC
:10B2A0008C6C0020DDAA0200A9AA0200085F002021
:10B2B00094DF04004CDF0400FE8F0400F5590020E9
:10B2C00014900400E1AE02001871002031900400D7
:10B2D000C070002064020202506C0020646C0020E8
:10B2E000EDAC0200E5AE02008C5B00200101000322
:10B2F000FC590020DDAE020024710020052200214F
:10B3000003A8FCF74DF831238DF80C3007238DF896
:10B310000D3010238DF80E309DF80F3023F003030D
:10B3200043F003038DF80F309DF8103023F0030332
:10B3300043F0030303A88DF8103006F05BF908B161
:10B340000AF032FB054806F03DF908B10AF02CFB83
:10B35000034B01221A702EB0BDE8F087CDAD02007C
:10B360005A6C002008B509F057FF09F0E9FB18B93D
:10B37000BDE8084009F074BE08BD00004FF6FF7339
:10B38000984270B504462BD0164D6B88022B0AD913
:10B390001548164B16491B1ADB081B04224643F0BE
:10B3A000030009F04DFD134E00232046337006F0D4
:10B3B00049FA08B10AF0F8FA337873B16B88022BB6
:10B3C0000ED90A48084B0C49C01AC0080004BDE851
:10B3D000704040F0030009F02FBDFFF7C3FFEBE71B
:10B3E00070BD00BF085F00204CDF040094DF040044
:10B3F00065900400626C00206090040007B50B4665
:10B40000014628B11A460E4801931CF0A3F9019B8E
:10B410000C4A012111700C4A5288032A0DD90B4A9B
:10B420000B480C49801AC008054A000440F004008B
:10B4300003B05DF804EB09F00CBD03B05DF804FB4C
:10B44000306C00205D6C0020085F00204CDF0400A1
:10B4500094DF0400A390040000487047306C002083
:10B46000014B1888704700BF1471002010B5124CB2
:10B4700086B006AB03E9030006220DF11101204658
:10B480001CF068F90D4B5B88032B13D90C4B0D484E
:10B4900022780D49C01A6379039323790293C00877
:10B4A000E37801930004A378009340F004006378EC
:10B4B00009F0F3FC06B010BD2A6C0020085F0020E4
:10B4C0004CDF040094DF0400BF900400F0B5038853
:10B4D0003B2B8DB0064600F08F8015D8112B5DD028
:10B4E000212B71D0102B1ED03388352B40F0A28039
:10B4F0007389002B00F09E80B18906F110000DB019
:10B50000BDE8F040FFF77ABF562B00F08880572B3C
:10B51000EAD1494A00231370484A1370484A13700D
:10B52000484A1370E0E7484B5B88022B09D947482B
:10B53000474B4849C01AC008000440F0030009F016
:10B540007BFC454B454FB088388000221A704FF67F
:10B55000FF72ADF806204FF428520123ADF8082001
:10B5600002A901AA06F10805ADF804308DF80A30E9
:10B57000FFF798FA0FCD03AC0FC40FCD0FC42B68A3
:10B580002360DDE90301FFF771FF3988344804F0D7
:10B5900055F80028A8D00AF007FAA5E72A4B5B88DF
:10B5A000022B09D929482A4B2E49C01AC008000489
:10B5B00040F0030009F040FC2B4B00221A70274B8F
:10B5C0004FF6FF721A808FE71F4B5B88032B09D958
:10B5D0001E481F4B2549C01AC008000440F0040053
:10B5E00009F02AFC0023B0888DF80C3003A98DF8EF
:10B5F0000D30FFF755FACCE7134B5B88032B09D9C5
:10B600001248134B1A49C01AC008000440F0040045
:10B6100009F012FCB0881321FFF73AFAB9E70A4B98
:10B620005B88032BF6D90948094B1249C01AC00898
:10B630000004EBE70DB0F0BD606C0020616C0020F1
:10B640005E6C0020636C0020085F002094DF040023
:10B650004CDF0400F39004005B6C0020FA590020DA
:10B660001871002009910400596C002022910400F7
:10B670004291040063910400004870472A6C002046
:10B68000014B1878704700BF596C0020014B1878A7
:10B69000704700BF5A6C0020014B1878704700BFFC
:10B6A0005D6C0020014B1870704700BF5D6C00207E
:10B6B00007B50B490B4B09781B88024659B9009313
:10B6C00008220346084802F0AEFDB0FA80F04009B7
:10B6D00003B05DF804FB0821034802F003FEF4E721
:10B6E0005F6C0020FA590020FC5900201FB5164B52
:10B6F0001A88164B1B78E3B940F6FF74A042144B2E
:10B70000A8BF2046A142A8BF2146187089B2C0F345
:10B71000032040EA01100911587099700D480092F9
:10B720000221032202F07FFDB0FA80F0400904B04C
:10B7300010BD002402924BB242B2CDE90044214632
:10B74000044802F012FEEFE7FA5900205F6C002077
:10B75000276C0020FC5900201FB50F4B19880F4B98
:10B760001A787AB90E4B18705A709A700D48009179
:10B770000322012102F057FDB0FA80F0400905B024
:10B780005DF804FB00230291CDE9003301461A461F
:10B79000044802F0EAFDEFE7FA5900205F6C002050
:10B7A000246C0020FC59002007B50B4B024618788A
:10B7B00070B90A4B5A700A4A187012889970094871
:10B7C00000920121032202F02EFDB0FA80F0400920
:10B7D00003B05DF804FB00BF5F6C0020216C00200B
:10B7E000FA590020FC59002007B5074A1288009238
:10B7F000034608220321054802F015FDB0FA80F047
:10B80000400903B05DF804FBFA590020FC59002000
:10B81000014B1878704700BF5E6C0020014B01227D
:10B820001A7070475E6C002007B5074A12880092B4
:10B83000034601220421054802F0F5FCB0FA80F02D
:10B84000400903B05DF804FBFA590020FC590020C0
:10B85000014B1878704700BF636C0020014B012238
:10B860001A707047636C002008B50C4B1B780146BA
:10B8700093B10B4B0B481A8801F00FFE132807D920
:10B8800043F20143984207D0BDE808400AF08CB863
:10B89000054BC340DB07F7D508BD00BF596C00203E
:10B8A000FA590020C070002001810A0007B5064A3D
:10B8B00012780132034600922421044A04481CF005
:10B8C000B9FA03B05DF804FBF55900208491040037
:10B8D000FD6B0020014B1870704700BFF559002028
:10B8E000014B1870704700BFFC6B002070470000D0
:10B8F00000230129036002D0022904D10123044A54
:10B9000002EBC30303600068B0FA80F0400970479F
:10B910008C91040007B5002300936846054B019302
:10B9200000F096F9012802D0012000F0C3F903B01D
:10B930005DF804FBEDB8020000F0E5B9074A00230A
:10B9400002EB43014978814203D112F8130000F061
:10B95000E6B901330E2BF3D1012070479C9104000E
:10B9600000F0CFB900F08EB907B5014601A8FFF786
:10B97000BFFF012803D0019B586800F0A5F903B070
:10B980005DF804FB37B50C46014668461546FFF7DF
:10B99000AFFF012803D10124204603B030BD009B36
:10B9A00001A9586800F09DF90128F4D0019800F031
:10B9B0003FF921462A4601F093F901280446EBD0CD
:10B9C000019800F039F9E7E737B50D4601466846BA
:10B9D000FFF78EFF012804460BD0009B01A9586891
:10B9E00000F07FF90128044603D0019800F01CF90B
:10B9F0002860204603B030BD37B50D460146684685
:10BA0000FFF776FF012804460DD0009B01A9586876
:10BA100000F067F90128044605D0019800F008F904
:10BA200001F0FAF82880204603B030BD37B50D4646
:10BA300001466846FFF75CFF012804460DD0009BD5
:10BA400001A9586800F04DF90128044605D0019875
:10BA500000F0EAF801F0DEF82880204603B030BD9F
:10BA600000F060B9704710B50446082001F0D4F921
:10BA70002060002010BD38B505460C460DF076F963
:10BA8000241841F10001C5E9004138BD10B5044654
:10BA90000DF06CF9D4E90023904271EB03032CBF45
:10BAA0000120002010BD0000B0F5A07F10B50AD124
:10BAB000054A064CD2E90031D4E900041B1841EBD9
:10BAC0000401C2E9003110BD38710020307100203E
:10BAD0001FB50F4A0F4C0023C2E900030E4AC4E908
:10BAE0000003CDE902230D480D4A02A90AF0B2FE77
:10BAF00008B109F059FF2268084801230093120198
:10BB000000210AF040FF05480AF014FF04B010BD00
:10BB1000307100204071002000000305605C0020AF
:10BB2000A9BA020008B504494FF47A72D1E90001BC
:10BB300000231BF0CDFB08BD3871002000F016B8C3
:10BB400008B500F039F8BDE8084000F03BB81FB573
:10BB50000FC86C4684E80F000023102221464FF0E6
:10BB6000FF30029301F0C6F904B010BD38B5114C96
:10BB70004FF4FE2565602B68012B12D16B68102BEA
:10BB80000FD12846FFF7E3FFAB68984209D16368FD
:10BB90000FCB04F1080585E80F0001232370002076
:10BBA00038BD10230122C4E902230023C4E9043371
:10BBB000F3E700BF48710020014B01225A61704732
:10BBC0004871002010B5104C1022606804F1080183
:10BBD0001BF08EFDB0B160680BF0DEFA04F10800D6
:10BBE000FFF7B5FF0422206104F1080160680BF043
:10BBF000EBFA6068102204F108011BF079FD0038AF
:10BC000018BF012010BD00BF4871002010B50446C8
:10BC1000082001F001F92060002010BD0B680360CE
:10BC20004B68436000207047436800685B681847B2
:10BC3000436800689B69184743685B6A0BB10068FA
:10BC40001847704783680BB1406818477047000079
:10BC500037B50A4C00940023238002230546A370C5
:10BC60006846074B019300F0E9FD01281FBF2B68D0
:10BC700063606B68A36003B030BD00BF60710020DB
:10BC800045BC020037B50A4D2B787BB9AB788DF8EF
:10BC9000043001A800F000FE0128044603D001236F
:10BCA0002B70FFF7DFFE204603B030BD0124FAE71A
:10BCB00060710020034A0346107808B993707047FA
:10BCC000012070476071002010B5044600F0EEFDC1
:10BCD00028B124B12046BDE8104000F0F7BD012096
:10BCE00010BD13B50446019100F0E0FD30B101999B
:10BCF000204602B0BDE8104000F0F4BD012002B0C3
:10BD000010BD00F0F9BD4FF08053D3F8A400030E2E
:10BD1000552B01D0AA2B01D180F04040704700F094
:10BD2000EDBD000010B50C4C2378012B05D0032B82
:10BD30000CD0BDE8104000F0E3BD00F0B7FD10B13D
:10BD40004FF481732380FFF78DFEF2E700F0B6FD1C
:10BD50000028F8D00023F5E76071002037B50024F3
:10BD600001AB18190AF0A2FB60BB0134032CF7D118
:10BD7000154B9DF80420154903EBC20008600146ED
:10BD80001348043101609DF80510124803EBC1040B
:10BD900004602046104C043020609DF806000F4CD3
:10BDA00003EBC00525602B460D4C043323600123B3
:10BDB00003FA01F103FA02F20A430A490A600A4A45
:10BDC0008340136003B030BD10F501407471002052
:10BDD0008071002078710020847100207C71002027
:10BDE000887100206C7100207071002020B1034B1D
:10BDF000800143F001031847704700BFC091040061
:10BE00000AF04CBA0AF056BA19F0D8BE17F0ACBC1A
:10BE10001AF07EBC70B58AB0064600F023FE0446D8
:10BE2000304600F024FE0546204617F027FE002885
:10BE30001BDD284600F0F0FE2028034628BF202303
:10BE40009BB201AA02A92046019317F0D1FD60B16F
:10BE5000019B13B1304600F022FEBDF8042002A978
:10BE6000284600F03DFF0128DED10AB070BD000079
:10BE700010B4064CE3680A4623B1014660685DF8D9
:10BE8000044B184701205DF8044B70478C7100206B
:10BE900007B501A9FFF7ECFF10B9019800F013FEF8
:10BEA00003B05DF804FB13B501A90446FFF7E0FFFA
:10BEB00020B1204617F0EEFD02B010BD019800F051
:10BEC000F6FD0028F8D00198FFF7A4FF019800F0D4
:10BED000F1FDF1E770B588B0044600F0C3FD0646F9
:10BEE000204600F0CAFD0546304617F0BBFD02288B
:10BEF00021DC284600F08EFE0446E0B1202828BF51
:10BF00002024A4B222466946284600F071FF012889
:10BF100011D022466946304617F010FD68B917F077
:10BF20009FFE00F0FD00082805D1064A936813B172
:10BF300050680121984708B070BD21B2284600F032
:10BF400071FED1E78C71002007B501A9FFF790FFC2
:10BF500048B9019800F0B1FD28B10198FFF7BAFF88
:10BF6000019800F0ADFD03B05DF804FB10B5044688
:10BF700000F0A3FD50B12046FFF7ACFF204600F0D3
:10BF80008BFD204600F09CFD002010BD0220FCE748
:10BF900010B50446FFF7EAFF58B9204600F08DFDC2
:10BFA00038B12046FFF796FF2046BDE8104000F06C
:10BFB00087BD10BD10B5044600F079FD50B1204694
:10BFC000FFF728FF204600F05BFD2046BDE810404B
:10BFD00000F070BD10BD000037B5154D2C780CBBBE
:10BFE000C5E901446C70AC70EC60FFF7B7FE02204D
:10BFF00017F0F8FB98B10F4B186800901B798DF87B
:10C0000004300521684617F073FD40B14FF41670F7
:10C0100017F0C0FD18B1022017F0F2FD20B9012081
:10C0200003B030BD0020FBE701232B702046F7E76B
:10C030008C710020CD91040010B50E4C62780AB1CD
:10C04000012010BD436863608368A360C368E36038
:10C050000078012802D00228F2D1104617F02AFDFC
:10C060000028EDD017F04EFC0028E9D001236370C2
:10C070000020E6E78C710020034B9A781AB9012260
:10C080009A7017F04FBC70478C710020014B5878A4
:10C09000704700BF8C71002008B517F057FD80F085
:10C0A0000100C0B208BD00000A4A08B5002312F81A
:10C0B0001310814208D102EB4303587817F058FD62
:10C0C00080F00100C0B208BD01330E2BEFD101207A
:10C0D000F9E700BFD391040013B502AB03E90600F2
:10C0E0000446FFF731FF9DF8003013B12046FFF7FB
:10C0F000DAFE204602B0BDE81040FFF7C9BE82B0AC
:10C1000002AB03E9060002B0FFF71EBF13B50446F9
:10C11000FFF7C9FE2046FFF717FF204602B0BDE833
:10C120001040FFF7B5BE0000054B10B500249C7011
:10C130005C702046013417F0ADFC082CF9D110BD1D
:10C140008C710020704710B50446FFF733FF20467E
:10C1500000F08AFCBDE8104000F05CBD10B504465C
:10C16000FFF728FF2046BDE8104000F07DBCF7B582
:10C17000054601911646FFF71DFF284600F074FCA6
:10C1800001993246074600F033FE0128044606D0E6
:10C19000384631B200F046FD2846FFF70BFF204637
:10C1A00003B0F0BD37B505460191FFF703FF284600
:10C1B00000F05AFC0199002200F0E1FD012804463C
:10C1C00002D02846FFF7F6FE204603B030BD10B57A
:10C1D0000446FFF7EFFE2046BDE8104000F062BCC9
:10C1E00038B50446FFF7E6FE204600F03DFC054664
:10C1F00000F010FD01B2284600F014FD2046BDE815
:10C200003840FFF7D7BE10B50446FFF7AFFE204613
:10C2100000F030FCBDE8104000F0FEBC10B5044654
:10C22000FFF7A4FE2046BDE8104000F023BC37B560
:10C2300005460191144662B1FFF798FE284600F0CA
:10C2400019FC2246019900F04BFD04462846FFF7F1
:10C250009FFE204603B030BD70B5054608460E4629
:10C2600000F0D8FC044670B12846FFF77FFE284650
:10C2700000F000FC00220146304600F080FD04463C
:10C280002846FFF785FE204670BD37B5044600F00E
:10C2900014FC98B1204600F0E5FB054617F0E2FBE0
:10C2A000022805DC00220DF10701284617F046FBA5
:10C2B000204600F005FC002003B030BD0220FBE763
:10C2C00010B5044600F003FC2046BDE81040FFF71F
:10C2D0005FBE022070470000014B5878704700BFD6
:10C2E0009C710020024B587880F00100704700BF1D
:10C2F0009C71002010B5837804464068BBB1012BC7
:10C300001ED06068FFF7DCFF63785BB363694BB3F3
:10C310002069FFF7BBFB28B36068FFF7B6FF012871
:10C3200020D0D4E90401BDE81040FFF7A4BBFFF71B
:10C330004EFF0028E5D00123A370FFF793FBE0E751
:10C3400000F090FB17F08EFB10B10023A370D8E72C
:10C350006068FFF79AFF0128D3D00028F5D00228A3
:10C36000CFD1EAE710BD037A0BB1FFF7C3BF704727
:10C3700070B5084D064668680C4600F073FB8642AF
:10C3800005D12B7A23B16B680020236070BD002398
:10C390000120FAE79C71002070B5084D2B7A064603
:10C3A0000C461BB900230120236070BD686800F0B3
:10C3B00059FB8642F6D1EB680020F5E79C7100201E
:10C3C00038B50E4D6B7804460BB9012038BD2B7A79
:10C3D00068682BB100F046FB201A18BF0120F5E772
:10C3E000214600F03CFB0128EFD0686800F017FB05
:10C3F00001281CBF01232B72E8E700BF9C710020BD
:10C40000034B002258685A701A7200F015BB00BF27
:10C410009C7100204068FFF701BF4068FFF7F3BE42
:10C420004068FFF7DDBE4068FFF7BCBE4068FFF71D
:10C430009EBE4068FFF792BE4068FFF784BE0000D2
:10C440000248037A0BB1FFF755BF70479C7100207B
:10C4500008B5054B1A7801202AB15870D3E90401B8
:10C46000FFF709FB002008BD9C71002038B5044689
:10C470004068FFF7DCFE0128054603D0D4E904013B
:10C48000FFF7F9FA284638BD38B504464068FFF78B
:10C49000E3FE0128054603D0D4E90401FFF7EBFAD7
:10C4A000284638BD012937B504460D4603D0022978
:10C4B00001D003B030BD237A002BFAD0606800F0C1
:10C4C000D1FAE3690190002BF3D0A06901AA2946B3
:10C4D0009847EEE770B5224C267886B0054626B917
:10C4E0006670FFF779FD012801D1012035E02B6846
:10C4F00003A9CDE90334201D1A4B059300F04CFA33
:10C500000128F2D004F10C002672FFF77FFB01280E
:10C51000EBD0154BE068019401A90293FFF77EFB75
:10C520000128E2D03046A67017F07CFB0F2017F0F0
:10C5300055FB304617F078FB1E2017F03DFB04F149
:10C540001000FFF790FA0128CFD06B686361AB68E9
:10C55000A361EB68E3610123237006B070BD00BFE7
:10C560009C710020A5C40200F091040000487047AF
:10C570001892040001207047034B1A7801200AB179
:10C5800058700020704700BFBC710020014B5878E4
:10C59000704700BFBC710020024B587880F001004A
:10C5A000704700BFBC71002070B50A4B03EB8003DD
:10C5B00004465E68B0680D4600F054FA844205D126
:10C5C000337923B1B36800202B6070BD00230120B4
:10C5D000FAE700BFBC710020037913B18068FFF750
:10C5E0006FBE704770B50A4B03EB800304465E686C
:10C5F00033790D461BB9002301202B6070BDB06854
:10C6000000F030FA8442F6D1F3680020F5E700BF6D
:10C61000BC71002038B50F4B5A7804460AB9012086
:10C6200038BD03EB80035D682B79A8682BB100F05F
:10C6300019FA231A58425841F2E7214600F00FFA3E
:10C640000128ECD0A86800F0EAF901281CBF0123FA
:10C650002B71E5E7BC71002070B5074E00257570A1
:10C66000012456F82430013498681D7100F0E4F973
:10C67000092CF6D170BD00BFBC7100208068FFF7A7
:10C68000EBBD8068FFF7D3BD8068FFF7C7BD80684A
:10C69000FFF7B9BD8068FFF7A3BD8068FFF782BDD3
:10C6A0008068FFF764BD8068FFF758BD8068FFF7BA
:10C6B0004ABD000038B5064D012455F824301A79DA
:10C6C00012B19868FFF7FCFD0134092CF5D138BD93
:10C6D000BC710020012937B50C4603D0022901D0D6
:10C6E00003B030BD0379002BFAD00568806800F0F4
:10C6F000B9F90190AB6A002BF2D0686A01AA214611
:10C700009847EDE72DE9F043204C237887B00546A4
:10C71000002B38D16370FFF75FFC01281BD01C4F42
:10C72000DFF870800126102000F076FB0023046003
:10C7300003712B680597CDE90330814603A90830C2
:10C7400000F02AF9012806D009F10C00FFF75EFA83
:10C75000012803D1012007B0BDE8F083D9F80C000F
:10C7600001A9CDE90198FFF759FA0128F2D044F860
:10C7700026900136092ED6D16B686362AB68A3623E
:10C7800001232370E7E70020E5E700BFBC7100202C
:10C79000D5C602003C920400004870476492040031
:10C7A00003690BB1C06818477047012906D10378A7
:10C7B00023B1037A13B940F20113038170470000DB
:10C7C00030B50128174D85B005D0022818D00023B8
:10C7D0006B601B68FFDEFFF7DFFF68600368984748
:10C7E000114B8DF8000002936846104B019503939E
:10C7F000FFF722FC012806D1012400236B600EE024
:10C80000FFF7B4FEE9E76B689B6898470128044688
:10C81000F2D001232B70FFF725F9002CEDD1204633
:10C8200005B030BDE8710020ABC7020031C802007E
:10C83000034608465B6811465B681847F0B585B04B
:10C840000546FFF7C9FB012802D1012005B0F0BD64
:10C850000F4C104E01944FF0012768460097029646
:10C86000FFF750FF0128F0D04FF47A736846CDE906
:10C87000013400970396FFF72DFE0128E6D0002330
:10C880006360237223702B68E3606B682361DDE7CC
:10C89000E8710020A1C70200034B1B7813B9007890
:10C8A000FFF78EBF01207047E8710020024B187817
:10C8B000003818BF01207047E8710020024B18783B
:10C8C000B0FA80F040097047E8710020044B1A78F4
:10C8D000012A02D15B689B6918470120704700BF9D
:10C8E000E8710020034B5B680BB1DB69184701203E
:10C8F000704700BFE8710020FFF7CEBBFFF7D4BB45
:10C9000070B51A4C2378012B02D0022B13D070BDC6
:10C91000237A43B96368002BF9D01B6A002BF6D049
:10C92000BDE870401847FFF7A7FB02232370BDE85E
:10C930007040FFF797B8FFF7A9FB05460028E6D13E
:10C9400020722070FFF78EF8667A56B163686572C0
:10C950001B6898472378002BD9D1BDE87040FFF7BA
:10C960002FBF6368DB6898476660D0E7E8710020F6
:10C97000436A0BB1006A1847704710B5002304469C
:10C9800003744FF47A71C069FFF775F803232371BC
:10C99000BDE81040FFF766B87FB5064628200D4673
:10C9A00000F03AFA4FF0FF33306001260360067161
:10C9B0000446FFF757F82B888DF8046001A900267C
:10C9C00004F108000296ADF80C3000F033FA0128AB
:10C9D00002D1012004B070BD02238DF8043001A9FA
:10C9E0006B88029604F10C00ADF80C3000F022FACE
:10C9F0000128EED004F114002682A67400F090F80D
:10CA000004F1180000F08CF804F11C00FFF72BF87B
:10CA100001281FBF6B682362AB686362DAE710B559
:10CA20004FF47A710446C069FFF725F80223237199
:10CA3000FFF718F8002010BD4FF0FF3310B5044683
:10CA4000036001230371FFF70DF8A06800F018FAE6
:10CA5000E06800F015FA00236374A37410BD016050
:10CA60000020704700687047806800F005BA806851
:10CA700000F004BAC06800F0FFB9C06800F0FEB969
:10CA800010B50446806800F005FA637C1BB10123F1
:10CA9000A3740023637410BDC06800F0FBB90123C8
:10CAA0004374704703460022807C9A747047406943
:10CAB00000F038B8406900F037B8806900F032B84B
:10CAC000806900F031B801230374FEF7CBBF10B5C5
:10CAD0000379032B044618D0042B1DD0022B1ED142
