:020000022000DC
:1070000000000220755404009D5404009F540400A5
:10701000A1540400A3540400A5540400000000007F
:10702000000000000000000000000000A754040061
:10703000A954040000000000AB540400AD54040047
:10704000D9860300E18E020069AC0300A18E030023
:1070500071880300AF540400AF540400AF5404001F
:10706000AF540400AF540400AF540400AF54040004
:10707000AF540400AF540400AF540400AF540400F4
:10708000AF540400B5350300AF540400AF540400FE
:10709000AF540400AF540400717B0300AF540400EC
:1070A000AF540400E98E0200E58E0200918D0300CA
:1070B000AF540400AF5404000000000000000000C2
:1070C000AF540400B9B10300AF5404008188030039
:1070D000AF540400AF540400AF54040035A90300BA
:1070E000AF54040000000000000000000000000099
:1070F00000000000AF54040000000000AF54040082
:10710000000000000000000000000000000000007F
:10711000000000000000000000000000000000006F
:10712000000000000000000000000000000000005F
:10713000000000000000000000000000000000004F
:10714000000000000000000000000000000000003F
:10715000000000000000000000000000000000002F
:10716000000000000000000000000000000000001F
:10717000000000000000000000000000000000000F
:1071800000000000000000000000000000000000FF
:1071900000000000000000000000000000000000EF
:1071A00000000000000000000000000000000000DF
:1071B00000000000000000000000000000000000CF
:1071C00000000000000000000000000000000000BF
:1071D00000000000000000000000000000000000AF
:1071E000000000000000000000000000000000009F
:1071F000000000000000000000000000000000008F
:107200000348044B834202D0034B03B11847704735
:10721000245E0020245E002000000000054806498E
:107220000B1AD90F01EBA301491002D0034B03B194
:1072300018477047245E0020245E002000000000F4
:1072400010B5064C237843B9FFF7DAFF044B13B1AE
:107250000448AFF300800123237010BD905F00202D
:10726000000000009C2A050008B5044B1BB104492E
:107270000448AFF30080BDE80840CFE700000000FD
:10728000945F00209C2A0500A3F5803A704700BF58
:10729000154B002B08BF114B9D46FFF7F5FF002152
:1072A0008B460F461148124A121A00F079F80C4B1F
:1072B000002B00D098470B4B002B00D098470020A4
:1072C000002104000D000B4800F016F800F044F80F
:1072D0002000290014F062F900F014F80000080002
:1072E000000000000000000000000220905F00206D
:1072F000F80001202D730200002301461A461846AB
:1073000000F0A0B808B5074B044613B1002100F007
:10731000EFF8054B1868836A03B19847204600F0E0
:107320004BF900BFF1740200FCB7040038B5084BFC
:10733000084D5B1B9C1007D0043B1D44013C55F8D5
:1073400004399847002CF9D1BDE8384024F050BAF0
:10735000245E0020205E002070B50D4E0D4D761B82
:10736000B61006D0002455F8043B01349847A642D5
:10737000F9D1094E094D761B24F034FAB61006D027
:10738000002455F8043B01349847A642F9D170BD5A
:10739000C45D0020C45D0020205E0020C45D00208C
:1073A000830730B548D0541E002A3FD0CAB20346E6
:1073B00001E0013C3AD303F8012B9D07F9D1032CDE
:1073C0002DD9CDB245EA05250F2C45EA054536D91C
:1073D000A4F1100222F00F0C03F1200EE6444FEA54
:1073E000121C03F1100242E9045542E90255103221
:1073F0007245F8D10CF1010214F00C0F03EB0212EC
:1074000004F00F0C13D0ACF1040323F00303043396
:10741000134442F8045B9342FBD10CF003042CB1FB
:10742000CAB21C4403F8012B9C42FBD130BD644618
:107430001346002CF4D1F9E703461446BFE71A4679
:10744000A446E0E7F0B5264C256885B0064605B3AE
:107450006C681F2C41DCA6B1D5F8880048B3D0F881
:10746000007140F824204FF0010C0CFA04FC00EBF2
:1074700084024CEA0707022EC0F80071C2F880307F
:1074800010D0A31C01346C6045F82310002005B017
:10749000F0BD1448144D25600028D9D00068C5F807
:1074A0008800D5E7D0F8043143EA0C03C0F8043172
:1074B000E7E70E480191CDE9022370B14FF48470E3
:1074C00022F0AEFD48B10027C0E94077DDE9022394
:1074D0006C680199C5F88800C3E74FF0FF30D6E724
:1074E0003860002000000000AC5F002021A00400F4
:1074F0002DE9F84FDFF8BCA0DAF800702DED028B13
:10750000E7B108EE100A89467D68D7F888806C1EBE
:1075100014D407EB8506043608EB8505B9F1000F96
:1075200010D0B8F1000F02D0EB6F4B450AD0013CF0
:10753000631CA5F10405A6F10406EFD1BDEC028B96
:10754000BDE8F88F7B683268013BA34216BF002379
:107550007C603360002AEAD0D7F804B0B8F1000F9D
:107560001AD0D8F80001012303FA04F1014213D024
:10757000D8F80401014218D155F8041C18EE100A7D
:1075800090477A685A450BD1DAF80030BB42CED02A
:107590001F46002FB8D1D1E790477A685A45F3D0FB
:1075A000DAF80070002FAFD1C8E755F8040C904707
:1075B000E7E700BF38600020FEE700BF4FF08053D0
:1075C000D3F83001A0F10D03584258417047000034
:1075D000024AD2F80034002BFBD0704700E0014093
:1075E00008B5FFF7EBFF40B14FF080430022C3F82E
:1075F0000C21C3F81021C3F83825FFF7DFFF00285E
:1076000046D04FF080524E4BD2F80414C3F82015E8
:10761000D2F80814C3F82415D2F80C14C3F82815AE
:10762000D2F81014C3F82C15D2F81414C3F830157E
:10763000D2F81814C3F83415D2F81C14C3F8401546
:10764000D2F82014C3F84415D2F82414C3F848150E
:10765000D2F82814C3F84C15D2F82C14C3F85015DE
:10766000D2F83014C3F85415D2F83414C3F86015A6
:10767000D2F83814C3F86415D2F83C14C3F868156E
:10768000D2F84014C3F86C15D2F84424C3F870251E
:10769000FFF794FF48B14FF08043D3F80024D2079E
:1076A00044BF6FF00102C3F80024264AD2F88830A4
:1076B00043F47003C2F88830BFF34F8FBFF36F8F6E
:1076C0004FF08053D3F830210D2A0ED1D3F8343146
:1076D000022B02D81C4AD35C3BB14FF01023D3F8E5
:1076E00008224FF08043C3F858254FF01021D1F8FD
:1076F0000C32DB071FD515480123C0F80435FFF70E
:1077000067FFD1F80C3223F00103C1F80C32FFF708
:107710005FFF0023C0F80435FFF75AFFBFF34F8F18
:1077200008490B4BCA6802F4E0621343CB60BFF315
:107730004F8F00BFFDE7074B074A1A6008BD00BF27
:1077400000C0004000ED00E000B8040000E001408F
:107750000400FA05E05900200090D00376DF70475E
:1077600078DF70477ADF70477CDF70478FDF7047C4
:10777000024A4FF4DA710FF0D5BF00BF03B804001E
:10778000024A4FF4F5710FF0CDBF00BF03B80400FB
:10779000024A40F25F310FF0C5BF00BF03B80400DA
:1077A000024A40F27F310FF0BDBF00BF03B80400B2
:1077B00013B503883B2B04466CD007D8112B34D06B
:1077C000212B48D0102B0FD002B010BD562B79D0F2
:1077D000572BF9D1484A00231370484A1370484A7E
:1077E0001370484A1370EFE7474B5B88022B09D9A7
:1077F0004648474B4749C01AC008000440F0030000
:107800000BF06CF8444BA188444800221A70444B9A
:10781000198005F063FB0028D6D0424A40F2C941E6
:1078200002B0BDE810400FF07DBF374B5B88022BE4
:1078300009D93648364B3C49C01AC008000440F00C
:1078400003000BF04BF8394B00221A70344B4FF603
:10785000FF721A80B8E72C4B5B88032B09D92B48A1
:107860002B4B3349C01AC008000440F004000BF051
:1078700035F80023A0888DF8043001A98DF8053073
:10788000FFF774FF00289FD0264A40F2E6410FF030
:1078900049FF99E71C4B5B88032B09D91B481C4BFC
:1078A0002449C01AC008000440F004000BF016F888
:1078B000A0881321FFF752FF002885D0194A40F213
:1078C000FD41ADE7104B5B88032B09D90F48104BE6
:1078D0001949C01AC008000440F004000AF0FEFF75
:1078E000A0881321FFF73AFF00283FF46DAF0D4A3F
:1078F0004FF4A16194E700BF0561002006610020FC
:107900000361002008610020745E0020C82B050080
:10791000782B050039B8040001610020C065002003
:10792000E859002003B804004FB80400FF600020AD
:1079300068B8040088B80400A9B804007FB508221C
:107940000346019201A94FF6FF7202A807F020FB3F
:1079500020B1094A4FF4E1710FF0E4FE019902A849
:1079600007F0EEFA20B1044A40F2C5110FF0DAFE3A
:1079700007B05DF804FB00BF03B8040010B57A4BF4
:10798000B2B0082800F2ED80DFE810F06C000900CA
:107990001F002F003F004C005C008500CA00012240
:1079A0001A70724B00221A70714B5B88022B70D9CF
:1079B0007048714B7149C01AC008000440F00300C0
:1079C00032B0BDE810400AF089BF01221A70674B3F
:1079D00000221A70664B5B88022B5AD96548664BA9
:1079E0006749C01AC0080004E8E7604A0021117026
:1079F00001221A705E4B5B88022B4AD95D485E4BB0
:107A00006049C01AC0080004D8E701221A70584B18
:107A10005B88022B3DD95748574B5B49C01AC008B9
:107A20000004CBE701221A70504B00221A70504B11
:107A30005B88022B2DD94F484F4B5449C01AC008C0
:107A40000004BBE701221A70484B00221A70484B11
:107A50005B88022B1DD94748474B4D49C01AC008C7
:107A60000004ABE700221A70404B01221A70404B11
:107A70005B88022B09D93F483F4B4649C01AC008D2
:107A8000000440F003000AF029FF0AF099FD0028E5
:107A9000FBD132B010BD00221A700823CDE90233A9
:107AA00012AA03AB02A904A807F032FA0528304C49
:107AB0002ED16388032B18D92E482F4B3649C01A74
:107AC000C008000440F004000AF008FF6388032B9C
:107AD0000BD9294B27483149C01AC0080004DDE9F9
:107AE000022340F004000AF006FF0220FFF726FF01
:107AF000039B0093029A2A4812AB04A903F03EF8B4
:107B00000028C6D0274A4FF4C4710FF00BFEC0E71F
:107B10000028DBD0234A4FF4BC710FF003FED5E7F9
:107B200000221A70204B18884FF6FF739842B0D08D
:107B300012A907F0E7FA0528ABD020B1194A4FF493
:107B4000CC710FF0EFFD0620FFF7F8FE14480DF1A1
:107B5000590103F003F800289BD0124A40F29F110C
:107B6000D3E700221A7094E701610020026100202F
:107B7000745E0020C82B0500782B0500CAB80400ED
:107B8000F7B804001AB9040039B9040058B9040060
:107B900086B90400B4B90400D2B9040007BA0400DD
:107BA0003461002003B80400BC65002007B50B78E1
:107BB000052B1BD0062B1FD0042B1AD18B79022B3F
:107BC00017D1CB79ABB90E4A01920E4A0E481288F2
:107BD00000921946012204F072F850B10B4A4FF49A
:107BE000537103B05DF804EB0FF09CBD084B01220C
:107BF0001A7003B05DF804FB054B0022F8E700BFE4
:107C0000D4650020E8590020EC59002003B8040096
:107C10000461002030B587B0082301934FF6FF724E
:107C2000012301A902A807F0B3F920B1184A40F2D4
:107C300029410FF077FD174D6B88022B0BD9164B9E
:107C40001648019A1649C01AC0080004082340F0DB
:107C500003000AF050FE019902A807F04FF96B8863
:107C6000022B04460AD90C480C4B0E491B1ADB08A0
:107C70001B04224643F003000AF034FE2CB1044AF0
:107C800040F2494120460FF04DFD07B030BD00BF26
:107C900003B80400745E0020782B0500C82B050093
:107CA0005ABA040093BA040010B5044607F09CFFCA
:107CB000204607F0C7FF204607F0E6FC2378033B89
:107CC0000A2B1FD8DFE803F0061E1E1E1E1E491ECB
:107CD0001F1E35002D4B5B88032B09D92C482D4BDB
:107CE0002D49C01AC008000440F004000AF0F6FD57
:107CF0000AF066FC0028FBD1284B01221A70284BA1
:107D0000A2881A8010BD214B5B88032B09D920481B
:107D1000204B2449C01AC008000440F004000AF0B7
:107D2000DDFD0AF04DFC0028FBD11F4B01221A702B
:107D3000E8E7164B5B88032B09D91548154B1B49FF
:107D4000C01AC008000440F004000AF0C7FD0AF0A1
:107D500037FC0028FBD1164BE8E7237CDB07D1D5A5
:107D6000237A072BCED1094B5B88032B09D908480E
:107D7000084B1049C01AC008000440F004000AF083
:107D8000ADFDBDE81040FFF745BF00BF745E0020A9
:107D9000C82B0500782B0500BEBA0400FF60002048
:107DA000BC650020E5BA0400076100200FBB040099
:107DB000FE6000203ABB04002DE9F047AEB00AF0A7
:107DC000A5FE18B1BD4A9F210FF0ACFC0FF036FEA6
:107DD00018B1BA4AAC210FF0A5FC002303A9012079
:107DE00003930FF00FFF18B1B44AB2210FF09AFCC1
:107DF00003A80FF05FFF18B1B04AB6210FF092FC54
:107E0000AF4A0A2108200AF0F7FE18B1AB4AC12197
:107E10000FF088FC1123AB488DF8043022F030FFBE
:107E200001AD82B2A7492846FFF79EFC18B1A34ACC
:107E3000D5210FF077FC40F2C130FFF791FC18B16B
:107E40009E4AD8210FF06EFC0822002103A8FFF7FC
:107E5000A7FA0623ADF80C30ADF80E30ADF81030AF
:107E600003A82B23ADF81230FFF77CFC18B1934A1E
:107E7000E2210FF057FC9448002104F03FFE18B1B6
:107E80008E4AEB210FF04EFCAC22002103A8FFF735
:107E900087FA8E4A089202230022CDE923228DF828
:107EA0000C308DF8852040F2016340F20112ADF8EC
:107EB0000E30ADF8882001234FF44862282040F6A8
:107EC000B831CDE92723ADF81C30ADF88630804BB2
:107ED0002C93CDE925017F4B7F482D9303A902F018
:107EE0007EFC20B1754A40F211110FF01BFC7A485C
:107EF000012102F071FC794B7948039303A904F046
:107F0000DBFF20B16D4A40F2DF110FF00BFC43F2B2
:107F1000EF53ADF8063012230224ADF808304022AA
:107F20000123002103A8ADF80A308DF80440FFF7C3
:107F300037FA03A86B4904F074FC03A811958DF877
:107F4000484002F08BFF20B15C4A40F203210FF061
:107F5000E9FB1022002103A8FFF722FA0023039374
:107F6000012205936048614B8DF8102003A9069308
:107F700002F065FE20B1514A40F21A210FF0D2FB07
:107F80005B4F5C4CDFF88881082200213846FFF700
:107F900007FA282200212046FFF702FA08220021D2
:107FA0004046FFF7FDF94FF440737B8040F2012219
:107FB00008232380A8F80220238303224FF482732E
:107FC000022540F202264FF0010940F2011A2281F7
:107FD0004FF481712282638340F2031240F2051351
:107FE00061816282638448220021A4F802A0A680F5
:107FF000A571A681A573A682A575A683A577A4F809
:108000002090A68484F8265003A83D80BE80A8F85E
:108010000090A8F80460FFF7C3F9374B0393374B80
:10802000049305238DF81630D323ADF83030344B4C
:108030000B930023334A8DF8423011933248ADF848
:1080400014A04FF0023303A906948DF81C90CDF8CC
:1080500020808DF824900A978DF838500F928DF873
:108060004050ADF850608DF852501293ADF84C600E
:108070008DF84E5003F005FB20B1104A40F20B3151
:108080000FF050FB1C22002103A8FFF789F9002301
:108090004FF4A032CDE903324FF4F0220592ADF84F
:1080A0001A3003228DF81C30089303A8174B8DF863
:1080B0001820099304F0C8F92CE000BF03B80400AD
:1080C0003C6000207CBB04007C650020E45900205B
:1080D0007D7902007177020034610020817702000F
:1080E000C065002085BB04006865002064020202B0
:1080F000F66000200A610020AD7B0200917702004B
:108100007C5B002001010003EC590020A1770200F4
:10811000CC65002020B1214A40F276310FF002FBFD
:1081200006F01AFE20B11D4A4FF463710FF0FAFAFF
:108130000522002103A8FFF733F931238DF80C3015
:1081400007238DF80D3010238DF80E309DF80F3079
:1081500023F0030343F003038DF80F309DF8103034
:1081600023F0030343F0030303A88DF8103006F057
:10817000ADFE20B1094A40F29F310FF0D3FA084812
:1081800006F08CFE20B1054A40F2A2310FF0CAFA87
:10819000044B01221A702EB0BDE8F08703B804002A
:1081A000A97C02000061002008B50648032102F006
:1081B0008DFB30B1BDE80840034A40F2F1310FF0C9
:1081C000B1BA08BD3461002003B8040008B5FFF758
:1081D00021FDBDE80840FFF7E7BF0000014B18781C
:1081E000704700BF01610020014B1878704700BF45
:1081F00002610020064B1B7843B1064B18884FF6EE
:10820000FF73984202D01321FFF7A8BA704700BF4E
:10821000FF600020E859002008B50AF079FD0AF057
:10822000CFF918B9BDE808400AF086BC08BD0000C7
:1082300038B5174C6388022B09D91648164B1749D5
:10824000C01AC008000440F003000AF047FB144DB8
:1082500000232B7006F06CFF20B1124A40F27141EE
:108260000FF060FA2B7873B16388022B0ED90A4B9A
:1082700008480D49C01AC0080004BDE8384040F065
:1082800003000AF02BBBFFF7C7FFEBE738BD00BFC9
:10829000745E0020C82B0500782B05008FBB0400FE
:1082A000FE60002003B80400B4BB0400014B187842
:1082B000704700BFFF600020014B1878704700BF77
:1082C0000061002007B50B490B4B09781B8802465B
:1082D00059B9009308220346084803F0F0FBB0FAAE
:1082E00080F0400903B05DF804FB0821034803F067
:1082F00045FCF4E704610020E8590020EC59002017
:108300001FB5164B1A88164B1B78E3B940F6FF745D
:10831000A042144BA8BF2046A142A8BF2146187016
:1083200089B2C0F3032040EA011009115870997016
:108330000D4800920221032203F0C1FBB0FA80F045
:10834000400904B010BD002402924BB242B2CDE904
:1083500000442146044803F054FCEFE7E8590020AC
:1083600004610020F2600020EC5900201FB50F4B83
:1083700019880F4B1A787AB90E4B18705A709A7088
:108380000D4800910322012103F099FBB0FA80F01F
:10839000400905B05DF804FB00230291CDE90033EC
:1083A00001461A46044803F02CFCEFE7E859002088
:1083B00004610020EF600020EC59002007B50B4B52
:1083C0000246187870B90A4B5A700A4A1870128817
:1083D0009970094800920121032203F070FBB0FA62
:1083E00080F0400903B05DF804FB00BF0461002089
:1083F000EC600020E8590020EC59002007B5074A3E
:1084000012880092034608220321054803F057FB17
:10841000B0FA80F0400903B05DF804FBE859002091
:10842000EC590020014B1878704700BF0361002011
:10843000014B01221A7070470361002007B5074AFB
:1084400012880092034601220421054803F037FBFD
:10845000B0FA80F0400903B05DF804FBE859002051
:10846000EC590020014B1878704700BF08610020CC
:10847000014B01221A7070470861002008B50D4BAE
:108480001B780146ABB10C4B0C481A8802F04BFC30
:1084900013280AD943F2014398420AD0BDE80840A4
:1084A000074A40F242610FF03DB9064BC340DB077B
:1084B000F4D508BDFF600020E85900206865002061
:1084C00003B8040001810A0000230129036002D0DF
:1084D000022904D10123044A02EBC30303600068AC
:1084E000B0FA80F040097047BCBB040008B500F04A
:1084F00029FC012804D0BDE80840012000F044BC5C
:1085000008BD00F06ABC0000074A002302EB4301EB
:108510004978814203D112F8130000F06ABC01339C
:108520000E2BF3D101207047CCBB040000F053BCEC
:1085300000F012BC07B5014601A8FFF7C5FF0128EE
:1085400003D0019B586800F029FC03B05DF804FBE0
:1085500037B50C46014668461546FFF7B5FF0128BA
:1085600003D10124204603B030BD009B01A9586807
:1085700000F021FC0128F4D0019800F0D9FB21463D
:108580002A4601F087FF01280446EBD0019800F04D
:10859000D3FBE7E737B50D4601466846FFF794FF82
:1085A000012804460BD0009B01A9586800F003FC89
:1085B0000128044603D0019800F0B6FB286020464D
:1085C00003B030BD37B50D4601466846FFF77CFF66
:1085D000012804460DD0009B01A9586800F0EBFB70
:1085E0000128044605D0019800F0A2FB01F07BFEB3
:1085F0002880204603B030BD37B50D460146684699
:10860000FFF762FF012804460DD0009B01A95868BE
:1086100000F0D1FB0128044605D0019800F084FB4E
:1086200001F05FFE2880204603B030BD00F0E4BBBF
:10863000704700230360184670477047002070475A
:1086400070470000BFF34F8F0549064BCA6802F41C
:10865000E0621343CB60BFF34F8F00BFFDE700BF65
:1086600000ED00E00400FA05012905D9032905D130
:10867000034B00221A7070470EF086B8704700BF97
:10868000F8650020012905D9032905D1034B0022F3
:108690001A7070470CF0CEBF704700BFF565002020
:1086A000012905D9032905D1034B00221A7070470F
:1086B0000CF0C0BF704700BFFA650020023808B553
:1086C0000C2852D8DFE800F0223A515151516898F5
:1086D000825151075200564B5B88022B09D95548ED
:1086E000554B5649C01AC008000440F003000AF078
:1086F000F5F809F065FF0028FBD1514B01221A70F3
:10870000FFF7DAFD002830D0FFF79CFF484B5B886D
:10871000022B09D94748484B4A49C01AC0080004EF
:1087200040F003000AF0DAF809F04AFF0028FBD114
:108730000BF006FA444B01221A7016E03C4B5B88A2
:10874000022B09D93B483C4B4049C01AC0080004E1
:1087500040F003000AF0C2F809F032FF0028FBD114
:108760003B4B01221A70384B187008BD304B5B88A8
:10877000022B09D92F48304B3649C01AC0080004D3
:1087800040F003000AF0AAF809F01AFF0028FBD114
:10879000BDE808400BF09CB9254B5B88022B09D93A
:1087A0002448254B2C49C01AC008000440F003009F
:1087B0000AF094F809F004FF0028FBD111F086FBC1
:1087C0000028D2D1BDE808400BF080B9184B5B8877
:1087D000022B09D91748184B2049C01AC0080004B9
:1087E00040F003000AF07AF809F0EAFE0028FBD115
:1087F000BDE808400BF07CB90D4B5B88022B09D912
:108800000C480D4B1649C01AC008000440F0030084
:108810000AF064F809F0D4FE0028FBD10BF086F9C9
:108820000B4B1B78002B7FF46FAF0E4B83E700BF21
:10883000745E0020C82B0500782B0500E8BB0400FF
:10884000FD650020F4BB0400FE65002002BC0400AE
:10885000FC6500200DBC040018BC04002BBC040007
:1088600035BC0400FB650020012908B51ED0032992
:1088700018D0D1B90DF0E8FA0E4B01221A700E4B48
:108880005B88022B09D90D480D4B0E49C01AC00850
:10889000000440F003000AF021F809F091FE0028DE
:1088A000FBD102E0084B00221A7008BDBDE8084069
:1088B0000DF0CABAF6650020745E0020C82B0500D2
:1088C000782B050047BC0400F765002007B54FF082
:1088D00080522848536E126E00921121264A21F0D0
:1088E000A1FF26480BF058F820B1254A4FF4AC718F
:1088F0000EF018FF23480BF049F920B1204A40F24E
:108900005D110EF00FFF204B204818600BF03EF970
:1089100020B11B4A4FF4B1710EF004FF1C480BF05C
:1089200035F920B1164A4FF4B4710EF0FBFE194828
:108930000BF02CF920B1124A40F26F110EF0F2FE4A
:1089400001F0AAFB30B1144A0D484FF4BB71FFF798
:1089500077FEFEE70BF09CF820B1094A4FF4BD7199
:108960000EF0E0FE0BF0B2F803B05DF804EB0BF094
:10897000BFB800BFD565002076BC0400F0BE04007F
:108980007DBC040018BE0400E865002094BE04000D
:1089900030BD040078BD0400B3BC0400044B18785B
:1089A00018B1044B187880F0010000F00100704706
:1089B000FC650020FB650020014B1878704700BF64
:1089C000FE6500200BF0C6B838B5114D0BF07EFCEB
:1089D00001F0BCFB01F09EFB2A6841F287339A420A
:1089E000044613DCC2F59C5308339BB2984204D36F
:1089F000581E084B012184B21970074821461044C3
:108A000001F08EFB28682044286038BD0023EFE782
:108A100000670020F9650020B667002008B5054B07
:108A2000C3E90001194681200BF054FAB0FA80F036
:108A3000400908BD5C6700200A46014601480DF068
:108A400059BE00BF94BE0400014601480DF0C2BDEE
:108A500094BE0400014601480DF0ECBD94BE040034
:108A6000014601480DF016BE94BE0400014B187873
:108A7000704700BFF5650020014B01221A70704756
:108A8000F565002010B5094C2346032203F8012B9D
:108A90004A000146184621F055FB092221460448A8
:108AA0000CF02CFEB0FA80F0400910BDEC650020FF
:108AB00030BD0400014B1878704700BFFA650020F4
:108AC000014B01221A707047FA65002010B5094C5D
:108AD00023460A46042103F8011B0146184621F0EB
:108AE00031FB0222214604480CF008FEB0FA80F067
:108AF000400910BDB467002078BD0400044B1B780A
:108B000013B9044B1868704741F28730704700BFB3
:108B1000F96500200067002000487047B667002014
:108B2000024A00231360024A137070470067002056
:108B3000F965002070B506460D4675B101F0F8FAEA
:108B4000044638B1A84228BF2C46A1B2304601F0F5
:108B5000F5FA18B1FFF738FFEFE72C462D1B264436
:108B6000EBD170BD00F016B808B500F039F8BDE8DB
:108B7000084000F049B81FB50FC86C4684E80F00E4
:108B80000023102221464FF0FF30029301F0F8FD40
:108B900004B010BD38B5114C4FF4FE2565602B684C
:108BA000012B12D16B68102B0FD12846FFF7E3FF82
:108BB000AB68984209D163680FCB04F1080585E8DA
:108BC0000F0001232370002038BD10230122C4E9C7
:108BD00002230023C4E90433F3E700BF407B0020F5
:108BE00008B5064B1A782AB9054A0648CA21FFF784
:108BF00027FDFEE701225A6108BD00BF407B00202F
:108C0000FCBE040028BF040010B5104C10226068A0
:108C100004F1080121F064FAB0B1606812F078F84C
:108C200004F10800FFF7A7FF0422206104F1080106
:108C3000606812F085F86068102204F1080121F0E4
:108C40004FFA003818BF012010BD00BF407B002044
:108C500010B50446082001F007FD2060002010BD7B
:108C600008B54B681A682AB9254A26481A21FFF721
:108C7000E7FCFEE75A682AB9234A22481B21FFF77E
:108C8000DFFCFEE79A682AB9204A1E481C21FFF73C
:108C9000D7FCFEE7DA682AB91D4A1A481D21FFF7FA
:108CA000CFFCFEE71A692AB91A4A16481E21FFF7B7
:108CB000C7FCFEE75A692AB9174A12481F21FFF775
:108CC000BFFCFEE79A692AB9144A0E482021FFF733
:108CD000B7FCFEE7DA692AB9114A0A482121FFF7F1
:108CE000AFFCFEE71B6A2BB90E4A06482221FFF7AC
:108CF000A7FCFEE70B6803604B684360002008BDDB
:108D000074BF04009DBF0400D4BF0400FBBF040077
:108D100021C0040049C004006BC0040094C00400DA
:108D2000BBC00400E1C00400436800685B681847EA
:108D3000436800689B69184743685B6A0BB1006829
:108D400018477047034B00221A705A7002229A701B
:108D500000F09EBE587B002037B50A4D2B787BB9BA
:108D6000AB788DF8043001A800F0BAFE0128044663
:108D700003D001232B70FFF75BFC204603B030BD0E
:108D80000124FAE7587B0020034A0346107808B90B
:108D90009370704701207047587B002010B504463F
:108DA00000F0A8FE28B124B12046BDE8104000F034
:108DB000B1BE012010BD13B50446019100F09AFE2A
:108DC00030B10199204602B0BDE8104000F0BCBEB1
:108DD000012002B010BD00F0CFBE4FF08053D3F899
:108DE000A400030E552B01D0AA2B01D180F04040E6
:108DF000704700F0C3BE000038B50D4C2578012D3A
:108E000005D0032D0CD0BDE8384000F0B9BE00F00D
:108E100071FE10B1022323706570FFF709FCF2E7C1
:108E200000F070FE0028F8D0002323706370F4E790
:108E3000587B002037B5002401AB18190FF054FC03
:108E400060BB0134032CF7D1154B9DF80420154964
:108E500003EBC200086001461348043101609DF82D
:108E60000510124803EBC10404602046104C043086
:108E700020609DF806000F4C03EBC00525602B46D3
:108E80000D4C04332360012303FA01F103FA02F2CB
:108E90000A430A490A600A4A8340136003B030BD9E
:108EA00010F50140647B0020707B0020687B00206F
:108EB000747B00206C7B0020787B00205C7B002092
:108EC000607B002020B1034B800143F00103184771
:108ED000704700BF10C104000FF09CBA0FF0B2BA87
:108EE0001FF056BB1DF02AB920F0FCB870B58AB04F
:108EF000064600F0CCFE0446304600F0CDFE0546A6
:108F000020461DF0A5FA00281BDD284601F0EBF9EC
:108F10002028034628BF20239BB201AA02A920468D
:108F200001931DF04FFA60B1019B13B1304600F080
:108F3000CAFEBDF8042002A9284601F0ABFA0128B8
:108F4000DED10AB070BD10B5044600F0C4FE50B1C9
:108F50002046FFF7CBFF204600F0A7FE204600F09A
:108F6000BDFE002010BD0220FCE7000013B5044642
:108F70000C48C36823B920461DF076FA02B010BD34
:108F8000406801AA214698470028F4D1019800F0D2
:108F9000A2FE0028F2D00198FFF7A8FF019800F088
:108FA0009DFEEBE77C7B002070B588B0044600F0A6
:108FB0006EFE0646204600F075FE054630461DF062
:108FC0003BFA022821DC284601F08BF90446E0B187
:108FD000202828BF2024A4B222466946284601F052
:108FE000EDFA012811D02246694630461DF090F96D
:108FF00068B91DF01FFB00F0FD00082805D1064AE6
:10900000936813B150680121984708B070BD21B230
:10901000284601F06FF9D1E77C7B002010B50446AB
:1090200000F05FFE50B12046FFF7BEFF204600F083
:1090300047FE204600F058FE002010BD0220FCE74D
:1090400038B50546FFF7EAFF044648B9284600F060
:1090500048FE38B12846FFF7A7FF284600F044FE37
:10906000204638BD0224FBE707B501460948C3681E
:109070006BB1406801AA984748B9019800F031FEE9
:1090800028B10198FFF790FF019800F02DFE03B082
:109090005DF804FB7C7B002037B5154D2C780CBBAC
:1090A000C5E901446C70AC70EC60FFF7C3FE0220B0
:1090B0001DF082F898B10F4B186800901B798DF85D
:1090C0000430052168461DF0FDF940B14FF41670DB
:1090D0001DF04AFA18B102201DF07CFA20B90120D7
:1090E00003B030BD0020FBE701232B702046F7E7DB
:1090F0007C7B00201DC1040010B5C16829B9164A47
:1091000016488B21FFF79CFAFEE70378013B012B01
:1091100005D9114A11488C21FFF792FAFEE7104C4D
:1091200062780AB1012010BD436863608368C4E9B6
:1091300002310078012802D00228F3D110461DF038
:10914000A3F90028EED01DF0C7F80028EAD00123CB
:1091500063700020E7E700BF23C1040041C10400A1
:109160007C7B0020034B9A781AB901229A701DF07B
:10917000C3B870477C7B0020014B5878704700BF14
:109180007C7B002008B51DF0CBF980F00100C0B257
:1091900008BD00000A4A08B5002312F813108142E6
:1091A00008D102EB430358781DF0CCF980F00100A0
:1091B000C0B208BD01330E2BEFD10120F9E700BF8B
:1091C00012C2040013B502AB03E906000446FFF720
:1091D0004BFF9DF800302BB1204602B0BDE8104097
:1091E000FFF7C4BE02B010BD82B002AB03E90600B7
:1091F00002B0FFF739BF13B50446FFF7B7FE2046AC
:1092000002B0BDE81040FFF72FBF0000054B10B5BE
:1092100000249C705C70204601341DF025F9082C58
:10922000F9D110BD7C7B00207047000010B50446CA
:1092300030B90C4A0C484FF43B71FFF701FAFEE7D6
:10924000FFF781FE012806D1084A074840F2EF21C6
:10925000FFF7F6F9FEE7204600F01BFDBDE81040E1
:1092600001F03FB885C1040041C10400A5C104005C
:1092700010B5044630B90B4A0B4840F2FE21FFF707
:10928000DFF9FEE7FFF75FFE012806D1074A06482F
:1092900040F20131FFF7D4F9FEE72046BDE8104067
:1092A00000F0F7BC85C1040041C10400A5C1040061
:1092B000F7B51646044630B90F4A10484FF44371CB
:1092C000FFF7BEF9FEE70191FFF73DFE204600F0F3
:1092D000E0FC01993246074601F070F90128054685
:1092E00006D0384631B201F005F82046FFF72BFED4
:1092F000284603B0F0BD00BF85C1040041C1040091
:1093000037B5044630B90D4A0D4840F22631FFF713
:1093100097F9FEE70191FFF716FE204600F0B9FC31
:109320000199002201F005F90128054602D02046E6
:10933000FFF709FE284603B030BD00BF85C1040019
:1093400041C1040010B5044630B90B4A0B4840F245
:109350003D31FFF775F9FEE7FFF7F5FD012806D16E
:10936000074A06484FF45071FFF76AF9FEE72046B6
:10937000BDE8104000F0AABC85C1040041C1040052
:10938000A5C1040038B5044630B90C4A0C4840F277
:109390004D31FFF755F9FEE7FFF7D5FD204600F008
:1093A00078FC054600F09DFF01B2284600F0A2FFC0
:1093B0002046BDE83840FFF7C6BD00BF85C10400A8
:1093C00041C1040010B5044630B90C4A0C484FF4B2
:1093D0005971FFF735F9FEE7FFF720FE012806D1A6
:1093E000084A074840F26731FFF72AF9FEE72046AE
:1093F00000F055FCBDE8104000F075BF85C10400C9
:1094000041C10400C7C1040010B5044630B90B4A7D
:109410000B4840F27731FFF713F9FEE7FFF7FEFD47
:10942000012806D1074A064840F27A31FFF708F9C9
:10943000FEE72046BDE8104000F031BC85C10400C5
:1094400041C10400C7C1040037B51446054630B910
:10945000104A114840F28631FFF7F2F8FEE7019119
:10946000AAB1FFF7DBFD284600F019FC224601995E
:1094700001F010F804462846FFF7E2FD012806D166
:10948000064A054840F29931FFF7DAF8FEE7204630
:1094900003B030BD85C1040041C10400EAC104002D
:1094A00070B50E46054630B9124A134840F2A6314F
:1094B000FFF7C6F8FEE7084600F013FF0446B8B110
:1094C0002846FFF7ABFD284600F0E9FB00220146E5
:1094D000304601F02EF804462846FFF7B1FD01287A
:1094E00006D1064A044840F2B931FFF7A9F8FEE771
:1094F000204670BD85C1040041C10400EAC10400DA
:1095000037B5044600F0EDFB98B1204600F0BFFBF4
:1095100005461CF091FF022805DC00220DF1070131
:1095200028461CF0F5FE204600F0DEFB002003B0CC
:1095300030BD0220FBE7FFF783BD0220704700002B
:10954000024B00225A701A72704700BF8C7B0020B9
:10955000014B5878704700BF8C7B0020024B587835
:1095600080F00100704700BF8C7B002010B583782D
:1095700004464068BBB1012B1ED06068FFF7DBFFDB
:1095800063788BB363697BB32069FFF757F858B3EF
:109590006068FFF7B5FF012826D0D4E90401BDE8D3
:1095A0001040FFF74AB8FFF7CDFE0028E5D00123B1
:1095B000A370FFF73DF8E0E700F069FB1CF03CFF0B
:1095C00010B10023A370D8E76068FFF799FF012866
:1095D00003D00028F5D00228EBD0044A044840F21A
:1095E0007B11FFF72DF8FEE710BD00BF2EC204006F
:1095F00052C20400037A0BB1FFF7B8BF70470000F6
:1096000070B5084D064668680C4600F040FB86427F
:1096100005D12B7A23B16B680020236070BD002335
:109620000120FAE78C7B002070B5084D2B7A0646A6
:109630000C461BB900230120236070BD686800F050
:1096400026FB8642F6D1EB680020F5E78C7B0020F4
:1096500038B50B4D6B78044683B12B7A68682BB113
:1096600000F015FB201A18BF012038BD214600F07C
:109670000BFB0128F9D001232B72F6E70120F4E758
:109680008C7B00204068FFF7BFBE4068FFF79ABEA2
:109690004068FFF777BE4068FFF732BE4068FFF7CB
:1096A00007BE4068FFF7E4BD4068FFF7BFBD00009C
:1096B0000248037A0BB1FFF759BF70478C7B00203B
:1096C00008B5054B1A7801202AB15870D3E9040176
:1096D000FEF7B3FF002008BD8C7B002038B50446A0
:1096E0004068FFF7B1FE0128054603D0D4E9040124
:1096F000FEF7A3FF284638BD38B504464068FFF79B
:10970000CFFE0128054603D0D4E90401FEF795FFFA
:10971000284638BD7FB5204C2578064625B96570AA
:10972000FFF7BAFC012801D1012032E03388ADF8FF
:10973000043001A97388ADF80630201D00F06EFAE0
:109740000128F1D004F10C002572FFF781FA0128FD
:10975000EAD0124BE068029402A90393FFF780FA63
:109760000128E1D02846A5701CF046FF0F201CF010
:109770001FFF28461CF042FF1E201CF007FF04F1CB
:109780001000FEF756FF0128CED0736863610123F5
:10979000237004B070BD00BF8C7B002098C2040011
:1097A00000487047C0C2040001207047034B1A787C
:1097B00001200AB158700020704700BFA47B002030
:1097C000014B5878704700BFA47B0020024B5878AB
:1097D00080F00100704700BFA47B0020037813B124
:1097E0004068FFF7A8BE704770B50A4B03EB8003D3
:1097F00004465E6870680D4600F049FA844205D15F
:10980000337823B1736800202B6070BD00230120E2
:10981000FAE700BFA47B002070B50A4B03EB80037E
:1098200004465E6833780D461BB9002301202B6087
:1098300070BD706800F02BFA8442F6D1B368002046
:10984000F5E700BFA47B002038B50D4B5A780446DD
:109850009AB103EB80035D682B7868682BB100F048
:1098600016FA231A5842584138BD214600F00CFA26
:109870000128F9D001232B70F6E70120F4E700BF9F
:10988000A47B0020054900224A70012351F82300DF
:109890000133092B0270F9D1704700BFA47B00206F
:1098A0004068FFF7FDBD4068FFF7CEBD4068FFF799
:1098B000ABBD4068FFF786BD4068FFF763BD4068F9
:1098C000FFF71EBD4068FFF7F3BC4068FFF7D0BC50
:1098D0004068FFF7ABBC000038B5064D012455F8D1
:1098E00024301A7812B15868FFF725FE0134092C8C
:1098F000F5D138BDA47B00202DE9F0431D4C27781D
:1099000085B006469FBB6770FFF7C6FB01281AD0DB
:10991000DFF8648001250C2000F0A6FE814600F8E7
:10992000047B3388ADF8043001A97388ADF80630A4
:1099300000F074F9012806D009F10800FFF788F952
:10994000012803D1012005B0BDE8F083D9F8080053
:1099500002A9CDE90298FFF783F90128F2D044F873
:1099600025900135092DD6D101232370EBE7002086
:10997000E9E700BFA47B0020E4C204000048704770
:109980000CC30400012908B507D1037823B1037A79
:1099900013B940F20113038108BD034A0348F721BC
:1099A000FEF74EFEFEE700BF30C3040045C30400CF
:1099B00010B5064B5B681B682BB9054A05489C210E
:1099C000FEF73EFEFEE7BDE810401847C87B0020CA
:1099D00087C3040045C3040030B5012885B007D013
:1099E00002281BD01A4A1B489221FEF729FEFEE7E7
:1099F000FFF7C4FF184D6860FFF7DAFF174B8DF8CB
:109A0000000002936846164B01950393FFF774FB21
:109A1000012806D1012400236B6015E0FFF7C0FE8A
:109A2000E8E76B689B682BB90E4A0A48AA21FEF743
:109A300007FEFEE7984701280446EBD001232B7070
:109A4000FEF7F6FD002CE6D1204605B030BD00BF84
:109A5000B8C3040045C30400C87B002085990200F8
:109A6000699A0200DFC3040010B5034608465B682C
:109A70005B6811462BB9044A0448A321FEF7E0FDB8
:109A8000FEE7BDE81040184707C4040045C30400C2
:109A900007B5FFF701FB012803D1012003B05DF8F2
:109AA00004FB4FF480736846ADF80030ADF8023027
:109AB000FFF722FF0128F0D04FF001224FF47A7314
:109AC0006846CDE90023FFF725FE0128E6D0034BC9
:109AD00000221A705A601A72E0E700BFC87B0020AB
:109AE000034B1B7813B90078FFF776BF012070474E
:109AF000C87B0020024B1878003818BF012070473F
:109B0000C87B0020024B1878B0FA80F040097047FB
:109B1000C87B002010B5094B1A78012A0BD15B686D
:109B20009B692BB9064A0748C621FEF789FDFEE767
:109B3000BDE810401847012010BD00BFC87B0020C1
:109B400031C4040045C3040010B5084B5B6853B131
:109B5000DB692BB9064A0748CD21FEF771FDFEE708
:109B6000BDE810401847012010BD00BFC87B002091
:109B70005CC4040045C30400FFF704BBFFF70ABB45
:109B800070B5224C2378012B04D0022B15D0002B6A
:109B900034D170BD237A43B96368002BF9D01B6AB6
:109BA000002BF6D0BDE870401847FFF7DBFA022320
:109BB0002370BDE87040FEF73BBDFFF7DDFA0546B8
:109BC0000028E6D120722070FEF732FD667A4EB191
:109BD0006572FFF7EDFE2378002BDAD1BDE8704007
:109BE000FFF7FABE6368DB682BB9094A0948B1215F
:109BF000FEF726FDFEE798476660CAE7064A054875
:109C000040F21221FEF71CFDFEE700BFC87B0020DA
:109C10008CC4040045C30400B5C40400F0B5044678
:109C200085B018200E4600F01FFD4FF0FF33206076
:109C3000054640F8043B01238DF8043000273388A3
:109C4000029701A9ADF80C3000F02EFD0128044662
:109C500017D002238DF8043001A97388029705F10B
:109C60000800ADF80C3000F01FFD0128044608D0B4
:109C700005F11000AF8100F06FFA05F1140000F05B
:109C80006BFA204605B0F0BD016000207047006807
:109C90007047406800F036BD406800F035BD806810
:109CA00000F030BD806800F02FBD10B5044640685C
:109CB00000F036FD237B13B14FF48073A38110BDF8
:109CC000806800F02DBD0123037370470346002216
:109CD000407B5A737047006900F040BA006900F099
:109CE0003FBA406900F03ABA406900F039BA10B59D
:109CF0000446006900F032FA38B1A06800F010FDA7
:109D0000206900F02DFA002010BD0220FCE70000C1
:109D10002DE9F3410446FFF7EAFF0746002862D128
:109D2000206900F01BFA002861D0637F002B57D117
:109D3000A06800F0E9FC064600F0D5FA00284FD0F4
:109D400060680DF02DFB1FFA80F8B8F1000F20D1EC
:109D5000304600F0C8FA002842D0304600F033FC0C
:109D60000190304600F033FC0246002838D0012331
:109D70006377636801991B68C3F8848060680DF09D
:109D800015FB48BB1B4A1C484FF4E671FEF758FC14
:109D9000FEE7304600F017FC0190304600F017FC5B
:109DA0000546E8B1404528BF4546ADB20199606817
:109DB0002A460DF0FBFA30B1104A0F4840F2A711C5
:109DC000FEF73EFCFEE729B23046A8EB050500F0A1
:109DD000C3FA1FFA85F8B8E7922818BF84F81D80E7
:109DE000206900F0BDF9384602B0BDE8F0810227D5
:109DF000F9E700BF39C5040000C50400D4C404005D
:109E000010B5044630B90C4A0C4840F27A21FEF7EE
:109E100017FCFEE7FFF76BFF012806D1084A074849
:109E200040F27D21FEF70CFCFEE7A06800F06AFC22
:109E3000BDE8104000F055BA5EC5040000C504003E
:109E40007DC50400F7B51646044630B9134A1448D8
:109E500040F29B21FEF7F4FBFEE70191FFF747FF7D
:109E6000A06800F04FFC01993246074600F0A6FBBF
:109E70000128054603D031B2384600F03BFA2046AF
:109E8000FFF746FF012806D1064A05484FF42B711B
:109E9000FEF7D6FBFEE7284603B0F0BD5EC5040022
:109EA00000C50400A5C5040010B50446406900F0D3
:109EB00055F938B1E06800F033FC606900F050F902
:109EC000002010BD0220FCE7F8B50446FFF7ECFFC8
:109ED000054618BB606900F041F908B3237FD3B988
:109EE000E06800F011FC064600F0FBF998B1294645
:109EF000304600F0A1FB29460746304600F0A5FB9E
:109F00000123024620832377606839460DF024FA46
:109F100008B125832577606900F022F92846F8BD4D
:109F20000225FBE708B530B90A4A0B4840F26A310E
:109F3000FEF786FBFEE7C37E53B1FFF7C5FF01289E
:109F400006D1064A044840F27331FEF779FBFEE77A
:109F500008BD00BF5EC5040000C50400D1C50400F3
:109F600038B51F4C2368834206D01E4A1E4840F273
:109F70004B11FEF765FBFEE7032914D8DFE801F07B
:109F8000221402090123E376BDE838401448FFF7A4
:109F9000BFBE0025A068E57600F0B8FBE06800F0E1
:109FA000B5FB2583A58338BD0023E068237700F047
:109FB000ABFBB4F9181000F09DF9BDE83840084833
:109FC000FFF782BF0023A068637700F09DFB054682
:109FD00060680DF0E0F901B2284600F0BDF9D3E762
:109FE000D47B0020FAC5040000C5040010B5044667
:109FF00030B90E4A0E4840F2F621FEF721FBFEE78B
:10A00000C37E8BB1FFF750FF012806D1094A0848EB
:10A0100040F2FE21FEF714FBFEE7E06800F072FB61
:10A02000BDE8104000F05FB9184610BD5EC50400E1
:10A0300000C504001DC6040037B51446054630B9F6
:10A04000124A134840F22231FEF7FAFAFEE7C37EC5
:10A050000191B3B1B2B1FFF727FFE86800F052FBFE
:10A060002246019900F016FA04462846FFF72CFF15
:10A07000012807D1074A064840F23A31FEF7E0FAD4
:10A08000FEE70124204603B030BD00BF5EC50400DA
:10A0900000C50400D1C50400F0B51C4CA57E85B0F8
:10A0A00035BB0126802701A904F108008DF8046062
:10A0B0000295ADF80C7000F0F7FAB04202D1012021
:10A0C00005B0F0BD022301A904F10C008DF80430A5
:10A0D0000295ADF80C7000F0E7FA0128EFD004F11A
:10A0E000100000F039F804F1140000F035F8A676FD
:10A0F00007480023C4E900002383E376A38309F023
:10A1000045FD003818BF0120DAE700BFD47B0020EE
:10A1100048C604000148FFF773BE00BFD47B00208F
:10A120000A4601460148FFF78DBE00BFD47B0020E0
:10A130000148FFF75BBF00BFD47B00200A46014601
:10A140000148FFF779BF00BFD47B00200148FFF72B
:10A15000E9BE00BFD47B002000F004B800F016B8C0
:10A1600000F028B838B50546042000F07DFA044612
:10A17000286018B9044972200DF0EEFB002323601B
:10A18000BFF35F8F38BD00BF6CC6040010B5044636
:10A1900018B9074985200DF0DFFB0121204606F0A4
:10A1A00076FCBFF35F8FB0FA80F0400910BD00BFAE
:10A1B0006CC6040010B5044618B9084992200DF089
:10A1C000CBFB2368012B03D0044993200DF0C4FB83
:10A1D000BFF35F8F0023236010BD00BF6CC6040077
:10A1E000012B2DE9F041074688461E4604D14368FD
:10A1F00009789954BDE8F081002BFBD005894068AF
:10A20000D318AB4210440CDDAC1AA4B222461FF0A6
:10A2100099FF7868321B08EB0401BDE8F0411FF09C
:10A2200091BF3246F9E700234381C360438A03822A
:10A230007047000008B5038903B1013B994205DD71
:10A240000A4A0B489421FEF7FBF9FEE7438A8B424A
:10A250000BD0C3898B4205D9064A05489C21FEF7DD
:10A26000EFF9FEE74182C91A018208BD7FC70400E9
:10A270001AC70400CFC70400018909B1013989B2A6
:10A28000FFF7D8BF70B5064614200D4600F0ECF974
:10A29000306004462868AD8818B915B1284600F02A
:10A2A000E3F92B0405D5084A08486121FEF7C8F9EF
:10A2B000FEE7606025812046FFF7B5FFFFF7DCFF72
:10A2C0000020207070BD00BF22C804001AC704001F
:10A2D0000A89496801608280704740897047808997
:10A2E0007047C0897047008A70470089013880B282
:10A2F00070470000002908B519D019DDC3898B42C9
:10A3000005DA124A1248D821FEF79AF9FEE7438986
:10A3100002890B4443814389934224BF9B1A4381A2
:10A32000C38989B25B1AC381038A1944018208BDBB
:10A33000028A4B42934205DD064A0548DE21FEF7BC
:10A340007FF9FEE7438902891344E1E748C8040026
:10A350001AC70400A7C80400002908B519D019DDE0
:10A36000038A8B4205DA124A1248F421FEF768F993
:10A37000FEE7838902890B4483818389934224BF4A
:10A380009B1A8381C38913FA81F3C381038A591A03
:10A39000018208BDC2894B42934205DD064A054849
:10A3A000FA21FEF74DF9FEE7838902891344E1E7BC
:10A3B00006C904001AC7040065C90400F8B542893B
:10A3C0008A4229D004898C4206D8144A144840F2A3
:10A3D0004F11FEF735F9FEE716B20DB2AE42CABF15
:10A3E00063188B1A9B1AC7891BB2BB420FDDAE42A2
:10A3F000B8BF1219891A0BB2018A5A428A4206DD85
:10A40000084A074840F22D11FEF71AF9FEE71946EF
:10A41000BDE8F840FFF76EBFF8BD00BFC4C9040037
:10A420001AC7040007CA0400F8B582898A4229D0F5
:10A4300004898C4206D8144A144840F26111FEF790
:10A44000FFF8FEE716B20DB2AE42CABF63188B1A10
:10A450009B1A078A1BB2BB420FDDAE42B8BF12196E
:10A46000891A0BB2C1895A428A4206DD084A074856
:10A4700040F23F11FEF7E4F8FEE71946BDE8F84068
:10A48000FFF76ABFF8BD00BF47CA04001AC704003F
:10A490008BCA040038B5038A93420446154609D393
:10A4A00013468289FFF79CFE204629B2FFF754FF2E
:10A4B000002038BD0120FCE72DE9F04180460D4623
:10A4C00016461C46CBB107897B1E9BB29C4219D80D
:10A4D000138AA34216D341682B19BB4229440FDDCE
:10A4E0007A1B92B23046E41BFFF7D4FF2544D8F81C
:10A4F0000410AAB23046FFF7CDFF0020BDE8F0817E
:10A500002246F7E70120F9E738B5C38993420446AC
:10A5100015460CD313460A464189FFF7CDFF0128A3
:10A5200003D029B22046FFF7E5FE002000E001201D
:10A5300038BD38B514460D8AC289954228BF1546E4
:10A540002A46FFF7E1FF012801D004B1258038BD7C
:10A55000F8B505460E461C46174632B9154A164848
:10A560004FF4FD71FEF76CF8FEE7C389A3421DD3DB
:10A57000012C04D143685B5C13700020F8BDBCB1B2
:10A58000028941683319934231440CDD921B3846ED
:10A590001FF0D8FD28896968221A801B324438448C
:10A5A0001FF0D0FDE9E722463846F9E70120E5E74C
:10A5B0002046E3E7CCCA04001AC7040013460A4643
:10A5C0004189FFF7C5BF83894068184470474389B4
:10A5D0008289934203D9013B981A80B2704700895F
:10A5E00003B90138801AF8E7002A08B51BD00089A2
:10A5F00008DD824211DB0D4A0D4840F26521FEF76D
:10A600001FF8FEE75342834206DB0A4A084840F23D
:10A610006B21FEF715F8FEE70144114489B2884228
:10A620009CBF091A89B2084608BD00BFE7CA0400EA
:10A630001AC7040037CB040010B50AB2044641899A
:10A64000FFF7D2FF6368184410BD10B50AB2044684
:10A650004189FFF7C9FFA389834236BF2289181AAF
:10A66000101A80B210BD000008B50B490B4B0A68E8
:10A67000D31A0344B3F5005F05D9094A09481121EB
:10A68000FDF7DEFFFEE783071CBF031D23F0030079
:10A6900010440860104608BD705C0020807C0020DB
:10A6A00087CB0400A3CB04007FB506460C200D46E3
:10A6B000FFF7DAFF30602B785A1E012A044605D9CD
:10A6C0000E4A0F481321FDF7BBFFFEE700F8043BDD
:10A6D000291DFFF7D7FD01280ED06D466168284679
:10A6E000FFF7F6FD95E8030002AB83E80300194687
:10A6F00004F10800FFF7C6FD04B070BDDACB04001A
:10A70000F8CB0400406870478068704710B5044675
:10A710004068FFF788FDA068BDE81040FFF783BDE3
:10A7200037B50378012B044603D0022B14D003B0B5
:10A7300030BD4068FFF7D1FD0190A068FFF7CFFD65
:10A7400001990546A068FFF739FE6068294603B005
:10A75000BDE83040FFF768BE4068FFF7C0FD0190DC
:10A76000A068FFF7BAFD01990546A068FFF75CFEF7
:10A770006068294603B0BDE83040FFF71FBE000007
:10A7800010B5074C0A44914201D1C04310BD11F8E5
:10A79000013B4340DBB254F8233083EA1020F2E758
:10A7A00034CC040072DF704773DF704738B5012284
:10A7B00004460D46B0F81414D0F8100401F034FD2E
:10A7C00000B1057004F13C0204F5826104F154000B
:10A7D000BDE83840FFF7E6BF80F830107047F8B5A5
:10A7E00004460F4600296DD000286BD091F87A30CE
:10A7F0001BB191F89830002B66D14FF0000C84F813
:10A8000002C007F178060FCE251D0FC50FCE0FC56C
:10A8100096E8070085E8070084F830C0D7F8A43030
:10A820006363D7F8A830A3634FF6FF7504F582631E
:10A83000C4F82034A4F824540722614604F22640C8
:10A84000FCF7AEFD23780BB984F8545094F824300B
:10A85000002B14BFEE231F2304F15501C4F810147C
:10A86000A4F8143404F21442384601F0F0FA40BB64
:10A8700094F82430002B14BFEE231F2304F231215F
:10A88000C4F81814A4F81C3404F21C4207F13C006C
:10A8900001F0DDFAA8B9A369A4F848304FF4807339
:10A8A0000125A4F8503063692064014684F83C50C7
:10A8B000636404F13C0204F15400FFF773FF00B934
:10A8C0002570F8BD0E20FCE70720FAE7F8B50778F9
:10A8D00004460D46002F00F00A8100F226468170E2
:10A8E000072200213046FCF75BFDE38813B1A37813
:10A8F000012B04D0E3794BB1A378022B06D1636B13
:10A90000ABB1012284F82D240820984704F2274394
:10A9100004F22D4113F8012B12B99942FAD11746CE
:10A920006B1E032B57D8DFE803F0050B0F1284F8DA
:10A930002D34EBE7A3791BB194F8243003B95FB948
:10A94000E3790BB1002F48D1237A002B47D1637AEA
:10A95000002B0CBF00250425636BA570002B40D095
:10A96000033D012D3DD86279002A3AD094F82E2477
:10A97000002A36D184F83024012284F82F240720BD
:10A98000984704F13C05182200212846FCF708FDF1
:10A99000E26A0123511E994284F83C3001D9042A0D
:10A9A00000D1D3B294F8242084F8513042B1A36A84
:10A9B000591E012902D9042B18BF012384F85230F3
:10A9C000A178002384F8503004291BD8DFE801F077
:10A9D000770D223559000025BEE70225BCE7032587
:10A9E000BAE7002384F82F34CBE7C4E91063C4F836
:10A9F00020340223012284F83C30802384F8312063
:10AA0000A4F84830A378002B5CD1636B002B6AD18B
:10AA1000002067E00223002A84F8313014BF0723A6
:10AA2000032384F83C302369A4F848300023C4F899
:10AA30002034E36826646364E4E763696364A369BC
:10AA4000A4F8483012B1062384F83C306379B3B1DE
:10AA500094F82E349BB994F8303483B1022384F8EF
:10AA6000503004212046FFF7A1FE0028CAD105235B
:10AA700084F8313004F58263C4F82034C2E703233C
:10AA8000F6E7E3696364236AA4F8483012B1062349
:10AA900084F83C30637983B194F82E346BB994F820
:10AAA000303453B1022384F8503004212046FFF79C
:10AAB0007DFE0028A6D10623DAE70423D8E784F830
:10AAC00031309FE7D4F820142A4604F15400FFF7F0
:10AAD00069FE38B994F8301094F85400FFF764FE1A
:10AAE000002892D0F8BD94F83100984790E70820EC
:10AAF000F8E710B50388112B0C460AD0262B1FD07F
:10AB0000102B05D1C37B012B02D18388A1F82434FB
:10AB100010BD002381F82E348288B1F824349A4283
:10AB2000F6D10B79002BF3D101212046FFF7CEFEA1
:10AB30000028EDD0A36B002BEAD0BDE810401847E9
:10AB4000037A013B012BE3D8897805230131B1FB5E
:10AB5000F3F303EB8303C91AC9B2E6E710B590F823
:10AB60002D344BB1002480F82D44072200F22640FA
:10AB70001FF0E8FA204610BD0820FCE790F82F34BB
:10AB80005BB1009900230A4314BF01221A4680F8E2
:10AB90002F3480F83024184670470820704770B56D
:10ABA0000546164608460AB90E2070BD00231360FC
:10ABB000002DF9D02B68002BF6D0EB8813F003049E
:10ABC0000ED101F0ABFDC0B214280BD02B7983421B
:10ABD0000AD9EA882B6800FB023030602046E4E79F
:10ABE0000720E2E70520E0E70420DEE7A8DF704762
:10ABF000ACDF7047AEDF704737B505460C46E1B1B4
:10AC0000D8B10388502B18D14B7CB3B1C2884B8983
:10AC10009A4212D1038A022B0FD10B686BB112300A
:10AC200001F0F5FDAB88ADF8063080F001008DF83D
:10AC30000400236801A92046984703B030BD2DE9E0
:10AC4000F0410E4690B0054600286AD0002968D031
:10AC50000B6803600B794374FF2303742A1D0120E2
:10AC600041F60F0302A98DF80A00ADF80830FFF78E
:10AC7000BDFF044600284ED12022337B8DF80330DF
:10AC800001460DEB0200FCF78BFB42F61923ADF8F1
:10AC900020304FF0011309930DF103030A936B7CED
:10ACA0009DF82D20A8881B0143F0020322F0120218
:10ACB00003F0120313438DF82D30B37B8DF833303E
:10ACC000AA1D737B8DF8313008A901F0B3FD04464D
:10ACD00008BBB16819B30DF10408404601F09BFDB3
:10ACE00021460746142203A8FCF75AFBB8B242F6E5
:10ACF0000813ADF80C30ADF81600F37BADF81A0070
:10AD000005F10E02E8888DF8123003A9CDF81C80F9
:10AD100001F03AFE0446204610B0BDE8F081E8811B
:10AD2000F9E70E24F7E72DE9F04194B016468DF8C7
:10AD300007100546002857D0027CCBB29A4255D066
:10AD400003AF082200213846FCF72AFB4FF0010828
:10AD50000DF10703E988CDF80C803A464FF6FF70F5
:10AD60000493FFF745FF044610BB9DF807302B7492
:10AD70006B7C002B3CD00146102205A8FCF710FB91
:10AD8000EB88ADF81430BDF80E30ADF81830049BE8
:10AD900008934FF6FE739E428DF8168007971DD1DB
:10ADA00009A801F0B1FC0AAF2546099B9D4203D3D7
:10ADB000204614B0BDE8F08137F8026B304601F050
:10ADC0005BFC022805D105A9304624B9FFF712FF24
:10ADD00004460135E9E7FFF70DFFFAE705A930461C
:10ADE000FFF708FF0446E3E70E24E1E70024DFE76E
:10ADF0000824DDE7A8DF7047F0B5074689B01446A0
:10AE00001E460D4621B9134A842128460CF08AFCBF
:10AE100024B9104A852120460CF084FC2022002110
:10AE20006846FCF7BDFA9DF80D300E9AADF800703B
:10AE300043F002038DF80D30074BADF8044018883D
:10AE4000ADF80640694602958DF8116001F0F2FCFC
:10AE500009B0F0BD3CD00400B89C002030B587B0EC
:10AE600041F60A035C4AADF80C30044603A9012000
:10AE70008DF80E00FFF7BEFF0546002849D1228855
:10AE8000002A49D1228952B1544B0093E16894F8C9
:10AE90003C3042F62420FFF7AFFF002847D1228A3A
:10AEA00052B14F4B0093616994F83C3042F6252033
:10AEB000FFF7A2FF00283AD1228B52B1494B0093F1
:10AEC000E16994F83C3042F62720FFF795FF00280F
:10AED0002DD1228C4AB1444B0093616A94F83C30E6
:10AEE00042F62620FFF788FF08BB228D4AB13F4B70
:10AEF0000093E16A94F83C3042F62820FFF77CFF8B
:10AF0000A8B9236BABB9616B002938D1A36B002BB7
:10AF100042D1284607B030BD354B0093616894F8A4
:10AF20003C3042F62920FFF767FF0028AAD00546EB
:10AF3000EFE71A688DF810201A68120A8DF81120B0
:10AF40005A888DF81220DA788DF813205A688DF817
:10AF500014209B688DF815301A0A1B0C8DF81730D9
:10AF6000244B8DF816200093082294F83C3004A955
:10AF700042F62320FFF740FF0028C4D0D7E71E4B3E
:10AF80000A790093096894F83C3042F62A20FFF7CA
:10AF900033FF0028BAD0CAE71A788DF810205A88F3
:10AFA0008DF81120120A8DF812209A888DF813203E
:10AFB000120A8DF81420DB888DF815301B0A8DF8E5
:10AFC00016300E4B0093072294F83C3004A942F649
:10AFD0005020FFF711FFAAE7B89C0020989C0020A2
:10AFE000B09C0020889C0020809C0020BA9C0020FF
:10AFF000909C0020C29C0020A89C0020A09C0020C7
:10B00000A8DF7047A9DF7047ACDF7047AEDF70473D
:10B01000B0DF704764DF7047F0B513241C80D0F8B0
:10B020007C41059E4CBBD0F88041002C49D1D0F822
:10B030008441002C67D10020F0BDD0F87C7137F836
:10B0400034401F883C441C80877CECB2A742EAD97C
:10B050000CFB04070135B7F814E08E454FEAC4072E
:10B06000EBD142F64D23138001239370D470D0F8B6
:10B070007C21D25B32800120DEE700254FF00A0CF4
:10B08000E2E7D0F8807137F834401F883C441C80D8
:10B0900090F87870ECB2A742C9D90CFB04070135CF
:10B0A000B7F87AE08E454FEAC407EAD142F64D235D
:10B0B000138002239370D470D0F88031DB5B33802F
:10B0C000D9E700254FF00A0CE2E7D0F8847137F891
:10B0D00034401F883C441C8090F8DE70ECB2A742DC
:10B0E000A9D90CFB04070135B7F8E0E08E454FEA1B
:10B0F000C407EAD142F64D23138003239370D47022
:10B10000D0F88431DAE700254FF00A0CE4E72DE9A6
:10B11000F04315468BB004468846D0F87801A988DC
:10B120006A461E46FFF73BFD10B1636803B19847BE
:10B13000009F8FB30021102201A8B5F80E90FCF7F4
:10B140002FF901238DF804300023ADF80830BDF845
:10B150004830A888ADF80C90A3EB0903ADF80E3089
:10B160009DF80A304E44374443F0010301A9049787
:10B170008DF80A30FFF74CFF10B1636803B19847B0
:10B1800023684BB1D8F80000069007228DF81420F0
:10B19000099505A9204698470BB0BDE8F0832DE935
:10B1A000F04186B005460C4616468988D0F87801ED
:10B1B0006A461F46FFF7F3FC10B16B6803B198476E
:10B1C0000098F0B1228AE389BDF8301013448B4215
:10B1D00017DC04F11208414638441EF0B3FF2B6817
:10B1E0007BB104228DF80420E2893068ADF80C2090
:10B1F000228A0290CDE90484ADF80E2001A92846E8
:10B20000984706B0BDE8F0812DE9F0418EB00646C2
:10B210000F4690460021202206A8149C1D46FCF7EC
:10B22000BFF842F64D23ADF818303B788DF8253045
:10B2300023788DF8293063788DF82A30A3788DF83B
:10B240002B30159A3089ADF81C80012306A98DF8A2
:10B2500024308DF8273001F0EDFAF8B914220146B8
:10B2600001A8FCF79DF842F60813ADF804302378E6
:10B270008DF80A30294663788DF80B30684601F066
:10B28000CAFA159ACDF814D080B2ADF80E00ADF818
:10B29000120001A932F8080B01F076FB0EB0BDE8F0
:10B2A000F08170B5138A022B86B004460E4615460F
:10B2B00013D103688BB102F1120001F0A8FA002843
:10B2C00018BF02233068029008BF03238DF80430B2
:10B2D0000595236801A92046984706B070BDF0B5D2
:10B2E000144689B005460F462022002168461E46B6
:10B2F000FCF756F862788DF81220111E4FF0080303
:10B30000ADF8043018BF01219DF80D302889ADF843
:10B310000070C90023F01A0341F012011943237889
:10B320008DF81130A3788DF80D108DF8133032465A
:10B33000012369468DF80F3001F07CFA09B0F0BDA9
:10B3400030B587B004460D46D0F87801898801AA47
:10B35000FFF725FC10B1636803B19847019BFBB16F
:10B360001022002102A8FCF71BF801238DF80830F9
:10B37000ADF81230019B05939DF80E30A88800228D
:10B38000ADF80C2043F00103EA89ADF8102002A9C2
:10B390008DF80E30FFF73CFE10B1636803B198479B
:10B3A00007B030BDF0B50388502B8BB005460C4676
:10B3B00057D0512B00F00E81102B3FD18188D4F84B
:10B3C0007801002304AA0493FFF7E9FB10B1636836
:10B3D00003B19847049888B3D4F87C11002934D07D
:10B3E000A67C00231322B3422AD3D4F8801121B1C2
:10B3F00094F878600023B34229D3D4F8841121B1A2
:10B4000094F8DE600023B34226D30021FBF7C8FF87
:10B4100063899BB1049B01261E700822002105A8A8
:10B42000FBF7BEFF049B6189A888059605AA0693D1
:10B43000FFF7EAFD10B1636803B198470BB0F0BDA8
:10B4400031F8337001333A44CDE71322CDE731F8B8
:10B45000337001333A44CEE731F8337001333A4464
:10B46000D1E7C188B4F86E01022300228842ADF80A
:10B470000C30ADF80E201ED1A988D4F8780104AAAA
:10B48000FFF78DFB10B1636803B19847049A002A57
:10B49000D4D02B8A012BD1D1AB7C0BB1012BCDD1D8
:10B4A0008DF8143053702368002BC7D0099505A977
:10B4B00020469847C2E7608988421AD1A988D4F803
:10B4C000780104AAFFF76BFB10B1636803B19847DA
:10B4D000049A002AB2D02B8A012BAFD1AB7C1BB1CE
:10B4E000012BABD1062100E005218DF8141013705B
:10B4F000D9E7B4F8520188420BD142F62223ADF8C5
:10B500001430ADF816202A4605A92046FFF7C9FEDB
:10B5100094E7B4F84E01884207D142F62221ADF8F3
:10B520001410ADF8162008220DE0B4F856318B4205
:10B5300012D142F63223ADF814300A23ADF81620AA
:10B54000ADF80C300122ADF80E20009205AA294674
:10B550002046FFF724FE71E7B4F862318B4202D136
:10B5600042F63323CBE7B4F85E318B4217D0A07C90
:10B5700004F10E060A27D3B298421AD80DF10E0331
:10B58000009305AA03AB2046FFF746FD00283FF4D1
:10B5900055AFBDF80E300093BDF80C30D6E742F63B
:10B5A0003323ADF814300B23ADF81620ADF80C3072
:10B5B000B9E7013207FB02FC36F80CC08C45DAD142
:10B5C00042F64D22ADF8142001228DF816208DF898
:10B5D000173098E78079022300220128ADF80E3059
:10B5E000ADF810207FF42AAF298966898E4204D1F4
:10B5F00029462046FFF7A4FE20E7B4F84E618E42AC
:10B600000AD142F62221ADF81410ADF81620082216
:10B61000ADF8102000920FE0B4F856318B4211D1F2
:10B6200042F63223ADF814300A23ADF81620ADF8F7
:10B630000E30ADF8100000902A4605A92046FFF70D
:10B6400066FDFBE6B4F85E318B4209D142F6332346
:10B65000ADF814300B23ADF81620ADF80E30D6E758
:10B6600004AB009305AA0DF10E032046FFF7D4FCAE
:10B6700000283FF4E3AEBDF810300093BDF80E3063
:10B68000DAE72DE9F04F0C4697B00546002800F0A8
:10B690001482002900F011828B7A0A2B00F290802C
:10B6A0000B7C0A2B00F28C800B7E0A2B00F2888028
:10B6B0000B6803604B6843608B7A83740B7C80F863
:10B6C00078300B7E80F8DE3005F10802012041F66B
:10B6D000120304A98DF81200ADF81030FFF790FCAA
:10B6E0000646002878D1074694F83620FBB29A42E5
:10B6F00068D8238953B30127202200210EA894F88B
:10B700003C9094F83D808DF82470FBF749FE42F69A
:10B710004E23ADF838304FF001130F9309AB10935F
:10B720009DF8453028898DF8499023F0060343F0B1
:10B73000060305F10A020EA98DF845308DF84A80FE
:10B740008DF8477001F076F8002845D1A37A002BD8
:10B7500045D1237C002B7CD1237E002B40F0AD8093
:10B76000202200210EA8FBF71BFE42F64B23ADF86A
:10B770003830A38CADF83C30ADF83E30236A1093DE
:10B7800094F82C308DF84930BDF84430288923F4E2
:10B790003F7323F0030343F4007343F0010305F503
:10B7A000A2720EA9ADF8443001F044F8A0B994F8A3
:10B7B0002630002B00F0DF80A36A002B40F06E8162
:10B7C000072009E0A16B288931F813100EAAFFF7B2
:10B7D00019FC0137002887D017B0BDE8F08FE36867
:10B7E000002BB6D04FF000084FF00A09D4F80CB087
:10B7F0005FFA88F70BEBC70A012200210EA8FBF7BE
:10B80000CFFD9AF805209DF83830003A18BF012284
:10B81000D20023F01A0342F012021A438DF83820A6
:10B820003BF8372009FB07570AF10403143700934C
:10B8300001970AF102030EA92846FFF7E5FC00284C
:10B84000CAD1A27A08F101085FFA88F39A42CDD8EA
:10B850007FE76369002B3FF47FAF4FF000084FF0A4
:10B860000A09012200210EA8D4F814B0FBF798FDB4
:10B870009DF8383023F00E035FFA88F743F00E038B
:10B880008DF838303BF837200BEBC70A09FB075718
:10B890000AF104037A37009301970AF102030EA913
:10B8A0002846FFF7B1FC002896D1227C08F1010858
:10B8B0005FFA88F39A42D4D84EE7E369002B3FF44D
:10B8C0004FAF4FF00A08012200210EA8D4F81CA0A7
:10B8D000FBF766FD9DF8382022F00A02F7B242F02D
:10B8E0000A028DF838203AF837200AEBC70908FB1E
:10B8F000075709F10403E0370093019709F10203A8
:10B900000EA92846FFF780FC00287FF465AF227E51
:10B910000136F3B29A42D6D822E7A06A3A460DF130
:10B920000F0100EB8600FFF775FB00287FF454AF92
:10B930000146142209A8FBF733FD42F60713ADF8C0
:10B94000243094F82C308DF82A30B5F844019DF855
:10B950000F30ADF82E3005F5A67209A9ADF83230DA
:10B960000D9701F011F800287FF436AF013694F8F6
:10B9700026309E42D1DB237A93B305F5A77304F1F9
:10B98000420242F622212846FFF7A9FC00287FF454
:10B9900023AF014620220EA8FBF702FD42F6322318
:10B9A000ADF838309DF84530288923F00E0343F078
:10B9B0000E0301228DF8453094F84530ADF83C2057
:10B9C0008DF849308DF8472094F846308DF84A308C
:10B9D00005F5AB720EA900F02DFF00287FF4FCAE38
:10B9E000637A002B5DD1238E8DF824301B0A8DF8ED
:10B9F000253094F832308DF82630202294F83330F8
:10BA00008DF8273000210EA8FBF7CAFC42F64A2326
:10BA1000ADF838309DF84530288943F002038DF8A1
:10BA2000453094F834308DF8493009AE4FF00413A6
:10BA300005F5B3720EA90F93109600F0FBFE0028D7
:10BA40007FF4CAAE01468DF8240020220EA894F897
:10BA50003E70FBF7A5FC42F64C23ADF838309DF85C
:10BA6000453028898DF84A7043F004038DF845303D
:10BA700005F5B7724FF001130EA9CDE90F3600F0AE
:10BA8000D9FE00287FF4A8AEE368C5F87C3163696D
:10BA9000C5F88031E369C5F884319DE6064605AFF7
:10BAA00065E705F5AF7304F13F0242F633212846FE
:10BAB000FFF715FC002896D08EE60E208CE62DE9C7
:10BAC000F04186B00E46BDF8308015461F4604464C
:10BAD00000284DD0002B4BD0837C8B424AD94FF6A7
:10BAE000FF73984548D0ADF80220D0F8780101AA3C
:10BAF0004146FFF754F878BB019BD4F87C211333FF
:10BB00000193C3B29E422AD832F83630AB422DD3CD
:10BB10002A46394601981EF015FB0021102202A882
:10BB2000FBF73EFC0A2101FB06444046A38AADF820
:10BB3000083001238DF80A300023ADF80C3002A93B
:10BB40000DF10203CDE90437FFF760FA20B9049B39
:10BB50001B88AB4218BF0C2006B0BDE8F08132F85C
:10BB60003010019B0B4401930130CAE70C20F3E72E
:10BB70000E20F1E70720EFE70820EDE7F0B50C46CF
:10BB800087B016461D460746002836D0AAB34FF6A2
:10BB9000FF739D4233D0ADF80210D0F8780101AAAE
:10BBA0002946FEF7FCFF30BB0198082C00F102008B
:10BBB000019003D8224631461EF0C4FA002110221B
:10BBC00002A8FBF7EDFBB7F84E31ADF808300123C2
:10BBD0008DF80A300023ADF80C3002A90DF10203F4
:10BBE0002846CDE90436FFF711FA20B9049B1B88DB
:10BBF000A34218BF0C2007B0F0BD0E20FBE70820C1
:10BC0000F9E72DE9F04788B08946BDF84060BDF8F6
:10BC1000485017469A46044600284CD04FF6FF730A
:10BC20009D424AD006F103081FFA88F3082BADF8AD
:10BC300002303ED8D0F8780101AA2946FEF7AFFFBE
:10BC4000A0BB019B8DF808900B3301938DF8097010
:10BC50008DF80AA02EB1119932460DF10B001EF09D
:10BC600071FA02AEBDF80220019831461EF06AFA60
:10BC7000102200210DEB0200FBF792FBB4F85E31BD
:10BC8000ADF8103001238DF812300023ADF81430D8
:10BC900004A90DF102032846CDE90636FFF7B6F9EF
:10BCA00020B9069B1B88434518BF0C2008B0BDE88F
:10BCB000F0870C20FAE70E20F8E70820F6E72DE9D8
:10BCC000F743DDF82C900E4690461F4605460028A7
:10BCD0003DD0B9F1000F3AD090F878308B4238D986
:10BCE000BDF82810D0F8780101AAFEF758FF0446E5
:10BCF000C8B9019BA97C133301930346DAB2914280
:10BD000015D8D5F880110023DAB2964218D831F848
:10BD1000362008EB070393421DDC01994246394463
:10BD200048461EF00FFA204603B0BDE8F083D5F870
:10BD30007C2132F83300019A024401920133DDE79D
:10BD400031F83300019A024401920133DCE70E24FA
:10BD5000E9E70724E7E70924E5E76DDF704779DFC6
:10BD600070477DDF704764DF70472DE9F04F85B085
:10BD700000250E9CBDF83CB0B4F800A00191074628
:10BD800090461E46A9463A884A450DDC45B12388AF
:10BD9000013BA3EB0A039BB2FF2B3AD806F80A300B
:10BDA000002005B0BDE8F08F7A6852F829000390B2
:10BDB00000220DF10B0103A8FFF7D5FF0028F0D1F9
:10BDC0009DF80B20424521D12288002D14BF002070
:10BDD000022002EB0801014459451ADC3DB9013249
:10BDE00092B2019B2280B3542288013222802288A1
:10BDF0000DF10B01324403A8FFF7B5FF0028D0D1A5
:10BE000021889DF80B200A442280012509F10109AF
:10BE1000B9E70C20C5E72DE9F341089FBDF8248060
:10BE20001546CDE90078022204461E46FFF79DFF25
:10BE300050B93346102229462046CDE9087802B091
:10BE4000BDE8F041FFF791BF02B0BDE8F0812DE9F8
:10BE5000F04F00231788138090F82D3085B00646E8
:10BE60000D46144653B3082F01D80C2027E102A831
:10BE7000FFF773FF002840F0228123880822EA544C
:10BE8000238801339BB21B222380EA54208801308F
:10BE900080B2208006220DF1090128441EF052F9DB
:10BEA00023889DF8082006339BB212F0FE0218BFCB
:10BEB00001222380EA54238801332380B378FBB125
:10BEC00023880433BB42D0D802A8FFF748FF0028DC
:10BED00040F0F58023880322EA54238801339BB283
:10BEE00019222380EA542388BDF8082001339BB22D
:10BEF000E9182380EA54120A4A7023880233238007
:10BF0000F2789AB12388D91CB942AED80221E954FB
:10BF1000238801339BB201212380E95423880B44F9
:10BF20009BB22380EA5423880B4423807268AAB111
:10BF30002388D91CB94298D8022192F90020E954EB
:10BF4000238801339BB20A212380E95423880133DB
:10BF50009BB22380EA542388013323803389002B4A
:10BF600040F0A180338A5BB1CDE900472B46072220
:10BF7000032106F11000FFF74EFF002840F09F80DC
:10BF8000338B5BB1CDE900472B461522142106F116
:10BF90001800FFF740FF002840F09180326A002A25
:10BFA00040F09080D6F82480B8F1000F30D0B8F877
:10BFB00004302188981C8A1C0244BA423FF655AFCF
:10BFC000FE283FF652AF03336B54238801339BB2F4
:10BFD000FF222380EA54238801339BB22380B8F8E0
:10BFE0000020EA54E918120A4A702088023080B210
:10BFF0002080B8F804205AB1D8F8081000296BD076
:10C0000028441EF09FF82388B8F8042013442380A6
:10C0100096F82C30002B40F09880307800284ED0D5
:10C020003388012B58D0228802F1020CBC453FF620
:10C030001CAF012805D17378023313449F42FFF4EB
:10C0400014AF023FBF1ABFB202A905EB0C00ADF856
:10C050000870FFF786FE90BB3178BDF808300229E2
:10C0600000F0B98072789A4202D39F4280F0B1808A
:10C07000012940F0B280974293B2C0F0AE80ADF893
:10C0800008300821BDF80830FE2B3FF6EEAE2288BE
:10C090000133AB542288013292B22280A954228803
:10C0A000134423800BE0CDE900472B4606220221F2
:10C0B00006F10800FFF7AFFE00283FF453AF05B0CC
:10C0C000BDE8F08FB4F800C00CF10603BB423FF6A8
:10C0D000CCAE1188052901D80720F0E76FF4486E2F
:10C0E00001EB0E039BB24FF27D3E7345F4D95388AA
:10C0F000052BF1D96FF44860181880B27045EBD960
:10C100004FF6FF70814201D09942E5D8052305F82A
:10C110000C30238801339BB212212380E9542388F9
:10C1200001339BB223801188E954E818090A417051
:10C13000238802339BB223805288EA54E918120AFA
:10C140004A702388023323802CE7B36A002BC3D0C4
:10C150004FF000084FF00C0A4FF0160BB16A5FFA6F
:10C1600088F20AFB02F201EB0209B9F80430981CCC
:10C17000FE283FF67AAE208803332B542388013300
:10C180009BB2238005F803B0238801339BB2238040
:10C190008A5AEA54E918120A4A702088023080B29A
:10C1A0002080B9F804205AB1D9F80810002993D09A
:10C1B00028441DF0C7FF2388B9F8042013442380C6
:10C1C00096F82C2008F101085FFA88F39A42C5D846
:10C1D00023E7092156E79F42FBD2ADF8087050E7EC
:10C1E00030B5C8B1F2B10024651C8D4206DA15885D
:10C1F000A54212D805196D789D420ED1A14211D9E0
:10C20000005D48B1013880B230B10234A3B210FAF7
:10C2100084F4A14206DB138030BD055D01352C445A
:10C22000A4B2E1E70020F7E713B513460022ADF80A
:10C2300006200DF106020446FFF7D2FF10B1BDF84B
:10C240000630E01802B010BD75DF704776DF70472A
:10C250007ADF70477BDF7047034B1A8882420CBF3E
:10C2600018460020704700BFE89C0020024B9B69E5
:10C2700003B11847704700BFCC9C002073B585B24E
:10C280002846FFF7E9FF044638B3174E027A337B9E
:10C290009A420CD200F10A012846FFF7D5FFF0B10F
:10C2A00011281AD002B0BDE87040FFF7DFBF0023AD
:10C2B0000372337C43B13B212846FFF7C7FF30F0C0
:10C2C000080301D0FFF7D2FF736933B100228DF864
:10C2D0000420ADF8065001A8984702B070BD237A3B
:10C2E00001332372F9E700BFCC9C002037B50B4621
:10C2F000497A0F4A79B9D2E901141D7A0246002D14
:10C3000018BF2146586806F027FE78B103B0BDE893
:10C310003040FFF7ABBF00211972536933B10122DE
:10C32000ADF806008DF8042001A8984703B030BD91
:10C33000CC9C00204B8802889A4212D842889A42AC
:10C340000FD380888B8840F2F311884294BF021A81
:10C35000421A9A4205D80844984234BF002001206E
:10C36000704700207047000070B50388122B01460B
:10C3700059D004D8102B1ED0112B44D070BD502B97
:10C38000FCD12F4BC288DB899A42F7D1038A022B5A
:10C39000F4D186883046FFF75FFF05460028EDD0D0
:10C3A00001F1120000F033FA38BB686806F00AFEAB
:10C3B0000028E3D009E0C37B012BDFD14FF6FF70EB
:10C3C000FFF74AFF054620B90420BDE87040FFF79B
:10C3D0004DBF8E881B4A0680002303721368C0F885
:10C3E0000A305368C0F80E3010310A30FFF7A2FF50
:10C3F000134B6872DB89002BC0D129463046BDE85B
:10C400007040FFF773BF8088FFF726FF04460028BF
:10C41000B4D0406806F0D6FD08B1FFF727FF4FF60D
:10C42000FF732380AAE786883046FFF715FF05468D
:10C430000028A3D008310A30FFF77CFF6872DCE7E0
:10C44000CC9C0020FC9C0020F8B5064648B305466D
:10C450000FCD154F3C460FC495E8070084E8070050
:10C460003068124C3C60B0B1FFF7F2FEC0B93268E0
:10C4700013682360536863600D480E4A4FF6FF73DC
:10C4800003800D4B40F8043F002106F043FD0028D7
:10C4900018BF032004E02046FFF7DCFE0028EBD0A5
:10C4A000F8BD0E20FCE700BFCC9C0020FC9C0020C7
:10C4B000E89C00207DC20200089D0020F7B51746C9
:10C4C00001900E4691B1019C6CB100252C46294685
:10C4D00001A804F020FC18B13946A8B2B0470134D5
:10C4E0000135142DF3D1204603B0F0BD0C46FAE718
:10C4F0000AB104F0EFBB04F004BC73B50191019CD8
:10C5000006466CB100252C46294601A804F003FC20
:10C5100018B106EB440301349D800135142DF3D18D
:10C520003046346002B070BD2DE9F047038884883E
:10C53000103B8CB005460A2B23D8DFE803F00642F7
:10C5400022222222222222674900DFF8F080D8F836
:10C550000830DB430093D8F80410684604F0C6FAAC
:10C56000009901A8FFF7C9FF0DF108090027019BF9
:10C570009F4209D3132C14D9294AF02104200BF02F
:10C58000D1F80CB0BDE8F08739F802AB00260136CF
:10C59000514608EB860004F0B4FB1E2EF7D101379C
:10C5A000E5E72048214604F095FB1F48214604F0AA
:10C5B00091FBEB7B022BE4D11C48214604F08AFB63
:10C5C000DFE7184821460CB0BDE8F04704F099BBFE
:10C5D000027A17483F2A4FEA1215214694BF0022DB
:10C5E0000122FFF785FF022D94BF0022012211488E
:10C5F0002146FFF77DFF012D0F4894BF0022012245
:10C6000021460CB0BDE8F047FFF772BF037A002B5C
:10C61000B7D1427A0648C2F3C0022146F1E700BF13
:10C62000B1D00400309D00202C9D0020349D0020BE
:10C63000409D00203C9D0020389D0020289D00202A
:10C640001328014602D8024804F065BB0020704759
:10C650002C9D002007B50190FFF7F2FF019930B142
:10C66000044804F058FB002814BF0220012003B046
:10C670005DF804FB349D002007B50190FFF7E0FF53
:10C68000019930B1044804F046FB002814BF022091
:10C69000012003B05DF804FB309D002007B5019038
:10C6A000FFF7CEFF019928B1044803B05DF804EB11
:10C6B00004F031BB03B05DF804FB00BF389D0020DF
:10C6C00007B50190FFF7BCFF019928B1044803B0FA
:10C6D0005DF804EB04F01FBB03B05DF804FB00BF82
:10C6E0003C9D002007B50190FFF7AAFF019928B1F2
:10C6F000044803B05DF804EB04F00DBB03B05DF833
:10C7000004FB00BF409D002010B5034B0446596850
:10C71000FFF7F3FE204610BD289D002010B504460B
:10C72000FFF78EFF002814BF2046142010BD000024
:10C7300008B51821024804F0F7FAC0B208BD00BFDE
:10C74000289D002070B50A4E054630460C4604F080
:10C75000E2FA58B12846FFF773FF38B1073429468B
:10C7600006EB8400BDE8704004F0D5BA002070BD2F
:10C77000289D0020F8B50B4F054638460C46164656
:10C7800004F0C9FA60B12846FFF75AFF40B10734F8
:10C790003246294607EB8400BDE8F840FFF7A8BE03
:10C7A000F8BD00BF289D002073B50B4D01920446D3
:10C7B0000E460146284604F0AEFA50B1063405EBA9
:10C7C0008404019A6068314602B0BDE87040FFF70A
:10C7D00075BE02B070BD00BF289D0020AADF704763
:10C7E000ABDF7047002301380B70042806D8DFE860
:10C7F00000F00306080A0C0011230B707047212378
:10C80000FBE73123F9E71223F7E72223F5E7008856
:10C8100000F0010070470B7803704B7843700220E2
:10C82000704738B5044608460D461EF029FA656083
:10C83000208038BDF0B58B7891B0012B0C4638BF05
:10C8400001238DF80E3005460B88ADF80C30002121
:10C85000164668460322FAF7A3FD607C6946FFF797
:10C86000C1FFA07C0DF10101FFF7BCFFE27B237B40
:10C87000217D43EAC203227C43EA02139DF8022091
:10C88000002922F0190203F0190314BF022101212B
:10C89000134361F342031C22002109A88DF80230E2
:10C8A000FAF77EFD637B13F0300F15D002AF032241
:10C8B00000213846FAF774FDE07C0DF10901FFF71D
:10C8C00091FF11238DF808309DF80A300E97012250
:10C8D00062F342038DF80A30637B8DF82430142212
:10C8E000A37B8DF82530002104A8FAF759FD03AB8E
:10C8F0000493A388ADF81C30A368CDF814D01BB105
:10C90000E288ADF818200893A369002B31D001AF5D
:10C91000032200213846FAF743FDA3691A88ADF8CF
:10C920002C205A88ADF82E205A680D97187B0A9251
:10C930003946FFF757FFA3690DF10501587BFFF753
:10C9400051FFA3699A7A197A41EAC201DA7A9B7B8C
:10C9500041EA02119DF80620002B01F0190122F096
:10C96000190214BF02230123114363F342018DF81E
:10C970000610E36903B10C93334604AA09A92846BB
:10C98000FFF72CFF11B0F0BDF0B50C4689B005469D
:10C9900016460021142203A8FAF702FDA378A07915
:10C9A000012B38BF01238DF80A3001AF2388ADF881
:10C9B0000830394602AB0393FFF714FFE0790DF11D
:10C9C0000501FFF70FFFE2786379217A049743EAC4
:10C9D000C203227943EA02139DF80620002922F0BF
:10C9E000190203F0190314BF02210121134361F35B
:10C9F00042038DF806306389ADF81430A389ADF891
:10CA00001630E389ADF8183032462369079303A93D
:10CA10002846FFF7E5FE09B0F0BD90DF7047A5DFBF
:10CA20007047B5DF70470000F0B52D4E7388032BBB
:10CA300085B007460D460BD92A482B4C241AE4082A
:10CA400024040A463B46294944F0040005F053FFFC
:10CA500000236A4602A93846ADF80850ADF80A50DE
:10CA6000ADF80C30ADF80E300093ADF80430FFF7A0
:10CA7000D4FF054688B373886BB106F0B3F81A4C3F
:10CA80001B4903461748241AE40824043A4644F094
:10CA9000010005F030FFBDF80020BDF8023052EA79
:10CAA00003010BD0718849B10E480F4C1149241A6B
:10CAB000E408240444F0010005F01DFFBDF8042043
:10CAC0005AB173884BB10748074B0B491B1ADB0857
:10CAD0001B0443F0010005F005FF284605B0F0BD3A
