:020000022000DC
:10700000000002208DCD0400B5CD0400B7CD0400F2
:10701000B9CD0400BBCD0400BDCD040000000000CC
:10702000000000000000000000000000BFCD0400D0
:10703000C1CD040000000000C3CD0400C5CD040094
:1070400089B803000D8A02007DE8030041C00300F7
:1070500015BA0300C7CD0400C7CD0400C7CD040096
:10706000C7CD0400C7CD0400C7CD0400C7CD0400C0
:10707000C7CD0400C7CD0400C7CD0400C7CD0400B0
:10708000C7CD0400415E0300C7CD0400C7CD040096
:10709000C7CD0400C7CD0400F5AE0300C7CD040082
:1070A000C7CD0400158A0200118A020079BF0300CF
:1070B000C7CD0400C7CD04000000000000000000A0
:1070C000C7CD0400C7CD0400C7CD040011B903002B
:1070D000C7CD0400C7CD0400C7CD04004DD80300C0
:1070E000C7CD040000000000000000000000000008
:1070F00000000000C7CD040000000000C7CD040060
:10710000000000000000000000000000000000007F
:10711000000000000000000000000000000000006F
:10712000000000000000000000000000000000005F
:10713000000000000000000000000000000000004F
:10714000000000000000000000000000000000003F
:10715000000000000000000000000000000000002F
:10716000000000000000000000000000000000001F
:10717000000000000000000000000000000000000F
:1071800000000000000000000000000000000000FF
:1071900000000000000000000000000000000000EF
:1071A00000000000000000000000000000000000DF
:1071B00000000000000000000000000000000000CF
:1071C00000000000000000000000000000000000BF
:1071D00000000000000000000000000000000000AF
:1071E000000000000000000000000000000000009F
:1071F000000000000000000000000000000000008F
:107200000348044B834202D0034B03B11847704735
:10721000045E0020045E00200000000005480649CE
:107220000B1AD90F01EBA301491002D0034B03B194
:1072300018477047045E0020045E00200000000034
:1072400010B5064C237843B9FFF7DAFF044B13B1AE
:107250000448AFF300800123237010BD505F00206D
:1072600000000000C482050008B5044B1BB10449AE
:107270000448AFF30080BDE80840CFE700000000FD
:10728000545F0020C4820500A3F5803A704700BF18
:10729000154B002B08BF114B9D46FFF7F5FF002152
:1072A0008B460F461148124A121A00F079F80C4B1F
:1072B000002B00D098470B4B002B00D098470020A4
:1072C000002104000D000B4800F016F800F044F80F
:1072D0002000290017F006FF00F014F80000080055
:1072E000000000000000000000000220505F0020AD
:1072F000982201202D730200002301461A461846E9
:1073000000F0A0B808B5074B044613B1002100F007
:10731000EFF8054B1868836A03B19847204600F0E0
:107320004BF900BFF17402007C2F050038B5084B03
:10733000084D5B1B9C1007D0043B1D44013C55F8D5
:1073400004399847002CF9D1BDE838402BF010BE25
:10735000045E0020005E002070B50D4E0D4D761BC2
:10736000B61006D0002455F8043B01349847A642D5
:10737000F9D1094E094D761B2BF0F4FDB61006D05D
:10738000002455F8043B01349847A642F9D170BD5A
:10739000B45D0020B45D0020005E0020B45D0020DC
:1073A000830730B548D0541E002A3FD0CAB20346E6
:1073B00001E0013C3AD303F8012B9D07F9D1032CDE
:1073C0002DD9CDB245EA05250F2C45EA054536D91C
:1073D000A4F1100222F00F0C03F1200EE6444FEA54
:1073E000121C03F1100242E9045542E90255103221
:1073F0007245F8D10CF1010214F00C0F03EB0212EC
:1074000004F00F0C13D0ACF1040323F00303043396
:10741000134442F8045B9342FBD10CF003042CB1FB
:10742000CAB21C4403F8012B9C42FBD130BD644618
:107430001346002CF4D1F9E703461446BFE71A4679
:10744000A446E0E7F0B5264C256885B0064605B3AE
:107450006C681F2C41DCA6B1D5F8880048B3D0F881
:10746000007140F824204FF0010C0CFA04FC00EBF2
:1074700084024CEA0707022EC0F80071C2F880307F
:1074800010D0A31C01346C6045F82310002005B017
:10749000F0BD1448144D25600028D9D00068C5F807
:1074A0008800D5E7D0F8043143EA0C03C0F8043172
:1074B000E7E70E480191CDE9022370B14FF48470E3
:1074C0002AF072F948B10027C0E94077DDE90223CC
:1074D0006C680199C5F88800C3E74FF0FF30D6E724
:1074E000F85F0020000000006C5F0020A917050075
:1074F0002DE9F84FDFF8BCA0DAF800702DED028B13
:10750000E7B108EE100A89467D68D7F888806C1EBE
:1075100014D407EB8506043608EB8505B9F1000F96
:1075200010D0B8F1000F02D0EB6F4B450AD0013CF0
:10753000631CA5F10405A6F10406EFD1BDEC028B96
:10754000BDE8F88F7B683268013BA34216BF002379
:107550007C603360002AEAD0D7F804B0B8F1000F9D
:107560001AD0D8F80001012303FA04F1014213D024
:10757000D8F80401014218D155F8041C18EE100A7D
:1075800090477A685A450BD1DAF80030BB42CED02A
:107590001F46002FB8D1D1E790477A685A45F3D0FB
:1075A000DAF80070002FAFD1C8E755F8040C904707
:1075B000E7E700BFF85F0020FEE700BF4FF0805311
:1075C000D3F830210D2A55D14FF080410020C1F869
:1075D0000C01544AC1F81001C1F83805D3F804046D
:1075E000C2F82005D3F80804C2F82405D3F80C0427
:1075F000C2F82805D3F81004C2F82C05D3F81404F7
:10760000C2F83005D3F81804C2F83405D3F81C04C6
:10761000C2F84005D3F82004C2F84405D3F8240486
:10762000C2F84805D3F82804C2F84C05D3F82C0456
:10763000C2F85005D3F83004C2F85405D3F8340426
:10764000C2F86005D3F83804C2F86405D3F83C04E6
:10765000C2F86805D3F84004C2F86C05D3F8443486
:10766000C2F87035D1F80034DA0744BF6FF0010377
:10767000C1F800342C4AD2F8883043F47003C2F8C1
:107680008830BFF34F8FBFF36F8F4FF08053D3F825
:1076900030210D2A09D04FF01023D3F80C32DB072C
:1076A00015D4224B224A1A607047D3F83431022B8A
:1076B00008D94FF010224FF08043D2F80822C3F8C7
:1076C0005825E8E71B4AD35C002BE4D0F1E71A4ABF
:1076D0000123C2F80435D2F80034002BFBD04FF060
:1076E0001021154AD1F80C3223F00103C1F80C32F5
:1076F000D2F80034002BFBD000230F49C2F8043528
:10770000D1F80034002BFBD0BFF34F8F06490B4B51
:10771000CA6802F4E0621343CB60BFF34F8F00BF2F
:10772000FDE700BF00C0004000ED00E0E059002090
:107730000090D003802F050000E001400400FA050E
:1077400076DF704778DF70477ADF70477CDF7047FD
:107750008FDF704733DF704713F000BA10B503882E
:10776000212B82B0044658D00ED93B2B4DD0562B3E
:1077700008D13D4B5B88032B36D8A0881321FFF737
:10778000DFFF08BB02B010BD102B0ED0112BF9D1BA
:10779000354B5B88022B1CD83449354B00204FF603
:1077A000FF7208701A8002B010BD2F4B5B88022B4D
:1077B0004ED82E4A2E4BA1882E48198001241470D1
:1077C00005F014FC0028DDD002B0BDE8104013F035
:1077D000C5B9294B29482A49C01AC008000440F0FD
:1077E00003000DF033FCD7E72448234B2549C01A8A
:1077F000C008000440F004000DF028FCA08813210C
:10780000FFF79EFF0028BDD0DEE7174B5B88032BF8
:10781000B3D91A48184B1C49E9E7134B5B88032B73
:107820000BD80023A088ADF8043001A9FFF790FF22
:107830000028A7D013F092F9A4E70F4B0F48134983
:10784000C01AC008000440F004000DF0FFFBE8E798
:10785000094B0A480E49C01AC008000440F0030052
:107860000DF0F4FBA5E700BF505E0020B4600020DF
:10787000E8590020606500205083050098830500CA
:10788000942F0500D42F0500BC2F0500A82F05005C
:10789000842F05000B78052B04D0062B1CD0042B5D
:1078A00004D07047114B01221A7070478B79022B5C
:1078B000F7D1CB79002BF4D100B50D4A0D491288D0
:1078C0000D4883B0CDE900210122194604F01CF9CE
:1078D00030B903B05DF804FB044B00221A70704706
:1078E00003B05DF804EB13F039B900BFB5600020B8
:1078F000E859002074650020EC59002010B50446BA
:1079000086B009F0F9F9204609F0A4FA204608F0FB
:1079100087FD2378033B0A2B0AD8DFE803F006092A
:1079200009090909180940090B002C4BA2881A8083
:1079300006B010BD2A4B5B88022B25D80CF0C6FD83
:107940000028F5D00CF0C2FD0028F7D1F0E7237C29
:10795000DB07EDD5237A072BEAD1214B5B88022B7D
:1079600031D80820019001234FF6FF7201A9684425
:1079700008F002FB20BB019902A808F0C7FA002812
:10798000D6D013F0EBF8D3E7164B17481749C01AB7
:10799000C008000440F003000DF058FBCEE70CF0E7
:1079A00095FD0028FBD1BFF34F8F1149114BCA68D9
:1079B00002F4E0621343CB60BFF34F8F00BFFDE7DB
:1079C00013F0CCF8D7E7074B07480B49C01AC0089B
:1079D000000440F003000DF039FBC2E75C650020B5
:1079E000505E00205083050098830500EC2F0500B1
:1079F00000ED00E00400FA050030050013F0AEB819
:107A000013F0ACB813F0AAB810B5B8B008282FD846
:107A1000DFE800F0596A727A828A92053000082104
:107A20000AACCDE9031104AB18AA03A9204608F05B
:107A300077FA002840F09C800822059202234FF636
:107A4000FF7205A906A808F097FA002840F0968072
:107A5000059906A808F07CFA002840F08C80DDE942
:107A600003234C480093214618AB02F031FE38BB8B
:107A700038B010BD484A10884FF6FF739842F7D0CF
:107A800018A908F067FB0528F2D000287FD108204C
:107A90000AAC069006234FF6FF7206A9204608F0AE
:107AA0006BFA002870D10699204608F051FA002898
:107AB00067D138480DF1710102F0FAFD0028D7D0E6
:107AC00013F04CF8D4E7354B5B88022B45D80CF00B
:107AD000FDFC0028FBD1FFF73DFE0028C8D038B0E0
:107AE000BDE8104013F03AB82C4B5B88022BBFD98D
:107AF0002B482C4B2C4926E0284B5B88022BB7D90E
:107B00002748284B29491EE0244B5B88022BAFD91C
:107B10002348244B264916E0204B5B88022BA7D92B
:107B20001F48204B23490EE01C4B5B88022B9FD93A
:107B30001B481C4B204906E0184B5B88022B97D949
:107B40001748184B1D49C01AC008000440F0030034
:107B500038B0BDE810400DF079BA124B1048184902
:107B6000C01AC008000440F003000DF06FFAAEE741
:107B700012F0F4FF60E712F0F1FF70E712F0EEFF91
:107B800066E712F0EBFF94E712F0E8FF8BE712F0E4
:107B9000E5FF7CE7D86000205C650020505E002097
:107BA00098830500508305003430050054300500EB
:107BB0006C3005008030050094300500B8300500B9
:107BC000DC3005002DE9F043AFB00DF0DFFB0028FD
:107BD00040F0688113F074F8002840F06A810023B7
:107BE00002A90120029313F0C9F9002840F0938103
:107BF00002A813F01DFA002840F08A81C74A0A2122
:107C000008200DF029FC002840F07F811123C44892
:107C10008DF800302AF0F4FBC14982B26846FFF7C4
:107C200095FD002840F06E8140F2C130FFF78AFDDB
:107C3000002840F0648108220DEB02000021FFF7CC
:107C4000AFFBB84AB84B02A8CDE90223FFF77CFD91
:107C5000002840F05181B548002104F0BBFF002806
:107C600040F04781AC22002102A8FFF799FBB04900
:107C70000791B049CDF881102821002324914FF4B9
:107C80004861CDE92531CDE92233AB4C2793AB4B8D
:107C900002200122CDE92B438DF8080040F2016358
:107CA000A748ADF8182002A98DF88520ADF80A3054
:107CB00002F030FC002840F01981A148012102F0B7
:107CC00025FCA04BA048029302A905F07DF90028ED
:107CD00040F009819D4BCDF802304022012302245F
:107CE000002102A8ADF806308DF80040FFF758FBE0
:107CF00002A8974904F034FD02A8CDF840D08DF8D1
:107D0000444002F0C1FD002840F0EA80102200212A
:107D100002A8FFF745FB01218E4A8DF80C100023C5
:107D20008D48029302A9CDE9043202F035FD002806
:107D300040F0D380894CDFF84882894EDFF84492C6
:107D4000202200212046FFF72BFB0822002140467D
:107D5000FFF726FB082200213046FFF721FB032313
:107D6000238123827F4BC4F8023003F58073C8F867
:107D70000230FF330127C6F80230A3F5FF73C4F8C1
:107D80000A303B44C4F812303B440225C4F81A3090
:107D900008234822002123800DEB0300A571A57361
:107DA000A575A57727833580A8F80070FFF7F8FA46
:107DB0006D4B0A93D6236D49ADF82C3040F2022367
:107DC00000220E91ADF84C304FF00231ADF8483042
:107DD000674B8DF83E2011911092039340F20112EF
:107DE00004236448CDF8089002A905948DF8187012
:107DF000CDF81C808DF8207009968DF834508DF8E0
:107E00003C508DF84E508DF84A50ADF810208DF84A
:107E1000123003F0E3FA00285CD11C22002102A8F2
:107E2000FFF7BEFA00234FF4A0304FF4F021524A7E
:107E30000491CDE90230032102A8CDE907328DF883
:107E40001410ADF816308DF8183004F081FA0028BF
:107E50003DD107F065FFB8BB0522002102A8FFF75E
:107E60009FFABDF80A309DF80C2023F47F7323F0AD
:107E7000030322F0030243F4447342F0030240F28E
:107E8000317102A8ADF80810ADF80A308DF80C2059
:107E900008F024F8A8B9394808F004F860B92FB000
:107EA000BDE8F08312F05AFE12F00AFF00283FF4FA
:107EB00096AE12F053FE92E612F050FE2FB0BDE8DF
:107EC000F08312F04BFEE6E712F048FEC4E712F032
:107ED00045FEBEE712F042FE9FE712F03FFE29E7A3
:107EE00012F03CFE12E712F039FEF3E612F036FE15
:107EF000E3E612F033FEB5E612F030FEABE612F028
:107F00002DFE98E612F02AFE8EE612F027FE7DE6A0
:107F100012F024FE72E612F021FE69E6FC5F0020FA
:107F2000F03005000600180006002B002065002038
:107F3000E459002001010001097A0200597702008A
:107F4000D8600020017A0200606500209128247129
:107F500010310500640202020C650020B8600020A8
:107F6000AC600020010102027C5B002001010003E3
:107F7000057A0200EC590020FD790200FD7802002C
:107F80006C6500209578020000B587B048B1224B9F
:107F90005B88022B1FD808F007F9B8B907B05DF865
:107FA00004FB0820019001234FF6FF7201A96844E9
:107FB00007F0E2FFF0B9019902A807F0A7FF08BB9C
:107FC0001648032102F028FB0028E7D007B05DF82F
:107FD00004EB12F0C3BD124B12481349C01AC0087B
:107FE000000440F003000DF031F808F0DDF800283F
:107FF000D4D0EBE712F0B2FD019902A807F086FF9A
:108000000028DDD012F0AAFD0448032102F004FB91
:108010000028C3D0DAE700BF505E0020D8600020FF
:1080200050830500988305001C31050008B50DF04C
:10803000A5FA0CF04BFA00B108BDBDE808400DF000
:10804000BBB900BF014B1878704700BFB460002077
:1080500000B50E4B19780E4B02461B880D4883B0B5
:1080600051B900931346082203F038FCB0FA80F0AF
:10807000400903B05DF804FB082103F095FCB0FA59
:1080800080F0400903B05DF804FB00BFB56000203C
:10809000E8590020EC59002000B51D4B1A7887B034
:1080A0000B461ABB40F6FF718842A8BF0846194A22
:1080B0008DF814009942A8BF194689B2138800931D
:1080C000C0F3032E4EEA011E4FEA211C05AB03222A
:1080D000022111488DF815E08DF816C003F0FEFB63
:1080E000B0FA80F0400907B05DF804FB094A128835
:1080F0000021CDE90112009142B25BB2064803F0C3
:108100009BFCB0FA80F0400907B05DF804FB00BFAB
:10811000B5600020E8590020EC59002000B5164B4E
:108120001B7887B08446ABB99646144A8DF8140084
:10813000128800928DF8151005AB0322012110481A
:108140008DF816E003F0CAFBB0FA80F0400907B0E2
:108150005DF804FB094A0A4812880023CDE9013280
:1081600000931A46614603F067FCB0FA80F04009BC
:1081700007B05DF804FB00BFB5600020E85900209F
:10818000EC59002008B500F07BFB012806D0012047
:1081900000F09CFB012801D0032800D9012008BD74
:1081A00008B500F077FB042828BF012008BD00BFF8
:1081B000012803D0022801D00120704708B500F043
:1081C00091FB012801D0032800D9012008BD00BF80
:1081D00030B5012883B00C46154605D0022803D0DF
:1081E0000124204603B030BD01A900F089FB01281D
:1081F000F6D0019800F03AFB21462A4601F08EFEA7
:1082000001280446ECD0019800F034FB032CE7D899
:10821000E7E700BF30B5012883B00C46154604D00F
:10822000022802D0012003B030BD01A900F068FB94
:108230000128F7D0019800F015FB2A46214601F0ED
:10824000DBFE0128EED00328ECD8ECE730B501289E
:1082500083B00D4605D0022803D00124204603B088
:1082600030BD01A900F04CFB01280446F5D001986F
:1082700000F0FCFA01F068FD032C2880EDD8EDE752
:1082800030B5012883B00D4605D0022803D0012463
:10829000204603B030BD01A900F032FB012804469E
:1082A000F5D0019800F0DEFA01F04CFD032C288097
:1082B000EDD8EDE700F032BB704700BF002303604C
:1082C00018467047704700BF00207047012901D849
:1082D00012F0F0B8032903D1024B00221A70704744
:1082E000704700BF7E650020023810B50C2816D8F4
:1082F000DFE800F02230151515153E074E15155A0A
:108300001600544B5B88022B00F299800CF0DEF8CB
:1083100004460028FAD10EF01DF84F4B1C7010BD1A
:108320004C4B5B88022B69D80CF0D0F80028FBD1AD
:10833000BDE810400DF0C8BF464B5B88022B52D8F9
:108340000CF0C4F80028FBD10EF03CF8434B01229E
:108350001A7010BD3F4B5B88022B39D80CF0B6F871
:108360000028FBD13C4A3D4B01211170187010BD13
:10837000384B5B88022B20D80CF0A8F80028FBD1E2
:1083800015F01CFE0028CAD1BDE810400DF09ABFC0
:10839000304B5B88022B47D80CF098F80028FBD1B3
:1083A000BDE810400DF092BF2A4B5B88022B30D8FD
:1083B0000CF08CF80028FBD110BD294B29482A4924
:1083C000C01AC008000440F003000CF03FFED3E7E1
:1083D000234B24482549C01AC008000440F003007C
:1083E0000CF034FEBAE71E4B1E482149C01AC008E3
:1083F000000440F003000CF029FEA1E7184B1948D7
:108400001C49C01AC008000440F003000CF01EFE16
:108410008AE7134B13481849C01AC008000440F0FB
:1084200003000CF013FEC3E70D4B0E481349C01AAE
:10843000C008000440F003000CF008FEACE7084B55
:1084400008480F49C01AC008000440F003000CF0AF
:10845000FDFD5BE7505E0020806500208165002007
:1084600050830500988305007C31050064310500C8
:108470005431050070310500483105009031050088
:108480009C310500012916D0032908B50FD001B190
:1084900008BD10F093FF0E4B5B88022B0DD80CF03B
:1084A00015F80028FBD10B4B01221A7008BD0A4BAE
:1084B00000221A7008BD10F081BF084B0848094916
:1084C000C01AC008000440F003000CF0BFFDE6E74E
:1084D000505E00207C6500207D65002050830500F3
:1084E00098830500B031050008B50FF0DDF921488B
:1084F0000DF02CFE60BB204B204818600DF0DAFF19
:1085000018BB1F480DF0D6FFE0B901F085FA0DF059
:10851000C1FEA0B94FF08043D3F83834DB070DD546
:10852000184B5B88022B16D80BF0D0FF0028FBD12C
:108530000DF0C8FEBDE808400DF0C8BE08BD12F041
:108540000DFBE7E712F00AFBDFE712F007FBD8E7C5
:1085500012F004FBCFE70C4B0C480D49C01AC008C1
:10856000000440F003000CF071FD0BF0AFFF002899
:10857000DAD1DDE71433050078650020DC32050030
:1085800060320500505E002050830500988305008E
:10859000E0310500014B1878704700BF806500206E
:1085A000014B1878704700BF8165002038B5144C26
:1085B0000EF0D2FC01F0E8FA01F06EFA226842F205
:1085C0000F75AA4210DC014690B2C0F51C5310335F
:1085D0009BB299420FD20D460A48104401F072FA3C
:1085E00023682B44236038BD4FF6FF752946064BA0
:1085F00001201870F0E7291A89B20D46F7E700BF8D
:10860000846500202C6600207F650020014B1878CF
:10861000704700BF7C650020014B1878704700BF91
:108620007D650020014B01221A7070477D65002096
:1086300003460A460148194611F050BEDC320500D7
:10864000034B0146012203481A7011F0BFBB00BF63
:108650007E650020DC320500034B01460122034801
:108660001A7011F08BBC00BF7E650020DC32050063
:108670000146014811F05ABDDC3205000349044BA4
:10868000086801221A7011F015BF00BF786500203C
:108690007E650020044B1B7813B9044B18687047A3
:1086A00042F20F70704700BF7F6500208465002094
:1086B000004870472C6600200249034A00230B60E3
:1086C00013707047846500207F6500202DE9F84312
:1086D000204FDFF88480DFF8849006460D460DB900
:1086E000BDE8F88301F012FA60B1A84228BF28461D
:1086F000044681B2304601F021FA18B92D1B2644F8
:10870000EDD1EDE70EF028FC01F03EFA01F0C4F9DE
:108710003A6842F20F74A24201460FDC90B2C0F5F3
:108720001C5310339BB299420FD20C4608EB020047
:1087300001F0C8F93B6823443B60D0E74FF6FF7473
:108740002146012389F80030F0E7211A89B20C464E
:10875000F7E700BF846500202C6600207F650020BD
:1087600000F008B808B500F03BF8BDE8084000F09C
:108770003DB800BFF0B54FF4FE25184C2B6865607E
:10878000012B85B002D16E68102E0CD00120102173
:1087900000220023C4E90201C4E9042300200123CC
:1087A000237005B0F0BD95E80F00EC468CE80F0093
:1087B0000027324661464FF0FF30029701F014FD6A
:1087C000AB688342E2D163680FCB04F1080585E80A
:1087D0000F0001230020237005B0F0BD408D002064
:1087E000014B01225A617047408D002070B5154C35
:1087F00004F1080584B060681022294629F038F891
:10880000E8B1606816F072F895E80F00EC468CE865
:108810000F000026614610224FF0FF30029601F053
:10882000E3FC042229462061606816F077F860684E
:108830001022294629F01CF8801B18BF012004B023
:1088400070BD00BF408D002010B50446082001F027
:1088500059FC2060002010BD0B6803604B6843602A
:1088600000207047D0E900035B681847D0E9000397
:108870009B69184743685B6A0BB1006818477047EB
:10888000034B0021022219809A7000F085BE00BFC0
:10889000588D002030B50C4D2B7883B01BB10124CE
:1088A000204603B030BDAB788DF8043001A800F04D
:1088B00097FE01280446F3D001232B70FFF7FCFC40
:1088C000204603B030BD00BF588D002004490A780F
:1088D00012B988701046704701221046704700BFD9
:1088E000588D002010B5044600F0BCFE00B10CB954
:1088F000012010BD2046BDE8104000F0C3BE00BFFF
:1089000038B504460D4600F0ADFE08B9012038BD6B
:1089100029462046BDE8384000F0C0BE10B50D4CD9
:108920002378012B0AD0032B04D100F0A3FE68B9F1
:10893000FFF7C2FCBDE8104000F0BABE00F092FEA6
:108940000028F5D04FF481732380F1E700232380C2
:10895000EEE700BF588D002070B582B001AC0DF17C
:1089600007052046013412F097FF68BBA542F8D1F5
:10897000164B9DF8042016499DF80500154E164D1E
:1089800003EBC2040C6003EBC201144C0431216000
:10899000134903EBC0040C6003EBC001114C04311C
:1089A0002160012101FA00F001FA02F202439DF870
:1089B000064032600C4A0D48A140116003EBC4022E
:1089C000134604322B60026002B070BD10F5014006
:1089D000648D00205C8D00206C8D0020708D002047
:1089E000688D0020748D0020608D0020788D00201F
:1089F00020B1034B800143F001031847704700BFCB
:108A00002033050012F0FCBD12F00ABE27F084B935
:108A100025F018B827F02ABF70B58AB0064600F0D6
:108A2000E7FE0546304600F0E9FE0446284625F0FC
:108A300093F90346002B204615DD01F085F9202827
:108A400028BF202083B202A901AA2846019325F05D
:108A50003DF9034602A920462BB1019A2AB901F03B
:108A60005DFA0128E2D10AB070BD304600F0E2FEA6
:108A7000BDF8042002A9204601F050FA0128D5D102
:108A80000AB070BD70B588B0044600F0B1FE06466D
:108A9000204600F0BBFE05461BE001F053F90346FB
:108AA000202B1C4628BF2024A4B269462846224613
:108AB000B3B101F071FA0346012B224669463046F4
:108AC0000ED025F0A9F8034621B2284653B101F093
:108AD0003DF9304625F034F90346022B2846DCDD0B
:108AE00008B070BD25F006FA00F0FD000828F7D1A7
:108AF000044A9368002BF3D050680121984708B0CE
:108B000070BD00BF7C8D002030B5174D2C7883B030
:108B100014B1002003B030BDC5E90144A5F80140FF
:108B2000EC60FFF719FF022024F0CAFFC0B10F4B21
:108B300093E8030000908DF804106846052125F0A5
:108B400045F968B14FF4167025F06EF940B1022076
:108B500025F0A0F920B1012320462B7003B030BDD1
:108B6000012003B030BD00BF7C8D002030330500F4
:108B700038B50D4C6378ABB9D0E902524168E26078
:108B8000C4E901150078012802D002280AD118464C
:108B900025F0FEF830B125F023F818B101236370F9
:108BA000002038BD012038BD7C8D0020034B9A7811
:108BB00002B1704701229A7025F022B87C8D002006
:108BC000014B5878704700BF7C8D002070B51C4D5C
:108BD00084B0EE686B4683E80600044626B1014681
:108BE00003AA6868B04720B19DF8003083B904B08B
:108BF00070BD039800F030FE0028F5D00398FFF711
:108C000041FF039800F02CFE9DF80030002BEED0C1
:108C1000EB6823B1686803AA2146984720B1204633
:108C200025F0A6F804B070BD039800F00DFE0028F2
:108C3000DDD00398FFF7F0FE039800F009FED6E7B9
:108C40007C8D002030B50D4D85B0EC686B4683E817
:108C5000060024B1014603AA6868A04708B105B020
:108C600030BD039800F0F8FD0028F8D00398FFF716
:108C700009FF039800F0F4FD05B030BD7C8D0020A5
:108C800030B5174DEB6885B0044623B1014603AA01
:108C900068689847C0B1204625F06AF8EB6823B1B0
:108CA000686803AA2146984708B105B030BD03980B
:108CB00000F0D2FD0028F8D00398FFF7E3FE0398F8
:108CC00000F0CEFD05B030BD039800F0BDFD0028DA
:108CD000E4D00398FFF7A0FE039800F0B9FDDDE7AC
:108CE0007C8D0020054B10B50024A3F801402046E0
:108CF000013425F03DF8082CF9D110BD7C8D002001
:108D0000704700BF10B5044600F09EFD40B12046FC
:108D1000FFF782FE204600F07DFD204600F098FD22
:108D2000204600F067FDBDE8104001F00BB800BF21
:108D300010B5044600F088FD40B12046FFF76CFEF8
:108D4000204600F067FD204600F082FD2046BDE889
:108D5000104000F04FBD00BFF8B504460D46164662
:108D600000F072FD40B12046FFF756FE204600F0AD
:108D700051FD204600F06CFD204600F03BFD2946E9
:108D80003246074601F008F90128054610D038465A
:108D900031B200F0DBFF204600F056FD40B1204626
:108DA000FFF73AFE204600F035FD204600F050FD6A
:108DB0002846F8BD38B504460D4600F045FD40B1E3
:108DC0002046FFF729FE204600F024FD204600F053
:108DD0003FFD204600F00EFD2946002201F03EF83E
:108DE000012805460CD0204600F02EFD40B120465B
:108DF000FFF712FE204600F00DFD204600F028FD92
:108E0000284638BD10B5044600F01EFD40B120468E
:108E1000FFF702FE204600F0FDFC204600F018FDA2
:108E20002046BDE8104000F009BD00BF38B504463B
:108E300000F00AFD40B12046FFF7EEFD204600F0AD
:108E4000E9FC204600F004FD204600F0D3FC054676
:108E500000F078FF01B2284600F078FF204600F0CD
:108E6000F3FC50B12046FFF7D7FD204600F0D2FCBE
:108E70002046BDE8384000F0EBBC38BD10B50446D4
:108E800000F0EAFC40B12046FFF7FCFD204600F070
:108E9000CDFC204600F0E4FC204600F0B3FCBDE829
:108EA000104000F051BF00BF10B5044600F0D4FCE4
:108EB00040B12046FFF7E6FD204600F0B7FC204613
:108EC00000F0CEFC2046BDE8104000F09BBC00BF87
:108ED00070B514460AB9204670BD05460E4600F02E
:108EE000BBFC40B12846FFF7CDFD284600F09EFCB4
:108EF000284600F0B5FC284600F084FC22463146A6
:108F000001F00CF80446284600F0A6FC0028E2D048
:108F10002846FFF7B7FD284600F088FC284600F0F9
:108F20009FFC284600F098FC0028D4D02846FFF784
:108F3000A9FD284600F094FC204670BD38B50546D2
:108F400008460C4600F0FEFE10B90446204638BD27
:108F5000284600F081FC40B12846FFF793FD2846E3
:108F600000F064FC284600F07BFC284600F04AFC38
:108F700000220146204600F071FF0446284600F01A
:108F80006BFC0028E2D02846FFF77CFD284600F065
:108F90004DFC284600F064FC284600F05DFC0028EB
:108FA000D4D02846FFF76EFD284600F059FC204635
:108FB00038BD00BF30B583B0044600F04DFC68B149
:108FC000204600F015FC054624F0BAFE022808DD14
:108FD000204600F045FC002003B030BD022003B065
:108FE00030BD00220DF10701284624F015FEEFE701
:108FF00010B5044600F030FCA0B12046FFF742FD5A
:10900000204600F013FC204600F02AFC204600F029
:1090100023FC38B12046FFF735FD2046BDE810405F
:1090200000F01EBC10BD00BF02207047024B0022A2
:109030005A701A72704700BF8C8D0020014B58780F
:10904000704700BF8C8D0020024B587880F00100E3
:10905000704700BF8C8D002070B5094E337A0C46E6
:109060001BB900232360012070BD0546706800F025
:10907000BFFB8542F5D1F3682360002070BD00BFBF
:109080008C8D002070B50A4E054670680C4600F0C5
:10909000AFFB854205D1337A3BB173682360002072
:1090A00070BD00232360012070BD2360012070BDCE
:1090B0008C8D002038B504464068FFF73FFF01283B
:1090C000054603D0D4E90401FFF7FCF8284638BD73
:1090D00038B504464068FFF7FBFE0128054603D07B
:1090E000D4E90401FFF7EEF8284638BD4068FFF7E1
:1090F000DBBE00BF4068FFF7C1BE00BF4068FFF79E
:1091000095BE00BF4068FFF755BE00BF4068FFF73F
:1091100023BE00BF4068FFF70BBE00BF4068FFF7EB
:10912000F1BD00BF08B5064B1A780AB9012008BD89
:10913000D3E9040101225A70FFF7C4F8002008BDEA
:109140008C8D002038B50B4D6B788BB12B7A044693
:1091500068683BB9214600F047FB012801D0012394
:109160002B7238BD00F044FB201A18BF012038BD17
:10917000012038BD8C8D0020037A03B9704710B5EB
:10918000837804466BB3012B07D1406800F030FBB5
:1091900024F0D6FDC8B10023A3706068FFF728FF54
:1091A00063780BB1636903B910BD2069FFF78CF8D0
:1091B0000028F9D06068FFF7FDFE0128F4D0D4E95B
:1091C0000401BDE81040FFF77DB86068FFF7F2FECC
:1091D0000128E2D00028DED00228DED1FFF76CF8AB
:1091E000DBE74068FFF70EFE0028D6D00123A3700E
:1091F000FFF762F8D1E700BF10B51F4C237A03B91F
:1092000010BDA37873B3012B07D1606800F0F0FAAA
:1092100024F096FDD0B10023A3706068FFF7E8FE4C
:109220006378002BECD06369002BE9D02069FFF74D
:109230004BF80028E4D06068FFF7BCFE0128DFD0BF
:10924000D4E90401BDE81040FFF73CB86068FFF7BF
:10925000B1FE0128E1D00028DDD00228DDD1FFF7E2
:109260002BF8DAE76068FFF7CDFD0028D5D00123A1
:10927000A370FFF721F8D0E78C8D002070B51F4C4C
:10928000257884B015B1012004B070BD0646657024
:10929000FFF73AFC0128F6D03368019301A9201D9D
:1092A00000F06CFA0128EED004F10C002572FFF7F3
:1092B000CBFA0128E7D0124BE06802A9CDE90243BE
:1092C000FFF7CAFA0128DED02846A57024F0F4FD85
:1092D0000F2024F0CDFD284624F0F0FD1E2024F0C0
:1092E000B5FD04F11000FEF7E9FF0128CBD072684C
:1092F00062610123237004B070BD00BF8C8D00201B
:10930000383305000048704760330500012070477E
:10931000044B1A781AB101225A70002070470120BC
:10932000704700BFA48D0020094A51680023537084
:109330000B7091680B70D1680B7011690B705169DB
:109340000B7091690B70D1690B70126A13707047C2
:10935000A48D0020014B5878704700BFA48D0020D9
:10936000024B587880F00100704700BFA48D0020A8
:10937000037803B970474068FFF73ABE4068FFF7CB
:10938000DDBD00BF4068FFF7A3BD00BF4068FFF729
:109390008BBD00BF4068FFF771BD00BF4068FFF79D
:1093A00045BD00BF4068FFF705BD00BF4068FFF73F
:1093B000D3BC00BF4068FFF7BBBC00BF4068FFF7ED
:1093C000A1BC00BF70B50C4B03EB800304465E6884
:1093D00070680D4600F00CFA844205D133783BB139
:1093E00073682B60002070BD00232B60012070BDCE
:1093F0002B60012070BD00BFA48D002010B51A4C59
:1094000063681A7812B15868FFF7F2FDA3681A78FA
:1094100012B15868FFF7ECFDE3681A7812B158688A
:10942000FFF7E6FD23691A7812B15868FFF7E0FDEF
:1094300063691A7812B15868FFF7DAFDA3691A78E0
:1094400012B15868FFF7D4FDE3691A7812B1586871
:10945000FFF7CEFD236A1A7802B910BDBDE81040AF
:109460005868FFF7C5BD00BFA48D002070B50A4B3A
:1094700003EB80030D465E6833781BB900232B6035
:10948000012070BD0446706800F0B2F98442F5D145
:10949000B3682B60002070BDA48D002038B50D4B43
:1094A0005A78AAB103EB800304465D682B7868689C
:1094B0003BB9214600F098F9012801D001232B7017
:1094C00038BD00F095F9201AB0FA80F0400938BD97
:1094D000012038BDA48D00202DE9F047DFF8808001
:1094E00098F8007084B01FB1002004B0BDE8F08788
:1094F000064688F80170FFF707FB0128F5D0DFF872
:1095000064A008F1040508F124090FE0FFF79CF9B5
:10951000012802A91AD0A068CDE9024AFFF79CF9F8
:10952000012813D045F8044B4D4513D00C2000F012
:10953000E9FD044600F8047B01A93368019300F0BB
:109540001DF90346012B04F10800DFD1012004B00E
:10955000BDE8F087012388F8003004B0BDE8F0874B
:10956000A48D00208433050000487047AC3305000B
:10957000034608465B6811465B681847012900D01E
:1095800070470378002BFBD0037A002BF8D140F210
:1095900001130381704700BF10B582B0FFF7B4FA22
:1095A000012817D04FF0012468460094FFF794FF7C
:1095B00001280FD04FF47A736846CDE90043FFF7D6
:1095C0005DFE012807D0054B00221A705A601A72FE
:1095D00002B010BD012002B010BD00BFC88D002038
:1095E00030B51D4C237885B01BB10125284605B048
:1095F00030BD0278012A22D1FFF7B6FF6060036810
:109600009847164A164B039301466846CDE9014236
:109610008DF80010FFF7ACFA012815D063689B683D
:109620009847012805460FD001232370FEF744FE1A
:10963000002DDBD000236360284605B030BD022A30
:1096400006D1FFF75FFED9E7002301256360F3E74A
:1096500063601B68FFDE00BFC88D00207D9502009F
:1096600071950200024B1878003818BF012070472E
:10967000C88D0020024B1878B0FA80F0400970477E
:10968000C88D0020044B1A78012A02D15B689B69BF
:1096900018470120704700BFC88D0020034B5B684E
:1096A0000BB1DB6918470120704700BFC88D00204F
:1096B00070B52F4C2378012B84B007D0022B03D137
:1096C000FFF77EFA054668B104B070BD237AABB9E6
:1096D0006368002BF8D01B6A002BF5D004B0BDE8FE
:1096E0007040184720722070FEF7E6FD667A6368C6
:1096F0006EB9DB689847666004B070BDFFF756FA34
:109700000223237004B0BDE87040FEF7D5BD65723A
:109710001B6898472378002BD6D1012820D1FFF76A
:1097200023FF606003689847124A134B0393014676
:109730006846CDE901428DF80010FFF719FA0128BB
:109740000BD063689B6898470128054605D0012324
:109750002370FEF7B1FD002DB6D000236360B3E7A0
:10976000022802D1FFF7CEFDDBE763601B68FFDE56
:10977000C88D00207D95020071950200F0B5044669
:1097800085B018200E4600F0BDFC4FF0FF3320607E
:10979000054640F8043B00273288ADF80C20012331
:1097A00001A98DF80430029700F0BAFC01280446A4
:1097B00017D073880297022201A905F108008DF8DD
:1097C0000420ADF80C3000F0ABFC0128044608D0B2
:1097D00005F11000AF8100F015FA05F1140000F05A
:1097E00011FA204605B0F0BD01600020704700BFAF
:1097F00000687047406800F0B7BC00BF406800F0E8
:10980000B5BC00BF806800F0AFBC00BF806800F04E
:10981000ADBC00BF10B50446406800F0B3FC237B2C
:1098200013B14FF48073A38110BD00BF806800F0B6
:10983000A9BC00BF01230373704700BF0346002289
:10984000407B5A73704700BF006900F0DDB900BF6C
:10985000006900F0DBB900BF406900F0D5B900BF76
:10986000406900F0D3B900BFF0B5044683B0006989
:1098700000F0CAF988B1A06800F084FC206900F00B
:10988000C5F9206900F0C0F938B1637F3BB12069A8
:1098900003B0BDE8F04000F0B9B903B0F0BDA06876
:1098A00000F064FC074600F04FFA0028EFD0606833
:1098B0000FF06CF885B255B91AE06068AD1B0FF077
:1098C00069F8ADB231B2384600F05AFA85B138467F
:1098D00000F0E8FB0190384600F002FCA842064682
:1098E00028BF2E46B6B2019932460028E5D1CEE710
:1098F000384600F029FA0028C9D0384600F0D2FBDB
:109900000546384600F0ECFB02460028BFD06368ED
:10991000012161771B680026C3F8846060682946CE
:109920000FF038F8922818BF6677B0E770B5044694
:10993000406900F069F980B1E06800F023FC6069DB
:1099400000F064F9606900F05FF930B1257F2DB156
:109950006069BDE8704000F059B970BDE06800F082
:1099600005FC064600F0EEF90028F1D02946304605
:1099700000F084FB2946034630461E4600F096FB65
:109980000123024620832377606831460EF0D4FF1E
:109990000028DDD025832577DAE700BF38B5032915
:1099A0000ED8DFE801F024150E021A4C0025A0683D
:1099B000E57600F0DDFBE06800F0DAFB2583A583A7
:1099C00038BD14480123C376BDE83840FFF74CBFCB
:1099D000104C0023E068237700F0C8FBB4F918109E
:1099E00000F0B4F92046BDE83840FFF79FBF094CAE
:1099F0000023A068637700F0B9FB054660680EF0AD
:109A0000C1FF01B2284600F0BBF92046BDE838404E
:109A1000FFF72ABFD48D0020F0B51D4CA57E85B080
:109A200075B11C480023C4E900002383A4F81B304F
:109A300063770CF03FFD003818BF012005B0F0BD82
:109A40000127802601A904F108008DF80470029511
:109A5000ADF80C6000F064FBB84216D0022301A9F7
:109A600004F10C000295ADF80C608DF8043000F0A4
:109A700057FB012809D004F1100000F0C3F804F1ED
:109A8000140000F0BFF8A776CBE7012005B0F0BDC9
:109A9000D48D0020D033050010B5094C206900F0AA
:109AA000B3F828B1A06800F06DFB206900F0AEF8B3
:109AB000A06800F059FBBDE8104000F043B900BFBA
:109AC000D48D002070B5104C064620690D4600F07C
:109AD0009BF828B1A06800F055FB206900F096F8CB
:109AE000A06800F041FB31462A46064600F054FAD1
:109AF0000128044603D029B2304600F027F9024875
:109B0000FFF7B2FE204670BDD48D002010B50A4C80
:109B1000E07E00B910BD606900F076F828B1E06819
:109B200000F030FB606900F071F8E06800F01CFBA9
:109B3000BDE8104000F008B9D48D002070B5114E7A
:109B4000F37EDBB10C4609B9204670BD054670694D
:109B500000F05AF828B1F06800F014FB706900F0CA
:109B600055F8F06800F000FB2246294600F0D6F9CF
:109B700004460448FFF7DAFE204670BD0124204663
:109B800070BD00BFD48D002070B51D4CE37E03B9BD
:109B900070BD606900F038F80028F9D0E06800F086
:109BA000F1FA606900F032F8606900F02DF80028E1
:109BB000EED0257F25B16069BDE8704000F026B881
:109BC000E06800F0D3FA064600F0BCF80028F2D0B6
:109BD0002946304600F052FA2946034630461E46D2
:109BE00000F064FA0123024620833146606823773F
:109BF0000EF0A2FE0028DED025832577DBE700BF2C
:109C0000D48D002000F004B800F00EB800F016B8B3
:109C100010B50446042000F075FA002320600360AC
:109C2000BFF35F8F10BD00BF08B5012108F0C4FA73
:109C3000BFF35F8FB0FA80F0400908BDBFF35F8FBC
:109C400000230360704700BFF8B5012A83890446EA
:109C500015460E4611D00AB300899F1887421FDCB3
:109C60006068184427F036FE2BB2002B08DC2289EE
:109C7000A38913442B449BB206E042680978D1546F
:109C8000A38922892B449BB2934228BF9B1AA381AC
:109C9000228AE3892B44551BE38125820020F8BDED
:109CA000C01A87B260683A46184427F013FE60680D
:109CB000EA1BF11927F00EFED6E700BF70B5064685
:109CC00014200D4600F01EFA30602E68AD88044660
:109CD000A6B10022438A466005814281C2600382A8
:109CE0000DB1013DADB29D4205D0002365F30F03D8
:109CF00065F31F4323610020207070BD2DB9438A96
:109D0000C560C0E901550382EDE7284600F0FAF985
:109D1000638A606025816681E6602382E1E700BF97
:109D20000023428AC0F80A30C3810282704700BF14
:109D30000A89496801608280704700BF4089704786
:109D400080897047C0897047008A704700290FD00A
:109D50000FDD4389028989B20B449BB29A4298BFB6
:109D60009B1A4381028AC3895B1A1144C381018211
:109D700070470289438989B213440B449BB2EDE7D3
:109D800000290FD00FDD8389028989B20B449BB271
:109D90009A4298BF9B1A8381C289038A0A44591A3E
:109DA000C281018270470289838989B213440B44BE
:109DB0009BB2EDE742898A4224D010B4B0F808C0C3
:109DC00016D88C1AA3B224B2002C03DC02EB0C01CF
:109DD000194489B28C4598BFA1EB0C01C28941811D
:109DE000018A5DF8044BD21A0B44C281038270478A
:109DF000614489B28B1A1CB29BB2002CE4D15DF88D
:109E0000044B7047704700BF83898B4224D010B445
:109E1000B0F808C016D8CC1AA2B224B2002C03DCC9
:109E200003EB0C01114489B28C4598BFA1EB0C01E6
:109E3000038A8181C1895DF8044B11449A1AC1815A
:109E400002827047614489B2CA1A14B292B2002CDD
:109E5000E4D15DF8044B7047704700BF2DE9F8432B
:109E6000C389B1F810C063451E4628BF66469E42AE
:109E700040D81546002E38D0B0F8088008F1FF33DE
:109E80009BB29E42044630D866452ED8B0F80A9060
:109E900009EB060343450F4638DDA8EB090292B2F1
:109EA0009445416806D349443846FFF7CDFE6168C2
:109EB000B7F810C0A6EB08024A4492B2624502D835
:109EC0003846FFF7C1FE33B2002B0ED018DD638990
:109ED000228933449BB2934228BF9B1A6381E28953
:109EE000238A921B3344E281238235B12E800020E5
:109EF000BDE8F8830120BDE8F8832846BDE8F88373
:109F000022896389134433449BB2E4E708466168BD
:109F100032464944FFF798FED5E700BFF8B5038AFB
:109F200093422AD3012A8389054614460E4611D04E
:109F30000AB300899F18874221DC6868184427F01B
:109F4000C9FC23B2002B08DC2A89AB8913442344C3
:109F50009BB206E042680978D154AB892A89234430
:109F60009BB2934228BF9B1AAB812A8AEB89234478
:109F7000141BEB812C820020F8BD0120F8BDC01A13
:109F800087B268683A46184427F0A4FC6868E21B68
:109F9000F11927F09FFCD4E7F8B5C38993421FD38A
:109FA000012A4789054614460E4614D0D2B10389CA
:109FB000B918994218DD4168DA1B3944304627F058
:109FC00089FC2B896968E21ADB1B3A44F01827F0F8
:109FD00081FC0020F8BD4368DB5D0B700020F8BDFC
:109FE0000120F8BD1046F8BD41683046394427F0DD
:109FF00071FC0020F8BD00BFF8B5C38993422BD394
:10A00000012A4789054614460E4612D012B3038929
:10A01000B918994222DC69683046394427F05AFC65
:10A0200023B2002B08DC2A896B89134423449BB29A
:10A0300006E04368DB5D0B706B892A8923449BB281
:10A04000934228BF9B1A6B812A8AEB891B1B1444FD
:10A05000EB812C820020F8BD0120F8BD4168DA1B9D
:10A060003944304627F036FC28896968221AC01B1B
:10A070003A44304427F02EFCD2E700BF0AB2002A4F
:10A0800043890CD0B0F808C0D6BF03EB0C025B18B4
:10A090008B189BB29C459CBFA3EB0C039BB2406802
:10A0A0001844704783894068184470470AB2002AF0
:10A0B00043890CD0B0F808C0D6BF03EB0C025B1884
:10A0C0008B189BB29C459CBFA3EB0C039BB282896F
:10A0D0009A4236BF0089D31AC31A98B2704700BF9C
:10A0E00043898289934208D800891BB90138801AB4
:10A0F00080B27047801A80B27047581E801A80B2B2
:10A10000704700BF054983070A681CBF031D23F081
:10A110000300104408601046704700BF645C0020D4
:10A1200070B5064684B00C200C46FFF7EBFF2146C5
:10A13000306011F8043B054600F8043BFFF7BEFD14
:10A1400001280ED06C4669682046FFF7F1FD94E8BF
:10A15000030002AB83E80300194605F10800FFF78E
:10A16000ADFD04B070BD00BF4068704780687047A7
:10A1700010B504464068FFF7D3FDA068BDE8104065
:10A18000FFF7CEBD30B50378012B83B0044603D072
:10A19000022B15D003B030BD4068FFF7CFFD01465C
:10A1A000A0680191FFF7CCFD01990546A068FFF773
:10A1B00001FE6068294603B0BDE83040FFF724BEC9
:10A1C0004068FFF7BDFD0146A0680191FFF7B6FDAD
:10A1D00001990546A068FFF717FE6068294603B09D
:10A1E000BDE83040FFF7E6BD82B110B4084C0A4428
:10A1F00011F8013B4340DBB2914254F8233083EA2B
:10A200001020F5D1C0435DF8044B7047C043704740
:10A21000F433050072DF704773DF704770B5044692
:10A2200000F2264681700D46072200213046FDF7D8
:10A23000B7F8E38813B1A378012B75D0E379002B2D
:10A240006FD194F82734002B7BD194F82834002B5D
:10A2500077D194F82934002B73D194F82A34002B49
:10A260006FD194F82B34002B6BD194F82C341A1E38
:10A2700018BF01226B1E032B00F24581DFE803F0BB
:10A280000206090CA379002B40F09E80E379002B95
:10A2900059D1237A002B6CD1657A002D57D1A57046
:10A2A000002384F82F3404F13C05182200212846AD
:10A2B000FDF776F8E26A0123511E994284F83C309A
:10A2C0001DD9042A1BD094F8242084F85130EAB117
:10A2D000A36A5A1E012A31D9042B2FD0012384F8F6
:10A2E0005230A378002284F85020042B00F2FA8028
:10A2F000DFE813F041004B00AF00E500DC00D3B213
:10A3000094F8242084F85130002AE1D1A37884F80D
:10A310005020042B00F2E680DFE803F02D378BA0FD
:10A320005F00A378022B8CD1636B002B00F0E380DD
:10A33000012284F82D240820984782E784F85230BF
:10A34000CFE7012296E7002AA3D00225A7E704223F
:10A35000636BA270002BA3D06279002AA0D094F87E
:10A360002E24002A9CD10122A4F82F2407209847EC
:10A3700099E70322ECE7002384F83130636B13B1D3
:10A3800094F831009847002070BD00230122C4E9F1
:10A39000106384F83120C4F820340222802384F82A
:10A3A0003C20A4F8483000212A4604F15400FFF76D
:10A3B00031FF0028E8D194F8301094F85400FFF7EA
:10A3C0002BFF0028DAD070BD94F82430002B7FF4E6
:10A3D0005DAF002A3FF45DAF61E7D4E90712616425
:10A3E000A4F848206279002A7FD094F82E24002A0D
:10A3F0007BD194F83024002A77D00223B4F81414C7
:10A40000D4F8100484F85030012201F04DFE08B158
:10A410000423037004F582662A46314604F1540091
:10A42000FFF7F8FE002869D10622A37884F83120CE
:10A4300053E0022384F8313003222369A4F8483022
:10A44000E36884F83C200022C4E91063C4F82024A7
:10A45000A9E7022384F831300722EEE7D4E9051298
:10A460006164A4F84820627992B394F82E247ABBF0
:10A4700094F8302462B30223B4F81414D4F810040E
:10A4800084F85030012201F00FFE08B1042303705C
:10A4900004F582662A46314604F15400FFF7BAFEFD
:10A4A00060BB0522A37884F8312016E0D4E90712B6
:10A4B000A4F848200622616484F83C2092E7D4E99D
:10A4C0000512A4F848200622616484F83C20CAE7FB
:10A4D000032284F8312004F58266C4F82064002B3E
:10A4E0003FF44CAFD4F820145EE7042284F8312006
:10A4F00004F58266F1E784F82D34A2E6A378002BF8
:10A500003FF43CAFEEE70023A370C9E680F83010BB
:10A51000704700BF00297AD02DE9F0410446002899
:10A5200077D091F87A300D462BB191F8983013B16D
:10A530000720BDE8F0810027A77005F1780EBEE87E
:10A540000F0004F1040CACE80F00BEE80F00ACE80B
:10A550000F009EE807008CE8070084F83070D5F8FB
:10A56000A4306363D5F8A830A3634FF6FF7804F5F1
:10A57000826639460722C4F82064A4F8248404F2D1
:10A580002640FCF70DFF23780BB984F8548094F82B
:10A590002430002B14BFEE231F2304F15501C4F80F
:10A5A0001014A4F8143404F21442284601F084FB79
:10A5B0000028BED194F82430002B14BFEE231F23B3
:10A5C00004F23121C4F81814A4F81C3404F21C421B
:10A5D00005F13C0001F070FB0028AAD1D4E9052365
:10A5E0000125A4F848304FF48073C4E910020146F5
:10A5F00084F83C5004F13C0204F15400A4F85030BB
:10A60000FFF708FE002894D12570BDE8F0810E20E8
:10A6100070470E208DE700BF03780BB1FFF7FEBD3A
:10A620000820704710B50388112B0C460BD0262B41
:10A6300022D0102B00D010BDC37B012BFBD183880F
:10A64000A1F8243410BD002381F82E348288B1F89B
:10A6500024349A42EFD10B79002BECD10B7813B351
:10A6600001212046FFF7DAFD0028E4D0A36B002B80
:10A67000E1D0BDE810401847037A013B012BDAD83E
:10A680000B7883B18978094B0131A3FB012303F4D3
:10A69000FE7202EB9303C91AC9B22046FFF7BEFD52
:10A6A0000028E3D110BD0820E0E700BFCDCCCCCC22
:10A6B00090F82D3453B110B5002480F82D440722B2
:10A6C00000F2264027F006F9204610BD082070470A
:10A6D00090F82F3463B1009B13434FF0000314BF75
:10A6E00001221A4680F82F3480F83024184670472B
:10A6F000082070471AB3002370B50446154613604E
:10A70000B8B10368ABB1C38813F003060FD1084694
:10A7100001F090FFC0B214280FD0237983420AD9E8
:10A72000E288236800FB02302860304670BD0720B5
:10A7300070BD0E2070BD042070BD052070BD0E20C0
:10A74000704700BFA8DF704741B130B5044683B001
:10A7500010B10388502B02D003B030BD70474B7C42
:10A760000D46002BF8D0C2884B899A42F4D1038A57
:10A77000022BF1D10B68002BEED0123001F0E6FF76
:10A78000A2882B68ADF8062080F001008DF8040047
:10A7900001A928469847DFE7F0B591B000284DD0D1
:10A7A0000D4600294AD00B68036004460A7962749A
:10A7B000FF2301202374221D41F60F0302A98DF807
:10A7C0000A00ADF80830FFF7BDFF064610B130466D
:10A7D00011B0F0BD20222B7B8DF8033001460DEB2C
:10A7E0000200FCF7DDFD637C9DF82D20A0881B0195
:10A7F00043F0020322F0120203F0120313438DF818
:10A800002D306B7BAA7B8DF8313042F619214FF049
:10A810000113ADF820108DF83320099308A90DF12C
:10A820000303A21D0A9301F0A5FF06460028CED11E
:10A83000A96839B9E081304611B0F0BD0E26304626
:10A8400011B0F0BD01AF384601F084FF314614224B
:10A85000064603A8FCF7A4FDEB7B8DF81230B3B2DB
:10A86000ADF81630ADF81A30E088079742F60813B5
:10A8700004F10E0203A9ADF80C3002F0B7F8064659
:10A88000A5E700BFA8DF70472DE9F04101238CB098
:10A8900041F60A057A4AADF8045001A90446184663
:10A8A0008DF80630FFF7EEFF0546002840F0B78030
:10A8B0002688002E40F0B7802689002E40F0EA80DE
:10A8C000268A002E40F01081268B002E40F0368123
:10A8D000268C002E40F05D81268D002E40F0808178
:10A8E000236B002B39D01A688DF808201A6894F869
:10A8F0003C60120A8DF809205A888DF80A20DA780F
:10A900008DF80B205A688DF80C209B688DF80D305F
:10A910001A0A8DF80E201B0C2022002104A88DF8A5
:10A920000F30FCF73DFD42F62323ADF810304FF019
:10A930000813059302AB524A06939DF81D30108808
:10A94000504A8DF8216043F0020304A98DF81D30B0
:10A9500001F010FF002840F08D80636B4BB31F683F
:10A960001E7994F83C80002F00F06581002E00F0E5
:10A9700066812022002104A8FCF712FD404B424AC8
:10A9800018889DF81D30069743F002038DF81D309E
:10A99000002366F30F0366F31F43059304A942F6F1
:10A9A0002A238DF82180ADF8103001F0E3FE002855
:10A9B00060D1A36B9BB31A788DF808205A888DF864
:10A9C0000920120A8DF80A209A888DF80B20120AA5
:10A9D0008DF80C20DB8894F83C408DF80D30190A76
:10A9E00020228DF80E1004A80021FCF7D9FC9DF858
:10A9F0001D3023498DF821400888244A43F0020382
:10AA000042F65021ADF810108DF81D3004A902ABAC
:10AA10004FF00714CDE9054301F0ACFE054628468A
:10AA20000CB0BDE8F081676894F83C80002F00F01E
:10AA3000FF802022002104A8FCF7B2FC104B144A2E
:10AA400018889DF81D30069743F002038DF81D30DD
:10AA5000002366F30F0366F31F43059304A942F630
:10AA600029238DF82180ADF8103001F083FE0028F5
:10AA70003FF422AF054628460CB0BDE8F08100BF88
:10AA8000B8AE0020C4AE0020A8AE0020A0AE0020CA
:10AA900090AE0020E76894F83C80002F00F0D3804F
:10AAA0002022002104A8FCF77BFC714B714A188816
:10AAB0009DF81D30069743F002038DF81D300023EA
:10AAC00066F30F0366F31F43059304A942F624239C
:10AAD0008DF82180ADF8103001F04CFE0028C9D16E
:10AAE000268A002E3FF4F0AE676994F83C80002F70
:10AAF00000F0AD802022002104A8FCF751FC5C4B43
:10AB00005D4A18889DF81D30069743F002038DF8C2
:10AB10001D30002366F30F0366F31F43059304A95A
:10AB200042F625238DF82180ADF8103001F022FE89
:10AB300000289FD1268B002E3FF4CAAEE76994F817
:10AB40003C80002F00F087802022002104A8FCF721
:10AB500027FC474B494A18889DF81D30069743F05B
:10AB600002038DF81D30002366F30F0366F31F43C5
:10AB7000059304A942F627238DF82180ADF8103003
:10AB800001F0F8FD00287FF475AF268C002E3FF40D
:10AB9000A3AE676A94F83C80002F60D02022002189
:10ABA00004A8FCF7FDFB324B354A18889DF81D3090
:10ABB000069743F002038DF81D30002366F30F0360
:10ABC00066F31F43059304A942F626238DF82180DE
:10ABD000ADF8103001F0CEFD00283FF47DAE49E71E
:10ABE000E76A94F83C80002F3DD02022002104A881
:10ABF000FCF7D6FB1E4B234A18889DF81D3006979C
:10AC000043F002038DF81D30002366F30F0366F353
:10AC10001F43059304A942F628238DF82180ADF83F
:10AC2000103001F0A7FD00283FF45AAE054622E798
:10AC30000FF094FFFDE638460FF090FF96E63046A1
:10AC40000FF08CFF95E638460FF088FF28E738466E
:10AC50000FF084FF4EE738460FF080FF74E7384668
:10AC60000FF07CFF9AE738460FF078FFBDE700BF92
:10AC7000B8AE002098AE0020B0AE002088AE002014
:10AC800080AE0020BCAE0020A8DF7047A9DF70476F
:10AC9000ACDF7047AEDF7047B0DF704764DF7047EE
:10ACA0002DE9F0478AB0044615460F46D0F87801E2
:10ACB0009188BDF848806A469A46FFF71BFD10B19F
:10ACC000636803B19847009E7EB3B5F80E900021EB
:10ACD000102201A8FCF764FB0AEB09031E44A8EB51
:10ACE0000903ADF80E309DF80A30A888049643F0A9
:10ACF00001038DF80A3001238DF8043001A90023E7
:10AD0000ADF80C90ADF80830FFF7C6FF10B16368DE
:10AD100003B19847236843B13868069007228DF83D
:10AD20001420099505A9204698470AB0BDE8F08788
:10AD30002DE9F04186B005460C4617468988D0F8C3
:10AD40007801BDF830806A461E46FFF7D3FC10B18B
:10AD50006B6803B19847009820B1228AE3891344B5
:10AD6000434502DD06B0BDE8F081304404F112062F
:10AD7000314626F0AFFD2B68002BF3D0D4F80E201F
:10AD800038680392042202900496059401A928468B
:10AD90008DF80420984706B0BDE8F0812DE9F04118
:10ADA0008EB00D46149F044616460021202206A8A8
:10ADB0009846FCF7F5FA2B788DF825303B88ADF8EE
:10ADC0002930BB788DF82B3001238DF824308DF895
:10ADD00027302089159AADF81C6042F64D2306A94C
:10ADE000ADF8183001F0C6FCE0B90146142201A804
:10ADF000FCF7D6FA3B88ADF80A3042F60812414615
:10AE00006846ADF8042001F0A5FC159ACDF814D0E1
:10AE100083B201A932F8080BADF80E30ADF812304C
:10AE200001F0E4FD0EB0BDE8F08100BF30B54FF099
:10AE3000130CA3F800C0D0F87C414CB3847C3CB325
:10AE40000025AE460DE0D0F87C4134F83E40A444E5
:10AE50001FFA8CFCA3F800C0847C5FFA85FE744561
:10AE600016D90EEB8E0400EB44040135A48A8C4203
:10AE7000E9D1012342F64D211180937082F803E05D
:10AE8000D0F87C21184632F83E30039A138030BD4A
:10AE9000D0F880416CB390F8784054B34FF0000E76
:10AEA00074460EE0D0F8805135F83450AC441FFAA7
:10AEB0008CFCA3F800C090F878505FFA8EF4A5429D
:10AEC00017D904EB840500EB45050EF1010EB5F82A
:10AED0007A508D42E6D142F64D21022311809370C3
:10AEE000D470D0F88031039A33F8343013800120C5
:10AEF00030BDD0F884416CB390F8DE4054B34FF0CD
:10AF0000000E74460EE0D0F8845135F83450AC444D
:10AF10001FFA8CFCA3F800C090F8DE505FFA8EF4A4
:10AF2000A54217D904EB840500EB45050EF1010E8F
:10AF3000B5F8E0508D42E6D142F64D210323118051
:10AF40009370D470D0F88431039A33F8343013807E
:10AF5000012030BD002030BD30B587B005460C461D
:10AF6000D0F87801898801AAFFF7C4FB10B16B689B
:10AF700003B19847019BF3B11022002102A8FCF70E
:10AF80000FFA0023ADF80C30E389ADF810309DF8CE
:10AF90000E30A088019C05940122134302A98DF86C
:10AFA0000820ADF812208DF80E30FFF775FE10B1B5
:10AFB0006B6803B1984707B030BD00BFF0B5038898
:10AFC000502B8BB005460C4607D0512B00F0E1808A
:10AFD000102B00F085800BB0F0BDC188B4F86E0175
:10AFE000022300228842ADF80C30ADF80E2000F0AC
:10AFF00003816089884200F05E81B4F85201884282
:10B0000000F01D81B4F84E01884200F07981B4F857
:10B0100056318B4200F0A481B4F862318B4200F0CB
:10B020001B81B4F85E318B4200F0BF81A37C002B02
:10B0300041D0228B8A4200F08381012B3BD0628C6D
:10B040008A4200F0BB81022B35D0A28D8A4200F0EB
:10B05000B781032B2FD0E28E8A4200F0B381042BFC
:10B0600029D0B4F840208A4200F0AE81052B22D0CE
:10B07000B4F84A208A4200F0A981062B1BD0B4F80C
:10B0800054208A4200F0A681072B14D0B4F85E2029
:10B090008A4200F09D81082B0DD0B4F868208A42C6
:10B0A00000F09A81092B06D0B4F872308B4208BFA9
:10B0B000092100F046810DF10E03009304AA03ABB1
:10B0C0002046FFF7B3FE002885D0BDF80E20009281
:10B0D000BDF80C3004AA29462046FFF729FE7AE77E
:10B0E0008188D4F87801002304AA0493FFF702FBB7
:10B0F00010B1636803B19847049800283FF46BAF20
:10B10000D4F87C61002E00F0A580A77C132237B113
:10B11000002336F833100133BB420A44F9D1D4F886
:10B1200080614EB194F8787037B1002336F833104F
:10B130000133BB420A44F9D1D4F884614EB194F88A
:10B14000DE7037B1002336F833100133BB420A44B6
:10B15000F9D10021FCF724F96389002B3FF43BAFC0
:10B16000049B01261E700822002105A8FCF718F98F
:10B17000049BA888618905AACDE90563FFF788FDCE
:10B1800000283FF428AF6368002B3FF424AF9847B2
:10B1900021E7877902230026012FADF80E30ADF8A4
:10B1A00010607FF418AF018962898A4200F0A380A1
:10B1B000B4F84E218A4200F0B380B4F856318B4285
:10B1C00000F0E180B4F85E318B4261D004AB0093B3
:10B1D00005AA0DF10E032046FFF728FE00283FF4D4
:10B1E000FAAEBDF810200092BDF80E302A4605A92F
:10B1F0002046FFF755FDEEE6A988D4F8780104AAA9
:10B20000FFF778FA10B1636803B19847049B002BED
:10B210003FF4E1AE2A8A012A7FF4DDAEAA7C12B1A6
:10B22000012A7FF4D8AE8DF814205A702368002BC1
:10B230003FF4D1AE099505A920469847CBE62B8A65
:10B24000ADF8122042F62221022BADF810107FF447
:10B25000C2AE0BE0132262E72B8AADF8122042F651
:10B260003321022BADF810107FF4B5AE2368002B0C
:10B270003FF4B1AE05F1120001F068FA0028049A1B
:10B280002368069214BF022103218DF81410D1E720
:10B29000082142F633220B23ADF814200091024618
:10B2A000ADF81010204605A9ADF81660ADF80E30C7
:10B2B000FFF7F6FC8FE6A988D4F8780104AAFFF717
:10B2C00019FA10B1636803B19847049B002B3FF44F
:10B2D00082AE2A8A012A7FF47EAEAA7C002A69D037
:10B2E000012A7FF478AE06218DF814101A702368B5
:10B2F000002B9FD16FE601462046FFF72DFE6AE640
:10B300002046082442F62226ADF812202946009451
:10B3100004AAADF81060ADF80E40FFF709FD5AE63B
:10B3200042F62221ADF81410082102460091ADF832
:10B330001010204605A9ADF81660FFF7B1FC4AE6EB
:10B3400000212B8A8DF8131042F64D22ADF8102003
:10B35000022B4FF001028DF812207FF43CAE85E7FE
:10B360000A23012642F63221ADF81010ADF8122062
:10B3700000962946204604AAADF80C30ADF80E60C0
:10B38000FFF7D6FC27E642F632230246ADF814302A
:10B3900000970A23204605A9ADF81660ADF80E30D7
:10B3A000ADF81070FFF77CFC15E60B23082642F67B
:10B3B0003321D9E705218DF8141097E70121C0E763
:10B3C0000221BEE70321BCE70421BAE70521B8E763
:10B3D0000721B6E70621B4E70821B2E72DE9F04FCF
:10B3E00097B070B30C4661B38B7A0A2B24D80B7CD0
:10B3F0000A2B21D80B7E0A2B1ED80B6803604B68E2
:10B4000043608B7A83740B7C80F8783005460B7E22
:10B4100085F8DE30012041F6120305F1080204A987
:10B420008DF81200ADF81030FFF72EFC064668B11B
:10B43000304617B0BDE8F08F0726304617B0BDE89C
:10B44000F08F0E26304617B0BDE8F08F94F83630F6
:10B450000DF13808ABB107460DF13808034603E09B
:10B4600094F836209A420CD9A26B288932F813102E
:10B470004246FFF70BFC0137FBB20028F0D006462E
:10B48000D6E7238953B3012720220021404694F8B0
:10B490003CA094F83D908DF82470FBF781FF9DF857
:10B4A000453028898DF849A023F0060343F00603B0
:10B4B0008DF8453042F64E23ADF838304FF0011389
:10B4C0000F9305F10A0209AB41468DF84A908DF8B9
:10B4D0004770109301F04EF90028D0D1A37A002BC9
:10B4E0003CD0D4F80CB0BBF1000F37D04FF0000ABD
:10B4F000574604E0A37ABB4230D9D4F80CB00BEB2A
:10B50000C709012200214046FBF74AFF99F80520B0
:10B510009DF83830003A18BF0122D20023F01A03F8
:10B5200042F012021A438DF838203BF8372007EB1F
:10B53000870705EB4707143709F104030AF1010AED
:10B5400001970093414609F1020328465FFA8AF702
:10B55000FFF724FC0028CDD0064669E7237CA3BB77
:10B56000237E002B66D0D4F81CA0BAF1000F61D066
:10B57000002704E0237EBB425CD9D4F81CA0012242
:10B58000002140461644FBF70BFF9DF8383007EBCF
:10B59000870123F00A030AEBC70943F00A0305EB0E
:10B5A00041018DF83830E03109F104033AF83720D1
:10B5B00001910093414609F102032846F7B2FFF7D3
:10B5C000EDFB0028D6D0064632E7D4F814B0BBF124
:10B5D000000FC5D04FF000094F4604E0237CBB426A
:10B5E000BED9D4F814B00122002140469144FBF7A3
:10B5F000D7FE9DF8383023F00E0343F00E038DF88C
:10B6000038303BF837200BEBC70A07EB870705EB11
:10B6100047077A370AF104030197009341460AF17C
:10B62000020328465FFA89F7FFF7B8FB0028D5D058
:10B630000646FDE6202200214046FBF7B1FEA38C22
:10B64000226A1092002163F30F0163F31F41BDF8DA
:10B6500044300F9123F43F7323F0030343F400734A
:10B6600043F00103ADF8443042F64B23ADF83830D7
:10B67000288994F82C308DF8493005F5A27241469E
:10B6800001F078F8064600287FF4D2AE94F8263010
:10B69000002B37D0A06A00283FF4CEAEB14605AFEC
:10B6A00042F6071A1FE03146FBF77AFE9DF80F308D
:10B6B000ADF82E30ADF83230B5F8440194F82C30A6
:10B6C000ADF824A005F5A67209A90D978DF82A30CA
:10B6D00001F08CF9064600287FF4AAAE94F82630D3
:10B6E00099450FDAA06A3A4600EB89000DF10F0187
:10B6F000FFF7D4FA064609F10109142209A8002E21
:10B70000D1D095E6237A002B40F09180637A8BB3F9
:10B71000202200214046FBF743FE94F840209DF88C
:10B7200045108DF84A2042F63323ADF8383008230F
:10B73000ADF83C30131E18BF0123DB0094F8412004
:10B740008DF84B2021F01A0143F012030B43012224
:10B750008DF847208DF84530288994F83F308DF8D2
:10B76000493005F5AF72414601F004F8064600285D
:10B770007FF45EAE238E94F832208DF824301B0ABD
:10B780008DF825308DF8262094F833308DF8273049
:10B79000202200214046FBF703FE9DF8453094F837
:10B7A00034208DF8492043F0020342F64A21ADF8D7
:10B7B00038108DF8453028894FF0041309AF05F58E
:10B7C000B37241460F93109700F0D4FF064600284D
:10B7D0007FF42EAE01468DF824002022404694F8D6
:10B7E0003E60FBF7DDFD4FF001130F939DF84530F0
:10B7F00028898DF84A6043F004038DF845304146AE
:10B8000042F64C2305F5B7721097ADF8383000F0CA
:10B81000B1FF064600287FF40BAEE368C5F87C3123
:10B820006369C5F88031E369C5F8843100E62022F8
:10B8300000214046FBF7B4FD94F843208DF84A20E0
:10B8400042F62223ADF838300823ADF83C30131E01
:10B8500094F844208DF84B2018BF01239DF8452013
:10B860002889DB0022F01A0243F0120313438DF8FB
:10B870004530012794F842308DF8477005F5A772DE
:10B8800041468DF8493000F075FF064600287FF4E8
:10B89000CFAD014620224046FBF782FD42F632231F
:10B8A000ADF838309DF845302889ADF83C7023F06C
:10B8B0000E0343F00E038DF8453005F5AB72B4F876
:10B8C0004530ADF8493041468DF8477000F052FFE1
:10B8D000064600283FF41AAFAAE500BF2DE9F04163
:10B8E00086B0BDF8307070B3984663B3837C8B42EA
:10B8F0000C46054623D94FF6FF739F4227D01646C4
:10B90000ADF80220D0F8780101AA3946FEF7F2FE20
:10B9100090B90199D5F87C21133101913CB132F8ED
:10B92000303001301944C3B29C420191F7D832F84B
:10B930003430B3420FD20C2006B0BDE8F0810720AE
:10B9400006B0BDE8F0810E2006B0BDE8F081082009
:10B9500006B0BDE8F08104EB840408463246414657
:10B9600005EB440425F0B6FF1022002102A8FBF7E6
:10B9700017FDA28AADF8082001238DF80A300022B5
:10B980000DF1020302A93846CDF81480ADF80C2061
:10B990000493FFF77FF90028CED1049B1B88B342A4
:10B9A00018BF0C20C8E700BF002841D0F0B51646EC
:10B9B00087B0002A3ED01D464FF6FF739D422FD020
:10B9C0000F460446ADF80210D0F8780101AA2946C6
:10B9D000FEF790FE10BB0198082F00F102000190C5
:10B9E00021D90021102202A8FBF7DAFCB4F84E316D
:10B9F000ADF8083001238DF80A300023ADF80C3083
:10BA000002A90DF102032846CDE90436FFF742F9F9
:10BA100020B9049B1B88BB4218BF0C2007B0F0BDA7
:10BA2000082007B0F0BD3A46314625F053FFD8E76D
:10BA30000E2070470E20F1E72DE9F04788B0BDF8E1
:10BA400040A0BDF84880002851D01D464FF6FF7336
:10BA5000984548D00AF103091FFA89F3082BADF87D
:10BA6000023003D90C2008B0BDE8F0870F46164617
:10BA7000044601AAD0F878014146FEF73BFE0028B3
:10BA8000F1D101988DF808700B308DF809608DF8B0
:10BA90000A500190BAF1000F2DD102ADBDF802207D
:10BAA000294625F017FF102200210DEB0200FBF7BD
:10BAB00077FCB4F85E31ADF8103001238DF8123008
:10BAC0000023ADF8143004A90DF102034046CDE97E
:10BAD0000635FFF7DFF80028C5D1069B1B884B45CC
:10BAE00018BF0C20BFE7082008B0BDE8F0870E2083
:10BAF00008B0BDE8F087119952460DF10B0025F012
:10BB0000E9FE0198C9E700BF2DE9F04782B0BDF812
:10BB100028400B9D002848D0002D46D0994690F82B
:10BB200078308B420E46074639D9D0F878019246D4
:10BB3000214601AAFEF7DEFD804660BB019CBA7C6F
:10BB40001334019462B1D7F87C11844631F83C304B
:10BB50000CF1010C1C445FFA8CF39A420194F5D865
:10BB6000D7F880215EB14FF0000C32F83C300CF178
:10BB7000010C1C445FFA8CF39E420194F5D832F814
:10BB800036300AEB09029A4215DC524604EB0901F1
:10BB9000284625F09FFE404602B0BDE8F0874FF0F2
:10BBA0000708404602B0BDE8F0874FF00E08404657
:10BBB00002B0BDE8F0874FF00908404602B0BDE88A
:10BBC000F08700BF6DDF704779DF70477DDF70471A
:10BBD00064DF70472DE9F04F85B099460E9E0388CB
:10BBE000BDF83CA00091174632880192002B53D03B
:10BBF0004FF00008C3464546804605E0B8F80020EF
:10BC00000BF1010B5A4529DDD8F8041051F82B002F
:10BC1000039000220DF10B0103A8FFF7D9FF0446A2
:10BC200030BB9DF80B20BA42E8D12DB33288D11930
:10BC3000514536DC4A440DF10B0103A80125FFF7FD
:10BC4000C7FF002832D131889DF80B200A4432808A
:10BC5000B8F800200BF1010B5A45D5DCE5B133886B
:10BC6000019A013B9B1A9BB2FF2B1AD809F80230AC
:10BC7000204605B0BDE8F08F3288511C3A440232AC
:10BC8000524589B20DDC009B318009F801303288C1
:10BC9000013292B23280CDE70024204605B0BDE8E3
:10BCA000F08F0C24204605B0BDE8F08F04462046F6
:10BCB00005B0BDE8F08F00BF2DE9F04700231788DD
:10BCC000138090F82D3086B0144606460D46002BA2
:10BCD00040F0FE80B278002A40F0F380F178A1B104
:10BCE000DA1CBA4200F2F0800222EA5423880122D0
:10BCF00013449BB22380EA54238813449BB22380CD
:10BD0000E954238813449BB223807268AAB1D91CDA
:10BD1000B94200F2D980022192F90020E954238827
:10BD200001339BB20A212380E954238801339BB25B
:10BD30002380EA542388013323803389002B40F089
:10BD4000F180338A002B40F02581338B002B40F0AB
:10BD50003B81336A002B42D02088821DBA4200F218
:10BD6000B3801A88052A40F28A816FF4486802EB92
:10BD7000080189B24FF27D3C614540F280815988CB
:10BD8000052940F27C816FF4486E8E441FFA8EFEC6
:10BD9000E64540F274814FF6FF7C624502D08A424C
:10BDA00000F26D8105222A542288013292B21221BA
:10BDB0002280A9542288013292B222801988A95483
:10BDC0002A44090A51702288023292B222805B888A
:10BDD000AB542A441B0A5370238802332380736AAE
:10BDE000002B2FD09988B4F800C0881C0CF10202F7
:10BDF0000244BA4268D8FE2866D8033105F80C1010
:10BE00002288013292B2FF212280A9542288013275
:10BE100092B222801988A9542A44090A51702088B4
:10BE2000023080B220809A8862B199680393002919
:10BE300000F02581284425F04DFD039B9A88238836
:10BE40001344238096F82C30002B40F0D6803078B5
:10BE500000283AD03388012B00F0118123889A1CE6
:10BE6000BA4231D8012804D17178023119448F4285
:10BE70002AD3023FFF1ABFB2A81804A9ADF8107068
:10BE8000FFF7A4FE08BB3378022B00F00081717825
:10BE9000BDF810209142C0F0F6809742C0F0F380C8
:10BEA00017460922FE2F0FD82388791CE9542388CE
:10BEB00001339BB22380EA54238801331F44278037
:10BEC00003E00433BB4248D90C2006B0BDE8F0873C
:10BED000082FF9D904A8FFF775FE0028F5D12388AB
:10BEE0000822EA54238801339BB21B222380EA54A0
:10BEF0002088013080B22080062228440DF11101F3
:10BF000025F0E8FC23889DF8102006339BB212F040
:10BF1000FE0218BF01222380EA54238801339BB21A
:10BF20002380D7E606F108080222CDE900472B4618
:10BF300011464046FFF74EFE0028C6D1CDE9004726
:10BF400040462B4610220621FFF744FE0028BCD1B4
:10BF5000338A002B3FF4F9AE1CE004A8FFF734FE4F
:10BF60000028B2D123880322EA54238801339BB2EC
:10BF700019222380EA542388BDF8102001339BB294
:10BF80002380EA542B44120A5A70238802339BB24E
:10BF90002380A3E606F11008CDE900472B460222D4
:10BFA00003214046FFF716FE00288ED1CDE9004759
:10BFB00040462B4610220721FFF70CFE002884D1B3
:10BFC000338B002B3FF4C5AE06F11808CDE90047CE
:10BFD0002B46022214214046FFF7FCFD00287FF487
:10BFE00074AFCDE9004740462B4610221521FFF7DC
:10BFF000F1FD00283FF4ADAE67E7B16A00293ED0FD
:10C000004FF000094B464FF0160A2BE02388E85406
:10C01000238801339BB2238005F803A023880133D2
:10C020009BB2238031F82220EA542B44120A5A7022
:10C030002088023080B22080B8F8042028444AB119
:10C04000D8F80810D9B125F045FCB8F804202388A9
:10C050001344238096F82C205FFA89F39A427FF6E6
:10C06000F6AEB16A03EB430201EB820809F1010964
:10C07000B8F80430D81C0233FE2BC7D924E70720B8
:10C0800006B0BDE8F087012B08D008220AE7BDF80A
:10C0900010309F42F9D31F46092203E78F42F4D3A1
:10C0A0000F460822FEE600BF00B301294FF000034F
:10C0B0000FDD00EB030C9CF801C0944509D010F88B
:10C0C00003C00CF1010C63449BB203F1010C614508
:10C0D000EFDC8B4209D2C25C3AB1013A92B222B192
:10C0E00002339BB21A44914201DA0020704718448F
:10C0F000704700BF75DF704776DF70477ADF7047A3
:10C100007BDF704770B51D4D2B8884B2A34282B08F
:10C1100011D11B4E297A327B91420ED3337C0022FF
:10C120002A72F3B9736933B100228DF80420ADF897
:10C13000064001A8984702B070BD05F10A011846F3
:10C14000FFF7D8FF40B11128F5D0B369002BF2D02A
:10C1500002B0BDE8704018472B7A01332B7202B051
:10C1600070BD3B212046FFF7C7FF30F00803D9D050
:10C17000B369002BD6D09847D4E700BFE8AE0020C3
:10C18000CCAE002070B50288122A82B003466DD072
:10C1900015D8102A30D0112A0FD16A4C82882388F2
:10C1A0009A420AD1606809F09FFC18B1664B9B69FE
:10C1B00003B198474FF6FF73238002B070BD502A39
:10C1C000FBD1614DC188EA899142F6D1028A022AE7
:10C1D000F3D15C4C828826889642EED1123000F072
:10C1E000B5FA002800F09880637A002B40F09B801D
:10C1F000D5E90113324667E090F80FC0BCF1010F9A
:10C20000DBD1504C21884FF6FF7291427DD14F4DCA
:10C21000828822800021217203CDC4F80A00C4F86C
:10C220000E10598A6089884260D8A08988425DD3FF
:10C23000E1899B8A40F2F315A94294BF481A481B32
:10C24000984253D82944994250D33F4D84F809C0AD
:10C25000EB89002BB1D16B69002BAED001218DF899
:10C260000410ADF8062001A89847A6E7354C82884F
:10C2700021889142A1D14089658985421FD8A5892D
:10C2800085421CD3E0899B8940F2F31C604594BF32
:10C29000051AA0EB0C059D4211D8604498420ED3BC
:10C2A000294B5B694FF480722281002B85D00122DB
:10C2B0008DF80420ADF8061001A898477DE7224DBF
:10C2C000002363726968AB68207A002818BF19469A
:10C2D000606809F0ADFB00283FF46FAFAB69002B3D
:10C2E0003FF46BAF02B0BDE870401847164DEB89C4
:10C2F00000216172002B7FF460AF6968606809F00B
:10C3000097FB00283FF459AFE8E70F4B9B69002BE0
:10C310003FF453AF0420E5E7606809F0E5FB00282F
:10C320003FF44BAFDAE76B6900222272002B3FF437
:10C3300044AF01228DF80420ADF8066001A89847AB
:10C340003BE700BFE8AE0020CCAE0020FCAE0020F2
:10C3500070B3F8B586460768164E174D0446BEE81A
:10C360000F00B446ACE80F009EE8070035608CE88B
:10C370000700BFB13846FFF7C1FE90B923681868BF
:10C38000596803C50D4B0E490E4A18464FF6FF7407
:10C3900040F8041F1C80002109F032FB002818BF60
:10C3A0000320F8BD2846FFF7ABFE0028EAD0F8BD11
:10C3B0000E207047CCAE0020FCAE0020E8AE00207E
:10C3C00008AF002005C102002DE9F04F0388B0F846
:10C3D0000490103B99B007460A2B12D8DFE803F00F
:10C3E0002871111111111111117814004648494694
:10C3F00006F030F84548494606F02CF8FB7B022B46
:10C400007CD019B0BDE8F08F037A41483F2B4FEA4A
:10C410001314494665D906F01DF83E48494606F012
:10C4200019F83D48494619B0BDE8F04F06F012B87A
:10C430003A4A9368DB4300935168684605F0DEFE94
:10C44000009B0193019B9BB34FF00008444621469B
:10C4500001A806F025F830B118AB03EB480308F14A
:10C46000010823F8284C0134142CF0D1CDF8348085
:10C470000DAD0FCD02AC0FC40FCD0FC495E8070072
:10C4800084E80700B8F1000F12D0254E0DF10A0B19
:10C490004FF0000A3BF8025F1C4C2046294604344A
:10C4A00005F0F2FFA642F8D10AF1010AC245F1D126
:10C4B000B9F1130F9AD904200EF050FB19B0BDE862
:10C4C000F08F1148494619B0BDE8F04F05F0DCBFC8
:10C4D000037A002B95D1437A0D481B074946F2D5C4
:10C4E000A1E705F0D1FF032C97D00A48494605F093
:10C4F000CBFF022C95D008484946E4E70948494655
:10C5000005F0A8FF7DE700BF30AF00202CAF002072
:10C5100040AF00203CAF002038AF002028AF002003
:10C52000A4AF002034AF00201328014601D9002019
:10C530007047014805F0B4BF2CAF0020132801D983
:10C540000020704710B504462146074805F0A8FFB3
:10C5500008B9002010BD2146044805F0A1FF0028BD
:10C5600014BF0220012010BD2CAF002034AF0020EA
:10C57000132801D90020704710B50446214607480A
:10C5800005F08EFF08B9002010BD2146044805F0D3
:10C5900087FF002814BF0220012010BD2CAF00200F
:10C5A00030AF0020132801D90020704710B5044691
:10C5B0002146064805F074FF08B9002010BD214649
:10C5C0000348BDE8104005F06BBF00BF2CAF002052
:10C5D00038AF0020132801D90020704710B5044659
:10C5E0002146064805F05CFF08B9002010BD214631
:10C5F0000348BDE8104005F053BF00BF2CAF00203A
:10C600003CAF0020132801D90020704710B5044624
:10C610002146064805F044FF08B9002010BD214618
:10C620000348BDE8104005F03BBF00BF2CAF002021
:10C6300040AF0020132801D91420704710B50446DC
:10C640002146044805F02CFF08B1204610BD1420F7
:10C6500010BD00BF2CAF002008B51821024805F01E
:10C6600029FFC0B208BD00BF28AF002070B50C4E36
:10C67000044630460D4605F013FF08B1132C01D9CE
:10C68000002070BD2146301D05F00AFF0028F7D0BC
:10C69000E81D214606EB8000BDE8704005F000BFB4
:10C6A00028AF0020F8B50F4F044638460D46164611
:10C6B00005F0F6FE08B1132C00D9F8BD2146381D4F
:10C6C00005F0EEFE0028F8D0E91D07EB81002146B9
:10C6D0001EB1BDE8F84005F0BDBEBDE8F84005F06C
:10C6E000D3BE00BF28AF0020F0B5154E83B004467E
:10C6F0000F4601463046154605F0D2FE18B9002611
:10C70000304603B0F0BD063406EB84046368019341
:10C71000002FF4D0019B002BF1D000263446214697
:10C7200001A805F0BDFE03462946A0B201340BB1B5
:10C73000B8470136142CF2D1304603B0F0BD00BF2B
:10C7400028AF0020AADF7047ABDF7047008800F0F9
:10C75000010070470B7803704B78437002207047DC
:10C7600038B5044608460D4625F04AFE656020802F
:10C7700038BD00BFF0B58B7891B0012B38BF0123D5
:10C780000C468DF80E3005460B88ADF80C30164679
:10C79000002103226846FAF703FE637C0022013B76
:10C7A0008DF80020042B09D8DFE813F0CF00D30068
:10C7B000D700DB00050022238DF80030A37C002287
:10C7C000013B8DF80120042B09D8DFE813F0CE00DF
:10C7D000D200D600DA00050022238DF80130E37B79
:10C7E000217B41EAC301237C41EA03119DF8023019
:10C7F00001F0190123F019031943237D002B14BF05
:10C800000223012363F342018DF802101C22002150
:10C8100009A8FAF7C5FD637B13F0300F74D1637B71
:10C820008DF824301422A37B8DF82530002104A834
:10C83000FAF7B6FDA288A368ADF81C2003AACDF8CC
:10C8400014D004921BB10893E388ADF81830A369A3
:10C85000002B36D001AF032200213846FAF7A0FDA5
:10C86000A2691188ADF82C1000238DF8043053888C
:10C87000ADF82E3053680D970A93137B013B042BC0
:10C880002DD8DFE803F0969A9E8A290022238DF89E
:10C890000530917A137A43EAC103D17A927B002A58
:10C8A0009DF8062043EA011322F0190203F0190350
:10C8B00043EA020314BF0222012262F342038DF80D
:10C8C0000630E36903B10C93334604AA09A928464C
:10C8D000FFF738FF11B0F0BD22238DF80430537BF1
:10C8E0000021013B8DF80510042BD2D801A151F88D
:10C8F00023F000BFA3C90200ABC902008BC902002C
:10C9000093C902008DC8020002AF032200213846FD
:10C91000FAF746FDE37C0022013B8DF80920042B49
:10C9200007D8DFE803F0525E5A56030022238DF841
:10C9300009309DF80A300E97012262F342038DF808
:10C940000A3011238DF8083069E711238DF8003083
:10C9500034E721238DF8003030E731238DF80030A3
:10C960002CE712238DF8003028E711238DF80130D1
:10C9700035E721238DF8013031E731238DF801307F
:10C980002DE712238DF8013029E731238DF805308A
:10C990007FE712238DF805307BE712238DF80430F2
:10C9A0009DE711238DF8053073E721238DF80530BD
:10C9B0006FE711238DF8043091E721238DF80430BF
:10C9C0008DE731238DF8043089E711238DF8093084
:10C9D000AFE712238DF80930ABE731238DF809302A
:10C9E000A7E721238DF80930A3E700BF70B50C46F7
:10C9F00088B0164605461422002103A8FAF7D0FC99
:10CA0000A378012B38BF01238DF80A302388ADF8B5
:10CA1000083002AB0393A3790022013B8DF8042078
:10CA2000042B07D8DFE803F03F43474B03002223E2
:10CA30008DF80430E3790022013B8DF80520042BAA
:10CA400007D8DFE803F04044484C030022238DF868
:10CA5000053094F803C063792846257943EACC036E
:10CA600043EA05139DF806C0257A2CF0190C002D19
:10CA700003F0190314BF0225012543EA0C0365F3F3
:10CA800042038DF8063001AB0493D4F80A30E589EF
:10CA9000059332462369ADF8185003A90793FFF7B1
:10CAA00053FE08B070BD11238DF80430C2E7212376
:10CAB0008DF80430BEE731238DF80430BAE7122335
:10CAC0008DF80430B6E711238DF80530C1E7212336
:10CAD0008DF80530BDE731238DF80530B9E7122315
