:020000022000DC
:1070000000000220894B0400B14B0400B34B040084
:10701000B54B0400B74B0400B94B0400000000005E
:10702000000000000000000000000000BB4B040056
:10703000BD4B040000000000BF4B0400C14B040026
:10704000F5840300CD8D020085AA0300BD8C0300EA
:107050008D860300C34B0400C34B0400C34B0400E4
:10706000C34B0400C34B0400C34B0400C34B0400D8
:10707000C34B0400C34B0400C34B0400C34B0400C8
:10708000C34B040081330300C34B0400C34B040013
:10709000C34B0400C34B04008D790300C34B0400B1
:1070A000C34B0400D58D0200D18D0200AD8B0300CF
:1070B000C34B0400C34B04000000000000000000AC
:1070C000C34B0400C34B0400C34B04009D86030064
:1070D000C34B0400C34B0400C34B040051A703007F
:1070E000C34B04000000000000000000000000008E
:1070F00000000000C34B040000000000C34B04006C
:10710000000000000000000000000000000000007F
:10711000000000000000000000000000000000006F
:10712000000000000000000000000000000000005F
:10713000000000000000000000000000000000004F
:10714000000000000000000000000000000000003F
:10715000000000000000000000000000000000002F
:10716000000000000000000000000000000000001F
:10717000000000000000000000000000000000000F
:1071800000000000000000000000000000000000FF
:1071900000000000000000000000000000000000EF
:1071A00000000000000000000000000000000000DF
:1071B00000000000000000000000000000000000CF
:1071C00000000000000000000000000000000000BF
:1071D00000000000000000000000000000000000AF
:1071E000000000000000000000000000000000009F
:1071F000000000000000000000000000000000008F
:107200000348044B834202D0034B03B11847704735
:10721000145E0020145E00200000000005480649AE
:107220000B1AD90F01EBA301491002D0034B03B194
:1072300018477047145E0020145E00200000000014
:1072400010B5064C237843B9FFF7DAFF044B13B1AE
:107250000448AFF300800123237010BD785F002045
:10726000000000000420050008B5044B1BB10449D0
:107270000448AFF30080BDE80840CFE700000000FD
:107280007C5F002004200500A3F5803A704700BF12
:10729000154B002B08BF114B9D46FFF7F5FF002152
:1072A0008B460F461148124A121A00F079F80C4B1F
:1072B000002B00D098470B4B002B00D098470020A4
:1072C000002104000D000B4800F016F800F044F80F
:1072D0002000290013F0E0FD00F014F80000080081
:1072E000000000000000000000000220785F002085
:1072F000686301202D730200002301461A461846D8
:1073000000F0A0B808B5074B044613B1002100F007
:10731000EFF8054B1868836A03B19847204600F0E0
:107320004BF900BFF1740200BCAE040038B5084B45
:10733000084D5B1B9C1007D0043B1D44013C55F8D5
:1073400004399847002CF9D1BDE8384023F0B0BD8E
:10735000145E0020105E002070B50D4E0D4D761BA2
:10736000B61006D0002455F8043B01349847A642D5
:10737000F9D1094E094D761B23F094FDB61006D0C5
:10738000002455F8043B01349847A642F9D170BD5A
:10739000BC5D0020BC5D0020105E0020BC5D0020B4
:1073A000830730B548D0541E002A3FD0CAB20346E6
:1073B00001E0013C3AD303F8012B9D07F9D1032CDE
:1073C0002DD9CDB245EA05250F2C45EA054536D91C
:1073D000A4F1100222F00F0C03F1200EE6444FEA54
:1073E000121C03F1100242E9045542E90255103221
:1073F0007245F8D10CF1010214F00C0F03EB0212EC
:1074000004F00F0C13D0ACF1040323F00303043396
:10741000134442F8045B9342FBD10CF003042CB1FB
:10742000CAB21C4403F8012B9C42FBD130BD644618
:107430001346002CF4D1F9E703461446BFE71A4679
:10744000A446E0E7F0B5264C256885B0064605B3AE
:107450006C681F2C41DCA6B1D5F8880048B3D0F881
:10746000007140F824204FF0010C0CFA04FC00EBF2
:1074700084024CEA0707022EC0F80071C2F880307F
:1074800010D0A31C01346C6045F82310002005B017
:10749000F0BD1448144D25600028D9D00068C5F807
:1074A0008800D5E7D0F8043143EA0C03C0F8043172
:1074B000E7E70E480191CDE9022370B14FF48470E3
:1074C00022F01EF948B10027C0E94077DDE9022328
:1074D0006C680199C5F88800C3E74FF0FF30D6E724
:1074E0002060002000000000945F0020019704004D
:1074F0002DE9F84FDFF8BCA0DAF800702DED028B13
:10750000E7B108EE100A89467D68D7F888806C1EBE
:1075100014D407EB8506043608EB8505B9F1000F96
:1075200010D0B8F1000F02D0EB6F4B450AD0013CF0
:10753000631CA5F10405A6F10406EFD1BDEC028B96
:10754000BDE8F88F7B683268013BA34216BF002379
:107550007C603360002AEAD0D7F804B0B8F1000F9D
:107560001AD0D8F80001012303FA04F1014213D024
:10757000D8F80401014218D155F8041C18EE100A7D
:1075800090477A685A450BD1DAF80030BB42CED02A
:107590001F46002FB8D1D1E790477A685A45F3D0FB
:1075A000DAF80070002FAFD1C8E755F8040C904707
:1075B000E7E700BF20600020FEE700BF4FF08053E8
:1075C000D3F83001A0F10D03584258417047000034
:1075D000024AD2F80034002BFBD0704700E0014093
:1075E00008B5FFF7EBFF40B14FF080430022C3F82E
:1075F0000C21C3F81021C3F83825FFF7DFFF00285E
:1076000046D04FF080524E4BD2F80414C3F82015E8
:10761000D2F80814C3F82415D2F80C14C3F82815AE
:10762000D2F81014C3F82C15D2F81414C3F830157E
:10763000D2F81814C3F83415D2F81C14C3F8401546
:10764000D2F82014C3F84415D2F82414C3F848150E
:10765000D2F82814C3F84C15D2F82C14C3F85015DE
:10766000D2F83014C3F85415D2F83414C3F86015A6
:10767000D2F83814C3F86415D2F83C14C3F868156E
:10768000D2F84014C3F86C15D2F84424C3F870251E
:10769000FFF794FF48B14FF08043D3F80024D2079E
:1076A00044BF6FF00102C3F80024264AD2F88830A4
:1076B00043F47003C2F88830BFF34F8FBFF36F8F6E
:1076C0004FF08053D3F830210D2A0ED1D3F8343146
:1076D000022B02D81C4AD35C3BB14FF01023D3F8E5
:1076E00008224FF08043C3F858254FF01021D1F8FD
:1076F0000C32DB071FD515480123C0F80435FFF70E
:1077000067FFD1F80C3223F00103C1F80C32FFF708
:107710005FFF0023C0F80435FFF75AFFBFF34F8F18
:1077200008490B4BCA6802F4E0621343CB60BFF315
:107730004F8F00BFFDE7074B074A1A6008BD00BF27
:1077400000C0004000ED00E0C0AE040000E00140D9
:107750000400FA05E05900200090D00376DF70475E
:1077600078DF70477ADF70477CDF70478FDF7047C4
:1077700033DF7047024A40F2BD110FF0E1BE00BF97
:10778000C3AE0400024A40F2F3110FF0D9BE00BFAD
:10779000C3AE0400024A4FF45A710FF0D1BE00BFCD
:1077A000C3AE0400024A4FF462710FF0C9BE00BFBD
:1077B000C3AE040013B503883B2B04466FD007D833
:1077C000112B37D0212B4BD0102B0FD002B010BD76
:1077D000562B7CD0572BF9D1494A00231370494AC4
:1077E0001370494A1370494A1370EFE7484B5B889E
:1077F000022B09D94748484B4849C01AC008000421
:1078000040F003000AF050FF454BA1884548002294
:107810001A70454B01221A70444B198005F044FA46
:107820000028D3D0424A40F2CE4102B0BDE8104019
:107830000FF086BE364B5B88022B09D93548364B94
:107840003C49C01AC008000440F003000AF02CFFB5
:10785000354B00221A70354B4FF6FF721A80B5E790
:107860002B4B5B88032B09D92A482B4B3249C01A72
:10787000C008000440F004000AF016FF0023A088AE
:107880008DF8043001A98DF80530FFF76FFF00284F
:107890009CD0274A40F2EB410FF052FE96E71C4B7A
:1078A0005B88032B09D91B481B4B2449C01AC0080D
:1078B000000440F004000AF0F7FEA0881321FFF74F
:1078C0004DFF002882D01A4A40F20251ADE7104B1A
:1078D0005B88032B09D90F480F4B1949C01AC00800
:1078E000000440F004000AF0DFFEA0881321FFF737
:1078F00035FF00283FF46AAF0D4A40F20D5194E77E
:10790000EB600020EC600020E9600020EE600020C9
:10791000605E002028210500E0200500F9AE04008B
:10792000E8600020A4650020E7600020E8590020FE
:10793000C3AE04000FAF040028AF040048AF04003A
:1079400069AF04007FB508220346019201A94FF6F2
:10795000FF7202A807F002FA20B1094A40F2CB11E7
:107960000FF0EEFD019902A807F0D0F920B1044A0A
:107970004FF4E7710FF0E4FD07B05DF804FB00BFC2
:10798000C3AE040010B5784BB2B0082800F2E8800E
:10799000DFE810F0600009001D002B0039004600F0
:1079A00053008000C50001221A70704B5B88022BC7
:1079B00040F2AB806E486F4B6F49C01AC00800049C
:1079C00040F0030032B0BDE810400AF06DBE012265
:1079D0001A70664B5B88022B40F297806448654BB7
:1079E0006649C01AC0080004EAE701221A705F4B1A
:1079F0005B88022B40F289805D485E4B6049C01A6B
:107A0000C0080004DCE701221A70584B5B88022B87
:107A10007BD95748574B5B49C01AC0080004CFE7D1
:107A200001221A70514B5B88022B6ED95048514B82
:107A30005549C01AC0080004C2E701221A704B4B16
:107A40005B88022B61D94A484A4B5049C01AC0088A
:107A50000004B5E700221A70444B5B88022B09D959
:107A60004348444B4A49C01AC008000440F0030090
:107A70000AF01AFE0AF08AFC0028FBD1FFF778FE14
:107A8000002842D0434A40F2B31132B0BDE8104062
:107A90000FF056BD00221A700823CDE9023312AA56
:107AA00003AB02A904A807F019F905282F4C2ED121
:107AB0006388032B18D92E482E4B3749C01AC008AB
:107AC000000440F004000AF0EFFD6388032B0BD99B
:107AD000284B27483149C01AC0080004DDE90223B9
:107AE00040F004000AF0EDFD0220FFF72BFF039B9E
:107AF0000093029A2A4812AB04A902F099FF20B120
:107B0000244A40F281110FF01BFD32B010BD002855
:107B1000DBD0204A40F271110FF012FDD5E70022B0
:107B20001A70204B18884FF6FF739842EDD012A9B7
:107B300007F0CEF90528E8D020B1164A40F291119D
:107B40000FF0FEFC0620FFF7FDFE15480DF1590170
:107B500002F05EFF0028D8D00E4A4FF4CC71D2E775
:107B600000221A70D1E700BFE8600020605E0020AC
:107B700028210500E02005008AAF0400B7AF04000B
:107B8000DAAF0400F9AF040018B0040046B00400F6
:107B900074B00400C3AE040092B00400C7B0040087
:107BA00018610020A065002007B50B78052B1BD0BD
:107BB000062B1FD0042B1AD18B79022B17D1CB792E
:107BC000ABB90E4A01920E4A0E481288009219462D
:107BD000012203F064FF50B10B4A40F2553103B06B
:107BE0005DF804EB0FF0ACBC084B01221A7003B037
:107BF0005DF804FB054B0022F8E700BFB8650020E4
:107C0000E8590020EC590020C3AE0400EA600020CF
:107C100030B587B0082301934FF6FF72012301A905
:107C200002A807F09BF820B1184A40F232410FF049
:107C300087FC174D6B88022B0BD9164B1648019AFF
:107C40001649C01AC0080004082340F003000AF0D7
:107C500038FD019902A807F037F86B88022B04461B
:107C60000AD90C480C4B0E491B1ADB081B04224690
:107C700043F003000AF01CFD2CB1044A40F25241CB
:107C800020460FF05DFC07B030BD00BFC3AE04005E
:107C9000605E0020E0200500282105001AB10400E4
:107CA00053B1040010B5044607F084FE204607F0E7
:107CB000AFFE204607F0CEFB2378033B0A2B1CD8EF
:107CC000DFE803F0061B1B1B1B1B461B1C1B3200A3
:107CD0002B4B5B88032B09D92A482B4B2B49C01A05
:107CE000C008000440F004000AF0DEFC0AF04EFB7D
:107CF0000028FBD1264BA2881A8010BD204B5B8840
:107D0000032B09D91F48204B2249C01AC008000480
:107D100040F004000AF0C8FC0AF038FB0028FBD150
:107D20001D4B01221A70E8E7154B5B88032B09D91C
:107D30001448154B1949C01AC008000440F004004B
:107D40000AF0B2FC0AF022FB0028FBD1144BE8E752
:107D5000237CDB07D1D5237A072BCED1084B5B8858
:107D6000032B09D90748084B0E49C01AC008000464
:107D700040F004000AF098FCBDE81040FFF748BF4F
:107D8000605E002028210500E02005007EB104008F
:107D9000A0650020A5B10400ED600020CFB1040073
:107DA000E6600020FAB104002DE9F047AEB00AF019
:107DB00093FD18B1BD4A9D210FF0C2FB0FF04CFDA1
:107DC00018B1BA4AAA210FF0BBFB002303A9012076
:107DD00003930FF025FE18B1B44AB0210FF0B0FBA9
:107DE00003A80FF075FE18B1B04AB4210FF0A8FB3C
:107DF000AF4A0A2108200AF0E5FD18B1AB4ABF21BD
:107E00000FF09EFB1123AB488DF8043022F098FA56
:107E100001AD82B2A7492846FFF7A6FC18B1A34AD4
:107E2000D3210FF08DFB40F2C130FFF799FC18B160
:107E30009E4AD6210FF084FB0822002103A8FFF7F9
:107E4000AFFA0623ADF80C30ADF80E30ADF81030B7
:107E500003A82B23ADF81230FFF784FC18B1934A26
:107E6000E0210FF06DFB9448002104F02DFD18B1C6
:107E70008E4AE9210FF064FBAC22002103A8FFF732
:107E80008FFA02238DF80C3040F20163ADF80E300A
:107E900001238A4AADF81C308DF88530ADF8863064
:107EA00040F201134FF448600892ADF88830002288
:107EB00042F6E063CDE927032821814B2C93CDE9DD
:107EC000232241F27072CDE925127E4B7E482D931C
:107ED00003A902F0DEFB20B1744A40F20F110FF04B
:107EE0002FFB7948012102F0D1FB784B78480393AE
:107EF00003A904F0C7FE20B16C4A4FF4F4710FF0EF
:107F00001FFB43F2EF53ADF8063012230224ADF805
:107F1000083040220123002103A8ADF80A308DF873
:107F20000440FFF73DFA03A86A4904F060FB03A888
:107F300011958DF8484002F081FE20B15B4A4FF464
:107F400003710FF0FDFA1022002103A8FFF728FAB1
:107F500000230393012205935F48604B8DF81020A6
:107F600003A9069302F0C1FD20B1504A40F223213B
:107F70000FF0E6FA5A4F5B4CDFF8848108220021AB
:107F80003846FFF70DFA282200212046FFF708FAAD
:107F9000082200214046FFF703FA4FF440737B802C
:107FA00040F2012208232380A8F802202383032221
:107FB0004FF48273022540F202264FF0010940F28D
:107FC000011A22814FF481712282638340F20312ED
:107FD00040F2051361816282638448220021A4F883
:107FE00002A0A680A571A681A573A682A575A68309
:107FF000A577A4F82090A68484F8265003A83D8095
:10800000BE80A8F80090A8F80460FFF7C9F9364BC5
:108010000393364B049305238DF81630D323ADF824
:108020003030334B0B930023324A8DF8423011939A
:108030003148ADF814A04FF0023303A906948DF82F
:108040001C90CDF820808DF824900A978DF8385038
:108050000F928DF84050ADF850608DF85250129349
:10806000ADF84C608DF84E5003F0FBF920B10F4A8B
:108070004FF445710FF064FA1C22002103A8FFF7AA
:108080008FF900234FF4A032CDE903324FF4F022F0
:108090000592ADF81A3003228DF81C30089303A81E
:1080A000164B8DF8182009932CE000BFC3AE0400D6
:1080B000246000203CB2040060650020E4590020E8
:1080C000857902007577020018610020857702002B
:1080D000A465002045B204004C6500206402020241
:1080E000DE600020F0600020A97B0200957702008E
:1080F0007C5B002001010003EC590020A577020001
:10810000B065002004F090F820B1204A40F27F31A1
:108110000FF016FA06F006FD20B11C4A40F2953128
:108120000FF00EFA0522002103A8FFF739F93123D9
:108130008DF80C3007238DF80D3010238DF80E309C
:108140009DF80F3023F0030343F003038DF80F3045
:108150009DF8103023F0030343F0030303A88DF8C8
:10816000103006F099FD20B1084A4FF46A710FF003
:10817000E7F9074806F078FD20B1044A40F2AB3138
:108180000FF0DEF92EB0BDE8F08700BFC3AE0400EB
:10819000A57C020008B50648032102F0F1FA30B1CF
:1081A000BDE80840034A40F2FA310FF0C9B908BDF2
:1081B00018610020C3AE040008B5FFF729FDBDE833
:1081C0000840FFF7E7BF0000014B1878704700BF79
:1081D000E8600020064B1B7843B1064B18884FF629
:1081E000FF73984202D01321FFF7B8BA704700BF5F
:1081F000E7600020E859002008B50AF06FFC0AF09B
:10820000C5F818B9BDE808400AF07CBB08BD0000FD
:1082100038B5174C6388022B09D91648164B1749F5
:10822000C01AC008000440F003000AF03DFA144DE3
:1082300000232B7006F062FE20B1124A40F2754115
:108240000FF07EF92B7873B16388022B0ED90A4B9D
:1082500008480D49C01AC0080004BDE8384040F085
:1082600003000AF021BAFFF7C7FFEBE738BD00BFF4
:10827000605E002028210500E02005004FB20400C8
:10828000E6600020C3AE040074B20400014B18780D
:10829000704700BFE760002007B50B490B4B09781A
:1082A0001B88024659B9009308220346084803F088
:1082B000F6FAB0FA80F0400903B05DF804FB08213B
:1082C000034803F04BFBF4E7EA600020E859002084
:1082D000EC5900201FB5164B1A88164B1B78E3B9D2
:1082E00040F6FF74A042144BA8BF2046A142A8BF8D
:1082F0002146187089B2C0F3032040EA0110091129
:10830000587099700D4800920221032203F0C7FAB9
:10831000B0FA80F0400904B010BD002402924BB2C4
:1083200042B2CDE900442146044803F05AFBEFE78E
:10833000E8590020EA600020DA600020EC590020B3
:108340001FB50F4B19880F4B1A787AB90E4B18705E
:108350005A709A700D4800910322012103F09FFA90
:10836000B0FA80F0400905B05DF804FB00230291EB
:10837000CDE9003301461A46044803F032FBEFE72B
:10838000E8590020EA600020D7600020EC59002066
:1083900007B50B4B0246187870B90A4B5A700A4A57
:1083A000187012889970094800920121032203F085
:1083B00076FAB0FA80F0400903B05DF804FB00BF24
:1083C000EA600020D4600020E8590020EC59002029
:1083D00007B5074A12880092034608220321054880
:1083E00003F05DFAB0FA80F0400903B05DF804FBD9
:1083F000E8590020EC590020014B1878704700BF65
:10840000E9600020014B01221A707047E9600020EA
:1084100007B5074A12880092034601220421054845
:1084200003F03DFAB0FA80F0400903B05DF804FBB8
:10843000E8590020EC590020014B1878704700BF24
:10844000EE600020014B01221A707047EE600020A0
:1084500000230129036002D0022904D10123044A28
:1084600002EBC30303600068B0FA80F04009704774
:108470007CB2040008B500F0DDFB012804D0BDE8A3
:108480000840012000F0F8BB08BD00F01EBC00F061
:108490001ABC00F0D9BB07B5014601A8FFF7D8FF09
:1084A000012803D0019B586800F0F0FB03B05DF891
:1084B00004FB37B50C46014668461546FFF7C8FF72
:1084C000012803D10124204603B030BD009B01A93F
:1084D000586800F0E8FB0128F4D0019800F0A0FBF8
:1084E00021462A4601F030FF01280446EBD00198CE
:1084F00000F09AFBE7E737B50D4601466846FFF7FF
:10850000A7FF012804460BD0009B01A9586800F082
:10851000CAFB0128044603D0019800F07DFB2860C7
:10852000204603B030BD37B50D4601466846FFF71B
:108530008FFF012804460DD0009B01A9586800F068
:10854000B2FB0128044605D0019800F069FB01F058
:1085500024FE2880204603B030BD37B50D460146C5
:108560006846FFF775FF012804460DD0009B01A95E
:10857000586800F098FB0128044605D0019800F0E7
:108580004BFB01F008FE2880204603B030BD00F010
:10859000A9BB70470023036018467047704700204E
:1085A00070477047012905D9032905D1034B0022E3
:1085B0001A7070470DF0F6BF704700BFCC65002001
:1085C000012905D9032905D1034B00221A707047F0
:1085D0000CF03EBF704700BFC9650020012905D9D6
:1085E000032905D1034B00221A7070470CF030BFED
:1085F000704700BFCE650020023808B50C281AD895
:10860000DFE800F01A321919191960907A19190760
:108610004A004F4B5B88022B09D94E484E4B4F49BD
:10862000C01AC008000440F003000AF03DF809F049
:10863000ADFE0028FBD108BD454B5B88022B09D954
:108640004448454B4649C01AC008000440F00300A6
:108650000AF02AF809F09AFE0028FBD10BF056F92F
:10866000404B01221A70E6E7394B5B88022B09D98F
:108670003848394B3C49C01AC008000440F0030098
:108680000AF012F809F082FE0028FBD1374B0122D4
:108690001A70344B1870CEE72D4B5B88022B09D92A
:1086A0002C482D4B3249C01AC008000440F003008A
:1086B00009F0FAFF09F06AFE0028FBD1BDE8084086
:1086C0000BF0ECB8224B5B88022B09D92148224BD6
:1086D0002849C01AC008000440F0030009F0E4FF74
:1086E00009F054FE0028FBD111F0FEFA0028A2D1B7
:1086F000BDE808400BF0D0B8154B5B88022B09D9B8
:108700001448154B1C49C01AC008000440F003006F
:1087100009F0CAFF09F03AFE0028FBD1BDE8084085
:108720000BF0CCB80A4B5B88022B09D909480A4BDD
:108730001249C01AC008000440F0030009F0B4FF59
:1087400009F024FE0028FBD10BF0D6F80C4B88E78B
:10875000605E002028210500E02005008CB20400A6
:1087600098B20400D1650020A6B20400D0650020B4
:10877000B1B20400BCB20400CFB20400D9B204000C
:10878000CF650020012908B51ED0032918D0D1B922
:108790000DF068FA0E4B01221A700E4B5B88022B0B
:1087A00009D90D480D4B0E49C01AC008000440F00D
:1087B000030009F079FF09F0E9FD0028FBD102E090
:1087C000084B00221A7008BDBDE808400DF04ABAF7
:1087D000CA650020605E002028210500E020050019
:1087E000EBB20400CB65002008B50CF03BF8234841
:1087F0000AF0B8FF20B1224A4FF4AA710EF0A0FE91
:1088000020480BF0A9F820B11D4A40F259110EF092
:1088100097FE1D4B1D4818600BF09EF820B1184ABA
:108820004FF4AF710EF08CFE19480BF095F820B1A3
:10883000134A4FF4B2710EF083FE16480BF08CF819
:1088400020B10F4A40F26B110EF07AFE01F07EFB70
:1088500030B1114A0A484FF4B971FFF7A2FEFEE7A2
:108860000AF0FCFF20B1064A4FF4BB710EF068FE1F
:108870000BF012F8BDE808400BF020B88CB50400EE
:108880001AB30400B4B40400BC65002030B5040081
:10889000CCB3040014B4040050B30400044B1878A3
:1088A00018B1044B187880F0010000F00100704707
:1088B000D0650020CF65002038B5114D0BF0ECFBE2
:1088C00001F09EFB01F080FB2A6841F287339A4257
:1088D000044613DCC2F59C5308339BB2984204D380
:1088E000581E084B012184B21970074821461044D4
:1088F00001F070FB28682044286038BD0023EFE7B2
:10890000D4660020CD6500208A67002008B5054B9D
:10891000C3E90001194681200BF0C2F9B0FA80F0DA
:10892000400908BD306700200A46014601480DF0A5
:10893000EFBD00BF30B50400014601480DF058BD41
:1089400030B50400014601480DF082BD30B5040089
:10895000014601480DF0ACBD30B50400014B18785C
:10896000704700BFC9650020014B01221A70704793
:10897000C965002010B5094C2346032203F8012BDA
:108980004A000146184620F04DFF092221460448BE
:108990000CF0C2FDB0FA80F0400910BDC0650020A7
:1089A000CCB30400014B1878704700BFCE6500209F
:1089B000014B01221A707047CE65002010B5094C9A
:1089C00023460A46042103F8011B0146184620F0FD
:1089D00029FF0222214604480CF09EFDB0FA80F0E7
:1089E000400910BD8867002014B40400044B1B78B4
:1089F00013B9044B1868704741F28730704700BFC5
:108A0000CD650020D4660020004870478A670020AA
:108A1000024A00231360024A13707047D466002094
:108A2000CD65002070B506460D4675B101F0DAFA45
:108A3000044638B1A84228BF2C46A1B2304601F006
:108A4000D7FA18B1FFF738FFEFE72C462D1B264465
:108A5000EBD170BD00F016B808B500F039F8BDE8EC
:108A6000084000F049B81FB50FC86C4684E80F00F5
:108A70000023102221464FF0FF30029301F0DAFD6F
:108A800004B010BD38B5114C4FF4FE2565602B685D
:108A9000012B12D16B68102B0FD12846FFF7E3FF93
:108AA000AB68984209D163680FCB04F1080585E8EB
:108AB0000F0001232370002038BD10230122C4E9D8
:108AC00002230023C4E90433F3E700BF147B002032
:108AD00008B5064B1A782AB9054A0648CA21FFF795
:108AE00060FDFEE701225A6108BD00BF147B002033
:108AF00098B50400C4B5040010B5104C102260688D
:108B000004F1080120F05CFEB0B1606812F00EF8CC
:108B100004F10800FFF7A7FF0422206104F1080117
:108B2000606812F01BF86068102204F1080120F060
:108B300047FE003818BF012010BD00BF147B002085
:108B400010B50446082001F0E9FC2060002010BDAB
:108B500008B54B681A682AB9254A26481A21FFF732
:108B600020FDFEE75A682AB9234A22481B21FFF755
:108B700018FDFEE79A682AB9204A1E481C21FFF713
:108B800010FDFEE7DA682AB91D4A1A481D21FFF7D1
:108B900008FDFEE71A692AB91A4A16481E21FFF78E
:108BA00000FDFEE75A692AB9174A12481F21FFF74C
:108BB000F8FCFEE79A692AB9144A0E482021FFF70B
:108BC000F0FCFEE7DA692AB9114A0A482121FFF7C9
:108BD000E8FCFEE71B6A2BB90E4A06482221FFF784
:108BE000E0FCFEE70B6803604B684360002008BDB3
:108BF00010B6040039B6040070B6040097B604003D
:108C0000BDB60400E5B6040007B7040030B70400A1
:108C100057B704007DB70400436800685B681847D5
:108C2000436800689B69184743685B6A0BB100683A
:108C300018477047034B00221A705A7002229A702C
:108C400000F082BE2C7B002037B50A4D2B787BB913
:108C5000AB788DF8043001A800F09EFE0128044690
:108C600003D001232B70FFF794FC204603B030BDE6
:108C70000124FAE72C7B0020034A0346107808B948
:108C800093707047012070472C7B002010B504467C
:108C900000F08CFE28B124B12046BDE8104000F061
:108CA00095BE012010BD13B50446019100F07EFE73
:108CB00030B10199204602B0BDE8104000F0A0BEDE
:108CC000012002B010BD00F0B3BE4FF08053D3F8C6
:108CD000A400030E552B01D0AA2B01D180F04040F7
:108CE0007047000038B50D4C2578012D05D0032DB7
:108CF0000CD0BDE8384000F09DBE00F057FE10B12A
:108D0000022323706570FFF744FCF2E700F056FE83
:108D10000028F8D0002323706370F4E72C7B002038
:108D200037B5002401AB18190FF0ECFB60BB013420
:108D3000032CF7D1154B9DF80420154903EBC20015
:108D4000086001461348043101609DF8051012487F
:108D500003EBC10404602046104C043020609DF8F1
:108D600006000F4C03EBC00525602B460D4C043369
:108D70002360012303FA01F103FA02F20A430A49CC
:108D80000A600A4A8340136003B030BD10F5014009
:108D9000387B0020447B00203C7B0020487B002067
:108DA000407B00204C7B0020307B0020347B002067
:108DB00020B1034B800143F001031847704700BF07
:108DC000B0B704000FF034BA0FF04ABA1EF050BF2B
:108DD0001CF036BD1FF0F6BC70B58AB0064600F038
:108DE000B0FE0446304600F0B1FE054620461CF0B9
:108DF000B1FE00281BDD284601F0CFF920280346EC
:108E000028BF20239BB201AA02A9204601931CF08F
:108E10005BFE60B1019B13B1304600F0AEFEBDF8C1
:108E2000042002A9284601F08FFA0128DED10AB0F9
:108E300070BD10B5044600F0A8FE50B12046FFF703
:108E4000CBFF204600F08BFE204600F0A1FE002064
:108E500010BD0220FCE7000013B504460C48C368AF
:108E600023B920461CF082FE02B010BD406801AA62
:108E7000214698470028F4D1019800F086FE00288A
:108E8000F2D00198FFF7A8FF019800F081FEEBE710
:108E9000507B002070B588B0044600F052FE0646B4
:108EA000204600F059FE054630461CF047FE0228D9
:108EB00021DC284601F06FF90446E0B1202828BFE4
:108EC0002024A4B222466946284601F0D1FA01289E
:108ED00011D02246694630461CF09CFD68B91CF052
:108EE00019FF00F0FD00082805D1064A936813B168
:108EF00050680121984708B070BD21B2284601F0A2
:108F000053F9D1E7507B002010B5044600F043FE32
:108F100050B12046FFF7BEFF204600F02BFE204652
:108F200000F03CFE002010BD0220FCE738B50546ED
:108F3000FFF7EAFF044648B9284600F02CFE38B196
:108F40002846FFF7A7FF284600F028FE204638BD38
:108F50000224FBE707B501460948C3686BB14068C6
:108F600001AA984748B9019800F015FE28B1019868
:108F7000FFF790FF019800F011FE03B05DF804FBCD
:108F8000507B002037B5154D2C780CBBC5E901444A
:108F90006C70AC70EC60FFF7C3FE02201CF08EFC1E
:108FA00098B10F4B186800901B798DF8043005219B
:108FB00068461CF009FE40B14FF416701CF044FEE8
:108FC00018B102201CF076FE20B9012003B030BD9C
:108FD0000020FBE701232B702046F7E7507B0020A1
:108FE000BDB7040010B5C16829B9164A16488B21CF
:108FF000FFF7D7FAFEE70378013B012B05D9114AA9
:1090000011488C21FFF7CDFAFEE7104C62780AB1C7
:10901000012010BD436863608368C4E902310078B1
:10902000012802D00228F3D110461CF0AFFD002821
:10903000EED01CF0D3FC0028EAD00123637000209E
:10904000E7E700BFC3B70400E1B70400507B00208E
:10905000034B9A781AB901229A701CF0CFBC704762
:10906000507B0020014B5878704700BF507B002098
:1090700008B51CF0D7FD80F00100C0B208BD13B5E3
:1090800002AB03E906000446FFF764FF9DF80030D9
:109090002BB1204602B0BDE81040FFF7DDBE02B0A4
:1090A00010BD82B002AB03E9060002B0FFF752BF69
:1090B00013B50446FFF7D0FE204602B0BDE81040CD
:1090C000FFF748BF054B10B500249C705C7020462C
:1090D00001341CF04BFD082CF9D110BD507B002051
:1090E0007047000010B5044630B90C4A0C484FF4E4
:1090F0003B71FFF756FAFEE7FFF79BFE012806D10A
:10910000084A074840F2EF21FFF74BFAFEE72046F6
:1091100000F019FDBDE8104001F03DB825B804008D
:10912000E1B7040045B8040010B5044630B90B4A55
:109130000B4840F2FE21FFF734FAFEE7FFF779FE15
:10914000012806D1074A064840F20131FFF729FA03
:10915000FEE72046BDE8104000F0F5BC25B804004D
:10916000E1B7040045B80400F7B51646044630B927
:109170000F4A10484FF44371FFF713FAFEE70191CD
:10918000FFF757FE204600F0DEFC01993246074605
:1091900001F06EF90128054606D0384631B201F0DB
:1091A00003F82046FFF745FE284603B0F0BD00BF98
:1091B00025B80400E1B7040037B5044630B90D4ABC
:1091C0000D4840F22631FFF7ECF9FEE70191FFF779
:1091D00030FE204600F0B7FC0199002201F003F9AF
:1091E0000128054602D02046FFF723FE284603B09B
:1091F00030BD00BF25B80400E1B7040010B5044637
:1092000030B90B4A0B4840F23D31FFF7CAF9FEE78F
:10921000FFF70FFE012806D1074A06484FF45071A8
:10922000FFF7BFF9FEE72046BDE8104000F0A8BCFC
:1092300025B80400E1B7040045B8040038B5044679
:1092400030B90C4A0C4840F24D31FFF7AAF9FEE75D
:10925000FFF7EFFD204600F076FC054600F09BFF8F
:1092600001B2284600F0A0FF2046BDE83840FFF7D5
:10927000E0BD00BF25B80400E1B7040010B5044606
:1092800030B90C4A0C484FF45971FFF78AF9FEE7E0
:10929000FFF73AFE012806D1084A074840F2673135
:1092A000FFF77FF9FEE7204600F053FCBDE81040D1
:1092B00000F073BF25B80400E1B7040067B80400EC
:1092C00010B5044630B90B4A0B4840F27731FFF72E
:1092D00068F9FEE7FFF718FE012806D1074A06489D
:1092E00040F27A31FFF75DF9FEE72046BDE8104015
:1092F00000F02FBC25B80400E1B7040067B80400F3
:1093000037B51446054630B9104A114840F2863147
:10931000FFF747F9FEE70191AAB1FFF7F5FD2846EF
:1093200000F017FC2246019901F00EF80446284689
:10933000FFF7FCFD012806D1064A054840F29931A5
:10934000FFF72FF9FEE7204603B030BD25B8040033
:10935000E1B704008AB8040070B50E46054630B97E
:10936000124A134840F2A631FFF71BF9FEE7084600
:1093700000F011FF0446B8B12846FFF7C5FD2846A6
:1093800000F0E7FB00220146304601F02CF80446CD
:109390002846FFF7CBFD012806D1064A044840F2D3
:1093A000B931FFF7FEF8FEE7204670BD25B804008E
:1093B000E1B704008AB8040037B5044600F0EBFBBF
:1093C00098B1204600F0BDFB05461CF0B7FB022813
:1093D00005DC00220DF1070128461CF01BFB20468E
:1093E00000F0DCFB002003B030BD0220FBE7FFF7FC
:1093F0009DBD022070470000024B00225A701A7275
:10940000704700BF607B0020014B5878704700BF59
:10941000607B0020024B587880F00100704700BF4D
:10942000607B002010B5837804464068BBB1012BF7
:109430001ED06068FFF7DBFF63788BB363697BB393
:109440002069FFF7ACF858B36068FFF7B5FF012853
:1094500026D0D4E90401BDE81040FFF79FB8FFF71C
:10946000CDFE0028E5D00123A370FFF792F8E0E7D6
:1094700000F067FB1CF062FB10B10023A370D8E77B
:109480006068FFF799FF012803D00028F5D0022873
:10949000EBD0044A044840F27B11FFF782F8FEE764
:1094A00010BD00BFB2B80400D6B80400037A0BB1F7
:1094B000FFF7B8BF7047000070B5084D06466868F2
:1094C0000C4600F03EFB864205D12B7A23B16B6837
:1094D0000020236070BD00230120FAE7607B00209C
:1094E00070B5084D2B7A06460C461BB900230120A7
:1094F000236070BD686800F024FB8642F6D1EB68FB
:109500000020F5E7607B002038B50B4D6B780446F2
:1095100083B12B7A68682BB100F013FB201A18BFB7
:10952000012038BD214600F009FB0128F9D00123B4
:109530002B72F6E70120F4E7607B00204068FFF71C
:10954000BFBE4068FFF79ABE4068FFF777BE40682D
:10955000FFF732BE4068FFF707BE4068FFF7E4BD83
:109560004068FFF7BFBD00000248037A0BB1FFF768
:1095700059BF7047607B002008B5054B1A78012061
:109580002AB15870D3E90401FFF708F8002008BD9C
:10959000607B002038B504464068FFF7B1FE012823
:1095A000054603D0D4E90401FEF7F8FF284638BD8C
:1095B00038B504464068FFF7CFFE0128054603D0C2
:1095C000D4E90401FEF7EAFF284638BD7FB5204CF8
:1095D0002578064625B96570FFF7D4FC012801D12E
:1095E000012032E03388ADF8043001A97388ADF86A
:1095F0000630201D00F06CFA0128F1D004F10C00B7
:109600002572FFF79DFA0128EAD0124BE068029418
:1096100002A90393FFF79CFA0128E1D02846A57020
:109620001CF05AFB0F201CF033FB28461CF056FBA5
:109630001E201CF01BFB04F11000FEF7ABFF0128FD
:10964000CED0736863610123237004B070BD00BF86
:10965000607B00201CB904000048704744B9040036
:1096600001207047034B1A7801200AB1587000207E
:10967000704700BF787B0020014B5878704700BFCF
:10968000787B0020024B587880F00100704700BFC3
:10969000787B0020037813B14068FFF7A8BE7047BD
:1096A00070B50A4B03EB800304465E6870680D4694
:1096B00000F047FA844205D1337823B17368002063
:1096C0002B6070BD00230120FAE700BF787B0020EB
:1096D00070B50A4B03EB800304465E6833780D4691
:1096E0001BB9002301202B6070BD706800F029FABF
:1096F0008442F6D1B3680020F5E700BF787B0020F4
:1097000038B50D4B5A7804469AB103EB80035D6877
:109710002B7868682BB100F014FA231A584258418C
:1097200038BD214600F00AFA0128F9D001232B7038
:10973000F6E70120F4E700BF787B0020054900220E
:109740004A70012351F823000133092B0270F9D12B
:10975000704700BF787B00204068FFF7FDBD406880
:10976000FFF7CEBD4068FFF7ABBD4068FFF786BD91
:109770004068FFF763BD4068FFF71EBD4068FFF714
:10978000F3BC4068FFF7D0BC4068FFF7ABBC0000FB
:1097900038B5064D012455F824301A7812B15868AE
:1097A000FFF725FE0134092CF5D138BD787B002068
:1097B0002DE9F0431D4C277885B006469FBB6770A6
:1097C000FFF7E0FB01281AD0DFF8648001250C20A8
:1097D00000F0A4FE814600F8047B3388ADF8043025
:1097E00001A97388ADF8063000F072F9012806D09F
:1097F00009F10800FFF7A4F9012803D1012005B001
:10980000BDE8F083D9F8080002A9CDE90298FFF776
:109810009FF90128F2D044F825900135092DD6D1C1
:1098200001232370EBE70020E9E700BF787B0020ED
:1098300068B904000048704790B90400012908B5D0
:1098400007D1037823B1037A13B940F201130381DE
:1098500008BD034A0348F721FEF7A3FEFEE700BF59
:10986000B4B90400C9B9040010B5064B5B681B68A5
:109870002BB9054A05489C21FEF793FEFEE7BDE89B
:10988000104018479C7B00200BBA0400C9B90400A3
:1098900030B5012885B007D002281BD01A4A1B48D2
:1098A0009221FEF77EFEFEE7FFF7C4FF184D6860C9
:1098B000FFF7DAFF174B8DF8000002936846164B4E
:1098C00001950393FFF78EFB012806D101240023A5
:1098D0006B6015E0FFF7C0FEE8E76B689B682BB98B
:1098E0000E4A0A48AA21FEF75CFEFEE798470128C7
:1098F0000446EBD001232B70FEF74BFE002CE6D183
:10990000204605B030BD00BF3CBA0400C9B9040010
:109910009C7B00203D9802002199020063BA04005C
:1099200010B5034608465B685B6811462BB9044ACC
:109930000448A321FEF735FEFEE7BDE810401847B6
:109940008BBA0400C9B9040007B5FFF71BFB012857
:1099500003D1012003B05DF804FB4FF48073684627
:10996000ADF80030ADF80230FFF722FF0128F0D04B
:109970004FF001224FF47A736846CDE90023FFF7D8
:1099800025FE0128E6D0034B00221A705A601A7295
:10999000E0E700BF9C7B0020034B1B7813B90078E5
:1099A000FFF776BF012070479C7B0020024B1878A0
:1099B000003818BF012070479C7B0020024B1878AC
:1099C000B0FA80F0400970479C7B002010B5094B2D
:1099D0001A78012A0BD15B689B692BB9064A0748A4
:1099E000C621FEF7DEFDFEE7BDE810401847012066
:1099F00010BD00BF9C7B0020B5BA0400C9B90400AB
:109A000010B5084B5B6853B1DB692BB9064A0748B0
:109A1000CD21FEF7C6FDFEE7BDE810401847012046
:109A200010BD00BF9C7B0020E0BA0400C9B904004F
:109A3000FFF71EBB70B5224C2378012B04D0022BFC
:109A400015D0002B34D170BD237A43B96368002B45
:109A5000F9D01B6A002BF6D0BDE870401847FFF71D
:109A6000F7FA02232370BDE87040FEF792BDFFF7BE
:109A7000F9FA05460028E6D120722070FEF789FD2C
:109A8000667A4EB16572FFF7EFFE2378002BDAD1CC
:109A9000BDE87040FFF7FCBE6368DB682BB9094A7C
:109AA0000948B121FEF77DFDFEE798476660CAE7E9
:109AB000064A054840F21221FEF773FDFEE700BF9B
:109AC0009C7B002010BB0400C9B9040039BB040012
:109AD000F0B5044685B018200E4600F01FFD4FF08B
:109AE000FF332060054640F8043B01238DF8043025
:109AF00000273388029701A9ADF80C3000F02EFD45
:109B00000128044617D002238DF8043001A9738878
:109B1000029705F10800ADF80C3000F01FFD012898
:109B2000044608D005F11000AF8100F06FFA05F18E
:109B3000140000F06BFA204605B0F0BD0160002073
:109B4000704700687047406800F036BD406800F01C
:109B500035BD806800F030BD806800F02FBD10B5C5
:109B60000446406800F036FD237B13B14FF4807348
:109B7000A38110BD806800F02DBD012303737047E1
:109B800003460022407B5A737047006900F040BAD8
:109B9000006900F03FBA406900F03ABA406900F04D
:109BA00039BA10B50446006900F032FA38B1A0683D
:109BB00000F010FD206900F02DFA002010BD0220F9
:109BC000FCE700002DE9F3410446FFF7EAFF0746F2
:109BD000002862D1206900F01BFA002861D0637F61
:109BE000002B57D1A06800F0E9FC064600F0D5FA3A
:109BF00000284FD060680DF0E1FA1FFA80F8B8F144
:109C0000000F20D1304600F0C8FA002842D030467C
:109C100000F033FC0190304600F033FC024600288F
:109C200038D001236377636801991B68C3F8848087
:109C300060680DF0C9FA48BB1B4A1C484FF4E67136
:109C4000FEF7AFFCFEE7304600F017FC019030460F
:109C500000F017FC0546E8B1404528BF4546ADB2C7
:109C6000019960682A460DF0AFFA30B1104A0F48EA
:109C700040F2A711FEF795FCFEE729B23046A8EBAB
:109C8000050500F0C3FA1FFA85F8B8E7922818BF57
:109C900084F81D80206900F0BDF9384602B0BDE8A7
:109CA000F0810227F9E700BFBDBB040084BB0400BC
:109CB00058BB040010B5044630B90C4A0C4840F2B9
:109CC0007A21FEF76EFCFEE7FFF76BFF012806D155
:109CD000084A074840F27D21FEF763FCFEE7A068D2
:109CE00000F06AFCBDE8104000F055BAE2BB040089
:109CF00084BB040001BC0400F7B51646044630B925
:109D0000134A144840F29B21FEF74BFCFEE70191F9
:109D1000FFF747FFA06800F04FFC01993246074665
:109D200000F0A6FB0128054603D031B2384600F00A
:109D30003BFA2046FFF746FF012806D1064A0548B0
:109D40004FF42B71FEF72DFCFEE7284603B0F0BD63
:109D5000E2BB040084BB040029BC040010B5044627
:109D6000406900F055F938B1E06800F033FC6069F3
:109D700000F050F9002010BD0220FCE7F8B50446C1
:109D8000FFF7ECFF054618BB606900F041F908B326
:109D9000237FD3B9E06800F011FC064600F0FBF920
:109DA00098B12946304600F0A1FB294607463046C7
:109DB00000F0A5FB01230246208323776068394623
:109DC0000DF0D8F908B125832577606900F022F9F4
:109DD0002846F8BD0225FBE708B530B90A4A0B480A
:109DE00040F26A31FEF7DDFBFEE7C37E53B1FFF7B9
:109DF000C5FF012806D1064A044840F27331FEF738
:109E0000D0FBFEE708BD00BFE2BB040084BB04003A
:109E100055BC040038B51F4C2368834206D01E4A47
:109E20001E4840F24B11FEF7BCFBFEE7032914D895
:109E3000DFE801F0221402090123E376BDE838408F
:109E40001448FFF7BFBE0025A068E57600F0B8FB18
:109E5000E06800F0B5FB2583A58338BD0023E068EA
:109E6000237700F0ABFBB4F9181000F09DF9BDE8C2
:109E700038400848FFF782BF0023A068637700F0EE
:109E80009DFB054660680DF094F901B2284600F08C
:109E9000BDF9D3E7A87B00207EBC040084BB04008E
:109EA00010B5044630B90E4A0E4840F2F621FEF7CE
:109EB00078FBFEE7C37E8BB1FFF750FF012806D188
:109EC000094A084840F2FE21FEF76BFBFEE7E06816
:109ED00000F072FBBDE8104000F05FB9184610BDFD
:109EE000E2BB040084BB0400A1BC040037B51446E7
:109EF000054630B9124A134840F22231FEF751FBB1
:109F0000FEE7C37E0191B3B1B2B1FFF727FFE86866
:109F100000F052FB2246019900F016FA044628464A
:109F2000FFF72CFF012807D1074A064840F23A31D3
:109F3000FEF737FBFEE70124204603B030BD00BF2B
:109F4000E2BB040084BB040055BC0400F0B51C4C0B
:109F5000A57E85B035BB0126802701A904F1080044
:109F60008DF804600295ADF80C7000F0F7FAB0427D
:109F700002D1012005B0F0BD022301A904F10C00BB
:109F80008DF804300295ADF80C7000F0E7FA012866
:109F9000EFD004F1100000F039F804F1140000F0E3
:109FA00035F8A67607480023C4E900002383E3764A
:109FB000A38309F0D1FC003818BF0120DAE700BF05
:109FC000A87B0020CCBC04000148FFF773BE00BF93
:109FD000A87B00200A4601460148FFF78DBE00BF5E
:109FE000A87B00200148FFF75BBF00BFA87B0020D3
:109FF0000A4601460148FFF779BF00BFA87B002051
:10A000000148FFF7E9BE00BFA87B002000F004B8BC
:10A0100000F016B800F028B838B50546042000F066
:10A020007DFA0446286018B9044972200DF0A2FB9D
:10A0300000232360BFF35F8F38BD00BFF0BC040076
:10A0400010B5044618B9074985200DF093FB01218E
:10A05000204606F002FCBFF35F8FB0FA80F04009A3
:10A0600010BD00BFF0BC040010B5044618B9084983
:10A0700092200DF07FFB2368012B03D0044993202D
:10A080000DF078FBBFF35F8F0023236010BD00BF8E
:10A09000F0BC0400012B2DE9F041074688461E461E
:10A0A00004D1436809789954BDE8F081002BFBD0B6
:10A0B00005894068D318AB4210440CDDAC1AA4B239
:10A0C00022461FF0AFFB7868321B08EB0401BDE8A5
:10A0D000F0411FF0A7BB3246F9E700234381C3607C
:10A0E000438A03827047000008B5038903B1013B2E
:10A0F000994205DD0A4A0B489421FEF752FAFEE721
:10A10000438A8B420BD0C3898B4205D9064A054846
:10A110009C21FEF746FAFEE74182C91A018208BD7A
:10A1200003BE04009EBD040053BE0400018909B1B2
:10A13000013989B2FFF7D8BF70B5064614200D4625
:10A1400000F0ECF9306004462868AD8818B915B104
:10A15000284600F0E3F92B0405D5084A0848612198
:10A16000FEF71FFAFEE7606025812046FFF7B5FF86
:10A17000FFF7DCFF0020207070BD00BFA6BE04000A
:10A180009EBD04000A894968016082807047408949
:10A19000704780897047C0897047008A704700897E
:10A1A000013880B270470000002908B519D019DDC8
:10A1B000C3898B4205DA124A1248D821FEF7F1F919
:10A1C000FEE7438902890B4443814389934224BFBC
:10A1D0009B1A4381C38989B25B1AC381038A1944DC
:10A1E000018208BD028A4B42934205DD064A0548BA
:10A1F000DE21FEF7D6F9FEE7438902891344E1E741
:10A20000CCBE04009EBD04002BBF0400002908B58D
:10A2100019D019DD038A8B4205DA124A1248F4215B
:10A22000FEF7BFF9FEE7838902890B4483818389A6
:10A23000934224BF9B1A8381C38913FA81F3C3819C
:10A24000038A591A018208BDC2894B42934205DD37
:10A25000064A0548FA21FEF7A4F9FEE78389028938
:10A260001344E1E78ABF04009EBD0400E9BF040077
:10A27000F8B542898A4229D004898C4206D8144A0A
:10A28000144840F24F11FEF78CF9FEE716B20DB2FA
:10A29000AE42CABF63188B1A9B1AC7891BB2BB4256
:10A2A0000FDDAE42B8BF1219891A0BB2018A5A42A9
:10A2B0008A4206DD084A074840F22D11FEF771F97F
:10A2C000FEE71946BDE8F840FFF76EBFF8BD00BFD6
:10A2D00048C004009EBD04008BC00400F8B582890C
:10A2E0008A4229D004898C4206D8144A144840F284
:10A2F0006111FEF756F9FEE716B20DB2AE42CABFC3
:10A3000063188B1A9B1A078A1BB2BB420FDDAE4241
:10A31000B8BF1219891A0BB2C1895A428A4206DDA6
:10A32000084A074840F23F11FEF73BF9FEE719469D
:10A33000BDE8F840FFF76ABFF8BD00BFCBC004001E
:10A340009EBD04000FC1040038B5038A9342044641
:10A35000154609D313468289FFF79CFE204629B291
:10A36000FFF754FF002038BD0120FCE72DE9F04144
:10A3700080460D4616461C46CBB107897B1E9BB214
:10A380009C4219D8138AA34216D341682B19BB42A9
:10A3900029440FDD7A1B92B23046E41BFFF7D4FF4D
:10A3A0002544D8F80410AAB23046FFF7CDFF0020AC
:10A3B000BDE8F0812246F7E70120F9E738B5C38907
:10A3C0009342044615460CD313460A464189FFF7CB
:10A3D000CDFF012803D029B22046FFF7E5FE00207B
:10A3E00000E0012038BD38B514460D8AC289954277
:10A3F00028BF15462A46FFF7E1FF012801D004B126
:10A40000258038BDF8B505460E461C46174632B9BC
:10A41000154A16484FF4FD71FEF7C3F8FEE7C389ED
:10A42000A3421DD3012C04D143685B5C1370002050
:10A43000F8BDBCB1028941683319934231440CDD47
:10A44000921B38461FF0EEF928896968221A801B92
:10A45000324438441FF0E6F9E9E722463846F9E786
:10A460000120E5E72046E3E750C104009EBD04005B
:10A4700013460A464189FFF7C5BF838940681844DF
:10A48000704743898289934203D9013B981A80B26D
:10A490007047008903B90138801AF8E7002A08B527
:10A4A0001BD0008908DD824211DB0D4A0D4840F2C5
:10A4B0006521FEF776F8FEE75342834206DB0A4A3F
:10A4C000084840F26B21FEF76CF8FEE701441144A6
:10A4D00089B288429CBF091A89B2084608BD00BFEC
:10A4E0006BC104009EBD0400BBC1040010B50AB2DC
:10A4F00004464189FFF7D2FF6368184410BD10B5C8
:10A500000AB204464189FFF7C9FFA389834236BFD7
:10A510002289181A101A80B210BD000008B50B4924
:10A520000B4B0A68D31A0344B3F5005F05D9094AF7
:10A5300009481121FEF735F8FEE783071CBF031D0C
:10A5400023F0030010440860104608BD705C002032
:10A55000547C00200BC2040027C204007FB50646CD
:10A560000C200D46FFF7DAFF30602B785A1E012AC7
:10A57000044605D90E4A0F481321FEF712F8FEE7EC
:10A5800000F8043B291DFFF7D7FD01280ED06D46CA
:10A5900061682846FFF7F6FD95E8030002AB83E803
:10A5A0000300194604F10800FFF7C6FD04B070BDB2
:10A5B0005EC204007CC20400406870478068704737
:10A5C00010B504464068FFF788FDA068BDE810405C
:10A5D000FFF783BD37B50378012B044603D0022B68
:10A5E00014D003B030BD4068FFF7D1FD0190A068E2
:10A5F000FFF7CFFD01990546A068FFF739FE6068B7
:10A60000294603B0BDE83040FFF768BE4068FFF759
:10A61000C0FD0190A068FFF7BAFD01990546A0684A
:10A62000FFF75CFE6068294603B0BDE83040FFF7E5
:10A630001FBE000010B5074C0A44914201D1C0432F
:10A6400010BD11F8013B4340DBB254F8233083EADC
:10A650001020F2E7B8C2040072DF704773DF704762
:10A6600038B5012204460D46B0F81414D0F8100491
:10A6700001F0CAFC00B1057004F13C0204F58261EE
:10A6800004F15400BDE83840FFF7E6BF80F8301011
:10A690007047F8B504460F4600296DD000286BD0EE
:10A6A00091F87A301BB191F89830002B66D14FF0B9
:10A6B000000C84F802C007F178060FCE251D0FC5E7
:10A6C0000FCE0FC596E8070085E8070084F830C074
:10A6D000D7F8A4306363D7F8A830A3634FF6FF75AB
:10A6E00004F58263C4F82034A4F824540722614698
:10A6F00004F22640FCF754FE23780BB984F854503A
:10A7000094F82430002B14BFEE231F2304F15501CD
:10A71000C4F81014A4F8143404F21442384601F0BA
:10A7200086FA40BB94F82430002B14BFEE231F237D
:10A7300004F23121C4F81814A4F81C3404F21C42A9
:10A7400007F13C0001F073FAA8B9A369A4F84830F6
:10A750004FF480730125A4F85030636920640146EA
:10A7600084F83C50636404F13C0204F15400FFF7A8
:10A7700073FF00B92570F8BD0E20FCE70720FAE74B
:10A78000F8B5077804460D46002F00F00A8100F264
:10A7900026468170072200213046FCF701FEE3883F
:10A7A00013B1A378012B04D0E3794BB1A378022B2A
:10A7B00006D1636BABB1012284F82D2408209847A1
:10A7C00004F2274304F22D4113F8012B12B99942E8
:10A7D000FAD117466B1E032B57D8DFE803F0050BA1
:10A7E0000F1284F82D34EBE7A3791BB194F82430D1
:10A7F00003B95FB9E3790BB1002F48D1237A002B5D
:10A8000047D1637A002B0CBF00250425636BA5702C
:10A81000002B40D0033D012D3DD86279002A3AD06B
:10A8200094F82E24002A36D184F83024012284F8AA
:10A830002F240720984704F13C05182200212846C0
:10A84000FCF7AEFDE26A0123511E994284F83C30C8
:10A8500001D9042A00D1D3B294F8242084F85130CD
:10A8600042B1A36A591E012902D9042B18BF012342
:10A8700084F85230A178002384F8503004291BD882
:10A88000DFE801F0770D223559000025BEE70225EB
:10A89000BCE70325BAE7002384F82F34CBE7C4E9EB
:10A8A0001063C4F820340223012284F83C30802352
:10A8B00084F83120A4F84830A378002B5CD1636B76
:10A8C000002B6AD1002067E00223002A84F831308F
:10A8D00014BF0723032384F83C302369A4F84830CD
:10A8E0000023C4F82034E36826646364E4E7636902
:10A8F0006364A369A4F8483012B1062384F83C309D
:10A900006379B3B194F82E349BB994F8303483B1A1
:10A91000022384F8503004212046FFF7A1FE0028CE
:10A92000CAD1052384F8313004F58263C4F8203499
:10A93000C2E70323F6E7E3696364236AA4F84830B7
:10A9400012B1062384F83C30637983B194F82E3435
:10A950006BB994F8303453B1022384F85030042199
:10A960002046FFF77DFE0028A6D10623DAE7042360
:10A97000D8E784F831309FE7D4F820142A4604F150
:10A980005400FFF769FE38B994F8301094F8540079
:10A99000FFF764FE002892D0F8BD94F83100984784
:10A9A00090E70820F8E710B50388112B0C460AD071
:10A9B000262B1FD0102B05D1C37B012B02D18388FE
:10A9C000A1F8243410BD002381F82E348288B1F818
:10A9D00024349A42F6D10B79002BF3D10121204681
:10A9E000FFF7CEFE0028EDD0A36B002BEAD0BDE828
:10A9F00010401847037A013B012BE3D889780523DF
:10AA00000131B1FBF3F303EB8303C91AC9B2E6E7E3
:10AA100010B590F82D344BB1002480F82D44072256
:10AA200000F226401EF0FEFE204610BD0820FCE786
:10AA300090F82F345BB1009900230A4314BF012220
:10AA40001A4680F82F3480F83024184670470820C2
:10AA5000704770B50546164608460AB90E2070BD07
:10AA600000231360002DF9D02B68002BF6D0EB8863
:10AA700013F003040ED101F037FDC0B214280BD03F
:10AA80002B7983420AD9EA882B6800FB02303060B8
:10AA90002046E4E70720E2E70520E0E70420DEE7C0
:10AAA000A8DF704737B505460C46E1B1D8B1038839
:10AAB000502B18D14B7CB3B1C2884B899A4212D12A
:10AAC000038A022B0FD10B686BB1123001F085FDA8
:10AAD000AB88ADF8063080F001008DF804002368E3
:10AAE00001A92046984703B030BD2DE9F0410E463C
:10AAF00090B0054600286AD0002968D00B68036032
:10AB00000B794374FF2303742A1D012041F60F03C0
:10AB100002A98DF80A00ADF80830FFF7C1FF04461E
:10AB200000284ED12022337B8DF8033001460DEBF7
:10AB30000200FCF735FC42F61923ADF820304FF047
:10AB4000011309930DF103030A936B7C9DF82D20EB
:10AB5000A8881B0143F0020322F0120203F0120343
:10AB600013438DF82D30B37B8DF83330AA1D737BE2
:10AB70008DF8313008A901F043FD044608BBB168E7
:10AB800019B30DF10408404601F02BFD214607469C
:10AB9000142203A8FCF704FCB8B242F60813ADF87F
:10ABA0000C30ADF81600F37BADF81A0005F10E027B
:10ABB000E8888DF8123003A9CDF81C8001F0CAFD99
:10ABC0000446204610B0BDE8F081E881F9E70E2484
:10ABD000F7E7A8DF70470000F0B5074689B01446D4
:10ABE0001E460D4621B9134A842128460CF0A8FCC4
:10ABF00024B9104A852120460CF0A2FC2022002115
:10AC00006846FCF7CDFB9DF80D300E9AADF800704C
:10AC100043F002038DF80D30074BADF8044018885F
:10AC2000ADF80640694602958DF8116001F0E8FC28
:10AC300009B0F0BDC0C604008C9C002030B587B0C0
:10AC400041F60A035C4AADF80C30044603A9012022
:10AC50008DF80E00FFF7BDFF0546002849D1228878
:10AC6000002A49D1228952B1544B0093E16894F8EB
:10AC70003C3042F62420FFF7AFFF002847D1228A5C
:10AC800052B14F4B0093616994F83C3042F6252055
:10AC9000FFF7A2FF00283AD1228B52B1494B009313
:10ACA000E16994F83C3042F62720FFF795FF002831
:10ACB0002DD1228C4AB1444B0093616A94F83C3008
:10ACC00042F62620FFF788FF08BB228D4AB13F4B92
:10ACD0000093E16A94F83C3042F62820FFF77CFFAD
:10ACE000A8B9236BABB9616B002938D1A36B002BDA
:10ACF00042D1284607B030BD354B0093616894F8C7
:10AD00003C3042F62920FFF767FF0028AAD005460D
:10AD1000EFE71A688DF810201A68120A8DF81120D2
:10AD20005A888DF81220DA788DF813205A688DF839
:10AD300014209B688DF815301A0A1B0C8DF81730FB
:10AD4000244B8DF816200093082294F83C3004A977
:10AD500042F62320FFF740FF0028C4D0D7E71E4B60
:10AD60000A790093096894F83C3042F62A20FFF7EC
:10AD700033FF0028BAD0CAE71A788DF810205A8815
:10AD80008DF81120120A8DF812209A888DF8132060
:10AD9000120A8DF81420DB888DF815301B0A8DF807
:10ADA00016300E4B0093072294F83C3004A942F66B
:10ADB0005020FFF711FFAAE78C9C00206C9C00201C
:10ADC000849C00205C9C0020549C00208E9C0020D1
:10ADD000649C0020969C00207C9C0020749C002099
:10ADE000A8DF7047A9DF7047ACDF7047AEDF704760
:10ADF000B0DF704764DF7047F0B513241C80D0F8D3
:10AE00007C41059E4CBBD0F88041002C49D1D0F844
:10AE10008441002C67D10020F0BDD0F87C7137F858
:10AE200034401F883C441C80877CECB2A742EAD99E
:10AE30000CFB04070135B7F814E08E454FEAC40750
:10AE4000EBD142F64D23138001239370D470D0F8D8
:10AE50007C21D25B32800120DEE700254FF00A0C16
:10AE6000E2E7D0F8807137F834401F883C441C80FA
:10AE700090F87870ECB2A742C9D90CFB04070135F1
:10AE8000B7F87AE08E454FEAC407EAD142F64D237F
:10AE9000138002239370D470D0F88031DB5B338051
:10AEA000D9E700254FF00A0CE2E7D0F8847137F8B3
:10AEB00034401F883C441C8090F8DE70ECB2A742FE
:10AEC000A9D90CFB04070135B7F8E0E08E454FEA3D
:10AED000C407EAD142F64D23138003239370D47044
:10AEE000D0F88431DAE700254FF00A0CE4E72DE9C9
:10AEF000F04315468BB004468846D0F87801A988FF
:10AF00006A461E46FFF7A5FD10B1636803B1984776
:10AF1000009F8FB30021102201A8B5F80E90FCF716
:10AF20003FFA01238DF804300023ADF80830BDF856
:10AF30004830A888ADF80C90A3EB0903ADF80E30AB
:10AF40009DF80A304E44374443F0010301A90497A9
:10AF50008DF80A30FFF74CFF10B1636803B19847D2
:10AF600023684BB1D8F80000069007228DF8142012
:10AF7000099505A9204698470BB0BDE8F0832DE957
:10AF8000F04186B005460C4616468988D0F878010F
:10AF90006A461F46FFF75DFD10B16B6803B1984725
:10AFA0000098F0B1228AE389BDF8301013448B4237
:10AFB00017DC04F11208414638441EF033FC2B68BC
:10AFC0007BB104228DF80420E2893068ADF80C20B2
:10AFD000228A0290CDE90484ADF80E2001A928460A
:10AFE000984706B0BDE8F0812DE9F0418EB00646E5
:10AFF0000F4690460021202206A8149C1D46FCF70F
:10B00000CFF942F64D23ADF818303B788DF8253056
:10B0100023788DF8293063788DF82A30A3788DF85D
:10B020002B30159A3089ADF81C80012306A98DF8C4
:10B0300024308DF8273001F0E3FAF8B914220146E4
:10B0400001A8FCF7ADF942F60813ADF804302378F7
:10B050008DF80A30294663788DF80B30684601F088
:10B06000C0FA159ACDF814D080B2ADF80E00ADF844
:10B07000120001A932F8080B01F06CFB0EB0BDE81C
:10B08000F08170B5138A022B86B004460E46154631
:10B0900013D103688BB102F1120001F09EFA00286F
:10B0A00018BF02233068029008BF03238DF80430D4
:10B0B0000595236801A92046984706B070BDF0B5F4
:10B0C000144689B005460F462022002168461E46D8
:10B0D000FCF766F962788DF81220111E4FF0080314
:10B0E000ADF8043018BF01219DF80D302889ADF866
:10B0F0000070C90023F01A0341F0120119432378AC
:10B100008DF81130A3788DF80D108DF8133032467C
:10B11000012369468DF80F3001F072FA09B0F0BDD5
:10B1200030B587B004460D46D0F87801898801AA69
:10B13000FFF78FFC10B1636803B19847019BFBB127
:10B140001022002102A8FCF72BF901238DF808300A
:10B15000ADF81230019B05939DF80E30A8880022AF
:10B16000ADF80C2043F00103EA89ADF8102002A9E4
:10B170008DF80E30FFF73CFE10B1636803B19847BD
:10B1800007B030BDF0B50388502B8BB005460C4698
:10B1900057D0512B00F00E81102B3FD18188D4F86D
:10B1A0007801002304AA0493FFF753FC10B16368ED
:10B1B00003B19847049888B3D4F87C11002934D09F
:10B1C000A67C00231322B3422AD3D4F8801121B1E4
:10B1D00094F878600023B34229D3D4F8841121B1C4
:10B1E00094F8DE600023B34226D30021FCF7D8F8A0
:10B1F00063899BB1049B01261E700822002105A8CB
:10B20000FCF7CEF8049B6189A888059605AA0693E9
:10B21000FFF7EAFD10B1636803B198470BB0F0BDCA
:10B2200031F8337001333A44CDE71322CDE731F8DA
:10B23000337001333A44CEE731F8337001333A4486
:10B24000D1E7C188B4F86E01022300228842ADF82C
:10B250000C30ADF80E201ED1A988D4F8780104AACC
:10B26000FFF7F7FB10B1636803B19847049A002A0F
:10B27000D4D02B8A012BD1D1AB7C0BB1012BCDD1FA
:10B280008DF8143053702368002BC7D0099505A999
:10B2900020469847C2E7608988421AD1A988D4F825
:10B2A000780104AAFFF7D5FB10B1636803B1984792
:10B2B000049A002AB2D02B8A012BAFD1AB7C1BB1F0
:10B2C000012BABD1062100E005218DF8141013707D
:10B2D000D9E7B4F8520188420BD142F62223ADF8E7
:10B2E0001430ADF816202A4605A92046FFF7C9FEFE
:10B2F00094E7B4F84E01884207D142F62221ADF816
:10B300001410ADF8162008220DE0B4F856318B4227
:10B3100012D142F63223ADF814300A23ADF81620CC
:10B32000ADF80C300122ADF80E20009205AA294696
:10B330002046FFF724FE71E7B4F862318B4202D158
:10B3400042F63323CBE7B4F85E318B4217D0A07CB2
:10B3500004F10E060A27D3B298421AD80DF10E0353
:10B36000009305AA03AB2046FFF746FD00283FF4F3
:10B3700055AFBDF80E300093BDF80C30D6E742F65D
:10B380003323ADF814300B23ADF81620ADF80C3094
:10B39000B9E7013207FB02FC36F80CC08C45DAD164
:10B3A00042F64D22ADF8142001228DF816208DF8BA
:10B3B000173098E78079022300220128ADF80E307B
:10B3C000ADF810207FF42AAF298966898E4204D116
:10B3D00029462046FFF7A4FE20E7B4F84E618E42CE
:10B3E0000AD142F62221ADF81410ADF81620082239
:10B3F000ADF8102000920FE0B4F856318B4211D115
:10B4000042F63223ADF814300A23ADF81620ADF819
:10B410000E30ADF8100000902A4605A92046FFF72F
:10B4200066FDFBE6B4F85E318B4209D142F6332368
:10B43000ADF814300B23ADF81620ADF80E30D6E77A
:10B4400004AB009305AA0DF10E032046FFF7D4FCD0
:10B4500000283FF4E3AEBDF810300093BDF80E3085
:10B46000DAE72DE9F04F0C4697B00546002800F0CA
:10B470001482002900F011828B7A0A2B00F290804E
:10B480000B7C0A2B00F28C800B7E0A2B00F288804A
:10B490000B6803604B6843608B7A83740B7C80F885
:10B4A00078300B7E80F8DE3005F10802012041F68D
:10B4B000120304A98DF81200ADF81030FFF790FCCC
:10B4C0000646002878D1074694F83620FBB29A4207
:10B4D00068D8238953B30127202200210EA894F8AD
:10B4E0003C9094F83D808DF82470FBF759FF42F6AC
:10B4F0004E23ADF838304FF001130F9309AB109382
:10B500009DF8453028898DF8499023F0060343F0D3
:10B51000060305F10A020EA98DF845308DF84A8020
:10B520008DF8477001F06CF8002845D1A37A002B04
:10B5300045D1237C002B7CD1237E002B40F0AD80B5
:10B54000202200210EA8FBF72BFF42F64B23ADF87B
:10B550003830A38CADF83C30ADF83E30236A109300
:10B5600094F82C308DF84930BDF84430288923F404
:10B570003F7323F0030343F4007343F0010305F525
:10B58000A2720EA9ADF8443001F03AF8A0B994F8CF
:10B590002630002B00F0DF80A36A002B40F06E8184
:10B5A000072009E0A16B288931F813100EAAFFF7D4
:10B5B00019FC0137002887D017B0BDE8F08FE36889
:10B5C000002BB6D04FF000084FF00A09D4F80CB0A9
:10B5D0005FFA88F70BEBC70A012200210EA8FBF7E0
:10B5E000DFFE9AF805209DF83830003A18BF012296
:10B5F000D20023F01A0342F012021A438DF83820C9
:10B600003BF8372009FB07570AF10403143700936E
:10B6100001970AF102030EA92846FFF7E5FC00286E
:10B62000CAD1A27A08F101085FFA88F39A42CDD80C
:10B630007FE76369002B3FF47FAF4FF000084FF0C6
:10B640000A09012200210EA8D4F814B0FBF7A8FEC5
:10B650009DF8383023F00E035FFA88F743F00E03AD
:10B660008DF838303BF837200BEBC70A09FB07573A
:10B670000AF104037A37009301970AF102030EA935
:10B680002846FFF7B1FC002896D1227C08F101087A
:10B690005FFA88F39A42D4D84EE7E369002B3FF46F
:10B6A0004FAF4FF00A08012200210EA8D4F81CA0C9
:10B6B000FBF776FE9DF8382022F00A02F7B242F03E
:10B6C0000A028DF838203AF837200AEBC70908FB40
:10B6D000075709F10403E0370093019709F10203CA
:10B6E0000EA92846FFF780FC00287FF465AF227E74
:10B6F0000136F3B29A42D6D822E7A06A3A460DF153
:10B700000F0100EB8600FFF775FB00287FF454AFB4
:10B710000146142209A8FBF743FE42F60713ADF8D1
:10B72000243094F82C308DF82A30B5F844019DF877
:10B730000F30ADF82E3005F5A67209A9ADF83230FC
:10B740000D9701F007F800287FF436AF013694F822
:10B7500026309E42D1DB237A93B305F5A77304F11B
:10B76000420242F622212846FFF7A9FC00287FF476
:10B7700023AF014620220EA8FBF712FE42F6322329
:10B78000ADF838309DF84530288923F00E0343F09A
:10B790000E0301228DF8453094F84530ADF83C2079
:10B7A0008DF849308DF8472094F846308DF84A30AE
:10B7B00005F5AB720EA900F023FF00287FF4FCAE64
:10B7C000637A002B5DD1238E8DF824301B0A8DF80F
:10B7D000253094F832308DF82630202294F833301A
:10B7E0008DF8273000210EA8FBF7DAFD42F64A2338
:10B7F000ADF838309DF84530288943F002038DF8C4
:10B80000453094F834308DF8493009AE4FF00413C8
:10B8100005F5B3720EA90F93109600F0F1FE002803
:10B820007FF4CAAE01468DF8240020220EA894F8B9
:10B830003E70FBF7B5FD42F64C23ADF838309DF86D
:10B84000453028898DF84A7043F004038DF845305F
:10B8500005F5B7724FF001130EA9CDE90F3600F0D0
:10B86000CFFE00287FF4A8AEE368C5F87C31636999
:10B87000C5F88031E369C5F884319DE6064605AF19
:10B8800065E705F5AF7304F13F0242F63321284620
:10B89000FFF715FC002896D08EE60E208CE62DE9E9
:10B8A000F04186B00E46BDF8308015461F4604466E
:10B8B00000284DD0002B4BD0837C8B424AD94FF6C9
:10B8C000FF73984548D0ADF80220D0F8780101AA5E
:10B8D0004146FFF7BEF878BB019BD4F87C211333B7
:10B8E0000193C3B29E422AD832F83630AB422DD3F0
:10B8F0002A46394601981DF095FF0021102202A822
:10B90000FBF74EFD0A2101FB06444046A38AADF831
:10B91000083001238DF80A300023ADF80C3002A95D
:10B920000DF10203CDE90437FFF760FA20B9049B5B
:10B930001B88AB4218BF0C2006B0BDE8F08132F87E
:10B940003010019B0B4401930130CAE70C20F3E750
:10B950000E20F1E70720EFE70820EDE7F0B50C46F1
:10B9600087B016461D460746002836D0AAB34FF6C4
:10B97000FF739D4233D0ADF80210D0F8780101AAD0
:10B980002946FFF766F830BB0198082C00F1020049
:10B99000019003D8224631461DF044FF00211022B9
:10B9A00002A8FBF7FDFCB7F84E31ADF808300123D3
:10B9B0008DF80A300023ADF80C3002A90DF1020316
:10B9C0002846CDE90436FFF711FA20B9049B1B88FD
:10B9D000A34218BF0C2007B0F0BD0E20FBE70820E3
:10B9E000F9E72DE9F04788B08946BDF84060BDF819
:10B9F000485017469A46044600284CD04FF6FF732D
:10BA00009D424AD006F103081FFA88F3082BADF8CF
:10BA100002303ED8D0F8780101AA2946FFF719F87C
:10BA2000A0BB019B8DF808900B3301938DF8097032
:10BA30008DF80AA02EB1119932460DF10B001DF0C0
:10BA4000F1FE02AEBDF80220019831461DF0EAFE7B
:10BA5000102200210DEB0200FBF7A2FCB4F85E31CE
:10BA6000ADF8103001238DF812300023ADF81430FA
:10BA700004A90DF102032846CDE90636FFF7B6F911
:10BA800020B9069B1B88434518BF0C2008B0BDE8B1
:10BA9000F0870C20FAE70E20F8E70820F6E72DE9FA
:10BAA000F743DDF82C900E4690461F4605460028C9
:10BAB0003DD0B9F1000F3AD090F878308B4238D9A8
:10BAC000BDF82810D0F8780101AAFEF7C2FF04469D
:10BAD000C8B9019BA97C133301930346DAB29142A2
:10BAE00015D8D5F880110023DAB2964218D831F86B
:10BAF000362008EB070393421DDC01994246394486
:10BB000048461DF08FFE204603B0BDE8F083D5F80F
:10BB10007C2132F83300019A024401920133DDE7BF
:10BB200031F83300019A024401920133DCE70E241C
:10BB3000E9E70724E7E70924E5E76DDF704779DFE8
:10BB400070477DDF704764DF70472DE9F04F85B0A7
:10BB500000250E9CBDF83CB0B4F800A0019107464A
:10BB600090461E46A9463A884A450DDC45B12388D1
:10BB7000013BA3EB0A039BB2FF2B3AD806F80A302D
:10BB8000002005B0BDE8F08F7A6852F829000390D4
:10BB900000220DF10B0103A8FFF7D5FF0028F0D11B
:10BBA0009DF80B20424521D12288002D14BF002092
:10BBB000022002EB0801014459451ADC3DB901326B
:10BBC00092B2019B2280B3542288013222802288C3
:10BBD0000DF10B01324403A8FFF7B5FF0028D0D1C7
:10BBE00021889DF80B200A442280012509F10109D2
:10BBF000B9E70C20C5E72DE9F341089FBDF8248083
:10BC00001546CDE90078022204461E46FFF79DFF47
:10BC100050B93346102229462046CDE9087802B0B3
:10BC2000BDE8F041FFF791BF02B0BDE8F0812DE91A
:10BC3000F04F00231788138090F82D3085B006460A
:10BC40000D46144653B3082F01D80C2027E102A853
:10BC5000FFF773FF002840F0228123880822EA546E
:10BC6000238801339BB21B222380EA5420880130B1
:10BC700080B2208006220DF1090128441DF0D2FD7A
:10BC800023889DF8082006339BB212F0FE0218BFED
:10BC900001222380EA54238801332380B378FBB147
:10BCA00023880433BB42D0D802A8FFF748FF0028FE
:10BCB00040F0F58023880322EA54238801339BB2A5
:10BCC00019222380EA542388BDF8082001339BB24F
:10BCD000E9182380EA54120A4A7023880233238029
:10BCE000F2789AB12388D91CB942AED80221E9541E
:10BCF000238801339BB201212380E95423880B441C
:10BD00009BB22380EA5423880B4423807268AAB133
:10BD10002388D91CB94298D8022192F90020E9540D
:10BD2000238801339BB20A212380E95423880133FD
:10BD30009BB22380EA542388013323803389002B6C
:10BD400040F0A180338A5BB1CDE900472B46072242
:10BD5000032106F11000FFF74EFF002840F09F80FE
:10BD6000338B5BB1CDE900472B461522142106F138
:10BD70001800FFF740FF002840F09180326A002A47
:10BD800040F09080D6F82480B8F1000F30D0B8F899
:10BD900004302188981C8A1C0244BA423FF655AFF1
:10BDA000FE283FF652AF03336B54238801339BB216
:10BDB000FF222380EA54238801339BB22380B8F802
:10BDC0000020EA54E918120A4A702088023080B232
:10BDD0002080B8F804205AB1D8F8081000296BD098
:10BDE00028441DF01FFD2388B8F804201344238045
:10BDF00096F82C30002B40F09880307800284ED0F8
:10BE00003388012B58D0228802F1020CBC453FF642
:10BE10001CAF012805D17378023313449F42FFF40D
:10BE200014AF023FBF1ABFB202A905EB0C00ADF878
:10BE30000870FFF786FE90BB3178BDF80830022904
:10BE400000F0B98072789A4202D39F4280F0B180AC
:10BE5000012940F0B280974293B2C0F0AE80ADF8B5
:10BE600008300821BDF80830FE2B3FF6EEAE2288E0
:10BE70000133AB542288013292B22280A954228825
:10BE8000134423800BE0CDE900472B460622022114
:10BE900006F10800FFF7AFFE00283FF453AF05B0EE
:10BEA000BDE8F08FB4F800C00CF10603BB423FF6CA
:10BEB000CCAE1188052901D80720F0E76FF4486E51
:10BEC00001EB0E039BB24FF27D3E7345F4D95388CC
:10BED000052BF1D96FF44860181880B27045EBD982
:10BEE0004FF6FF70814201D09942E5D8052305F84D
:10BEF0000C30238801339BB212212380E95423881C
:10BF000001339BB223801188E954E818090A417073
:10BF1000238802339BB223805288EA54E918120A1C
:10BF20004A702388023323802CE7B36A002BC3D0E6
:10BF30004FF000084FF00C0A4FF0160BB16A5FFA91
:10BF400088F20AFB02F201EB0209B9F80430981CEE
:10BF5000FE283FF67AAE208803332B542388013322
:10BF60009BB2238005F803B0238801339BB2238062
:10BF70008A5AEA54E918120A4A702088023080B2BC
:10BF80002080B9F804205AB1D9F80810002993D0BC
:10BF900028441DF047FC2388B9F80420134423806B
:10BFA00096F82C2008F101085FFA88F39A42C5D868
:10BFB00023E7092156E79F42FBD2ADF8087050E70E
:10BFC00030B5C8B1F2B10024651C8D4206DA15887F
:10BFD000A54212D805196D789D420ED1A14211D902
:10BFE000005D48B1013880B230B10234A3B210FA1A
:10BFF00084F4A14206DB138030BD055D01352C447D
:10C00000A4B2E1E70020F7E713B513460022ADF82C
:10C0100006200DF106020446FFF7D2FF10B1BDF86D
:10C020000630E01802B010BD75DF704776DF70474C
:10C030007ADF70477BDF7047034B1A8882420CBF60
:10C0400018460020704700BFBC9C0020024B9B6933
:10C0500003B11847704700BFA09C002073B585B29C
:10C060002846FFF7E9FF044638B3174E027A337BC0
:10C070009A420CD200F10A012846FFF7D5FFF0B131
:10C0800011281AD002B0BDE87040FFF7DFBF0023CF
:10C090000372337C43B13B212846FFF7C7FF30F0E2
:10C0A000080301D0FFF7D2FF736933B100228DF886
:10C0B0000420ADF8065001A8984702B070BD237A5D
:10C0C00001332372F9E700BFA09C002037B50B466F
:10C0D000497A0F4A79B9D2E901141D7A0246002D36
:10C0E00018BF2146586806F01DFE78B103B0BDE8C0
:10C0F0003040FFF7ABBF00211972536933B1012201
:10C10000ADF806008DF8042001A8984703B030BDB3
:10C11000A09C00204B8802889A4212D842889A42FA
:10C120000FD380888B8840F2F311884294BF021AA3
:10C13000421A9A4205D80844984234BF0020012090
:10C14000704700207047000070B50388122B01462D
:10C1500059D004D8102B1ED0112B44D070BD502BB9
:10C16000FCD12F4BC288DB899A42F7D1038A022B7C
:10C17000F4D186883046FFF75FFF05460028EDD0F2
:10C1800001F1120000F029FA38BB686806F000FEE1
:10C190000028E3D009E0C37B012BDFD14FF6FF700D
:10C1A000FFF74AFF054620B90420BDE87040FFF7BD
:10C1B0004DBF8E881B4A0680002303721368C0F8A7
:10C1C0000A305368C0F80E3010310A30FFF7A2FF72
:10C1D000134B6872DB89002BC0D129463046BDE87D
:10C1E0007040FFF773BF8088FFF726FF04460028E2
:10C1F000B4D0406806F0CCFD08B1FFF727FF4FF63A
:10C20000FF732380AAE786883046FFF715FF0546AF
:10C210000028A3D008310A30FFF77CFF6872DCE702
:10C22000A09C0020D09C0020F8B5064648B30546E7
:10C230000FCD154F3C460FC495E8070084E8070072
:10C240003068124C3C60B0B1FFF7F2FEC0B9326802
:10C2500013682360536863600D480E4A4FF6FF73FE
:10C2600003800D4B40F8043F002106F039FD002803
:10C2700018BF032004E02046FFF7DCFE0028EBD0C7
:10C28000F8BD0E20FCE700BFA09C0020D09C002041
:10C29000BC9C00205DC00200D89C0020F7B517466A
:10C2A00001900E4691B1019C6CB100252C462946A7
:10C2B00001A804F016FC18B13946A8B2B047013401
:10C2C0000135142DF3D1204603B0F0BD0C46FAE73A
:10C2D0000AB104F0E5BB04F0FABB73B50191019C0F
:10C2E00006466CB100252C46294601A804F0F9FB4E
:10C2F00018B106EB440301349D800135142DF3D1B0
:10C300003046346002B070BD2DE9F0470388848860
:10C31000103B8CB005460A2B23D8DFE803F0064219
:10C3200022222222222222674900DFF8F080D8F858
:10C330000830DB430093D8F80410684604F0BCFAD8
:10C34000009901A8FFF7C9FF0DF108090027019B1B
:10C350009F4209D3132C14D9294AF02104200BF051
:10C36000EFF80CB0BDE8F08739F802AB00260136D3
:10C37000514608EB860004F0AAFB1E2EF7D10137C8
:10C38000E5E72048214604F08BFB1F48214604F0D6
:10C3900087FBEB7B022BE4D11C48214604F080FB99
:10C3A000DFE7184821460CB0BDE8F04704F08FBB2A
:10C3B000027A17483F2A4FEA1215214694BF0022FD
:10C3C0000122FFF785FF022D94BF002201221148B0
:10C3D0002146FFF77DFF012D0F4894BF0022012267
:10C3E00021460CB0BDE8F047FFF772BF037A002B7F
:10C3F000B7D1427A0648C2F3C0022146F1E700BF36
:10C4000035C70400009D0020FC9C0020049D0020F6
:10C41000109D00200C9D0020089D0020F89C00200D
:10C420001328014602D8024804F05BBB0020704785
:10C43000FC9C002007B50190FFF7F2FF019930B195
:10C44000044804F04EFB002814BF0220012003B072
:10C450005DF804FB049D002007B50190FFF7E0FFA5
:10C46000019930B1044804F03CFB002814BF0220BD
:10C47000012003B05DF804FB009D002007B501908A
:10C48000FFF7CEFF019928B1044803B05DF804EB33
:10C4900004F027BB03B05DF804FB00BF089D00203B
:10C4A00007B50190FFF7BCFF019928B1044803B01C
:10C4B0005DF804EB04F015BB03B05DF804FB00BFAE
:10C4C0000C9D002007B50190FFF7AAFF019928B144
:10C4D000044803B05DF804EB04F003BB03B05DF85F
:10C4E00004FB00BF109D002010B50446FFF798FF25
:10C4F000002814BF2046142010BD000008B51821E4
:10C50000024804F0F7FAC0B208BD00BFF89C002052
:10C5100070B50A4E054630460C4604F0E2FA58B1B2
:10C520002846FFF77DFF38B10734294606EB840023
:10C53000BDE8704004F0D5BA002070BDF89C002022
:10C54000F8B50B4F054638460C46164604F0C9FAB6
:10C5500060B12846FFF764FF40B1073432462946F0
:10C5600007EB8400BDE8F840FFF7B2BEF8BD00BF9E
:10C57000F89C002073B50B4D019204460E4601460F
:10C58000284604F0AEFA50B1063405EB8404019A53
:10C590006068314602B0BDE87040FFF77FBE02B070
:10C5A00070BD00BFF89C0020AADF7047ABDF70476A
:10C5B000002301380B70042806D8DFE800F00306DA
:10C5C000080A0C0011230B7070472123FBE731236D
:10C5D000F9E71223F7E72223F5E7008800F00100CE
:10C5E00070470B7803704B7843700220704738B562
:10C5F000044608460D461DF0A3FE6560208038BD48
:10C60000F0B58B7891B0012B0C4638BF01238DF823
:10C610000E3005460B88ADF80C30002116466846F2
:10C620000322FAF7BDFE607C6946FFF7C1FFA07CDC
:10C630000DF10101FFF7BCFFE27B237B217D43EA83
:10C64000C203227C43EA02139DF80220002922F053
:10C65000190203F0190314BF02210121134361F3EE
:10C6600042031C22002109A88DF80230FAF798FE37
:10C67000637B13F0300F15D002AF03220021384640
:10C68000FAF78EFEE07C0DF10901FFF791FF11230F
:10C690008DF808309DF80A300E97012262F34203AC
:10C6A0008DF80A30637B8DF824301422A37B8DF83B
:10C6B0002530002104A8FAF773FE03AB0493A38886
:10C6C000ADF81C30A368CDF814D01BB1E288ADF8EA
:10C6D00018200893A369002B31D001AF0322002159
:10C6E0003846FAF75DFEA3691A88ADF82C205A88FF
:10C6F000ADF82E205A680D97187B0A923946FFF73D
:10C7000057FFA3690DF10501587BFFF751FFA3699E
:10C710009A7A197A41EAC201DA7A9B7B41EA0211DC
:10C720009DF80620002B01F0190122F0190214BF18
:10C7300002230123114363F342018DF80610E369DC
:10C7400003B10C93334604AA09A92846FFF72CFF2E
:10C7500011B0F0BDF0B50C4689B005461646002173
:10C76000142203A8FAF71CFEA378A079012B38BF86
:10C7700001238DF80A3001AF2388ADF8083039461F
:10C7800002AB0393FFF714FFE0790DF10501FFF70A
:10C790000FFFE2786379217A049743EAC203227992
:10C7A00043EA02139DF80620002922F0190203F043
:10C7B000190314BF02210121134361F342038DF8D1
:10C7C00006306389ADF81430A389ADF81630E389DB
:10C7D000ADF8183032462369079303A92846FFF7BE
:10C7E000E5FE09B0F0BD90DF7047A5DF7047B5DF0B
:10C7F00070470000F0B52D4E7388032B85B00746B7
:10C800000D460BD92A482B4C241AE40824040A4666
:10C810003B46294944F0040005F053FF00236A46D3
:10C8200002A93846ADF80850ADF80A50ADF80C3002
:10C83000ADF80E300093ADF80430FFF7D4FF054695
:10C8400088B373886BB106F0B3F81A4C1B490346E2
:10C850001748241AE40824043A4644F0010005F07D
:10C8600030FFBDF80020BDF8023052EA03010BD0C2
:10C87000718849B10E480F4C1149241AE408240468
:10C8800044F0010005F01DFFBDF804205AB1738883
:10C890004BB10748074B0B491B1ADB081B0443F03D
:10C8A000010005F005FF284605B0F0BD905E0020B0
:10C8B000E020050088210500A3C70400D2C70400BA
:10C8C0001CC804005BC8040078B14FF01713036064
:10C8D0001B2303711723C380038141F61B320023FE
:10C8E000016143818281184670470E207047000025
:10C8F0002DE9F043828887B005460C46002A40F0B7
:10C90000A0810388242B00F0058129D8112B00F089
:10C91000CC80232B00F04881102B76D0A37A002BFB
:10C9200000F08F81E1880020FFF75FFF03460028B9
:10C9300040F072814FF480726281A64A5288032AC5
:10C9400040F27F81A448A54DE288A5492D1AED0843
:10C950002D0445F0040007B0BDE8F04305F0B1BE7A
:10C960003A2B00F0AA80552BD8D19A4EC5887388EF
:10C97000032B0AD9984B99489A49C01AC008000459
:10C980002B4640F0040005F09CFEE3887088172DCC
:10C990002A4638BF17229A4228BF1A460021032888
:10C9A0002281A1720AD98D488B4D0091401BC0088D
:10C9B00000048D4940F0040005F08DFEE188002060
:10C9C000FFF715FF70B1738863B105F0F1FF834B7A
:10C9D0008649024680481B1ADB081B0443F001000D
:10C9E00005F066FEE27A002A98D12369002B95D0E3
:10C9F00040F67721ADF812202289ADF81010ADF87D
:10CA0000142004A92046984788E70B790B73C37B51
:10CA1000012B24D0022B25D0E2882389934215D202
:10CA20006C4D6B88032B0AD96B4B6C487049C01A4C
:10CA3000C0080004002340F0040005F042FEE18835
:10CA40000020FFF7D2FE78B90123E372217B637BDC
:10CA50008B42BFF463AF0020FFF7CCFE5EE70B888C
:10CA6000E380D9E74B88FBE711286A880FD10123BF
:10CA7000032AA372EAD95948574B5E49C01AC00825
:10CA80000004002240F0040005F012FEDEE7002A58
:10CA9000DCD005F08DFF514B574902464E481B1A1A
:10CAA000DB081B0443F00100EEE71723CB800B816A
:10CAB00041F61B334A818B8130E74189E3889942F3
:10CAC00028BF1946434B5B88172938BF1721032B12
:10CAD00021810BD9404B4148C01AC00800041346BD
